:100000000C9495070C94BD070C94BD070C94BD0788
:100010000C94BD070C94BD070C94BD070C94BD0750
:100020000C94BD070C94BD070C940F120C947E1217
:100030000C94BD070C94BD070C94BD070C94BD0730
:100040000C94BD070C94BD070C94BD070C94BD0720
:100050000C94BD070C94BD070C94BD070C94B01410
:100060000C94BD070C94BD070C94BD070C94BD0700
:100070000C94BD070C94BD070C94BD070C94BD07F0
:100080000C94FA140C94BD070C94BD070C94BD0796
:100090000C94BD070C94BD070C94BD070C94BD07D0
:1000A0000C94BD070C94BD070C94BD070000000024
:1000B0000000000000000000000000000000000040
:1000C0000000000000000000000000000000000030
:1000D0000000000000000000000000000000000020
:1000E0000000000000000000000000000000000010
:1000F0000000000000000000000000000000000000
:1001000000000000000000000000000000000000EF
:1001100000000000000000000000000000000000DF
:1001200000000000000000000000000000000000CF
:1001300000000000000000000000000000007E0F32
:10014000FF0600FF83FFC0000000FF0FFF0F00FF4E
:10015000E3FFC00000018380600F00C06018000052
:1001600000018180600F00C0601800000003008063
:10017000601B80C03018000000038000601980C040
:100180006018000000018000603980C06018000025
:100190000001E0006030C0C0E01800000000FE0078
:1001A0006030C0FFC018000000001F806070C0FFFA
:1001B0008018000000000380606060C1C01800006B
:1001C000000000C0607FE0C0C0180000000000C058
:1001D00060FFF0C060180000000300C060C030C0C5
:1001E00060180000000380C060C030C060180000CC
:1001F0000001C180618018C0301800000000FF803D
:10020000618018C03018000000007E00618018C0B6
:100210003018000000000000000000000000000096
:1002200000000000000000000000000000000000CE
:1002300000000000000000000000000000000000BE
:1002400000000000000000000000000000000000AE
:10025000000000000000000000000000000000009E
:10026000000000000000000000000000000000008E
:10027000000000000000000000000000000000007E
:10028000000000000000000000000000000000006E
:10029000000000000000000000000000000000005E
:1002A000000000000000000000000000000000004E
:1002B000000000000000000000000000000000003E
:1002C000000000000000000000000000000000002E
:1002D000000000000000000000000000000000001E
:1002E0000000000000000000000000000000000FFF
:1002F000000000000000000000000001F9F0000014
:10030000000000000000000007001C0000000000CA
:100310000000000000083FE20000000000000000B4
:10032000000010C0390000000000000000000021A3
:10033000823C80060000000000000000410624C04E
:10034000090000000000000000811F06401080002E
:1003500000C000000001813E02401080000120002A
:100360000000010338032009000002100000000112
:100370000238012006000002100000000102700196
:100380003000000001200000000102700190000018
:100390000000C0000000010270009000000000009A
:1003A000000000010270005000000000000000008A
:1003B0000102780050000000000000000001030866
:1003C000005000000000000000000081000050000C
:1003D0000000000000000000808000D0000000004D
:1003E000000000000080C00090000000000000003D
:1003F000000040400310000000000000000000402A
:100400003FFE10000000000000000000400000104F
:100410003E1FC3FF3F80000000600000200000007E
:100420000000000000007C000070000000000000E0
:10043000000001A3F3F0D0000003FF000000000162
:10044000201E001000000000000000000F0000004F
:100450003F000000000000000008C00001C1C00013
:1004600003FF00000000187003800030000000004F
:10047000000000680FFE00001800000000000000EF
:1004800046000000000C00000000000000C38000D7
:1004900000000600000000000000B0FFC0000002E5
:1004A000000000000000009C0000000002000000AE
:1004B00000000000878FF80000020000000000002C
:1004C00000000000003E5B4F5B3E3E6B4F6B3E1CEE
:1004D0003E7C3E1C183C7E3C181C577D571C1C5E05
:1004E0007F5E1C00183C1800FFE7C3E7FF001824DC
:1004F0001800FFE7DBE7FF30483A060E2629792986
:1005000026407F050507407F05253F5A3CE73C5ABA
:100510007F3E1C1C08081C1C3E7F14227F22145F97
:100520005F005F5F06097F017F006689956A6060F2
:1005300060606094A2FFA29408047E040810207EEC
:10054000201008082A1C08081C2A08081E10101071
:10055000100C1E0C1E0C30383E3830060E3E0E06B7
:10056000000000000000005F00000007000700140A
:100570007F147F14242A7F2A1223130864623649C9
:100580005620500008070300001C224100004122B1
:100590001C002A1C7F1C2A08083E080800807030B6
:1005A0000008080808080000606000201008040225
:1005B0003E5149453E00427F40007249494946212B
:1005C00041494D331814127F1027454545393C4A9F
:1005D00049493141211109073649494936464949B6
:1005E000291E0000140000004034000000081422FE
:1005F000411414141414004122140802015909066C
:100600003E415D594E7C1211127C7F494949363E6C
:10061000414141227F4141413E7F494949417F0952
:100620000909013E414151737F0808087F00417F5D
:1006300041002040413F017F081422417F4040405B
:10064000407F021C027F7F0408107F3E4141413EF3
:100650007F090909063E4151215E7F091929462675
:100660004949493203017F01033F4040403F1F2079
:1006700040201F3F4038403F631408146303047850
:1006800004036159494D43007F4141410204081070
:1006900020004141417F04020102044040404040AB
:1006A000000307080020545478407F284444383819
:1006B00044444428384444287F385454541800088B
:1006C0007E090218A4A49C787F0804047800447D65
:1006D00040002040403D007F1028440000417F4002
:1006E000007C047804787C08040478384444443856
:1006F000FC1824241818242418FC7C080404084836
:100700005454542404043F44243C4040207C1C2086
:1007100040201C3C4030403C44281028444C9090E1
:10072000907C4464544C440008364100000077003B
:1007300000004136080002010204023C2623263C48
:100740001EA1A161123A4040207A385454555921D3
:1007500055557941215454784121555478402054BD
:100760005579400C1E527212395555555939545409
:10077000545939555454580000457C410002457D78
:10078000420001457C40F0292429F0F0282528F07A
:100790007C545545002054547C547C0A097F4932CE
:1007A000494949323248484832324A4848303A4149
:1007B00041217A3A42402078009DA0A07D394444EE
:1007C00044393D4040403D3C24FF2424487E494379
:1007D000662B2FFC2F2BFF0929F620C0887E0903EA
:1007E00020545479410000447D413048484A323811
:1007F0004040227A007A0A0A727D0D19317D26293D
:10080000292F28262929292630484D402038080834
:10081000080808080808382F10C8ACBA2F10283468
:10082000FA00007B000008142A142222142A14085B
:100830009500220095AA005500AAAA55AA55AA001B
:100840000000FF00101010FF00141414FF0010101F
:10085000FF00FF1010F010F0141414FC001414F733
:1008600000FF0000FF00FF1414F404FC1414171020
:100870001F10101F101F1414141F00101010F00070
:100880000000001F101010101F10101010F01000AA
:100890000000FF101010101010101010FF100000BA
:1008A00000FF140000FF00FF00001F10170000FCF5
:1008B00004F414141710171414F404F40000FF00C7
:1008C000F714141414141414F700F7141414171450
:1008D00010101F101F141414F4141010F010F00056
:1008E000001F101F0000001F14000000FC14000077
:1008F000F010F01010FF10FF141414FF141010105B
:100900001F00000000F010FFFFFFFFFFF0F0F0F00D
:10091000F0FFFFFF0000000000FFFF0F0F0F0F0FA1
:1009200038444438447C2A2A3E147E0202060602D9
:100930007E027E0263554941633844443C04407E54
:10094000201E2006027E020299A5E7A5991C2A49CD
:100950002A1C4C7201724C304A4D4D303048784858
:1009600030BC625A463D3E494949007E0101017E44
:100970002A2A2A2A2A44445F444440514A44404097
:10098000444A51400000FF0103E080FF00000808D6
:100990006B6B083612362436060F090F0600001856
:1009A000180000001010003040FF0101001F01017D
:1009B0001E00191D1712003C3C3C3C0000000000CA
:1009C000F0F89C8E8783878E9CF8F00000FEFF0372
:1009D00003030303070EFCF80000FEFF03030303F9
:1009E00003070EFCF80000FFFF00000000000000FD
:1009F000FFFF0000FEFF8383838383C7EE7C380004
:100A000000F8FC0E07030303070EFCF800003F7F0D
:100A1000E0C08080C0E07F3FFFFF010101010101D4
:100A200001FFFF0000FFFF0C0C0C0C1C3E77E3C124
:100A300000007FFFC0C0C0C0C0E0703F1F00001FAB
:100A40003F70E0C0C0C0E0703F1F00007FFFC1C129
:100A5000C1C1C1E3773E1C00001F3F70E0C0C0C0B1
:100A6000E0703F1F000000000001FFFF01000000D8
:100A7000D5F08D14A1C881CFD9F1AF20002601A0F7
:100A8000005D01A0000601A0002601A0000080007A
:100A90000000000000000000000000000000000056
:100AA0000000000000000000000000000000000046
:100AB0000000000000000000000000000000000036
:100AC0000007C1003FE0300FF0000000001FE10010
:100AD0003FC0700C7800000000383100200078081A
:100AE0001800000000303100200058080C00000001
:100AF000006001002000C8080C0000000060010038
:100B00002000CC0818000000006001003F818C0C20
:100B100078000000006001003FC1860FE000000087
:100B200000600100200106083000000000600100A4
:100B30002003FE0810000000006011002003FF08E1
:100B400018000000003031002002030818000000E7
:100B500000383100200601080C000000001FE1FFF2
:100B60003FC601880C0000000007C1FF3FE4018878
:100B70000400000000000000000000000000000071
:100B80000000000000000000000000000000000065
:100B90000000000000000000000000000000000055
:100BA0000000000000000000000000000000000045
:100BB0000000000000000000000000000000000035
:100BC0003FFC000000000000007E000061E7000024
:100BD0000000000000760000873DC000000000001B
:100BE00000F000011C024000000000000090000323
:100BF0002002200000000000008800066181100033
:100C00000000000000CFE004C3819000000000005D
:100C100000FF70048E00980000000000007E300C81
:100C20009E00C8000000000000031009900048006A
:100C30000000000000013009100048F00000000032
:100C40000000B0091800489800000000000CE00502
:100C50001800488800000000000FC0059800480EEA
:100C600000000000000300048800580B0000000092
:100C700000000004C400D1190000000000000006BC
:100C80006001B1F30000000000000002200360E2F8
:100C900080000000000000033002C020800000003F
:100CA0000000000190018043C00000000000003EF1
:100CB000FE0FFC4240000000000001E3A3F807E043
:100CC000800000000000010000000081800000B8EA
:100CD00001A0008801A000B801A0008801A0000BBD
:100CE00002A00000800B02A000EE01A000B801A04D
:100CF00000EE01A0000B02A00000807E81A5817E95
:100D00003C2466609090603C4241D201E2211C008C
:100D10000060959F6000000FFFFF0F00001FC03FA5
:100D2000F07FF87FF86F78463C6F7C7FFC7FFE6F2A
:100D3000BE306F1ACF020F060F00070404080C1410
:100D40001A2DD63FFF3BEF3BEF3FFE1E3C0EBC474C
:100D5000F0380676DE063807F80E1C00000F00DFBC
:100D6000D8BFECAEE42EF47FF0E3F87FFC41FE9CAC
:100D70007FC0EF40C7418D3E1B001705400740056F
:100D8000E00FE20C2207C223C27282DFE2F537F6DF
:100D90006AE7C067E00D3018301C1820C0402020E2
:100DA0006010C01F803FC026607FF03FD81FDC016D
:100DB0001401F6018E03F6070F07FF00000F001F56
:100DC000C03FE02EE02EF07FB0E7787FBC5DFE00F4
:100DD0007F00EF00C7018D0011000607F00D781F9E
:100DE000FC1BBC1C7ECFF6E7F733AD1F5B0F670F14
:100DF0009E07FC03F000600038000C703817603F5D
:100E0000E87FFC673EC71ECF9EF8FE7DFE37741854
:100E1000EC7F9E6FFBC8119C3DDFFA07C01FF03FBF
:100E2000FC777A777ADFCAFFFA5FDC4F9E203E10AC
:100E30007C1DF80FE002401E781E78300C581A6BAB
:100E4000D4342C6E725E7AEBD7A995ADB577EE6D82
:100E5000B62DB41A580C22074F07DFFF81A995A9B8
:100E60009581FF7E81A599A581817EFF8181BD81CC
:100E70008181FFFF8189BD898981FF1824424A52FF
:100E8000422418FF81FF81FF81FF81FF81FF81FFE5
:100E900081FFFFFF81FF81FFFFFFFFFF81FFFFFF5A
:100EA000FFFFFFFFFFFFFFFFFFFFFF1E3F7EFCFC7A
:100EB0007E3F1E080B000202020000090400000130
:100EC0000202000005240010010524010101042490
:100ED00002060524060001070581031000400904ED
:100EE0000100020A00000007050202400000070599
:100EF00083024000000403090412010002EF020112
:100F0000404123368000010102030141726475698A
:100F10006E6F204C4C430041726475696E6F204CBB
:100F2000656F6E6172646F008E1511241FBECFEF66
:100F3000DAE0DEBFCDBF12E0A0E0B1E0EEE1F1E526
:100F400002C005900D92AC3BB107D9F727E0ACEB9E
:100F5000B2E001C01D92A835B207E1F717E0C5E97C
:100F6000D7E004C02197FE010E948728C439D10729
:100F7000C9F70E94BB150C948D280C940000809139
:100F8000D0020895E4EFF2E0A0E0B8E000800EBCEB
:100F90008111012C1197A0FDFDCF0192B9F70DB47D
:100FA0000895FC018091F302882311F13FB7F89472
:100FB00082E08093E9002091F200822F90E01816E1
:100FC000190614F481E090E0882339F0289844E66B
:100FD0004093F2024091F1004083222339F02091A6
:100FE000F200211103C02BE62093E8003FBF0895D3
:100FF0008FEF9FEF08952FB7F89483E08093E90077
:101000009091E800892F807295FF04C09091F200C2
:1010100080E4891B2FBF08958091EA0281110DC0E1
:1010200082E08093E60284E08093E7021092E90276
:101030001092E80281E08093EA0286EE92E0089541
:10104000CF93DF931F92CDB7DEB76983DC01ED91BB
:10105000FC910280F381E02D41E050E0BE016F5F22
:101060007F4F09950F90DF91CF91089583E0809392
:10107000E9008091F200882319F08AE38093E80068
:1010800008950E94FB0790E00895CF93DF931F928D
:10109000CDB7DEB7FC018485958597FD08C02FEF9D
:1010A0003FEF358724870F90DF91CF910895CE01D0
:1010B00001960E94D107019719F4898190E0F3CF3E
:1010C0008FEF9FEFF0CF0F931F93CF93DF931F927C
:1010D000CDB7DEB78C01FC018485958597FF0BC0E9
:1010E000CE0101960E94D107019771F4898190E0A9
:1010F000F80195878487F801848595850F90DF91A5
:10110000CF911F910F9108958FEF9FEFF1CFFC01C9
:101110008485958597FD0BC09FB7F89482E08093F6
:10112000E9008091F2009FBF90E0019608959FB77B
:10113000F89482E08093E9008091F2009FBF90E0F4
:1011400008954091E0025091E1022091DE02309139
:10115000DF0242175307B4F49091E8009570E1F371
:101160009091E80092FD19C08093F1008091E00217
:101170009091E10201968F739927892B19F48EEFD4
:101180008093E8008091E0029091E10201969093B3
:10119000E1028093E00281E0089580E00895DF920B
:1011A000EF92FF920F931F93CF93DF93D82E8A0174
:1011B000EB017B01E40EF51ECE15DF0559F0D7FEDD
:1011C00012C0FE0184910E94A10821968111F4CFE2
:1011D0000FEF1FEFC801DF91CF911F910F91FF908B
:1011E000EF90DF9008958881EECF0F931F93CF93F8
:1011F000DF931F92CDB7DEB782E0898342E450E0EF
:1012000063EB7EE080E80E94CF080E940C08DC01BE
:1012100012960D911C910115110589F0D801ED91DF
:10122000FC910280F381E02DBE016F5F7F4FC8010A
:10123000099597FD04C0F80100851185ECCF8981DF
:101240000F90DF91CF911F910F910895615030F071
:101250002091F100FC0120830196F8CF289884E6C4
:101260008093F2020895AF92BF92CF92DF92EF92F5
:10127000FF920F931F93CF93DF936C017B018B0140
:10128000040F151FEB015E01AE18BF08C017D10790
:1012900059F06991D601ED91FC910190F081E02D1A
:1012A000C6010995892B79F7C501DF91CF911F916F
:1012B0000F91FF90EF90DF90CF90BF90AF90089587
:1012C0003FB7F8948091CC029091CD02A091CE02CC
:1012D000B091CF0226B5A89B05C02F3F19F001960B
:1012E000A11DB11D3FBFBA2FA92F982F8827BC0180
:1012F000CD01620F711D811D911D42E0660F771FA8
:10130000881F991F4A95D1F708958F929F92AF92A7
:10131000BF92CF92DF92EF92FF926B017C010E940D
:1013200060094B015C01C114D104E104F104B9F07E
:101330000E946009681979098A099B09683E73400F
:101340008105910580F321E0C21AD108E108F10876
:1013500088EE880E83E0981EA11CB11CE4CFFF909C
:10136000EF90DF90CF90BF90AF909F908F900895B7
:101370008F929F92AF92BF92CF92DF92EF92FF92A5
:101380000F931F93CF93DF936C017B018A018091B0
:101390004202882309F45CC08091F302882309F497
:1013A00057C08091E50280FF05C08091E000826017
:1013B0008093E000E801B12C8AEFA82E93E0892EFB
:1013C0002AE3922E209711F4BB20D9F10E94FB074B
:1013D00081110AC0AA94AA20D9F161E070E080E0EE
:1013E00090E00E948509EECF8C171D0611F00CF0DD
:1013F0008C2F9FB7F8948092E9002091E80025FD9A
:1014000002C09FBFDFCF282F30E0C21BD30BF701F4
:10141000815020F041914093F100FACFE20EF31E8B
:10142000BB2021F09092E800B12CEBCF8091E80036
:1014300085FDE7CF9092E800BB24B394209709F391
:10144000F3CF5D9884E68093E402101611063CF019
:1014500081E090E0F6019383828310E000E0C80110
:10146000DF91CF911F910F91FF90EF90DF90CF9080
:10147000BF90AF909F908F9008952091C402E0910B
:10148000C202F091C302CF0102969093C3028093EF
:10149000C202222319F0859194910895808191814F
:1014A0000895CF92DF92EF92FF92CF93DF930E9445
:1014B0003D0A811520E8920791F4809171008D7F9B
:1014C0008093710010929100469847981092C10243
:1014D000DF91CF91FF90EF90DF90CF90089521E0C2
:1014E0002093C102813020E8920751F48091BF021D
:1014F0009091C0029093C3028093C2020E943D0A61
:1015000097FD05C02091BE02222309F454C020910A
:10151000BD02211150C021E02093C502EC01DF770C
:10152000209709F04BC081E08093C60246983FE9BE
:10153000C32E3FE0D32EE12CF12CCAEFD0E0E09196
:101540005207F09153070995811103C081E0809300
:10155000C6028091C502882329F08091C6028823A3
:1015600009F43FC047980E943D0A0097F1F19C01A1
:10157000DE010E947826DC01CB0129E0B595A79514
:10158000979587952A95D1F7109290002AE020939D
:101590009100D0929900C09298008093C7029093D6
:1015A000C802A093C902B093CA0280917100826000
:1015B000809371008DCF1092C502B0CF9E0150E094
:1015C00040E060E472E48FE090E00E94242669012C
:1015D0007A0181E0C81AD108E108F1081092C60228
:1015E000AECF4699BFCF479ABECF8FEF9FEFDC01BA
:1015F000CBCF9C01E1E7F0E090819D7F908381E07B
:101600008093C4023093C3022093C2023093C0027D
:101610002093BF020C94510A9C01E1E7F0E0908115
:101620009D7F90831092C402E4E4F7E0F093C3023C
:10163000E093C202F093C002E093BF0231832083A3
:101640007383628380E090E8958384830C94510ACD
:101650002D9A0895BC0190E080E00C9485098FB12B
:101660008095807F669B88601C9B8460089580E0E5
:10167000E4EFF2E081118FEF002481938193819355
:1016800081930394D1F71092D2021092D10210925A
:10169000D4021092D3020895CF93C82F0E942F0B2B
:1016A000982F9C2381E09C1380E0CF91089580E0E7
:1016B0000C94C2072F923F924F925F926F927F924B
:1016C0008F929F92AF92BF92CF92DF92EF92FF9252
:1016D0000F931F93CF93DF9300D000D01F92CDB70D
:1016E000DEB7E982A22EB12C9501280F391F121600
:1016F00013060CF0B3C0803891050CF0AFC09B010D
:10170000200F311D121613060CF0A8C060347105AD
:101710000CF0A4C09B0177FF04C022273327261BAF
:10172000370B27703327DB0177FD1796F3E0B5956C
:10173000A795FA95E1F777FF07C0119768E070E089
:10174000FB01E21BF30B9F01069506950695402EC3
:10175000512CBD017695762F662777956795680F92
:10176000791F6C507D4F8A01AD01E8E0F0E04F0138
:10177000821A930A4F3FFFEF5F070CF45FC07C01B2
:101780001B821A823B01F0E86F0E711CF7FC44C00B
:101790004F3F540709F498C0CA80DB80C60ED71E9D
:1017A000F6012080EA81FB81E00FF11FFD83EC83CD
:1017B000F981F13009F06AC0EC81FD813490E32DAC
:1017C000022E01C0EE0F0A94EAF72E2AF6012082BB
:1017D0002115310509F147305105F1F0CA80DB8050
:1017E000C60CD71CF6012080EA81FB81E00FF11FB7
:1017F000FD83EC83F981F13009F057C0EC81FD8164
:101800003490E32DF0E0082C02C0F595E7950A949A
:10181000E2F72E2AF6012082EA81FB813196FB83D2
:10182000EA83FFEFEF1AFF0AEA81FB81EA15FB0565
:101830002CF4E0E8EE16F10409F0A8CF4F5F5F4FFB
:1018400060587F4F0A0D1B1DFA01EA1BFB0BE415C4
:10185000F50524F44830510509F08CCF0F900F9016
:101860000F900F900F90DF91CF911F910F91FF90EC
:10187000EF90DF90CF90BF90AF909F908F907F9030
:101880006F905F904F903F902F900895EC81FD8175
:101890003490E32DF0E0022E02C0EE0FFF1F0A94F9
:1018A000E2F7E095F0952E2291CFEC81FD81349006
:1018B000E32DF0E0082C02C0F595E7950A94E2F7D5
:1018C000E095F0952E22A6CF2115310509F086CF9F
:1018D000A3CF80389105B8F460347105A0F420E1FD
:1018E00091E061FD94E060FD990F62FD9295687F43
:1018F000269FD0011124A80FAC50BD4F8C9140FF02
:1019000003C0892B8C93089590958923FBCF2F9248
:101910003F924F925F926F927F928F929F92AF927F
:10192000BF92CF92DF92EF92FF920F931F93CF93CC
:10193000DF9300D000D000D01F92CDB7DEB76D305E
:10194000D9F030902D024090D1025090D202832DD8
:1019500090E09F838E836A3051F51092D4021092EA
:10196000D30223E0880F991F2A95E1F7480E591EEC
:101970005092D2024092D10281E090E027960FB6B9
:10198000F894DEBF0FBECDBFDF91CF911F910F91B5
:10199000FF90EF90DF90CF90BF90AF909F908F908F
:1019A0007F906F905F904F903F902F900895A09000
:1019B000D302B090D40295E0699FB0011124FB01DD
:1019C000E054FB4F3F016501212CF5E02F1629F172
:1019D000C3010196F301F491F9833C01420128E02F
:1019E0002A83898181708D8310E000E00315D0F493
:1019F000F801EC0DFD1DFC83EB83F12CE12CE314CD
:101A000070F4B4016E0D7F1D4D818B819C810E940D
:101A1000690CFFEFEF1AFF0AF2CF1982DFCF0F5FD9
:101A20001F4FE4CF2981269529838A8181508A839B
:101A3000EE81FF818E0E9F1E8111D3CF2394CE0E97
:101A4000DF1EF6E02F12C1CFC501329C800D911D23
:101A500011249093D4028093D3028ECF2F923F9281
:101A60004F925F926F927F928F929F92AF92BF92AE
:101A7000CF92DF92EF92FF920F931F93CF93DF935A
:101A800000D01F92CDB7DEB7C22ED12C9601280F01
:101A9000391F121613060CF05AC0803891050CF04D
:101AA00056C010E09801260F371F121613060CF0CF
:101AB0004EC0603471050CF04AC0E9823A017B8364
:101AC0006A832C01160127E0220E311C93E0359425
:101AD00027949A95E1F75B01912C812CC5012A810D
:101AE0003B81821B930B801791078CF5F12CE12C25
:101AF000EC14FD0434F5F70183E0F595E7958A953C
:101B0000E1F7E80DF91DE60DF71DE491C7018770B7
:101B1000992720E830E002C0359527958A95E2F7AD
:101B2000C901F0E0E223F923EF2B39F04981B50137
:101B3000C701840D951D0E94690C3FEFE31AF30A5B
:101B4000D7CF820C931C8FEFA81AB80AC7CF0F907B
:101B50000F900F90DF91CF911F910F91FF90EF9019
:101B6000DF90CF90BF90AF909F908F907F906F90BD
:101B70005F904F903F902F900895ECE4F2E0ABE13E
:101B8000B2E081918D9382E0EC35F807D1F70895AA
:101B90000F931F93E0EAF1E000E010E020E231E46F
:101BA000058316832783308700E010E020EA31E4C4
:101BB000018712872387348700E010E020EC3FE3A1
:101BC000058716872787308B618B728B838B948B6D
:101BD00081E080831F910F910895CF92DF92EF9261
:101BE000FF92C0907901D0907A01E0907B01F09053
:101BF0007C0120E030E040E251E4C701B6010E94E0
:101C0000F42687FF0BC081E090E0909380018093E1
:101C10007F01FF90EF90DF90CF9008958091730146
:101C20009091740166E370E0681B790B072E000C3D
:101C3000880B990B0E9431279B01AC01C701B601AB
:101C40000E94E127181644F48FEF9FEF90938001D4
:101C500080937F0181E0DDCF80E0DBCFCF92DF9208
:101C6000EF92FF92C0907501D0907601E0907701DD
:101C7000F090780120E030E040EA52E4C701B6017C
:101C80000E94F42687FF0BC081E090E090937E01D4
:101C900080937D01FF90EF90DF90CF900895809129
:101CA00071019091720168E770E0681B790B072E53
:101CB000000C880B990B0E9431279B01AC01C701D6
:101CC000B6010E94E127181644F48FEF9FEF90931E
:101CD0007E0180937D0181E0DDCF80E0DBCF8091CC
:101CE0008C0180FD24C0893C10F560917F017091CA
:101CF0008001072E000C880B990B0E9431279B0155
:101D0000AC016091790170917A0180917B01909191
:101D10007C010E9488266093790170937A018093F8
:101D20007B0190937C010E942E0E0C94ED0D089582
:101D30002F923F924F925F926F927F928F929F92DB
:101D4000AF92BF92CF92DF92EF92FF920F931F93C9
:101D5000CF93DF93CDB7DEB76A970FB6F894DEBFA7
:101D60000FBECDBF2B013C0149015A0198011091D2
:101D700014018091080190910901A0910A01B0918C
:101D80000B0189839A83AB83BC83409104015091FA
:101D9000050157FF02C04F5F5F4F559547958091F2
:101DA0000C0190910D01A0910E01B0910F018D8356
:101DB0009E83AF83B887809106019091070197FDBC
:101DC0000196BC0175956795312C212CCA01550FE0
:101DD000AA0BBB0B89879A87AB87BC87C901330FD6
:101DE000AA0BBB0B8D879E87AF87B88BCB01770F74
:101DF000AA0BBB0B898B9A8BAB8BBC8BC701FF0CDF
:101E0000AA0BBB0B8D8B9E8BAF8BB88F2A9423288C
:101E100009F473C0112309F456C069857A858B854E
:101E20009C850E94312729813A814B815C810E94E7
:101E300088266B017C01A30192010E94E1271816FC
:101E40000CF05BC06D857E858F8598890E94312757
:101E5000A30192010E948826A70196010E94E12712
:101E600018160CF04AC069897A898B899C890E946E
:101E700031272D813E814F8158850E9488266B0134
:101E80007C01A50194010E94E1271816B4F52224D3
:101E90002394312C6D897E898F89988D0E943127FA
:101EA000A50194010E948826A70196010E94E127BE
:101EB00018160CF0ABCF1092140160E570E088EBBF
:101EC00091E00E940C0B812F6A960FB6F894DEBF4A
:101ED0000FBECDBFDF91CF911F910F91FF90EF907B
:101EE000DF90CF90BF90AF909F908F907F906F903A
:101EF0005F904F903F902F90089510E0E4CFCF93E4
:101F00008091BC0281112CC00E94570BC1E0C0938C
:101F1000BC0260EA70E083E890E00E940C0B68EB82
:101F20007BE080E090E00E94850910929F01109272
:101F300096010E94BD0D809133028150809333023F
:101F4000811102C0C09336026091000170910101BD
:101F500080910201909103010E94C80D1092BC0271
:101F6000CF910895089590E080E008958F929F9218
:101F7000AF92BF920F931F93CF93DF93CDB7DEB78E
:101F8000A1970FB6F894DEBF0FBECDBF19A24230A5
:101F900008F44AE08E010F5D1F4F842E912CB12C66
:101FA000A12CA50194010E945626E62FB901CA0171
:101FB000EA3044F5E05DD801EE938D01232B242B0C
:101FC000252B79F790E080E0109769F0FD010190F2
:101FD0000020E9F73197AF014A1B5B0BBD0184E597
:101FE00097E00E943309A1960FB6F894DEBF0FBEAA
:101FF000CDBFDF91CF911F910F91BF90AF909F9078
:102000008F900895E95CD7CFFC0101900020E9F79B
:102010003197AF01481B590BBC0184E597E00C9444
:1020200033092F923F924F925F926F927F928F92DD
:102030009F92AF92BF92CF92DF92EF920F931F9336
:10204000CF93DF93D0E0C0E012E083E0282E312C64
:10205000CC24C394D12C22E3422E512C3EE1A32E5A
:10206000B12C40E3842E912C58E3652E712C6EE147
:1020700070E080E090E00E9485090E94370B109389
:102080002D023092D4022092D302D092D202C0927A
:10209000D10281E892E00E940410EE24E39404E26D
:1020A00028E64CEE52E06AE070E08EE090E00E949C
:1020B0002E0DCE010196B2010E945F28EC014997D6
:1020C0007CF481E080932D02B092D402A092D302DE
:1020D0009092D2028092D1028BE892E00E9404108A
:1020E000809135028823F9F081E080932D02D0920F
:1020F000D402C092D3027092D2026092D10288E9D7
:1021000092E00E9404106091350270E090E080E05F
:102110004AE00E94B60F8FE992E00E94041081EA23
:1021200092E00E9404100E94570B88E00E944C0B22
:102130008823A9F082E080933602DF91CF911F912E
:102140000F91EF90DF90CF90BF90AF909F908F90C6
:102150007F906F905F904F903F902F90089584E014
:102160000E944C0B882309F482CF86E0E4CF2F92A3
:102170003F924F925F926F927F928F929F92AF9217
:10218000BF92CF92DF92EF92FF920F931F93CF9364
:10219000DF93EC0180913602823009F037C183E091
:1021A0008093330281E080933402C130D10581F401
:1021B0000E94370BEE24E39400E320E64CEA50E063
:1021C0006AE070E081E190E00E942E0D0E94570BC2
:1021D00060ED77E080E090E00E9485098091340214
:1021E00080933502D0931A02C0931902CE01019751
:1021F0006AE070E00E945F28BC01990F880B990B80
:102200000E9431272DEC3CEC4CE45EE30E94E62773
:1022100020E030E040E85FE30E9488266093000100
:1022200070930101809302019093030110925D016C
:102230000E94C80D0E94BD0D10922E0210922F0216
:1022400081E080933202E5EBF1E010863A9622E0DD
:10225000E931F207D1F710929F0110929601CE0159
:10226000CB30D10524F06AE070E00E945F288093B3
:1022700081019093820110928C0180E090E0A8ECA3
:10228000B2E48093750190937601A0937701B093A7
:1022900078010E94B62522E230E040E050E00E9442
:1022A0002426665F7F4F8F4F9F4F0E943127609398
:1022B000790170937A0180937B0190937C01109255
:1022C000830181E090E090936D0180936C01109206
:1022D00070018CEF9FEF90936B0180936A011092D5
:1022E0006F0110926E0110926201109263011092C0
:1022F00064011092650110926601109267011092BC
:102300006801109269011E01C430D1054CF0CE0164
:1023100063E070E00E945F281C01EFEF2E1A3E0A76
:1023200005E111E08CE2882E99249394A12CB12C24
:10233000C12CD12CE12C93E4F92E22E2422E512C17
:10234000612C712C0E94B625A50194010E942426BF
:102350006C59F8016083318A208A1182128A138AAB
:10236000C682D782E086F1860E94B625A30192013B
:102370000E942426665F7F4F8F4F9F4F0E94312718
:10238000F80162877387848795870C5E1F4F81E50C
:1023900091E080179107B1F681E090E090931301EE
:1023A00080931201109214011092080110920901F9
:1023B00010920A0110920B0110920C0110920D0163
:1023C00010920E0110920F01CE016AE070E00E949F
:1023D0005F2885E0860F80933002665F609331024C
:1023E00083E080933602DF91CF911F910F91FF9090
:1023F000EF90DF90CF90BF90AF909F908F907F90A5
:102400006F905F904F903F902F900895863009F025
:10241000CCCE83E080933302C8CE0C940E261F925C
:102420000F920FB60F9211248F939F938091E1002A
:102430009091E100937F9093E10083FF0FC0109291
:10244000E90091E09093EB001092EC0092E39093FE
:10245000ED001092F30298E09093F00082FF22C00A
:1024600093E09093E9009091F200992319F09AE398
:102470009093E8009091E402992341F09091E40256
:1024800091509093E402911101C05D9A9091F202F3
:10249000992341F09091F20291509093F2029111A0
:1024A00001C0289A84FF18C08091E2008E7E81606E
:1024B0008093E2008091E1008F7E8093E100809123
:1024C000E5028E7E80618093E5029F918F910F904F
:1024D0000FBE0F901F90189580FFF7CF8091E200FC
:1024E0008E7E80618093E2008091E1008E7E8093F9
:1024F000E1008091E5028E7E8160E5CF1F920F9210
:102500000FB60F921124CF92DF92EF92FF920F93AA
:102510001F932F933F934F935F936F937F938F936B
:102520009F93AF93BF93EF93FF93CF93DF93CDB779
:10253000DEB76C97DEBFCDBF1092E9008091E80056
:1025400083FF25C068E0CE0145960E94260982EFF0
:102550008093E8008D8987FF39C09091E80090FF53
:10256000FCCF982F907609F034C19E894F89588D01
:102570002F89F88C911131C0803861F58091E30288
:102580008093F1001092F1008EEF8093E8006C963A
:102590000FB6F894DEBF0FBECDBFDF91CF91FF9194
:1025A000EF91BF91AF919F918F917F916F915F91CB
:1025B0004F913F912F911F910F91FF90EF90DF90DE
:1025C000CF900F900FBE0F901F9018959EEF909395
:1025D000E800C7CF1092F100D5CF913059F48111A6
:1025E000D3CF4130510581F68091E3028D7F8093F6
:1025F000E302CACF933049F48111C6CF413051056F
:1026000019F68091E3028260F2CF953041F4809117
:10261000E80080FFFCCF20682093E300B5CF963020
:1026200009F0A9C00B8D1C8D22E01092E9001092D8
:10263000E1021092E002F2122EC01092DF0210921C
:10264000DE020E94F5081F8299E09983FA8291E0E8
:102650009E8390EA98879AEF99872091E0023091C3
:10266000E102275F3F4F3C832B838D831092E9006B
:102670001092E1021092E0021093DF020093DE025A
:1026800049E050E0BE016F5F7F4F80E00E94CF08BD
:102690000E94F50879CF1093DF020093DE020E94BA
:1026A0000C08DC0112960D911C910115110509F41D
:1026B00051C1D801ED91FC910480F581E02DBE015E
:1026C0006B5E7F4FC8010995009709F03EC1F80184
:1026D00000851185EACFF3E0FF120EC08F898823B1
:1026E00009F440C0823061F440E860E187E19FE096
:1026F0000E945B15811148CF81E28093EB0047CFA8
:10270000813029F440E86BE08BE09FE0F1CF83302B
:1027100099F70E940C08DC011296ED90FC908E0156
:102720000F5F1F4F6801E114F10479F0D701ED91BB
:10273000FC910680F781E02DB801C7010995080FCB
:10274000111DF701E084F184EECFD8011C92F6014F
:1027500001900020E9F73197BF016C197D0940E035
:10276000C601C6CF65EF7EE0FB01449150E080E8F2
:102770000E94CF0809CF973009F4BECF983021F4DA
:1027800081E08093F10000CF993009F0FDCE837095
:1027900009F0B2CFEDE5F2E081E031E096E321917E
:1027A000222371F08093E9003093EB00DF01119751
:1027B0002C912093EC009093ED008F5F873079F798
:1027C0008EE78093EA001092EA008F898093F302EB
:1027D000DBCE8B8D9C8D1092E9001092E10210925D
:1027E000E0029093DF028093DE02898D811192C016
:1027F0008E899D89913A49F4813209F07DCF47E075
:1028000050E06BE372E080E0B3CF913209F074CF17
:10281000833269F48F89988DB0E0A0E0809337020D
:1028200090933802A0933902B0933A02ADCE803231
:1028300069F48091E80082FFFCCF67E08BE392E0CF
:102840000E9426098BEF8093E8009ECE823209F029
:102850009BCE8F8980934202EEEFFFE785919491A2
:102860008B3F9C4D51F1E0E0F8E080913B0290916C
:102870003C02A0913D02B0913E02803B9440A105F4
:10288000B105F1F48091420280FD1AC0EE3F8AE06A
:10289000F80789F587E797E7918380838091600047
:1028A0008093E20288E19BE00FB6F894A8958093AC
:1028B00060000FBE9093600067CEEEEFFAE0D5CFD8
:1028C000808191818737974709F05ECEA8958091E6
:1028D00060008861809360008091E20280936000D4
:1028E000EE3F2AE0F20789F08091FE0A9091FF0AFC
:1028F0009183808349CE808191818737980751F2F7
:102900009093FF0A8093FE0AC5CF1092FF0A10929F
:10291000FE0A3ACE0E940C08DC0112960D911C9121
:102920000115110509F4E8CED801ED91FC91019053
:10293000F081E02DBE016B5E7F4FC80109958111CA
:1029400023CEF80100851185EBCF181619060CF47B
:102950001BCED2CEF1E0FF12BECE69EF7EE004CFF7
:102960001F920F920FB60F9211242F933F938F93C4
:102970009F93AF93BF938091D5029091D602A0917F
:10298000D702B091D8023091CB0223E0230F2D372C
:1029900058F50196A11DB11D2093CB028093D5025D
:1029A0009093D602A093D702B093D8028091CC0224
:1029B0009091CD02A091CE02B091CF020196A11DBF
:1029C000B11D8093CC029093CD02A093CE02B09320
:1029D000CF02BF91AF919F918F913F912F910F9017
:1029E0000FBE0F901F90189526E8230F0296A11D89
:1029F000B11DD2CF1F920F920FB60F9211242F93B9
:102A00003F934F935F936F937F938F939F93AF9376
:102A1000BF93EF93FF938091C7029091C802A0915A
:102A2000C902B091CA02892B8A2B8B2B09F440C0B2
:102A30008091C60281110BC088B190E4892788B9C2
:102A40008091C502882319F088B1805888B9809197
:102A5000C7029091C802A091C902B091CA0218168B
:102A600019061A061B069CF48091C7029091C802B1
:102A7000A091C902B091CA020197A109B10980933E
:102A8000C7029093C802A093C902B093CA02FF91F3
:102A9000EF91BF91AF919F918F917F916F915F91D6
:102AA0004F913F912F910F900FBE0F901F9018954F
:102AB0000E94510AECCFEF92FF920F931F93CF9396
:102AC000DF93F82E192FE62E042F81E0860F880F52
:102AD0000E94A10883E00E94A108CF2DD12FEC0E07
:102AE000FD2EF11CCE15DF05B9F007FF13C0FE0166
:102AF00084910E94A108182F80E00E94A1088123E0
:102B000021968111EFCFDF91CF911F910F91FF900F
:102B1000EF9008958881EDCF81E0F5CFE4EFF6E006
:102B20001382128288EE93E0A0E0B0E08483958364
:102B3000A683B78387E692E0918380838FEF9FEF30
:102B400095878487E4E5F7E01382128289E792E0B3
:102B5000918380838FEB97E0909353078093520784
:102B600080E090E8909351078093500746983E9AF2
:102B700047983F9A0895CF93DF93CDB7DEB7A197DB
:102B80000FB6F894DEBF0FBECDBF789484B58260D7
:102B900084BD84B5816084BD85B5826085BD85B501
:102BA000816085BD80916E00816080936E0010927F
:102BB00081008091810082608093810080918100FA
:102BC000816080938100809180008160809380008B
:102BD000809191008260809391008091910081604A
:102BE000809391008091900081608093900080910B
:102BF000C10084608093C1008091C1008260809395
:102C0000C1008091C10081608093C1008091C300A8
:102C100081608093C3008091C00082608093C00077
:102C20008091C20081608093C20080917A008460AC
:102C300080937A0080917A00826080937A008091FC
:102C40007A00816080937A0080917A008068809316
:102C50007A001092F3021092E3021092E502809142
:102C6000D70081608093D70080EA8093D80089B52F
:102C7000806189BD89B5826089BD09B400FEFDCF40
:102C800061E070E080E090E00E9485098091D800CA
:102C90008F7C80618093D8008091E000807F80935A
:102CA000E0008091E1008E7E8093E1008DE08093D2
:102CB000E200559A209A81EC80937C0085B1806F68
:102CC00085B984B1877E84B984B1876E84B95E9AF0
:102CD0005F988AB1806D8AB9769A6E9881B3806F59
:102CE00081BB899880B38D7080BB80E58CBD81E00D
:102CF0008DBD85E090E00E942A0B5F9A85E090E010
:102D00000E942A0B5E985C98E0E7FAE08DE79AE073
:102D100024912EBD00000DB407FEFDCF31968E1715
:102D20009F07B1F75C9A81E8809364008091650009
:102D30008160809365000E94570B80E80E944C0BD5
:102D40008823A9F05C9885EA8EBD00000DB407FECB
:102D5000FDCF5C9A2E982F982D9880916400806208
:102D60008093640081E083BF889513BEFCCF84E02C
:102D70000E944C0B882309F448C02D9884E80E94D7
:102D80004C0B8823E1F00E94280B88EC90E00E9415
:102D90002A0B2F9882E090E00E940E268F3F29F0A8
:102DA0006FEF82E090E00E94162684EF91E00E948F
:102DB0002A0B2F9A84E80E944C0B8111FBCF84E1EF
:102DC0000E944C0B8823E1F00E94280B88EC90E0D5
:102DD0000E942A0B2E9882E090E00E940E26882303
:102DE00029F060E082E090E00E94162684EF91E0F6
:102DF0000E942A0B2E9A84E10E944C0B8111FBCF7A
:102E000088EC90E00E942A0BB2CF0E94280B82E04F
:102E100090E00E940D12882309F478C03E9A3F9AF0
:102E200081E08093D00281E090E00E940D12182F83
:102E3000147081FF10C011112E9801EFC02EDD24F7
:102E4000DA9480E40E944C0B882309F464C02E9A23
:102E50002F9A0E94280B82E390E00E942A0B0E9486
:102E60002F0B8111F8CF0E9411102FB7F894809189
:102E7000D5029091D602A091D702B091D8022FBF6F
:102E80008093D9029093DA02A093DB02B093DC0224
:102E9000809164008E7F8093640080917A008064CA
:102EA00080937A0080917A0086FDFCCF00917800B3
:102EB000109179000E946009AB01BC01C801B0E02B
:102EC000A0E0DC01992788274C015D01840E951E46
:102ED000A61EB71EC501B401209164002160209395
:102EE0006400611571058105910511F00E940526A8
:102EF00080913602813009F06DC00E94111080E08F
:102F000090E0892BA9F30E940000F2CF1092D0022A
:102F10003E983F9888CF112331F004E0C016D104C9
:102F200011F42E9A2F9881E00E94C207EE24E394B8
:102F300000E128E540EC59E0B60184E190E00E9410
:102F40005A0B0E94570B8FE090E00E942A0B2FEF44
:102F5000C21AD20A39E1C316D10409F072CF112383
:102F600011F02F9A2D9880E991E00E942A0B0E947F
:102F7000280B81E090E00E940D1280FF6CCF8AE068
:102F800090E00E940D129FEF980F9E3F08F063CFD4
:102F900022E330E03093D4022093D30228E330E0E0
:102FA0003093D2022093D1020BE010E0682F84E529
:102FB00097E00E94870CC8010E940D120F5F1F4FFF
:102FC0000131110599F70E94570B88EE93E00E949A
:102FD0002A0B41CF823029F481E090E00E94B710A3
:102FE0008ECF863031F4809135028093340290E0A8
:102FF000F5CF8091DD02882399F02FB7F894809166
:10300000D5029091D602A091D702B091D8022FBFDD
:10301000892B8A2B8B2B09F472CF1092DD026FCF94
:103020008FB7F8944091D5025091D6026091D702A3
:103030007091D8028FBF8091D9029091DA02A0914D
:10304000DB02B091DC028196A11DB11D84179507AA
:10305000A607B70708F053CF0E94370B2FB7F89495
:103060008091D5029091D602A091D702B091D8025A
:103070002FBF8093D9029093DA02A093DB02B09322
:10308000DC0210E000E0F12CE12C41E0B701C801C6
:103090000E94690C2FEFE21AF20A3AE0E316F104FB
:1030A000A1F70F5F1F4F0F37110569F7A3E0CA2E75
:1030B000D12CB12CA12C809133028A151B0491F0E4
:1030C0008CF0E12C08E028E04BEA5EE061E070E083
:1030D000C6010E945A0B4FEFA41AB40A5AE0C50E5B
:1030E000D11CE9CF81E080932D028CE390E0909396
:1030F000D4028093D30281E090E09093D202809337
:10310000D10260E284E597E00E94870C63E584E5E4
:1031100097E00E94870C6AE384E597E00E94870CA1
:103120006091340270E090E080E04AE00E94B60FC7
:1031300060E284E597E00E94870C63E484E597E011
:103140000E94870C6AE384E597E00E94870C6091F7
:103150002F0270E090E080E04AE00E94B60F60E24B
:1031600084E597E00E94870C80912B0290912C02BD
:103170002091190230911A02821B930B97FD3AC0DD
:1031800090932C0280932B0208E010E0F8E3EF2EDE
:10319000F12C41E0B701C8010E94690C8FEFE81AD9
:1031A000F80A90E4E916F104A1F70F5F1F4F073802
:1031B000110561F7ABE1B2E0BF87AE875D01D12CAD
:1031C000C12C80912B0290912C028C199D0997FFA4
:1031D00002C080589F4FF50121915F01223009F410
:1031E000C3C058F42130A1F0E12C08E028E043EA04
:1031F0005EE013C08FE790E0C3CF233009F4BAC07C
:10320000243091F7E12C08E028E043E85EE005C0B7
:10321000E12C08E028E04BE95EE068E370E00E9402
:103220002E0DF8E0CF0ED11C00E8C016D10449F6EF
:1032300080912E028F5F883C09F4A2C080932E02F9
:1032400025EB31E03B872A87190110E000E0A090D0
:103250003202B12C0A151B050CF098C0D10118964A
:103260008C9181117BC00E94B6256B017C010E946C
:10327000B62522E230E040E050E00E942426665F5E
:103280007F4F072E000C880B990B0E9431272B01D2
:103290003C01C701B60124E630E040E050E00E9466
:1032A0002426665F7F4F072E000C880B990B0E9427
:1032B00031276B017C018090A5019090A601A09020
:1032C000A701B090A801E091A101F091A201FF83B4
:1032D000EE83BF01FF0F880B990B0E9431279B01E2
:1032E000AC01C501B4010E9487269B01AC01C70156
:1032F000B6010E94E1271816B4F46E817F81660F33
:10330000771F072E000C880B990B0E943127A5010F
:1033100094010E9488269B01AC01C701B6010E945E
:10332000F42687FD1BC0D101CD92DD92ED92FC9277
:103330001397F10144825582668277820E94B625F6
:1033400020E530E040E050E00E942426685DD10195
:1033500019966C931997E1E01896EC930F5F1F4F45
:10336000FAE02F0E311C73CFE12C08E028E043E98E
:103370005EE053CFE12C08E028E04BE85EE04DCF63
:1033800010922E0281E0809332025ACFE5EBF1E0F9
:1033900030E020E02A153B0551F08185815081877E
:1033A000811101C010862F5F3F4F3A96F3CF55EB46
:1033B000C52E51E0D52E912C812C8A149B0439F115
:1033C000D60118968C9118978823D1F014966D9198
:1033D0007D918D919C9117970E94F9262B01F60102
:1033E00060817181828193810E94F926CB01EE2454
:1033F000E39408E028E04BE75EE0B2010E945A0B3C
:10340000FFEF8F1A9F0A0AE0C00ED11CD6CF809121
:103410009F018F5F80939F01823309F04AC0109211
:10342000960180919601882319F18091950181116F
:10343000EDC0609191017091920180919301909102
:1034400094010E94F9264B0160918D0170918E01CB
:1034500080918F01909190010E94F926CB01EE247A
:10346000E39408E028E04BEA5EE0B4010E945A0BC6
:1034700080918301882309F445C280918C018F5F7C
:1034800080938C0120918101309182012730310598
:103490000CF03CC1243031050CF02DC62130310533
:1034A00009F4A2C12230310509F4DFC50E946F0E74
:1034B000E0C1883C09F0B5CF10929F010E94B6256B
:1034C00024E630E040E050E00E94242685E0E7E476
:1034D000F2E0DE01119601900D928A95E1F7FE016E
:1034E000319690E080E02191261708F489C0182FCA
:1034F0000E94B6252EE630E040E050E00E942426EF
:10350000665F7F4F8F4F9F4F0E94312760938D01E1
:1035100070938E0180938F01909390010E94B62545
:1035200022E230E040E050E00E942426665F7F4FB8
:103530008F4F9F4F0E9431276093910170939201AA
:10354000809393019093940180908D0190908E01CF
:10355000A0908F01B09090014090A5015090A601DD
:103560006090A7017090A801E090A101F090A201E5
:10357000B7010F2C000C880B990B0E9431279B017F
:10358000AC01C301B2010E9487269B01AC01C501B9
:10359000B4010E94E1271816ACF4B701660F771F3B
:1035A000072E000C880B990B0E943127A301920172
:1035B0000E9488269B01AC01C501B4010E94F4263B
:1035C00087FD2FCF80E090E0A0E8BFE380939701D4
:1035D00090939801A0939901B0939A0180E090E0B4
:1035E000A0ECBFE380939B0190939C01A0939D016D
:1035F000B0939E011093950181E08093960111CFC5
:1036000001968530910509F06ECF0BCF813001F521
:103610006091910170919201809193019091940138
:103620000E94F9264B0160918D0170918E0180916D
:103630008F01909190010E94F926CB01EE24E39432
:1036400008E028E043E75EE0B4010E942E0D10CFB1
:103650008230E9F46091910170919201809193011F
:10366000909194010E94F9264B0160918D01709117
:103670008E0180918F01909190010E94F926CB01DB
:10368000EE24E39408E028E04BE65EE0DDCF8330F3
:10369000E9F4609191017091920180919301909170
:1036A00094010E94F9264B0160918D0170918E0169
:1036B00080918F01909190010E94F926CB01EE2418
:1036C000E39408E028E043E65EE0BECF843009F0F2
:1036D000CFCE609191017091920180919301909170
:1036E00094010E94F9264B0160918D0170918E0129
:1036F00080918F01909190010E94F926CB01EE24D8
:10370000E39408E028E04BE55EE09ECF2A303105E7
:103710000CF0CCCE80918C01893C08F430C58091AE
:1037200070018111A6C08090790190907A01A090DB
:103730007B01B0907C010091730110917401609144
:1037400075017091760180917701909178010E94C6
:10375000F9266B0168E270E086E091E00E940C0BB4
:1037600081E080937001B6010D2C000C880B990B41
:103770000E9431276093620170936301809364011A
:1037800090936501B80177FF02C06F5F7F4F759519
:103790006795072E000C880B990B0E943127A50115
:1037A00094010E9488260E94F926072E000C880B9F
:1037B000990B0E9431276093660170936701809393
:1037C00068019093690120916A0130916B0145E095
:1037D000429FC001439F900D1124C80ED91ED09264
:1037E0006F01C0926E0145C0893C08F042C06091F3
:1037F0007F0170918001072E000C880B990B0E94AD
:1038000031279B01AC016091790170917A0180911F
:103810007B0190917C010E948826609379017093CE
:103820007A0180937B0190937C010E94ED0D8823A7
:10383000F1F060917D0170917E01072E000C880BE4
:10384000990B0E9431279B01AC0160917501709129
:10385000760180917701909178010E94882660938B
:1038600075017093760180937701909378010E949F
:103870002E0E10917301F090740130907101209020
:1038800072014090790150907A0160907B017090B4
:103890007C018090750190907601A0907701B090A6
:1038A0007801C0908101D090820125E0CC0CDD1C14
:1038B0002A95E1F796012550334F6901C301B20102
:1038C0000E94F9266E837F8388879987C501B4019A
:1038D0000E94F926CB01EE24E394012F232DA601AB
:1038E0006E817F810E942E0DE12E032D122DA301EA
:1038F0009201C501B4010E94980E882319F089EC49
:1039000080938C0180917001882309F474C06091C8
:103910006A0170916B01072E000C880B990B0E94B5
:1039200031272091620130916301409164015091EF
:1039300065010E9488266B017C01C0926201D092D1
:103940006301E0926401F092650120E030E0A9019A
:103950000E94F42687FD0AC020E030E040E053E4F6
:10396000C701B6010E94E127181614F410927001E5
:1039700060916E0170916F01072E000C880B990BFE
:103980000E9431279B01AC01C701B6010E94F426B9
:1039900087FD1092700120E030E0A901C701B60157
:1039A0000E94F42687FD0AC020E030E040E053E4A6
:1039B000C701B6010E94E127181614F41092700195
:1039C0006091660170916701809168019091690131
:1039D0000E94F9264B01C701B6010E94F926CB01CE
:1039E000EE24E3940091600120915E0147E15DE0E7
:1039F000B4010E942E0D80915D018823F9F0609141
:103A0000590170915A0180915B0190915C010E9473
:103A1000F9264B0160915501709156018091570133
:103A2000909158010E94F926CB01EE24E39408E01E
:103A300028E04FE05DE0B4010E942E0D95E1292EB3
:103A400091E0392E610177247394D60153968C91BD
:103A50005397882309F4E5C38091140181117AC436
:103A6000F090A001FF2011F40C94632588E00E94DF
:103A70004C0B882309F4BBC480911401882309F4FA
:103A8000BCC480E20E944C0B8090A5019090A601DE
:103A9000A090A701B090A801882309F4ECC420915C
:103AA000AD013091AE014091AF015091B001C5011F
:103AB000B4010E9487266093A5017093A6018093AC
:103AC000A7019093A8018090B1019090B201A090BD
:103AD000B301B090B4018A8A9B8AAC8ABD8A2091D6
:103AE000A9013091AA014091AB015091AC01C501EF
:103AF000B4010E9488262B013C014092A9015092FA
:103B0000AA016092AB017092AC010091A3011091E7
:103B1000A40168E370E0601B710B072E000C880B9A
:103B2000990B0E9431274B015C01AC019B01C30141
:103B3000B2010E94E127181644F48092A9019092E4
:103B4000AA01A092AB01B092AC0120E030E040E2CB
:103B500051E46091A9017091AA018091AB0190910B
:103B6000AC010E94F42687FF0CC080E090E0A0E248
:103B7000B1E48093A9019093AA01A093AB01B09303
:103B8000AC0120E030E040EF52E46091A50170917B
:103B9000A6018091A7019091A8010E94E127181623
:103BA00064F480E090E0A0EFB2E48093A5019093EC
:103BB000A601A093A701B093A80120E030E040E067
:103BC00051E46091A5017091A6018091A7019091A7
:103BD000A8010E94F42687FF0CC080E090E0A0E0DE
:103BE000B1E48093A5019093A601A093A701B0939F
:103BF000A8012091A9013091AA014091AB015091F7
:103C0000AC012E833F83488759874090A50150908F
:103C1000A6016090A7017090A801CA01B9010E9495
:103C2000F9266E8B7F8B888F998FC301B2010E941A
:103C3000F926CB01EE24E3942091A1014BEF5CE047
:103C40006E897F890E942E0DA50194016E817F816E
:103C5000888599850E94E12787FD65C08A899B89AF
:103C6000AC89BD89B0588093B1019093B201A09303
:103C7000B301B093B40160E570E08EE690E00E947D
:103C80000C0B00912B0210912C02D12CC12CB801ED
:103C900017FF02C060587F4F6C5F7F4F072E000CEC
:103CA000880B990B0E9431274B015C0120E030E02A
:103CB00040E850E4C301B2010E948726A5019401A7
:103CC0000E94F42618160CF4E9C320E030E040E42A
:103CD00051E4C301B2010E9488269B01AC01C501D9
:103CE000B4010E94F42618160CF4D8C3F601E55E60
:103CF000FD4F8081882309F4D1C381508083F12C4A
:103D00002BE232E0EBE1F2E090E080E04191840FC1
:103D1000911D2E173F07D1F7892B11F40E94BD0D7D
:103D2000F1100E947F0FC090A901D090AA01E090ED
:103D3000AB01F090AC0120E030E040E451E4C70179
:103D4000B6010E94F42618168CF08091B101909172
:103D5000B201A091B301B091B401B0588093B10108
:103D60009093B201A093B301B093B40180919601F6
:103D7000882309F4D0C08090A5019090A601A0905E
:103D8000A701B090A80140908D0150908E016090E5
:103D90008F017090900120E030E040E051E4C501D7
:103DA000B4010E9488269B01AC01C301B2010E94AC
:103DB000F42687FFB0C020E030E040E051E4C301CA
:103DC000B2010E9488269B01AC01C501B4010E948A
:103DD000F42687FFA0C08090910190909201A0905E
:103DE0009301B090940120E030E040E051E4C7013D
:103DF000B6010E9488269B01AC01C501B4010E9456
:103E0000F42687FF88C020E030E040E051E4C5019F
:103E1000B4010E9488269B01AC01C701B6010E9433
:103E2000F42687FF78C080919501811119C060E563
:103E300070E08BE092E00E940C0B809133028F5F68
:103E4000809333021092960180E090E0A0E0B3E40A
:103E500080938D0190938E01A0938F01B093900178
:103E6000809195018130B1F42BE232E0EBE1F2E098
:103E70008191843020F4DF0111978F5F8C932E178E
:103E80003F07B1F760E570E08BE092E00E940C0B19
:103E900010929601809195018230B1F42BE232E0CC
:103EA000EBE1F2E08191882321F0DF01119781504D
:103EB0008C932E173F07B1F760E570E083E890E040
:103EC0000E940C0B1092960180919501833061F451
:103ED00010922E028093320260E570E086E091E05D
:103EE0000E940C0B1092960180919501843099F4F8
:103EF0008BE292E024E0AE85BF852D93BF87AE872D
:103F00008A179B07C1F760E570E08BE092E00E94A2
:103F10000C0B10929601C090A901D090AA01E090DC
:103F2000AB01F090AC018090A5019090A601A0900B
:103F3000A701B090A80110E000E080913202801744
:103F4000110609F00CF4F4C2EA85FB85808588230C
:103F500009F483C0408051806280738020E030E0AB
:103F600040E051E4C501B4010E9488269B01AC01E8
:103F7000C301B2010E94F42687FF6FC020E030E049
:103F800040E051E4C301B2010E9488269B01AC01CC
:103F9000C501B4010E94F42687FF5FC0AA85BB85D6
:103FA00014964D905D906D907C90179720E030E0D6
:103FB00040E051E4C701B6010E9488269B01AC0194
:103FC000C301B2010E94F42687FF47C020E030E021
:103FD00040E051E4C301B2010E9488269B01AC017C
:103FE000C701B6010E94F42687FF37C060E570E084
:103FF00088E891E00E940C0B80912F028F5F8093E4
:104000002F02EA85FB85108690913102891351C2F7
:1040100020E030E040EF52E4209355013093560108
:1040200040935701509358010E94B62522E230E098
:1040300040E050E00E942426665F7F4F8F4F9F4FE5
:104040000E9431276093590170935A0180935B015C
:1040500090935C0131E030935D010F5F1F4FEA8563
:10406000FB853A96FB87EA8768CF893C08F001CC4C
:1040700060917D0170917E01072E000C880B990BD9
:104080000E9431279B01AC0160917501709176010E
:1040900080917701909178010E9488266093750144
:1040A0007093760180937701909378010E942E0E91
:1040B0008823F1F060917F0170918001072E000C40
:1040C000880B990B0E9431279B01AC01609179010B
:1040D00070917A0180917B0190917C010E948826E9
:1040E0006093790170937A0180937B0190937C01B6
:1040F0000E94ED0DBECB893C08F00CCB60917D0198
:1041000070917E01072E000C880B990B0E943127BD
:104110009B01AC01609175017091760180917701EE
:10412000909178010E9488266093750170937601C2
:10413000809377019093780160917F017091800165
:10414000072E000C880B990B0E9431279B01AC01B4
:104150006091790170917A0180917B0190917C014D
:104160000E9488266093790170937A0180937B0185
:1041700090937C010E942E0E0E94ED0DCBCA0E94EE
:10418000B62522E030E040E050E00E9424266B019A
:1041900080917D0190917E018C9DB0018D9D700D6F
:1041A0009C9D700D1124072E000C880B990B0E940A
:1041B000312720917501309176014091770150911E
:1041C00078010E9488266093750170937601809330
:1041D00077019093780180917F01909180018C9D6F
:1041E000B0018D9D700D9C9D700D1124072E000C4B
:1041F000880B990B0E9431272091790130917A0127
:1042000040917B0150917C010E9488266093790146
:1042100070937A0180937B0190937C010E942E0E13
:1042200067CFF60181818F5F81839289992309F499
:104230005AC066857785072E000C880B990B0E9463
:104240003127D60116962D913D914D915C9119978C
:104250000E9488264B015C01F60186829782A08627
:10426000B18620E030E0A9010E94F42687FF03C058
:10427000D60152961C92F601E480F58002811381EA
:104280002285338544855585C501B4010E94980E69
:10429000882319F0D60152961C92F6016285738527
:1042A000848595850E94F9264B01D60116966D915D
:1042B0007D918D919C9119970E94F926CB01EE2456
:1042C000E394F6010481228147E05DE0B4010E949D
:1042D0002E0DB4E1CB0ED11CE1E5CE16E1E0DE06F9
:1042E00009F0B3CBB9CB9C91981798F711961C9213
:1042F000119750968D909C90092C000CAA08BB0831
:1043000081149104A104B10439F00E94B625A501DD
:1043100094010E9424264B0180949094F601978684
:1043200086860E94B6252CE231E040E050E00E94F3
:1043300024266C59D6016C93812C912CA12C83E4FA
:10434000B82E16968D929D92AD92BC921997529668
:104350007C92BFCF6091100170911101072E000C6B
:10436000880B990B0E943127209108013091090197
:1043700040910A0150910B010E9488266B017C013B
:10438000C0920801D0920901E0920A01F0920B015B
:1043900020E030E0A9010E94F42687FD0AC020E059
:1043A00030E040E053E4C701B6010E94E12718164F
:1043B00014F41092140160910C0170910D01809120
:1043C0000E0190910F010E94F9264B01C701B60121
:1043D0000E94F926CB01EE24E3940091060120917E
:1043E000040143E05DE0B4010E942E0D39CB84E06E
:1043F0000E944C0B811140CB44CB8090A90190903E
:10440000AA01A090AB01B090AC014090A5015090E2
:10441000A6016090A7017090A80168E270E083E9AE
:1044200092E00E940C0B81E080931401C301B20161
:104430000E94F926072E000C880B990B0E94312749
:10444000609308017093090180930A0190930B0116
:10445000C501B4010E94F926072E000C880B990BA8
:104460000E94312760930C0170930D0180930E011F
:1044700090930F0106CB80E40E944C0B882309F433
:1044800022CBA50194016091AD017091AE018091A4
:10449000AF019091B0010E9488260DCB3FEFC31A67
:1044A000D30A0850110940E1C416D10409F0EFCB3A
:1044B00027CC909130028913D0CD41E04093280160
:1044C0001092270140933C0110923B014093500110
:1044D00010924F0185E090E09093D4028093D30234
:1044E000AEE1B0E0B093D202A093D10240932D028E
:1044F0008CEA92E00E9404100E94570B6091000128
:104500007091010180910201909103010E94C80DF8
:104510008DE79AE00E94F90A60EA7FE080E090E08F
:104520000E9485090E94BD0DB1E0B093830195CD35
:1045300080915D01882309F4CAC080905501909054
:104540005601A0905701B09058016091A10170915F
:10455000A20177FF02C06F5F7F4F75956795072EA9
:10456000000C880B990B0E9431272091A5013091F6
:10457000A6014091A7015091A8010E9488266B01D5
:104580007C01AC019B01C501B4010E94F42687FFA8
:104590009EC06091510170915201072E000C880B52
:1045A000990B0E943127A50194010E9488269B0146
:1045B000AC01C701B6010E94F42687FF88C0809035
:1045C000590190905A01A0905B01B0905C016091FC
:1045D000A3017091A40177FF02C06F5F7F4F7595B3
:1045E0006795072E000C880B990B0E9431272091AC
:1045F000A9013091AA014091AB015091AC010E94F8
:1046000088266B017C01AC019B01C501B4010E94AD
:10461000F42687FF5CC06091530170915401072E0E
:10462000000C880B990B0E943127A50194010E9470
:1046300088269B01AC01C701B6010E94F42687FFC2
:1046400046C0809134026AE00E94532891113FC213
:1046500085EE9CE00E94F90A68EB7BE080E090E048
:104660000E9485090E94370B81E080932D0284E22D
:1046700090E09093D4028093D30281E090E09093F5
:10468000D2028093D10288E992E00E9404106091E6
:10469000340270E090E080E04AE00E94B60FEE2421
:1046A000E39400E320E64FE85AE06AE070E081E13D
:1046B00090E00E942E0D0E94570B809134028F5F74
:1046C0008093340290E00E94B71010925D018091B7
:1046D0008301882309F485C080907501909076014C
:1046E000A0907701B09078016091A1017091A20132
:1046F00077FF02C06F5F7F4F75956795072E000C9F
:10470000880B990B0E9431272091A5013091A601B9
:104710004091A7015091A8010E9488266B017C015D
:10472000AC019B01C501B4010E94F42687FF59C06A
:104730006091710170917201072E000C880B990B2A
:104740000E943127A50194010E9488269B01AC019B
:10475000C701B6010E94F42687FF43C0809079010B
:1047600090907A01A0907B01B0907C016091A301B0
:104770007091A40177FF02C06F5F7F4F75956795B9
:10478000072E000C880B990B0E9431272091A9015C
:104790003091AA014091AB015091AC010E94882652
:1047A0006B017C01AC019B01C501B4010E94F426A0
:1047B00087FF17C06091730170917401072E000C80
:1047C000880B990B0E943127A50194010E9488262D
:1047D0009B01AC01C701B6010E94F42687FD0E942F
:1047E0007F0F4091A3015091A4016091A1017091AC
:1047F000A2014090A9015090AA016090AB01709075
:10480000AC01C090A501D090A601E090A701F09066
:10481000A801809070018A86809062019090630167
:10482000A0906401B09065018E869F86A88AB98A9F
:1048300020915E0130915F0137FF02C02F5F3F4F33
:10484000359527958090660190906701A09068014A
:10485000B09069018E829F82A886B986809160019E
:104860009091610197FD01969595879510E000E084
:104870004901330FAA08BB088A8A9B8AAC8ABD8A81
:104880004B01770FAA08BB088E8A9F8AA88EB98E23
:104890004C01990FAA08BB088A8E9B8EAC8EBD8EE8
:1048A0004A01550FAA08BB088E8E9F8EA8A2B9A2F6
:1048B0000130110509F45AC09A84992009F456C0B0
:1048C0006A897B898C899D890E9431272E853F8545
:1048D000488959890E9488264B015C01AC019B01E3
:1048E000C701B6010E94F42687FF40C06E897F8908
:1048F000888D998D0E943127A70196010E948826F4
:104900009B01AC01C501B4010E94F42687FF2EC0B3
:104910006A8D7B8D8C8D9D8D0E9431272E813F81EC
:10492000488559850E9488264B015C01AC019B019A
:10493000C301B2010E94F42687FF18C001E010E015
:104940006E8D7F8D88A199A10E943127A3019201CC
:104950000E9488269B01AC01C501B4010E94F42687
:1049600087FFA6CF109270010E947F0F8090A9014F
:104970009090AA01A090AB01B090AC018A869B8672
:10498000AC86BD868090A5019090A601A090A7015D
:10499000B090A8018E869F86A88AB98A8091A101CD
:1049A0009091A20197FD019695958795C090A301DE
:1049B000D090A401D7FE03C00FEFC01AD00AD5943F
:1049C000C7944C01990FAA08BB088E829F82A886C3
:1049D000B9860D2C000CEE08FF08D10152968C917F
:1049E0005297882309F466C016964D905D906D909D
:1049F0007C9019976E817F81888599850E943127E7
:104A00002E853F85488959890E9488264B015C0183
:104A1000AC019B01C301B2010E94F42687FF4AC08A
:104A2000F10162817381072E000C880B990B0E94A3
:104A30003127A30192010E9488269B01AC01C50188
:104A4000B4010E94F42687FF35C0D1011A964D901B
:104A50005D906D907C901D97C701B6010E94312733
:104A60002A853B854C855D850E9488264B015C012B
:104A7000AC019B01C301B2010E94F42687FF1AC05A
:104A8000F10164817581072E000C880B990B0E943F
:104A90003127A30192010E9488269B01AC01C50128
:104AA000B4010E94F42687FF05C00E947F0FD10148
:104AB00052961C92B4E12B0E311CE1E5F1E0E215B7
:104AC000F30509F08ACF0E94570B0C947F178FECE7
:104AD0009CE0C0CD8F929F92AF92BF92CF92DF9217
:104AE000EF92FF92CF93DF93EC01688179818A8105
:104AF0009B81611571058105910521F464E279EDD1
:104B00008BE597E02DE133EF41E050E00E94242651
:104B100049015A019B01AC01A7EAB1E40E94432676
:104B20006B017C01ACEEB4EFA50194010E9451260B
:104B3000C60ED71EE81EF91EF7FE06C081E0C81A91
:104B4000D108E10880E8F80AC882D982EA82FB82AB
:104B5000C701B6019F77DF91CF91FF90EF90DF9073
:104B6000CF90BF90AF909F908F9008958F929F921B
:104B7000AF92BF92CF92DF92EF92FF926091430289
:104B80007091440280914502909146026115710531
:104B90008105910521F464E279ED8BE597E02DE143
:104BA00033EF41E050E00E94242649015A019B0165
:104BB000AC01A7EAB1E40E9443266B017C01ACEE94
:104BC000B4EFA50194010E945126C60ED71EE81E1F
:104BD000F91EF7FE06C081E0C81AD108E10880E896
:104BE000F80AC0924302D0924402E0924502F09249
:104BF0004602C701B6019F77FF90EF90DF90CF90FC
:104C0000BF90AF909F908F900895609343027093F0
:104C1000440280934502909346020895F999FECF8D
:104C200092BD81BDF89A992780B50895262FF999EC
:104C3000FECF1FBA92BD81BD20BD0FB6F894FA9A7F
:104C4000F99A0FBE01960895052E97FB1EF4009465
:104C50000E943B2657FD07D00E94562607FC03D032
:104C60004EF40C943B2650954095309521953F4F3E
:104C70004F4F5F4F089590958095709561957F4F48
:104C80008F4F9F4F08950E947826A59F900DB49F47
:104C9000900DA49F800D911D11240895B7FF0C94D1
:104CA00043260E944326821B930B0895A1E21A2EED
:104CB000AA1BBB1BFD010DC0AA1FBB1FEE1FFF1FC0
:104CC000A217B307E407F50720F0A21BB30BE40B10
:104CD000F50B661F771F881F991F1A9469F7609557
:104CE0007095809590959B01AC01BD01CF01089511
:104CF000A29FB001B39FC001A39F700D811D11241D
:104D0000911DB29F700D811D1124911D0895505861
:104D1000BB27AA270E949F260C94A7270E949927A9
:104D200038F00E94A02720F039F49F3F19F426F4B0
:104D30000C9496270EF4E095E7FB0C949027E92F4E
:104D40000E94B82758F3BA176207730784079507BC
:104D500020F079F4A6F50C94DA270EF4E0950B2EEA
:104D6000BA2FA02D0B01B90190010C01CA01A001BD
:104D70001124FF27591B99F0593F50F4503E68F118
:104D80001A16F040A22F232F342F4427585FF3CF59
:104D9000469537952795A795F0405395C9F77EF42A
:104DA0001F16BA0B620B730B840BBAF09150A1F073
:104DB000FF0FBB1F661F771F881FC2F70EC0BA0FF9
:104DC000621F731F841F48F4879577956795B79581
:104DD000F7959E3F08F0B0CF9395880F08F099277C
:104DE000EE0F9795879508950E946C2708F481E04F
:104DF00008950E9400276894B1110C94DB27089550
:104E00000E94C02788F09F5798F0B92F9927B75173
:104E1000B0F0E1F0660F771F881F991F1AF0BA955E
:104E2000C9F714C0B13091F00E94DA27B1E00895BB
:104E30000C94DA27672F782F8827B85F39F0B93FAD
:104E4000CCF3869577956795B395D9F73EF4909511
:104E50008095709561957F4F8F4F9F4F0895E8948F
:104E600009C097FB3EF490958095709561957F4FB2
:104E70008F4F9F4F9923A9F0F92F96E9BB27939560
:104E8000F695879577956795B795F111F8CFFAF470
:104E9000BB0F11F460FF1BC06F5F7F4F8F4F9F4FA1
:104EA00016C0882311F096E911C0772321F09EE8FF
:104EB000872F762F05C0662371F096E8862F70E065
:104EC00060E02AF09A95660F771F881FDAF7880F3F
:104ED0009695879597F90895990F0008550FAA0B95
:104EE000E0E8FEEF16161706E807F907C0F01216FD
:104EF0001306E407F50798F0621B730B840B950B00
:104F000039F40A2661F0232B242B252B21F4089554
:104F10000A2609F4A140A6958FEF811D811D0895F1
:104F200097F99F6780E870E060E008959FEF80EC5C
:104F3000089500240A9416161706180609060895FF
:104F400000240A9412161306140605060895092E65
:104F50000394000C11F4882352F0BB0F40F4BF2BD4
:104F600011F460FF04C06F5F7F4F8F4F9F4F089514
:104F700057FD9058440F551F59F05F3F71F047950A
:104F8000880F97FB991F61F09F3F79F087950895EF
:104F9000121613061406551FF2CF4695F1DF08C00E
:104FA000161617061806991FF1CF8695710561052B
:104FB00008940895E894BB2766277727CB0197F9D3
:104FC00008950E946C2708F48FEF08950E94F92736
:104FD0000C94A7270E94992738F00E94A02720F060
:104FE000952311F00C9490270C94962711240C947F
:104FF000DB270E94B82770F3959FC1F3950F50E00F
:10500000551F629FF001729FBB27F00DB11D639F7A
:10501000AA27F00DB11DAA1F649F6627B00DA11D20
:10502000661F829F2227B00DA11D621F739FB00DC6
:10503000A11D621F839FA00D611D221F749F332736
:10504000A00D611D231F849F600D211D822F762FCF
:105050006A2F11249F5750409AF0F1F088234AF0AC
:10506000EE0FFF1FBB1F661F771F881F9150504018
:10507000A9F79E3F510580F00C9490270C94DB27F4
:105080005F3FE4F3983ED4F3869577956795B7959F
:10509000F795E7959F5FC1F7FE2B880F911D9695B9
:1050A000879597F90895991B79E004C0991F961781
:1050B00008F0961B881F7A95C9F78095089597FB8D
:1050C000072E16F4009407D077FD09D00E947328AC
:1050D00007FC05D03EF4909581959F4F08957095FB
:1050E00061957F4F0895AA1BBB1B51E107C0AA1F02
:1050F000BB1FA617B70710F0A61BB70B881F991F79
:105100005A95A9F780959095BC01CD010895EE0FB1
:0E511000FF1F0590F491E02D0994F894FFCF55
:10511E000000803F04000400000080420000804137
:10512E00040001000000000800080000008042009A
:10513E00008041FFFF010000000000080008000091
:10514E0000804200008041FFFF01000000000008C7
:10515E000008000000804200008041FFFF010000B7
:10516E0000080008000000F04200000042000400A9
:10517E0004000000804200008041FCFF010000009E
:10518E00001000100000000043000000420100016A
:10519E000001000000000000000000000000000000
:1051AE00430000004200000000000000000000006C
:1051BE0000080008000000004300000042000080CC
:1051CE003F0000803F000080420000804100000050
:1051DE0000804200008041000000008042000080FC
:1051EE00410000000080420000804100000000806D
:1051FE00420000804100000000804200008041001B
:10520E00000000804200008041000000008042004B
:10521E00008041000000008042000080410000003C
:10522E0000804200008041000001000102030403DF
:10523E0004030201020102030304038000010000C3
:10524E00050A0A03010101FFFFFFFF00E100000054
:10525E000000000100000005141E2D32010203049F
:10526E0003040302010201020303040300C180814F
:10527E00000000000000002008B809410836088729
:10528E00084508630800000000870C3309B30FB20D
:10529E000F4A554D5020424F59320050726573736C
:1052AE002041206F7220420053746167653A0020DE
:1052BE0000423A434F4E54494E554500456E656D7A
:0C52CE007920617070656172732100002E
:00000001FF
