:100000000C94FE060C9426070C9426070C942607E5
:100010000C9426070C9426070C9426070C942607AC
:100020000C9426070C9426070C946B100C94DA1091
:100030000C9426070C9426070C9426070C9426078C
:100040000C9426070C9426070C9426070C9426077C
:100050000C9426070C9426070C9426070C940C137A
:100060000C9426070C9426070C9426070C9426075C
:100070000C9426070C9426070C9426070C9426074C
:100080000C9456130C9426070C9426070C94260700
:100090000C9426070C9426070C9426070C9426072C
:1000A0000C9426070C9426070C9426070000000FDA
:1000B000000000000000000000000001F9F0000056
:1000C000000000000000000007001C00000000000D
:1000D0000000000000083FE20000000000000000F7
:1000E000000010C0390000000000000000000021E6
:1000F000823C80060000000000000000410624C091
:10010000090000000000000000811F064010800070
:1001100000C000000001813E02401080000120006C
:100120000000010338032009000002100000000154
:1001300002380120060000021000000001027001D8
:10014000300000000120000000010270019000005A
:100150000000C000000001027000900000000000DC
:1001600000000001027000500000000000000000CC
:1001700001027800500000000000000000010308A8
:10018000005000000000000000000081000050004E
:100190000000000000000000808000D0000000008F
:1001A000000000000080C00090000000000000007F
:1001B000000040400310000000000000000000406C
:1001C0003FFE100000000000000000004000001092
:1001D0003E1FC3FF3F8000000060000020000000C1
:1001E0000000000000007C00007000000000000023
:1001F000000001A3F3F0D0000003FF0000000001A5
:10020000201E001000000000000000000F00000091
:100210003F000000000000000008C00001C1C00055
:1002200003FF000000001870038000300000000091
:10023000000000680FFE0000180000000000000031
:1002400046000000000C00000000000000C3800019
:1002500000000600000000000000B0FFC000000227
:10026000000000000000009C0000000002000000F0
:1002700000000000878FF80000020000000000006E
:100280000404080C141A2DD63FFF3BEF3BEF3FFE52
:100290001E3C0EBC47F0380676DE063807F80E1C0A
:1002A00000000000003E5B4F5B3E3E6B4F6B3E1C10
:1002B0003E7C3E1C183C7E3C181C577D571C1C5E27
:1002C0007F5E1C00183C1800FFE7C3E7FF001824FE
:1002D0001800FFE7DBE7FF30483A060E26297929A8
:1002E00026407F050507407F05253F5A3CE73C5ADD
:1002F0007F3E1C1C08081C1C3E7F14227F22145FBA
:100300005F005F5F06097F017F006689956A606014
:1003100060606094A2FFA29408047E040810207E0E
:10032000201008082A1C08081C2A08081E10101093
:10033000100C1E0C1E0C30383E3830060E3E0E06D9
:10034000000000000000005F00000007000700142C
:100350007F147F14242A7F2A1223130864623649EB
:100360005620500008070300001C224100004122D3
:100370001C002A1C7F1C2A08083E080800807030D8
:100380000008080808080000606000201008040247
:100390003E5149453E00427F40007249494946214D
:1003A00041494D331814127F1027454545393C4AC1
:1003B00049493141211109073649494936464949D8
:1003C000291E000014000000403400000008142220
:1003D000411414141414004122140802015909068E
:1003E0003E415D594E7C1211127C7F494949363E8F
:1003F000414141227F4141413E7F494949417F0975
:100400000909013E414151737F0808087F00417F7F
:1004100041002040413F017F081422417F4040407D
:10042000407F021C027F7F0408107F3E4141413E15
:100430007F090909063E4151215E7F091929462697
:100440004949493203017F01033F4040403F1F209B
:1004500040201F3F4038403F631408146303047872
:1004600004036159494D43007F4141410204081092
:1004700020004141417F04020102044040404040CD
:10048000000307080020545478407F28444438383B
:1004900044444428384444287F38545454180008AD
:1004A0007E090218A4A49C787F0804047800447D87
:1004B00040002040403D007F1028440000417F4024
:1004C000007C047804787C08040478384444443878
:1004D000FC1824241818242418FC7C080404084858
:1004E0005454542404043F44243C4040207C1C20A9
:1004F00040201C3C4030403C44281028444C909004
:10050000907C4464544C440008364100000077005D
:1005100000004136080002010204023C2623263C6A
:100520001EA1A161123A4040207A385454555921F5
:1005300055557941215454784121555478402054DF
:100540005579400C1E52721239555555593954542B
:10055000545939555454580000457C410002457D9A
:10056000420001457C40F0292429F0F0282528F09C
:100570007C545545002054547C547C0A097F4932F0
:10058000494949323248484832324A4848303A416B
:1005900041217A3A42402078009DA0A07D39444410
:1005A00044393D4040403D3C24FF2424487E49439B
:1005B000662B2FFC2F2BFF0929F620C0887E09030C
:1005C00020545479410000447D413048484A323833
:1005D0004040227A007A0A0A727D0D19317D26295F
:1005E000292F28262929292630484D402038080857
:1005F000080808080808382F10C8ACBA2F1028348B
:10060000FA00007B000008142A142222142A14087D
:100610009500220095AA005500AAAA55AA55AA003D
:100620000000FF00101010FF00141414FF00101041
:10063000FF00FF1010F010F0141414FC001414F755
:1006400000FF0000FF00FF1414F404FC1414171042
:100650001F10101F101F1414141F00101010F00092
:100660000000001F101010101F10101010F01000CC
:100670000000FF101010101010101010FF100000DC
:1006800000FF140000FF00FF00001F10170000FC17
:1006900004F414141710171414F404F40000FF00E9
:1006A000F714141414141414F700F7141414171472
:1006B00010101F101F141414F4141010F010F00078
:1006C000001F101F0000001F14000000FC14000099
:1006D000F010F01010FF10FF141414FF141010107D
:1006E0001F00000000F010FFFFFFFFFFF0F0F0F030
:1006F000F0FFFFFF0000000000FFFF0F0F0F0F0FC4
:1007000038444438447C2A2A3E147E0202060602FB
:100710007E027E0263554941633844443C04407E76
:10072000201E2006027E020299A5E7A5991C2A49EF
:100730002A1C4C7201724C304A4D4D30304878487A
:1007400030BC625A463D3E494949007E0101017E66
:100750002A2A2A2A2A44445F444440514A444040B9
:10076000444A51400000FF0103E080FF00000808F8
:100770006B6B083612362436060F090F0600001878
:10078000180000001010003040FF0101001F01019F
:100790001E00191D1712003C3C3C3C0000000000EC
:1007A000F0F89C8E8783878E9CF8F00000FEFF0394
:1007B00003030303070EFCF80000FEFF030303031B
:1007C00003070EFCF80000FFFF000000000000001F
:1007D000FFFF0000FEFF8383838383C7EE7C380026
:1007E00000F8FC0E07030303070EFCF800003F7F30
:1007F000E0C08080C0E07F3FFFFF010101010101F7
:1008000001FFFF0000FFFF0C0C0C0C1C3E77E3C146
:1008100000007FFFC0C0C0C0C0E0703F1F00001FCD
:100820003F70E0C0C0C0E0703F1F00007FFFC1C14B
:10083000C1C1C1E3773E1C00001F3F70E0C0C0C0D3
:10084000E0703F1F000000000001FFFF01000000FA
:10085000D5F08D14A1C881CFD9F1AF2000000000E0
:100860000000000000000000000000000000000088
:100870000000000000000000000000000000000078
:100880000000000000000000000000000000000068
:100890000000000000000000000000000000000058
:1008A0000000000000000000000000000000000048
:1008B0000000000000000000000000000000000038
:1008C0000000000000000000000000000000000028
:1008D0000000000000000000000000000000000018
:1008E0000000000000000000000000000000007E8A
:1008F0000FFF0600FF83FFC0000000FF0FFF0F0087
:10090000FFE3FFC00000018380600F00C06018009B
:100910000000018180600F00C0601800000003002B
:1009200080601B80C03018000000038000601980C8
:10093000C06018000000018000603980C0601800AD
:10094000000001E0006030C0C0E01800000000FEC0
:10095000006030C0FFC018000000001F806070C041
:10096000FF8018000000000380606060C1C01800B4
:1009700000000000C0607FE0C0C018000000000060
:10098000C060FFF0C060180000000300C060C0300D
:10099000C060180000000380C060C030C060180054
:1009A000000001C180618018C0301800000000FF05
:1009B00080618018C03018000000007E006180183F
:1009C000C03018000000000000000000000000001F
:1009D0000000000000000000000000000000000017
:1009E0000000000000000000000000000000000007
:1009F00000000000000000000000000000000000F7
:100A000000000000000000000000000000000000E6
:100A100000000000000000000000000000000000D6
:100A200000000000000000000000000000000000C6
:100A300000000000000000000000000000000000B6
:100A400000000000000000000000000000000000A6
:100A50000000000000000000000000000000000096
:100A60000000000000000000000000000000000086
:100A70000000000000000000000000000000000076
:100A80000000000000000000000000000000000066
:100A900000000000000000000000000000000060F6
:100AA000959F60000000001FC02030400840089063
:100AB00088B9C4908440046044308610A10F31028C
:100AC00011061E000000000C6018300D6007C08881
:100AD000225AB4E82EB45AA38A9112D1160EE01805
:100AE0003024483C780000000000000000000000B6
:100AF00000000000000000000000000000000000F6
:100B000000000000000000000000000000000000E5
:100B10000000000000000007C1003FE0300FF000BF
:100B20000000001FE1003FC0700C7800000000389A
:100B3000310020007808180000000030310020004B
:100B400058080C000000006001002000C8080C00DC
:100B50000000006001002000CC08180000000060C8
:100B600001003F818C0C78000000006001003FC153
:100B7000860FE00000000060010020010608300040
:100B80000000006001002003FE081000000000606B
:100B900011002003FF08180000000030310020027F
:100BA00003081800000000383100200601080C007E
:100BB0000000001FE1FF3FC601880C000000000795
:100BC000C1FF3FE4018804000000000000000000B5
:100BD0000000000000000000000000000000000015
:100BE0000000000000000000000000000000000005
:100BF00000000000000000000000000000000000F5
:100C000000000000000000000000000000000000E4
:100C10000000000000003FFC000000000000007E1B
:100C2000000061E700000000000000760000873D42
:100C3000C0000000000000F000011C0240000000A5
:100C40000000009000032002200000000000008847
:100C50000006618110000000000000CFE004C381A5
:100C600090000000000000FF70048E00980000005B
:100C70000000007E300C9E00C80000000000000351
:100C80001009900048000000000000013009100029
:100C900048F0000000000000B0091800489800006B
:100CA0000000000CE0051800488800000000000F5C
:100CB000C0059800480E00000000000300048800F2
:100CC000580B0000000000000004C400D11900000F
:100CD0000000000000066001B1F300000000000009
:100CE0000002200360E280000000000000033002E8
:100CF000C020800000000000000190018043C0007F
:100D000000000000003EFE0FFC424000000000001A
:100D100001E3A3F807E080000000000001000000EC
:100D200000818000007E81A5817E3C2466FF81A930
:100D300095A99581FF7E81A599A581817EFF8181FD
:100D4000BD818181FFFF8189BD898981FF1824428E
:100D50004A52422418FF81FF81FF81FF81FF81FFFA
:100D600081FF81FFFFFF81FF81FFFFFFFFFF81FF09
:100D7000FFFFFFFFFFFFFFFFFFFFFFFFFF1E3F7EA5
:100D8000FCFC7E3F1E080B0002020200000904006A
:100D900000010202000005240010010524010101E8
:100DA0000424020605240600010705810310004003
:100DB00009040100020A00000007050202400000C9
:100DC000070583024000000403090412010002EF3A
:100DD0000201404123368000010102030141726497
:100DE00075696E6F204C4C430041726475696E6F7B
:100DF000204C656F6E6172646F00EA1311241FBE90
:100E0000CFEFDAE0DEBFCDBF12E0A0E0B1E0E8EA6C
:100E1000F3E402C005900D92A234B107D9F726E0A1
:100E2000A2E4B2E001C01D92A03EB207E1F716E0D5
:100E3000CEEFD6E004C02197FE010E94CC21CD3F29
:100E4000D107C9F70E9417140C94D2210C9400000A
:100E5000809155020895ECE7F2E0A0E0B8E0008050
:100E60000EBC8111012C1197A0FDFDCF0192B9F7A5
:100E70000DB408951092DD011092DE011092E1018F
:100E80001092E2012AE02093DF018B30910514F0EB
:100E90008AE090E08093E001E9E7F1E010863A967D
:100EA00081E0ED3DF807D1F70895FC0180917B02C8
:100EB000882311F13FB7F89482E08093E9002091F4
:100EC000F200822F90E01816190614F481E090E0E9
:100ED000882339F0289844E640937A024091F10043
:100EE0004083222339F02091F200211103C02BE628
:100EF0002093E8003FBF08958FEF9FEF08952FB72D
:100F0000F89483E08093E9009091E800892F807243
:100F100095FF04C09091F20080E4891B2FBF0895D3
:100F20008091720281110DC082E080936E0284E094
:100F300080936F02109271021092700281E0809390
:100F400072028EE692E00895CF93DF931F92CDB7A1
:100F5000DEB76983DC01ED91FC910280F381E02D25
:100F600041E050E0BE016F5F7F4F09950F90DF9128
:100F7000CF91089583E08093E9008091F200882367
:100F800019F08AE38093E80008950E947F0790E0BB
:100F90000895CF93DF931F92CDB7DEB7FC01848510
:100FA000958597FD08C02FEF3FEF358724870F9079
:100FB000DF91CF910895CE0101960E9455070197C8
:100FC00019F4898190E0F3CF8FEF9FEFF0CF0F936B
:100FD0001F93CF93DF931F92CDB7DEB78C01FC0137
:100FE0008485958597FF0BC0CE0101960E94550719
:100FF000019771F4898190E0F80195878487F80161
:10100000848595850F90DF91CF911F910F91089561
:101010008FEF9FEFF1CFFC018485958597FD0BC085
:101020009FB7F89482E08093E9008091F2009FBF1F
:1010300090E0019608959FB7F89482E08093E900CC
:101040008091F2009FBF90E0089540916802509116
:101050006902209166023091670242175307B4F487
:101060009091E8009570E1F39091E80092FD19C02D
:101070008093F100809168029091690201968F73CC
:101080009927892B19F48EEF8093E80080916802EC
:10109000909169020196909369028093680281E0C1
:1010A000089580E00895DF92EF92FF920F931F93CF
:1010B000CF93DF93D82E8A01EB017B01E40EF51E5E
:1010C000CE15DF0559F0D7FE12C0FE0184910E94B3
:1010D000250821968111F4CF0FEF1FEFC801DF9192
:1010E000CF911F910F91FF90EF90DF90089588812D
:1010F000EECF0F931F93CF93DF931F92CDB7DEB741
:1011000082E0898342E450E065E87DE080E80E9467
:1011100053080E949007DC0112960D911C91011555
:10112000110589F0D801ED91FC910280F381E02D49
:10113000BE016F5F7F4FC801099597FD04C0F8019C
:1011400000851185ECCF89810F90DF91CF911F91A0
:101150000F910895615030F02091F100FC0120833F
:101160000196F8CF289884E680937A020895AF928A
:10117000BF92CF92DF92EF92FF920F931F93CF9384
:10118000DF936C017B018B01040F151FEB015E01E6
:10119000AE18BF08C017D10759F06991D601ED917B
:1011A000FC910190F081E02DC6010995892B79F71A
:1011B000C501DF91CF911F910F91FF90EF90DF90CC
:1011C000CF90BF90AF9008953FB7F89480915102AF
:1011D00090915202A0915302B091540226B5A89B5F
:1011E00005C02F3F19F00196A11DB11D3FBFBA2FB9
:1011F000A92F982F8827BC01CD01620F711D811D79
:10120000911D42E0660F771F881F991F4A95D1F7FD
:1012100008958F929F92AF92BF92CF92DF92EF92FA
:10122000FF926B017C010E94E4084B015C01C11438
:10123000D104E104F104B9F00E94E40868197909C5
:101240008A099B09683E73408105910580F321E07E
:10125000C21AD108E108F10888EE880E83E0981ED2
:10126000A11CB11CE4CFFF90EF90DF90CF90BF9016
:10127000AF909F908F9008958F929F92AF92BF9260
:10128000CF92DF92EF92FF920F931F93CF93DF9352
:101290006C017B018A0180917801882309F45CC08C
:1012A00080917B02882309F457C080916D0280FFF2
:1012B00005C08091E00082608093E000E801B12CDD
:1012C0008AEFA82E93E0892E2AE3922E209711F41C
:1012D000BB20D9F10E947F0781110AC0AA94AA20DD
:1012E000D9F161E070E080E090E00E940909EECF62
:1012F0008C171D0611F00CF08C2F9FB7F89480927C
:10130000E9002091E80025FD02C09FBFDFCF282F14
:1013100030E0C21BD30BF701815020F04191409384
:10132000F100FACFE20EF31EBB2021F09092E8000C
:10133000B12CEBCF8091E80085FDE7CF9092E800DB
:10134000BB24B394209709F3F3CF5D9884E6809390
:101350006C02101611063CF081E090E0F6019383D8
:10136000828310E000E0C801DF91CF911F910F91BF
:10137000FF90EF90DF90CF90BF90AF909F908F90B5
:10138000089520914902E0914702F0914802CF016F
:1013900002969093480280934702222319F0859188
:1013A00094910895808191810895CF92DF92EF9278
:1013B000FF92CF93DF930E94C109811520E8920725
:1013C00091F4809171008D7F809371001092910053
:1013D0004698479810924602DF91CF91FF90EF9088
:1013E000DF90CF90089521E020934602813020E8DD
:1013F000920751F4809144029091450290934802E3
:10140000809347020E94C10997FD05C020914302C5
:10141000222309F454C020914202211150C021E03E
:1014200020934A02EC01DF77209709F04BC081E05E
:1014300080934B0246983FE9C32E3FE0D32EE12C28
:10144000F12CCAEFD0E0E091DA06F091DB060995C5
:10145000811103C081E080934B0280914A0288236E
:1014600029F080914B02882309F43FC047980E94DD
:10147000C1090097F1F19C01DE010E943620DC01D8
:10148000CB0129E0B595A795979587952A95D1F732
:10149000109290002AE020939100D0929900C0927F
:1014A000980080934C0290934D02A0934E02B0930B
:1014B0004F02809171008260809371008DCF1092F5
:1014C0004A02B0CF9E0150E040E060E472E48FE059
:1014D00090E00E94E21F69017A0181E0C81AD108F8
:1014E000E108F10810924B02AECF4699BFCF479A60
:1014F000BECF8FEF9FEFDC01CBCF9C01E1E7F0E0A7
:1015000090819D7F908310924902ECECF6E0F0937D
:101510004802E0934702F0934502E093440231838E
:1015200020837383628380E090E8958384830C94A6
:10153000D5092D9A0895BC0190E080E00C9409092A
:101540008FB18095807F669B88601C9B8460089526
:101550003E9A3F9A81E080935502089580E0ECE73F
:10156000F2E081118FEF0024819381938193819325
:101570000394D1F710925A021092590210925C0211
:1015800010925B020895CF93C82F0E94A00A982F53
:101590009C2381E09C1380E0CF91089580E00C941F
:1015A0002B072F923F924F925F926F927F928F9272
:1015B0009F92AF92BF92CF92DF92EF92FF920F93E2
:1015C0001F93CF93DF9300D000D01F92CDB7DEB72B
:1015D000E982A22EB12C9501280F391F121613068D
:1015E0000CF0B3C0803891050CF0AFC09B01200F08
:1015F000311D121613060CF0A8C0603471050CF0F2
:10160000A4C09B0177FF04C022273327261B370B7A
:1016100027703327DB0177FD1796F3E0B595A79583
:10162000FA95E1F777FF07C0119768E070E0FB01DA
:10163000E21BF30B9F01069506950695402E512C53
:10164000BD017695762F662777956795680F791F88
:1016500064587D4F8A01AD01E8E0F0E04F01821A45
:10166000930A4F3FFFEF5F070CF45FC07C011B82C2
:101670001A823B01F0E86F0E711CF7FC44C04F3F2B
:10168000540709F498C0CA80DB80C60ED71EF60145
:101690002080EA81FB81E00FF11FFD83EC83F9815B
:1016A000F13009F06AC0EC81FD813490E32D022E07
:1016B00001C0EE0F0A94EAF72E2AF60120822115C6
:1016C000310509F147305105F1F0CA80DB80C60CC5
:1016D000D71CF6012080EA81FB81E00FF11FFD831A
:1016E000EC83F981F13009F057C0EC81FD81349031
:1016F000E32DF0E0082C02C0F595E7950A94E2F797
:101700002E2AF6012082EA81FB813196FB83EA834F
:10171000FFEFEF1AFF0AEA81FB81EA15FB052CF4C3
:10172000E0E8EE16F10409F0A8CF4F5F5F4F605874
:101730007F4F0A0D1B1DFA01EA1BFB0BE415F50593
:1017400024F44830510509F08CCF0F900F900F9082
:101750000F900F90DF91CF911F910F91FF90EF901D
:10176000DF90CF90BF90AF909F908F907F906F90C1
:101770005F904F903F902F900895EC81FD813490C1
:10178000E32DF0E0022E02C0EE0FFF1F0A94E2F7F5
:10179000E095F0952E2291CFEC81FD813490E32DE0
:1017A000F0E0082C02C0F595E7950A94E2F7E09581
:1017B000F0952E22A6CF2115310509F086CFA3CFB3
:1017C00080389105B8F460347105A0F420E191E00F
:1017D00061FD94E060FD990F62FD9295687F269F00
:1017E000D0011124A80FA458BD4F8C9140FF03C015
:1017F000892B8C93089590958923FBCF8F929F928C
:10180000AF92BF92CF92DF92EF92FF920F931F930E
:10181000CF93DF936D3089F0C0905902D0905A0277
:101820006A30D1F410925C0210925B0288E0C80E1C
:10183000D11CD0925A02C092590281E090E0DF910F
:10184000CF911F910F91FF90EF90DF90CF90BF90BD
:10185000AF909F908F90089500915B0210915C0271
:10186000E5E06E9FE0011124C056DD4F4801F12CE8
:10187000F5E0E12CFF1629F0CE010196FE01E4907F
:10188000EC01B12CA12C4E2D4170B6016A0D7B1DCF
:10189000C4010E94E00BE694FFEFAF1ABF0A88E094
:1018A000A816B10481F7F394EFEF8E1A9E0AF6E0C2
:1018B000FF12DECF0A5F1F4F10935C0200935B02A2
:1018C000BCCF2F923F924F925F926F927F928F92F6
:1018D0009F92AF92BF92CF92DF92EF92FF920F93BF
:1018E0001F93CF93DF9300D01F92CDB7DEB7C22EE8
:1018F000D12C9601280F391F121613060CF05AC06E
:10190000803891050CF056C010E09801260F371F63
:10191000121613060CF04EC0603471050CF04AC06C
:10192000E9823A017B836A832C01160127E0220EAB
:10193000311C93E0359427949A95E1F75B01912C43
:10194000812CC5012A813B81821B930B8017910753
:101950008CF5F12CE12CEC14FD0434F5F70183E057
:10196000F595E7958A95E1F7E80DF91DE60DF71D68
:10197000E491C7018770992720E830E002C03595CF
:1019800027958A95E2F7C901F0E0E223F923EF2BCE
:1019900039F04981B501C701840D951D0E94E00B06
:1019A0003FEFE31AF30AD7CF820C931C8FEFA81AEC
:1019B000B80AC7CF0F900F900F90DF91CF911F9172
:1019C0000F91FF90EF90DF90CF90BF90AF909F90DE
:1019D0008F907F906F905F904F903F902F900895E1
:1019E000ECEEF1E0A7E5B1E081918D9381E0EC3F71
:1019F000F807D1F708950F931F93EDE2F1E000E0AF
:101A000010E020E231E4058316832783308700E06D
:101A100010E020EA31E4018712872387348700E051
:101A200010E020E83FE3058716872787308B618B1E
:101A3000728B838B948B81E080831F910F9108952B
:101A4000CF930E94CE0AC1E0C093580260EA70E0D2
:101A500083E890E00E947D0A68EB7BE080E090E004
:101A60000E9409091092540110924B0180916B0160
:101A7000815080936B01811102C0C0936C01609111
:101A800000017091010180910201909103010E9477
:101A9000FB0C10925802CF910895CF92DF92EF92F3
:101AA000FF92C0901501D0901601E0901701F090C0
:101AB000180120E030E040EA52E4C701B6010E947C
:101AC000B22087FF06C081E090E090931E018093D2
:101AD0001D01809111019091120168E770E0681B6F
:101AE000790B072E000C880B990B0E94EF209B01AD
:101AF000AC01C701B6010E949F21181634F48FEF84
:101B00009FEF90931E0180931D01C0901901D0900A
:101B10001A01E0901B01F0901C0120E030E040E24F
:101B200051E4C701B6010E94B22087FF06C081E0E0
:101B300090E09093200180931F0180911301909178
:101B4000140166E370E0681B790B072E000C880B0C
:101B5000990B0E94EF209B01AC01C701B6010E94C6
:101B60009F21181634F48FEF9FEF909320018093FC
:101B70001F01FF90EF90DF90CF9008958F929F927A
:101B8000AF92BF92CF92DF92EF92FF920F9380912C
:101B90002C01893CE0F5C0901901D0901A01E09029
:101BA0001B01F0901C0160911D0170911E01072E18
:101BB000000C880B990B0E94EF20209115013091A9
:101BC000160140911701509118010E944620609320
:101BD000150170931601809317019093180160917D
:101BE0001F0170912001072E000C880B990B0E9499
:101BF000EF20A70196010E9446206093190170937F
:101C00001A0180931B0190931C010E944D0D60915D
:101C1000190170911A0180911B0190911C010E9481
:101C2000B7204B0160911501709116018091170149
:101C3000909118010E94B720CB01EE24E39400E1BB
:101C400020E140E852E0B4010E94610C0F91FF9046
:101C5000EF90DF90CF90BF90AF909F908F900895BE
:101C6000089590E080E008958F929F92AF92BF9286
:101C70000F931F93CF93DF93CDB7DEB7A1970FB626
:101C8000F894DEBF0FBECDBF19A2423008F44AE07F
:101C90008E010F5D1F4F842E912CB12CA12CA5011C
:101CA00094010E941420E62FB901CA01EA3044F5DC
:101CB000E05DD801EE938D01232B242B252B79F7A2
:101CC00090E080E0109769F0FD0101900020E9F7B5
:101CD0003197AF014A1B5B0BBD018CED96E00E9472
:101CE000B708A1960FB6F894DEBF0FBECDBFDF9147
:101CF000CF911F910F91BF90AF909F908F900895BB
:101D0000E95CD7CFCF92DF92EF92FF92CF93DF9330
:101D10006B017C016DE28CED96E00E94FE0BEC0104
:101D200066277727CB016C197D098E099F094AE048
:101D30000E94340E8C0F9D1FDF91CF91FF90EF908A
:101D4000DF90CF900895FC0101900020E9F73197D2
:101D5000AF01481B590BBC018CED96E00C94B70801
:101D60002F923F924F925F926F927F928F929F92AB
:101D7000AF92BF92CF92DF92EF920F931F93CF93C8
:101D8000DF93D0E0C0E084E2282E312C4424439439
:101D9000512C22E3622E712C3EE1C32ED12C4CE259
:101DA000A42EB12C56E3852E912C6EE170E080E0DC
:101DB00090E00E9409090E94AE0A30925C022092D3
:101DC0005B0250925A024092590281E292E00E94D4
:101DD000A30EEE24E39404E228E64CEA50E06CE023
:101DE00070E08EE090E00E94610CCE010196B3019C
:101DF0000E94A4218C01EC0180915602909157021F
:101E000018161906E4F4D0925C02C0925B02B092FC
:101E10005A02A09259028BE292E00E94A30E6091B6
:101E2000560270915702072E000C880B990B97FFF2
:101E300037C00E94820E83E392E00E94A30E093114
:101E4000110564F4D0925C02C0925B0290925A0237
:101E50008092590285E392E00E94A30E0E94CE0A6E
:101E600088E00E94C30A811106C084E00E94C30A70
:101E7000882309F49ACF82E080936C01DF91CF919F
:101E80001F910F91EF90DF90CF90BF90AF909F90F8
:101E90008F907F906F905F904F903F902F9008951C
:101EA0004AE00E94340EC7CF0F931F93CF93DF9366
:101EB0008C01C1E1D1E01B8E80E090E0A8ECB2E49F
:101EC0008C839D83AE83BF830E94741F22E230E027
:101ED00040E050E00E94E21F665F7F4F8F4F9F4FB0
:101EE0000E94EF20688779878A879B87198B088BE8
:101EF00081E08A8BDF91CF911F910F9108952F92EE
:101F00003F924F925F926F927F928F929F92AF9289
:101F1000BF92CF92DF92EF92FF920F931F93CF93D6
:101F2000DF9300D000D0CDB7DEB729E731E03C83A6
:101F30002B83312C212C8AE090E0DC01A957B140A1
:101F4000BA83A9838091E0018215130409F00CF48F
:101F5000A9C0BFEF2B1A3B0AEB81FC818085811160
:101F60009AC08091E1018823D9F069817A816E0F4E
:101F70007F1F072E000C880B990B0E94EF20AB816E
:101F8000BC816D937D938D939C93139780E090E03B
:101F9000A0E2B2E4EB81FC8184839583A683B783BE
:101FA0000E94741F6B017C010E94741F22E230E0CA
:101FB00040E050E00E94E21F665F7F4F072E000C5A
:101FC000880B990B0E94EF202B013C01C701B60141
:101FD00024E630E040E050E00E94E21F665F7F4F61
:101FE000072E000C880B990B0E94EF206B017C01DF
:101FF0008090320190903301A0903401B09035016F
:1020000000912E0110912F01B801012E000C880BB8
:10201000990B0E94EF209B01AC01C501B4010E9405
:1020200045209B01AC01C701B6010E949F211816F3
:10203000ACF4B801660F771F072E000C880B990BC4
:102040000E94EF20A50194010E9446209B01AC0153
:10205000C701B6010E94B22087FD1DC0AB81BC81C3
:10206000CD92DD92ED92FC921397FD014482558250
:10207000668277820E94741F20E530E040E050E0E5
:102080000E94E21F685DAB81BC8119966C93199721
:10209000E1E01896EC932B813C81265F3F4F3C8317
:1020A0002B8350CF0F900F900F900F90DF91CF9117
:1020B0001F910F91FF90EF90DF90CF90BF90AF9066
:1020C0009F908F907F906F905F904F903F902F9058
:1020D00008950C94CC1F1F920F920FB60F921124EB
:1020E0008F939F938091E1009091E100937F909373
:1020F000E10083FF0FC01092E90091E09093EB00A4
:102100001092EC0092E39093ED0010927B0298E025
:102110009093F00082FF22C093E09093E9009091A9
:10212000F200992319F09AE39093E80090916C02E1
:10213000992341F090916C02915090936C0291110F
:1021400001C05D9A90917A02992341F090917A02B0
:10215000915090937A02911101C0289A84FF18C07F
:102160008091E2008E7E81608093E2008091E100A8
:102170008F7E8093E10080916D028E7E80618093DE
:102180006D029F918F910F900FBE0F901F90189529
:1021900080FFF7CF8091E2008E7E80618093E20025
:1021A0008091E1008E7E8093E10080916D028E7EB1
:1021B0008160E5CF1F920F920FB60F921124CF923C
:1021C000DF92EF92FF920F931F932F933F934F93C2
:1021D0005F936F937F938F939F93AF93BF93EF938F
:1021E000FF93CF93DF93CDB7DEB76C97DEBFCDBF44
:1021F0001092E9008091E80083FF25C068E0CE01DD
:1022000045960E94AA0882EF8093E8008D8987FF97
:1022100039C09091E80090FFFCCF982F907609F09C
:1022200034C19E894F89588D2F89F88C911131C006
:10223000803861F580916B028093F1001092F1007B
:102240008EEF8093E8006C960FB6F894DEBF0FBE59
:10225000CDBFDF91CF91FF91EF91BF91AF919F9152
:102260008F917F916F915F914F913F912F911F912E
:102270000F91FF90EF90DF90CF900F900FBE0F90D7
:102280001F9018959EEF9093E800C7CF1092F10031
:10229000D5CF913059F48111D3CF4130510581F61A
:1022A00080916B028D7F80936B02CACF933049F48B
:1022B0008111C6CF4130510519F680916B028260C1
:1022C000F2CF953041F48091E80080FFFCCF206888
:1022D0002093E300B5CF963009F0A9C00B8D1C8D7B
:1022E00022E01092E9001092690210926802F21244
:1022F0002EC010926702109266020E9479081F8217
:1023000099E09983FA8291E09E8390EA98879AEF08
:1023100099872091680230916902275F3F4F3C8383
:102320002B838D831092E90010926902109268024B
:10233000109367020093660249E050E0BE016F5FB0
:102340007F4F80E00E9453080E94790879CF109354
:102350006702009366020E949007DC0112960D91BD
:102360001C910115110509F451C1D801ED91FC91A1
:102370000480F581E02DBE016B5E7F4FC801099599
:10238000009709F03EC1F80100851185EACFF3E01E
:10239000FF120EC08F89882309F440C0823061F497
:1023A00040E860E189EE9DE00E94B713811148CFBB
:1023B00081E28093EB0047CF813029F440E86BE065
:1023C0008DED9DE0F1CF833099F70E949007DC01FD
:1023D0001296ED90FC908E010F5F1F4F6801E11483
:1023E000F10479F0D701ED91FC910680F781E02DA1
:1023F000B801C7010995080F111DF701E084F184A8
:10240000EECFD8011C92F60101900020E9F7319738
:10241000BF016C197D0940E0C601C6CF67EC7DE0C5
:10242000FB01449150E080E80E94530809CF9730A7
:1024300009F4BECF983021F481E08093F10000CF01
:10244000993009F0FDCE837009F0B2CFEDEFF1E0E5
:1024500081E031E096E32191222371F08093E9003D
:102460003093EB00DF0111972C912093EC009093B7
:10247000ED008F5F873079F78EE78093EA00109246
:10248000EA008F8980937B02DBCE8B8D9C8D10922E
:10249000E90010926902109268029093670280939B
:1024A0006602898D811192C08E899D89913A49F485
:1024B000813209F07DCF47E050E061E771E080E0D4
:1024C000B3CF913209F074CF833269F48F89988D3C
:1024D000B0E0A0E080936D0190936E01A0936F0136
:1024E000B0937001ADCE803269F48091E80082FF34
:1024F000FCCF67E081E791E00E94AA088BEF809310
:10250000E8009ECE823209F09BCE8F8980937801BD
:10251000EEEFFFE7859194918B3F9C4D51F1E0E008
:10252000F8E08091710190917201A0917301B091D6
:102530007401803B9440A105B105F1F480917801CC
:1025400080FD1AC0EE3F8AE0F80789F587E797E734
:10255000918380838091600080936A0288E19BE090
:102560000FB6F894A895809360000FBE909360001A
:1025700067CEEEEFFAE0D5CF80819181873797471C
:1025800009F05ECEA895809160008861809360001C
:1025900080916A0280936000EE3F2AE0F20789F0A2
:1025A0008091FE0A9091FF0A9183808349CE8081B9
:1025B00091818737980751F29093FF0A8093FE0A22
:1025C000C5CF1092FF0A1092FE0A3ACE0E949007E1
:1025D000DC0112960D911C910115110509F4E8CE4C
:1025E000D801ED91FC910190F081E02DBE016B5E70
:1025F0007F4FC8010995811123CEF801008511850F
:10260000EBCF181619060CF41BCED2CEF1E0FF1258
:10261000BECE6BEC7DE004CF1F920F920FB60F92EF
:1026200011242F933F938F939F93AF93BF938091E8
:102630005D0290915E02A0915F02B09160023091C4
:10264000500223E0230F2D3758F50196A11DB11D2F
:102650002093500280935D0290935E02A0935F02EC
:10266000B09360028091510290915202A091530266
:10267000B09154020196A11DB11D80935102909317
:102680005202A0935302B0935402BF91AF919F9115
:102690008F913F912F910F900FBE0F901F90189523
:1026A00026E8230F0296A11DB11DD2CF1F920F92D3
:1026B0000FB60F9211242F933F934F935F936F9315
:1026C0007F938F939F93AF93BF93EF93FF938091EB
:1026D0004C0290914D02A0914E02B0914F02892B75
:1026E0008A2B8B2B09F440C080914B0281110BC0C7
:1026F00088B190E4892788B980914A02882319F02B
:1027000088B1805888B980914C0290914D02A09177
:102710004E02B0914F02181619061A061B069CF4B9
:1027200080914C0290914D02A0914E02B0914F02C7
:102730000197A109B10980934C0290934D02A09397
:102740004E02B0934F02FF91EF91BF91AF919F91D5
:102750008F917F916F915F914F913F912F910F904A
:102760000FBE0F901F9018950E94D509ECCFEF92E5
:10277000FF920F931F93CF93DF93F82E192FE62E1E
:10278000042F81E0860F880F0E94250883E00E94B5
:102790002508CF2DD12FEC0EFD2EF11CCE15DF0517
:1027A000B9F007FF13C0FE0184910E942508182F7D
:1027B00080E00E942508812321968111EFCFDF91CF
:1027C000CF911F910F91FF90EF9008958881EDCFE9
:1027D00081E0F5CFECE7F6E01382128288EE93E019
:1027E000A0E0B0E084839583A683B78387E092E07E
:1027F000918380838FEF9FEF95878487ECEDF6E0E0
:102800001382128289E192E09183808388E297E0CB
:102810009093DB068093DA0680E090E89093D906E7
:102820008093D80646983E9A47983F9A0895CF934A
:10283000DF93CDB7DEB763970FB6F894DEBF0FBE58
:10284000CDBF789484B5826084BD84B5816084BD39
:1028500085B5826085BD85B5816085BD80916E003E
:10286000816080936E00109281008091810082606F
:1028700080938100809181008160809381008091AC
:1028800080008160809380008091910082608093BD
:1028900091008091910081608093910080919000DF
:1028A0008160809390008091C10084608093C1001A
:1028B0008091C10082608093C1008091C1008160DD
:1028C0008093C1008091C30081608093C300809198
:1028D000C00082608093C0008091C20081608093BC
:1028E000C20080917A00846080937A0080917A009F
:1028F000826080937A0080917A00816080937A0070
:1029000080917A00806880937A0010927B02109206
:102910006B0210926D028091D70081608093D70086
:1029200080EA8093D80089B5806189BD89B58260CD
:1029300089BD09B400FEFDCF61E070E080E090E069
:102940000E9409098091D8008F7C80618093D80013
:102950008091E000807F8093E0008091E1008E7E96
:102960008093E1008DE08093E200559A209A81ECFB
:1029700080937C0085B1806F85B984B1877E84B9EE
:1029800084B1876E84B95E9A5F988AB1806D8AB986
:10299000769A6E9881B3806F81BB899880B38D7071
:1029A00080BB80E58CBD81E08DBD85E090E00E941C
:1029B0009B0A5F9A85E090E00E949B0A5E985C9873
:1029C000E0E5F8E084918EBD00000DB407FEFDCF78
:1029D000319608E0ED35F007A9F75C9A81E880931D
:1029E0006400809165008160809365000E94CE0A3A
:1029F00080E80E94C30A8823A9F05C9885EA8EBD0E
:102A000000000DB407FEFDCF5C9A2E982F982D98EC
:102A10008091640080628093640081E083BF889528
:102A200013BEFCCF84E00E94C30A882309F448C087
:102A30002D9884E80E94C30A8823E1F00E94990A35
:102A400088EC90E00E949B0A2F9882E090E00E9420
:102A5000CC1F8F3F29F06FEF82E090E00E94D41FDF
:102A600084EF91E00E949B0A2F9A84E80E94C30A97
:102A70008111FBCF84E10E94C30A8823E1F00E9408
:102A8000990A88EC90E00E949B0A2E9882E090E0E0
:102A90000E94CC1F882329F060E082E090E00E9431
:102AA000D41F84EF91E00E949B0A2E9A84E10E9439
:102AB000C30A8111FBCF88EC90E00E949B0AB2CF41
:102AC0000E94990A82E090E00E946910882309F42C
:102AD00077C00E94A80A81E090E00E946910182F38
:102AE000147081FF10C011112E98A1EFCA2EDD24A1
:102AF000DA9480E40E94C30A882309F466C02E9AFF
:102B00002F9A0E94990A82E390E00E949B0A0E94F9
:102B1000A00A8111F8CF0E94A80A0E94B00E2FB718
:102B2000F89480915D0290915E02A0915F02B09155
:102B300060022FBF8093610290936202A0936302B0
:102B4000B0936402809164008E7F809364008091D2
:102B50007A00806480937A0080917A0086FDFCCFB1
:102B600000917800109179000E94E408AB01BC014B
:102B7000C801B0E0A0E0DC01992788278C019D0105
:102B8000040F151F261F371FC901B80120916400CB
:102B9000216020936400611571058105910511F094
:102BA0000E94C31F80916C01813009F06DC00E94AA
:102BB000B00E80E090E0892BA9F30E940000F2CFD4
:102BC000109255023E983F9886CF112331F024E0B1
:102BD000C216D10411F42E9A2F9881E00E942B077F
:102BE000EE24E39400E128E540EA57E0B60184E1F1
:102BF00090E00E94D10A0E94CE0A8FE090E00E94ED
:102C00009B0A3FEFC31AD30A49E1C416D10409F065
:102C100070CF112311F02F9A2D9880E991E00E9436
:102C20009B0A0E94990A81E090E00E94691080FF4F
:102C30006ACF8AE090E00E9469109FEF980F9E3F54
:102C400008F061CF22E330E030935C0220935B0216
:102C500028E330E030935A02209359020BE010E051
:102C6000682F8CED96E00E94FE0BC8010E9469104F
:102C70000F5F1F4F0131110599F70E94CE0A88EEB0
:102C800093E00E949B0A3FCF823009F048C020E0C9
:102C900030E040EC5FE3209300013093010140936A
:102CA0000201509303010E94AE0A41E050E05093AC
:102CB0006A014093690113E010936B015093560130
:102CC00040935501EE24E39400E320E64DE558E0FF
:102CD0006AE070E081E190E00E94610C0E94CE0AFF
:102CE00060ED77E080E090E00E9409091092100109
:102CF00060E070E080EC9FE30E94FB0C0E94F00C0F
:102D000081E090E00E943A071092540110924B012A
:102D100081E090E00E94540F10936C014ACF8091A3
:102D20006502882399F02FB7F89480915D02909105
:102D30005E02A0915F02B09160022FBF892B8A2BA7
:102D40008B2B09F436CF1092650233CF8FB7F894EE
:102D500040915D0250915E0260915F02709160024D
:102D60008FBF8091610290916202A0916302B09145
:102D700064028196A11DB11D84179507A607B707A8
:102D800008F017CF0E94AE0A2FB7F89480915D0229
:102D900090915E02A0915F02B09160022FBF80937C
:102DA000610290936202A0936302B093640210E008
:102DB00000E0F12CE12C41E0B701C8010E94E00BDA
:102DC0005FEFE51AF50A8AE0E816F104A1F70F5F54
:102DD0001F4F0F37110569F7E3E0CE2ED12CB12C30
:102DE000A12C80916B018A151B0491F08CF0E12CD1
:102DF00008E028E04DE75DE061E070E0C6010E9478
:102E0000D10A9FEFA91AB90AAAE0CA0ED11CE9CFCC
:102E1000E8E4F0E0F0935C02E0935B0201E010E094
:102E200010935A020093590260E28CED96E00E94E2
:102E3000FE0B63E58CED96E00E94FE0B6AE38CEDE1
:102E400096E00E94FE0B6091690170916A01072E65
:102E5000000C880B990B97FF5FC00E94820E63E401
:102E60008CED96E00E94FE0B6AE38CED96E00E94EA
:102E7000FE0B6091DE0170E090E080E04AE00E948D
:102E8000340E60E28CED96E00E94FE0B80916701AB
:102E9000909168012091550130915601821B930B4E
:102EA00097FD3EC0909368018093670108E010E0B1
:102EB00078E3E72EF12C41E0B701C8010E94E00B56
:102EC0003FEFE31AF30A40E4E416F104A1F70F5FC1
:102ED0001F4F0738110561F787E591E09B878A87C7
:102EE0005C01D12CC12C80916701909168018C19F3
:102EF0009D0997FF02C080589F4FD5012D915D011C
:102F0000223009F453C098F42130E1F0E12C08E0BC
:102F100028E045E75DE01BC04AE00E94340E9FCFE9
:102F20002FE730E03093680120936701BFCF233053
:102F300009F442C0243051F7E12C08E028E045E5CF
:102F40005DE005C0E12C08E028E04DE65DE068E3C7
:102F500070E00E94610CB8E0CB0ED11CE0E8CE1608
:102F6000D10409F68091E101882361F18091E201A9
:102F7000811128C081E08093E2010E947F0F809040
:102F8000E001912C69E7262E61E0362EF10130E058
:102F900020E02815390524F581858150818781112C
:102FA00001C010862F5F3F4F3A96F3CFE12C08E027
:102FB00028E045E65DE0CBCFE12C08E028E04DE5D8
:102FC0005DE0C5CF8091DD018F5F883C19F0809373
:102FD000DD01D3CF1092DD0181E08093E001CDCF00
:102FE00059E7A52E51E0B52E712C612C6814790497
:102FF0005CF5D50118968C9118978823F1F01496FA
:103000006D917D918D919C9117970E94B7206E8351
:103010007F8388879987F50160817181828193819F
:103020000E94B720CB01EE24E39408E028E04DE4B1
:103030005DE06E817F810E94D10AFFEF6F1A7F0AE7
:103040000AE0A00EB11CD2CF809154018F5F809313
:103050005401823309F0F3C410924B0180914B016B
:10306000882319F180914A01811196C5609146012A
:103070007091470180914801909149010E94B720C9
:103080004B01609142017091430180914401909104
:1030900045010E94B720CB01EE24E39408E028E02C
:1030A0004DE75DE0B4010E94D10AF0902D01FF20B0
:1030B00009F488C480E20E94C30A80903201909093
:1030C0003301A0903401B0903501882309F4E4C5A0
:1030D00020913A0130913B0140913C0150913D01DA
:1030E000C501B4010E944520609332017093330101
:1030F000809334019093350100913E0110913F017E
:1031000020914001309141010C871D872E873F8718
:1031100020913601309137014091380150913901A9
:103120006C857D858E859F850E9446202B013C0104
:103130004092360150923701609238017092390105
:10314000009130011091310168E370E0601B710B58
:10315000072E000C880B990B0E94EF204B015C019D
:10316000AC019B01C301B2010E949F21181644F4D7
:103170008092360190923701A0923801B0923901C5
:1031800020E030E040E251E4609136017091370177
:1031900080913801909139010E94B22087FF0CC0C4
:1031A00080E090E0A0E2B1E4809336019093370193
:1031B000A0933801B093390120E030E040EF52E4B1
:1031C0006091320170913301809134019091350109
:1031D0000E949F21181664F480E090E0A0EFB2E412
:1031E0008093320190933301A0933401B093350161
:1031F00020E030E040E051E4609132017091330111
:1032000080913401909135010E94B22087FF0CC05B
:1032100080E090E0A0E0B1E480933201909333012C
:10322000A0933401B093350140903601509037019E
:103230006090380170903901209132013091330152
:1032400040913401509135012E833F83488759873F
:10325000C301B2010E94B720688B798B8A8B9B8B4C
:103260006E817F81888599850E94B720CB01EE24ED
:10327000E39420912E0145E25DE0688979890E94FE
:10328000610CA5019401C301B2010E949F2187FD39
:103290006EC08C859D85AE85BF85B05880933E01FC
:1032A00090933F01A0934001B093410160E570E02D
:1032B0008EE690E00E947D0A0091670110916801FE
:1032C000B12CA12CB80117FF02C060587F4F6C5F72
:1032D0007F4F072E000C880B990B0E94EF202B01CB
:1032E0003C0120E030E040E850E46E817F81888539
:1032F00099850E944520A30192010E94B2201816D0
:103300000CF4DDC420E030E040E451E46E817F81C4
:10331000888599850E9446209B01AC01C301B201BA
:103320000E94B22018160CF4CAC4F501E95AFE4FE7
:103330008081882309F4C3C481508083F12CE7E5A0
:10334000F1E090E080E02191820F911DA7E6B1E0CD
:10335000AE17BF07C1F7892B11F40E94F00CFF20B4
:1033600031F080915802811102C00E94200D80909E
:10337000360190903701A0903801B090390120E0DB
:1033800030E040E451E4C501B4010E94B2201816B7
:103390008CF080913E0190913F01A0914001B0914D
:1033A0004101B05880933E0190933F01A0934001AA
:1033B000B093410180914B01882309F4CEC0C090A5
:1033C0003201D0903301E0903401F090350140900B
:1033D000420150904301609044017090450120E00B
:1033E00030E040E051E4C701B6010E9446209B0155
:1033F000AC01C301B2010E94B22087FFAEC020E041
:1034000030E040E051E4C301B2010E9446209B013C
:10341000AC01C701B6010E94B22087FF9EC0C090D8
:103420004601D0904701E0904801F090490120E02A
:1034300030E040E051E4C501B4010E9446209B0108
:10344000AC01C701B6010E94B22087FF86C020E010
:1034500030E040E051E4C701B6010E9446209B01E4
:10346000AC01C501B4010E94B22087FF76C08091F3
:103470004A01811119C060E570E08BE092E00E9482
:103480007D0A80916B018F5F80936B0110924B01DD
:1034900000E010E020E033E4009342011093430188
:1034A000209344013093450180914A018130B1F469
:1034B000E7E5F1E08191843020F4DF0111978F5F1F
:1034C0008C9327E631E02E173F07A1F760E570E007
:1034D0008BE092E00E947D0A10924B0180914A019C
:1034E0008230A9F4E7E5F1E08191882321F0DF0142
:1034F000119781508C9331E0E736F307A9F760E527
:1035000070E083E890E00E947D0A10924B01809168
:103510004A01833061F41092DD018093E00160E59F
:1035200070E086E091E00E947D0A10924B0180914C
:103530004A01843091F4AA85BB858D93BB87AA8705
:10354000E7E6F1E0EA17FB07B1F760E570E08BE032
:1035500092E00E947D0A10924B018090360190907B
:103560003701A0903801B09039014090320150905D
:103570003301609034017090350110E000E08091DB
:10358000E0018017110609F00CF488C0D1011896EB
:103590008C911897882309F49DC3CD90DD90ED9010
:1035A000FC9020E030E040E051E4C301B2010E9411
:1035B00046209B01AC01C701B6010E94B22087FFE3
:1035C00089C320E030E040E051E4C701B6010E9429
:1035D00046209B01AC01C301B2010E94B22087FFCB
:1035E00079C3F101C480D580E680F78020E030E027
:1035F00040E051E4C501B4010E9446209B01AC01AA
:10360000C701B6010E94B22087FF64C320E030E00A
:1036100040E051E4C701B6010E9446209B01AC0185
:10362000C501B4010E94B22087FF54C360E570E079
:1036300088E891E00E947D0A8091DE018F5F80938F
:10364000DE01D10118961C929091DF01891708F4D0
:1036500041C380E090E0A0EFB2E480930801909332
:103660000901A0930A01B0930B010E94741F22E28A
:1036700030E040E050E00E94E21F665F7F4F8F4FD6
:103680009F4F0E94EF2060930C0170930D01809377
:103690000E0190930F0181E0809310018091100141
:1036A000882309F400C18090080190900901A0903E
:1036B0000A01B0900B0160912E0170912F0177FFEC
:1036C00002C06F5F7F4F75956795072E000C880BC2
:1036D000990B0E94EF2020913201309133014091EB
:1036E0003401509135010E9446206B017C01AC01F0
:1036F0009B01C501B4010E94B22087FFD4C0609134
:10370000040170910501072E000C880B990B0E9493
:10371000EF20A50194010E9446209B01AC01C70146
:10372000B6010E94B22087FFBEC080900C0190902D
:103730000D01A0900E01B0900F01609130017091C9
:10374000310177FF02C06F5F7F4F75956795072E38
:10375000000C880B990B0E94EF20209136013091CC
:10376000370140913801509139010E9446206B0188
:103770007C01AC019B01C501B4010E94B22087FF0E
:1037800092C06091060170910701072E000C880B12
:10379000990B0E94EF20A50194010E9446209B01F5
:1037A000AC01C701B6010E94B22087FF7CC060EA6D
:1037B00070E08BE092E00E947D0A68EB7BE080E0A5
:1037C00090E00E9409090091690110916A0110932B
:1037D00057020093560220E030E040E05FE3609142
:1037E00000017091010180910201909103010E94FA
:1037F0004620609300017093010180930201909331
:10380000030120915501309156012F5F3F4F263023
:1038100031050CF065C2309356012093550120E02C
:1038200030E040E050E40E949F21181664F420E04C
:1038300030E040EC5FE320930001309301014093BE
:10384000020150930301C801019690936A0180938D
:1038500069010E94540F1092100160910001709153
:10386000010180910201909103010E94FB0C0E94D2
:10387000F00C81E090E00E943A070E94AE0AEE242C
:10388000E39400E320E645EE5AE06AE070E081E16F
:1038900090E00E94610C0E94CE0A60ED77E080E02B
:1038A00090E00E94090980912301882309F4A1C0B6
:1038B0008090150190901601A0901701B09018010A
:1038C00060912E0170912F0177FF02C06F5F7F4FD3
:1038D00075956795072E000C880B990B0E94EF20B9
:1038E00020913201309133014091340150913501E2
:1038F0000E9446206B017C01AC019B01C501B40113
:103900000E94B22087FF62C0609111017091120184
:10391000072E000C880B990B0E94EF20A501940143
:103920000E9446209B01AC01C701B6010E94B22053
:1039300087FF4CC08090190190901A01A0901B0144
:10394000B0901C01609130017091310177FF02C08D
:103950006F5F7F4F75956795072E000C880B990B4D
:103960000E94EF20209136013091370140913801BB
:10397000509139010E9446206B017C01AC019B01F2
:10398000C501B4010E94B22087FF20C060911301DD
:1039900070911401072E000C880B990B0E94EF20E8
:1039A000A50194010E9446209B01AC01C701B6010C
:1039B0000E94B22087FF0AC080915802811106C080
:1039C0000E94200D80912301882399F080912C0181
:1039D0008F5F80932C0120912101309122012130B1
:1039E000310509F482C12330310509F4C0C10E94B8
:1039F000BE0D809110018823F9F060910C01709147
:103A00000D0180910E0190910F010E94B7204B0192
:103A1000609108017091090180910A0190910B0158
:103A20000E94B720CB01EE24E39408E028E04DE9A2
:103A30005AE0B4010E94610C0E94CE0ABAC8883CC8
:103A400009F00CCB109254010E94741F24E630E060
:103A500040E050E00E94E21F85E0E7EEF1E0DE0189
:103A6000119601900D928A95E1F7FE01319690E052
:103A700080E02191261708F489C0182F0E94741F36
:103A80002EE630E040E050E00E94E21F665F7F4F8C
:103A90008F4F9F4F0E94EF2060934201709343012C
:103AA00080934401909345010E94741F22E230E00C
:103AB00040E050E00E94E21F665F7F4F8F4F9F4FB4
:103AC0000E94EF2060934601709347018093480164
:103AD000909349018090420190904301A09044014D
:103AE000B090450140903201509033016090340114
:103AF00070903501E0902E01F0902F01B7010F2C4E
:103B0000000C880B990B0E94EF209B01AC01C301B4
:103B1000B2010E9445209B01AC01C501B4010E9485
:103B20009F211816ACF4B701660F771F072E000C03
:103B3000880B990B0E94EF20A30192010E9446205E
:103B40009B01AC01C501B4010E94B22087FD86CA69
:103B500020E030E040E85FE320934C0130934D01DA
:103B600040934E0150934F0180E090E0A0ECBFE302
:103B70008093500190935101A0935201B09353014F
:103B800010934A0181E080934B0168CA0196853009
:103B9000910509F06ECF62CA813001F5609146014E
:103BA0007091470180914801909149010E94B7208E
:103BB0004B016091420170914301809144019091C9
:103BC00045010E94B720CB01EE24E39408E028E0F1
:103BD00045E45DE0B4010E94610C67CA8230E9F4FB
:103BE000609146017091470180914801909149018F
:103BF0000E94B7204B016091420170914301809176
:103C00004401909145010E94B720CB01EE24E3943A
:103C100008E028E04DE35DE0DDCF8330E9F460911A
:103C200046017091470180914801909149010E949D
:103C3000B7204B0160914201709143018091440192
:103C4000909145010E94B720CB01EE24E39408E057
:103C500028E045E35DE0BECF843009F026CA6091DC
:103C600046017091470180914801909149010E945D
:103C7000B7204B0160914201709143018091440152
:103C8000909145010E94B720CB01EE24E39408E017
:103C900028E04DE25DE09ECF80E40E94C30A8823C5
:103CA00009F42ACAA501940160913A0170913B017F
:103CB00080913C0190913D010E94462015CA3FEF42
:103CC000A31AB30A0850110940E1A416B10409F07F
:103CD000F9CA35CB0F5F1F4FBAE02B0E311C4FCC0A
:103CE00010925601109255019ACD80FD20C0893C5A
:103CF000F0F460911F0170912001072E000C880BD9
:103D0000990B0E94EF202091190130911A014091E6
:103D10001B0150911C010E94462060931901709371
:103D20001A0180931B0190931C010E944D0D60911C
:103D3000190170911A0180911B0190911C010E9440
:103D4000B7204B0160911501709116018091170108
:103D5000909118010E94B720CB01EE24E39400E17A
:103D600020E145EA5AE0B4010E94610C42CE893C50
:103D700008F051C00E94741F23E030E040E050E0A2
:103D80000E94E21F6B0180911D0190911E018C9D8C
:103D9000B0018D9D700D9C9D700D1124072E000C9F
:103DA000880B990B0E94EF2020911501309116018C
:103DB00040911701509118010E944620609315010F
:103DC00070931601809317019093180180911F0141
:103DD000909120018C9DB0018D9D700D9C9D700D6A
:103DE0001124072E000C880B990B0E94EF202091C4
:103DF000190130911A0140911B0150911C010E9440
:103E000046206093190170931A0180931B019093CF
:103E10001C010E944D0D6091190170911A01809151
:103E20001B0190911C010E94B7204B01609115016C
:103E30007091160180911701909118010E94B7208E
:103E4000CB01EE24E39400E120E145EC5AE08BCF76
:103E50008F929F92AF92BF92CF92DF92EF92FF929A
:103E6000CF93DF93EC01688179818A819B81611511
:103E700071058105910521F464E279ED8BE597E008
:103E80002DE133EF41E050E00E94E21F49015A0169
:103E90009B01AC01A7EAB1E40E9401206B017C0107
:103EA000ACEEB4EFA50194010E940F20C60ED71E00
:103EB000E81EF91EF7FE06C081E0C81AD108E10825
:103EC00080E8F80AC882D982EA82FB82C701B6017B
:103ED0009F77DF91CF91FF90EF90DF90CF90BF90D1
:103EE000AF909F908F9008958F929F92AF92BF92C4
:103EF000CF92DF92EF92FF926091E3017091E40123
:103F00008091E5019091E6016115710581059105AA
:103F100021F464E279ED8BE597E02DE133EF41E0A8
:103F200050E00E94E21F49015A019B01AC01A7EA3F
:103F3000B1E40E9401206B017C01ACEEB4EFA5015D
:103F400094010E940F20C60ED71EE81EF91EF7FE30
:103F500006C081E0C81AD108E10880E8F80AC092DA
:103F6000E301D092E401E092E501F092E601C7019D
:103F7000B6019F77FF90EF90DF90CF90BF90AF900A
:103F80009F908F9008956093E3017093E401809374
:103F9000E5019093E6010895F999FECF92BD81BDA8
:103FA000F89A992780B50895262FF999FECF1FBA60
:103FB00092BD81BD20BD0FB6F894FA9AF99A0FBE52
:103FC00001960895052E97FB1EF400940E94F91F98
:103FD00057FD07D00E94142007FC03D04EF40C9428
:103FE000F91F50954095309521953F4F4F4F5F4FAA
:103FF000089590958095709561957F4F8F4F9F4F55
:1040000008950E943620A59F900DB49F900DA49F07
:10401000800D911D11240895B7FF0C9401200E947A
:104020000120821B930B0895A1E21A2EAA1BBB1B31
:10403000FD010DC0AA1FBB1FEE1FFF1FA217B30774
:10404000E407F50720F0A21BB30BE40BF50B661F8A
:10405000771F881F991F1A9469F76095709580954E
:1040600090959B01AC01BD01CF010895A29FB001C5
:10407000B39FC001A39F700D811D1124911DB29F9C
:10408000700D811D1124911D08955058BB27AA273A
:104090000E945D200C9465210E94572138F00E94F7
:1040A0005E2120F039F49F3F19F426F40C9454213A
:1040B0000EF4E095E7FB0C944E21E92F0E94762147
:1040C00058F3BA17620773078407950720F079F44D
:1040D000A6F50C9498210EF4E0950B2EBA2FA02D86
:1040E0000B01B90190010C01CA01A0011124FF27A5
:1040F000591B99F0593F50F4503E68F11A16F040A0
:10410000A22F232F342F4427585FF3CF469537959E
:104110002795A795F0405395C9F77EF41F16BA0B63
:10412000620B730B840BBAF09150A1F0FF0FBB1F11
:10413000661F771F881FC2F70EC0BA0F621F731F5A
:10414000841F48F4879577956795B795F7959E3FB7
:1041500008F0B0CF9395880F08F09927EE0F979548
:10416000879508950E942A2108F481E008950E940D
:10417000BE206894B1110C94992108950E947E216B
:1041800088F09F5798F0B92F9927B751B0F0E1F018
:10419000660F771F881F991F1AF0BA95C9F714C0C8
:1041A000B13091F00E949821B1E008950C949821CB
:1041B000672F782F8827B85F39F0B93FCCF3869501
:1041C00077956795B395D9F73EF49095809570955E
:1041D00061957F4F8F4F9F4F0895E89409C097FBDB
:1041E0003EF490958095709561957F4F8F4F9F4FCE
:1041F0009923A9F0F92F96E9BB279395F695879512
:1042000077956795B795F111F8CFFAF4BB0F11F4D4
:1042100060FF1BC06F5F7F4F8F4F9F4F16C088237B
:1042200011F096E911C0772321F09EE8872F762FB1
:1042300005C0662371F096E8862F70E060E02AF0F2
:104240009A95660F771F881FDAF7880F96958795DE
:1042500097F90895990F0008550FAA0BE0E8FEEFB3
:1042600016161706E807F907C0F012161306E4073A
:10427000F50798F0621B730B840B950B39F40A2633
:1042800061F0232B242B252B21F408950A2609F411
:10429000A140A6958FEF811D811D089597F99F6715
:1042A00080E870E060E008959FEF80EC08950024BE
:1042B0000A941616170618060906089500240A948B
:1042C00012161306140605060895092E0394000C11
:1042D00011F4882352F0BB0F40F4BF2B11F460FFA0
:1042E00004C06F5F7F4F8F4F9F4F089557FD9058C9
:1042F000440F551F59F05F3F71F04795880F97FBAA
:10430000991F61F09F3F79F0879508951216130663
:104310001406551FF2CF4695F1DF08C01616170692
:104320001806991FF1CF86957105610508940895C7
:10433000E894BB2766277727CB0197F908950E9459
:104340002A2108F48FEF089597FB072E16F40094A6
:1043500007D077FD09D00E94B82107FC05D03EF4B4
:10436000909581959F4F0895709561957F4F089521
:10437000AA1BBB1B51E107C0AA1FBB1FA617B7078B
:1043800010F0A61BB70B881F991F5A95A9F78095A7
:104390009095BC01CD010895EE0FFF1F0590F4919B
:0843A000E02D0994F894FFCF11
:1043A8000000C03F080008000000F0420000004282
:1043B800001000100000000043000000420100014E
:1043C80000010000000000000000000000000800DC
:1043D800080000000043000000420000803F000089
:1043E800803F000000430000004200000000000081
:1043F800000000000001000102030403040302019D
:1044080002010203030403800001000301FFFFFF10
:10441800FF00E10000000000000000804200008072
:104428004100000000804200008041000000008040
:1044380042000080410000000080420000804100EE
:10444800000000804200008041000000008042001F
:104458000080410000000080420000804100000010
:10446800008042000080410000000080420000807F
:104478004100000000804200008041000000000A66
:104488000A00000100000005141E2D320102030479
:1044980003040302010201020303040300C1808133
:1044A80000000000000000A4073C09C507BA070B7C
:1044B80008C907E70700000000FE0BB708310E30F7
:1044C8000E4A554D5020424F593200207265636F95
:1044D80072643A200050726573732041206F722015
:0244E800420090
:00000001FF
