:100000000C9493070C94BB070C94BB070C94BB0790
:100010000C94BB070C94BB070C94BB070C94BB0758
:100020000C94BB070C94BB070C94EE110C945D125E
:100030000C94BB070C94BB070C94BB070C94BB0738
:100040000C94BB070C94BB070C94BB070C94BB0728
:100050000C94BB070C94BB070C94BB070C948F1437
:100060000C94BB070C94BB070C94BB070C94BB0708
:100070000C94BB070C94BB070C94BB070C94BB07F8
:100080000C94D9140C94BB070C94BB070C94BB07BD
:100090000C94BB070C94BB070C94BB070C94BB07D8
:1000A0000C94BB070C94BB070C94BB07000000002A
:1000B0000000000000000000000000000000000040
:1000C0000000000000000000000000000000000030
:1000D0000000000000000000000000000000000020
:1000E0000000000000000000000000000000000010
:1000F0000000000000000000000000000000000000
:1001000000000000000000000000000000000000EF
:1001100000000000000000000000000000000000DF
:1001200000000000000000000000000000000000CF
:1001300000000000000000000000000000007E0F32
:10014000FF0600FF83FFC0000000FF0FFF0F00FF4E
:10015000E3FFC00000018380600F00C06018000052
:1001600000018180600F00C0601800000003008063
:10017000601B80C03018000000038000601980C040
:100180006018000000018000603980C06018000025
:100190000001E0006030C0C0E01800000000FE0078
:1001A0006030C0FFC018000000001F806070C0FFFA
:1001B0008018000000000380606060C1C01800006B
:1001C000000000C0607FE0C0C0180000000000C058
:1001D00060FFF0C060180000000300C060C030C0C5
:1001E00060180000000380C060C030C060180000CC
:1001F0000001C180618018C0301800000000FF803D
:10020000618018C03018000000007E00618018C0B6
:100210003018000000000000000000000000000096
:1002200000000000000000000000000000000000CE
:1002300000000000000000000000000000000000BE
:1002400000000000000000000000000000000000AE
:10025000000000000000000000000000000000009E
:10026000000000000000000000000000000000008E
:10027000000000000000000000000000000000007E
:10028000000000000000000000000000000000006E
:10029000000000000000000000000000000000005E
:1002A000000000000000000000000000000000004E
:1002B000000000000000000000000000000000003E
:1002C000000000000000000000000000000000002E
:1002D000000000000000000000000000000000001E
:1002E0000000000000000000000000000000000FFF
:1002F000000000000000000000000001F9F0000014
:10030000000000000000000007001C0000000000CA
:100310000000000000083FE20000000000000000B4
:10032000000010C0390000000000000000000021A3
:10033000823C80060000000000000000410624C04E
:10034000090000000000000000811F06401080002E
:1003500000C000000001813E02401080000120002A
:100360000000010338032009000002100000000112
:100370000238012006000002100000000102700196
:100380003000000001200000000102700190000018
:100390000000C0000000010270009000000000009A
:1003A000000000010270005000000000000000008A
:1003B0000102780050000000000000000001030866
:1003C000005000000000000000000081000050000C
:1003D0000000000000000000808000D0000000004D
:1003E000000000000080C00090000000000000003D
:1003F000000040400310000000000000000000402A
:100400003FFE10000000000000000000400000104F
:100410003E1FC3FF3F80000000600000200000007E
:100420000000000000007C000070000000000000E0
:10043000000001A3F3F0D0000003FF000000000162
:10044000201E001000000000000000000F0000004F
:100450003F000000000000000008C00001C1C00013
:1004600003FF00000000187003800030000000004F
:10047000000000680FFE00001800000000000000EF
:1004800046000000000C00000000000000C38000D7
:1004900000000600000000000000B0FFC0000002E5
:1004A000000000000000009C0000000002000000AE
:1004B00000000000878FF80000020000000000002C
:1004C00000000000003E5B4F5B3E3E6B4F6B3E1CEE
:1004D0003E7C3E1C183C7E3C181C577D571C1C5E05
:1004E0007F5E1C00183C1800FFE7C3E7FF001824DC
:1004F0001800FFE7DBE7FF30483A060E2629792986
:1005000026407F050507407F05253F5A3CE73C5ABA
:100510007F3E1C1C08081C1C3E7F14227F22145F97
:100520005F005F5F06097F017F006689956A6060F2
:1005300060606094A2FFA29408047E040810207EEC
:10054000201008082A1C08081C2A08081E10101071
:10055000100C1E0C1E0C30383E3830060E3E0E06B7
:10056000000000000000005F00000007000700140A
:100570007F147F14242A7F2A1223130864623649C9
:100580005620500008070300001C224100004122B1
:100590001C002A1C7F1C2A08083E080800807030B6
:1005A0000008080808080000606000201008040225
:1005B0003E5149453E00427F40007249494946212B
:1005C00041494D331814127F1027454545393C4A9F
:1005D00049493141211109073649494936464949B6
:1005E000291E0000140000004034000000081422FE
:1005F000411414141414004122140802015909066C
:100600003E415D594E7C1211127C7F494949363E6C
:10061000414141227F4141413E7F494949417F0952
:100620000909013E414151737F0808087F00417F5D
:1006300041002040413F017F081422417F4040405B
:10064000407F021C027F7F0408107F3E4141413EF3
:100650007F090909063E4151215E7F091929462675
:100660004949493203017F01033F4040403F1F2079
:1006700040201F3F4038403F631408146303047850
:1006800004036159494D43007F4141410204081070
:1006900020004141417F04020102044040404040AB
:1006A000000307080020545478407F284444383819
:1006B00044444428384444287F385454541800088B
:1006C0007E090218A4A49C787F0804047800447D65
:1006D00040002040403D007F1028440000417F4002
:1006E000007C047804787C08040478384444443856
:1006F000FC1824241818242418FC7C080404084836
:100700005454542404043F44243C4040207C1C2086
:1007100040201C3C4030403C44281028444C9090E1
:10072000907C4464544C440008364100000077003B
:1007300000004136080002010204023C2623263C48
:100740001EA1A161123A4040207A385454555921D3
:1007500055557941215454784121555478402054BD
:100760005579400C1E527212395555555939545409
:10077000545939555454580000457C410002457D78
:10078000420001457C40F0292429F0F0282528F07A
:100790007C545545002054547C547C0A097F4932CE
:1007A000494949323248484832324A4848303A4149
:1007B00041217A3A42402078009DA0A07D394444EE
:1007C00044393D4040403D3C24FF2424487E494379
:1007D000662B2FFC2F2BFF0929F620C0887E0903EA
:1007E00020545479410000447D413048484A323811
:1007F0004040227A007A0A0A727D0D19317D26293D
:10080000292F28262929292630484D402038080834
:10081000080808080808382F10C8ACBA2F10283468
:10082000FA00007B000008142A142222142A14085B
:100830009500220095AA005500AAAA55AA55AA001B
:100840000000FF00101010FF00141414FF0010101F
:10085000FF00FF1010F010F0141414FC001414F733
:1008600000FF0000FF00FF1414F404FC1414171020
:100870001F10101F101F1414141F00101010F00070
:100880000000001F101010101F10101010F01000AA
:100890000000FF101010101010101010FF100000BA
:1008A00000FF140000FF00FF00001F10170000FCF5
:1008B00004F414141710171414F404F40000FF00C7
:1008C000F714141414141414F700F7141414171450
:1008D00010101F101F141414F4141010F010F00056
:1008E000001F101F0000001F14000000FC14000077
:1008F000F010F01010FF10FF141414FF141010105B
:100900001F00000000F010FFFFFFFFFFF0F0F0F00D
:10091000F0FFFFFF0000000000FFFF0F0F0F0F0FA1
:1009200038444438447C2A2A3E147E0202060602D9
:100930007E027E0263554941633844443C04407E54
:10094000201E2006027E020299A5E7A5991C2A49CD
:100950002A1C4C7201724C304A4D4D303048784858
:1009600030BC625A463D3E494949007E0101017E44
:100970002A2A2A2A2A44445F444440514A44404097
:10098000444A51400000FF0103E080FF00000808D6
:100990006B6B083612362436060F090F0600001856
:1009A000180000001010003040FF0101001F01017D
:1009B0001E00191D1712003C3C3C3C0000000000CA
:1009C000F0F89C8E8783878E9CF8F00000FEFF0372
:1009D00003030303070EFCF80000FEFF03030303F9
:1009E00003070EFCF80000FFFF00000000000000FD
:1009F000FFFF0000FEFF8383838383C7EE7C380004
:100A000000F8FC0E07030303070EFCF800003F7F0D
:100A1000E0C08080C0E07F3FFFFF010101010101D4
:100A200001FFFF0000FFFF0C0C0C0C1C3E77E3C124
:100A300000007FFFC0C0C0C0C0E0703F1F00001FAB
:100A40003F70E0C0C0C0E0703F1F00007FFFC1C129
:100A5000C1C1C1E3773E1C00001F3F70E0C0C0C0B1
:100A6000E0703F1F000000000001FFFF01000000D8
:100A7000D5F08D14A1C881CFD9F1AF20002601A0F7
:100A8000005D01A0000601A0002601A0000080007A
:100A90000000000000000000000000000000000056
:100AA0000000000000000000000000000000000046
:100AB0000000000000000000000000000000000036
:100AC0000007C1003FE0300FF0000000001FE10010
:100AD0003FC0700C7800000000383100200078081A
:100AE0001800000000303100200058080C00000001
:100AF000006001002000C8080C0000000060010038
:100B00002000CC0818000000006001003F818C0C20
:100B100078000000006001003FC1860FE000000087
:100B200000600100200106083000000000600100A4
:100B30002003FE0810000000006011002003FF08E1
:100B400018000000003031002002030818000000E7
:100B500000383100200601080C000000001FE1FFF2
:100B60003FC601880C0000000007C1FF3FE4018878
:100B70000400000000000000000000000000000071
:100B80000000000000000000000000000000000065
:100B90000000000000000000000000000000000055
:100BA0000000000000000000000000000000000045
:100BB0000000000000000000000000000000000035
:100BC0003FFC000000000000007E000061E7000024
:100BD0000000000000760000873DC000000000001B
:100BE00000F000011C024000000000000090000323
:100BF0002002200000000000008800066181100033
:100C00000000000000CFE004C3819000000000005D
:100C100000FF70048E00980000000000007E300C81
:100C20009E00C8000000000000031009900048006A
:100C30000000000000013009100048F00000000032
:100C40000000B0091800489800000000000CE00502
:100C50001800488800000000000FC0059800480EEA
:100C600000000000000300048800580B0000000092
:100C700000000004C400D1190000000000000006BC
:100C80006001B1F30000000000000002200360E2F8
:100C900080000000000000033002C020800000003F
:100CA0000000000190018043C00000000000003EF1
:100CB000FE0FFC4240000000000001E3A3F807E043
:100CC000800000000000010000000081800000B8EA
:100CD00001A0008801A000B801A0008801A0000BBD
:100CE00002A00000800B02A000EE01A000B801A04D
:100CF00000EE01A0000B02A00000807E81A5817E95
:100D00003C2466609090603C4241D201E2211C008C
:100D10000060959F60000000001FC03FF07FF87FDB
:100D2000F86F78463C6F7C7FFC7FFE6FBE306F1A99
:100D3000CF020F060F00070404080C141A2DD63F2B
:100D4000FF3BEF3BEF3FFE1E3C0EBC47F038067604
:100D5000DE063807F80E1C00000F00DFD8BFECAE2F
:100D6000E42EF47FF0E3F87FFC41FE9C7FC0EF406F
:100D7000C7418D3E1B00170540074005E00FE20C00
:100D80002207C223C27282DFE2F537F66AE7C06744
:100D9000E00D3018301C1820C04020206010C01F0B
:100DA000803FC026607FF03FD81FDC011401F601B0
:100DB0008E03F6070F07FF00000F001FC03FE02E55
:100DC000E02EF07FB0E7787FBC5DFE007F00EF0093
:100DD000C7018D0011000607F00D781FFC1BBC1C1D
:100DE0007ECFF6E7F733AD1F5B0F670F9E07FC035F
:100DF000F000600038000C703817603FE87FFC6737
:100E00003EC71ECF9EF8FE7DFE377418EC7F9E6FA6
:100E1000FBC8119C3DDFFA07C01FF03FFC777A77D3
:100E20007ADFCAFFFA5FDC4F9E203E107C1DF80F70
:100E3000E002401E781E78300C581A6BD4342C6EA9
:100E4000725E7AEBD7A995ADB577EE6DB62DB41A73
:100E5000580C22074F07DFFF81A995A99581FF7ED6
:100E600081A599A581817EFF8181BD818181FFFF5F
:100E70008189BD898981FF1824424A52422418FF82
:100E800081FF81FF81FF81FF81FF81FF81FFFFFFE4
:100E900081FF81FFFFFFFFFF81FFFFFFFFFFFFFFDC
:100EA000FFFFFFFFFFFFFF1E3F7EFCFC7E3F1E0893
:100EB0000B0002020200000904000001020200000F
:100EC0000524001001052401010104240206052463
:100ED0000600010705810310004009040100020A11
:100EE00000000007050202400000070583024000E1
:100EF000000403090412010002EF020140412336FD
:100F00008000010102030141726475696E6F204C1B
:100F10004C430041726475696E6F204C656F6E6161
:100F200072646F006D1511241FBECFEFDAE0DEBFD3
:100F3000CDBF12E0A0E0B1E0EEE7FDE402C0059015
:100F40000D92A03BB107D9F727E0A0EBB2E001C0BA
:100F50001D92AD34B207E1F717E0C3E9D7E004C052
:100F60002197FE010E94B726C239D107C9F70E9416
:100F70009A150C94BD260C9400008091C40208952B
:100F8000E9EEF2E0A0E0B8E000800EBC8111012C97
:100F90001197A0FDFDCF0192B9F70DB40895FC01A2
:100FA0008091E802882311F13FB7F89482E08093A2
:100FB000E9002091F200822F90E01816190614F42F
:100FC00081E090E0882339F0289844E64093E702D6
:100FD0004091F1004083222339F02091F200211149
:100FE00003C02BE62093E8003FBF08958FEF9FEFEB
:100FF00008952FB7F89483E08093E9009091E8007A
:10100000892F807295FF04C09091F20080E4891BC3
:101010002FBF08958091DF0281110DC082E080937F
:10102000DB0284E08093DC021092DE021092DD028B
:1010300081E08093DF028BED92E00895CF93DF9300
:101040001F92CDB7DEB76983DC01ED91FC91028080
:10105000F381E02D41E050E0BE016F5F7F4F0995C5
:101060000F90DF91CF91089583E08093E900809104
:10107000F200882319F08AE38093E80008950E9423
:10108000F90790E00895CF93DF931F92CDB7DEB7B5
:10109000FC018485958597FD08C02FEF3FEF3587CC
:1010A00024870F90DF91CF910895CE0101960E9481
:1010B000CF07019719F4898190E0F3CF8FEF9FEF6D
:1010C000F0CF0F931F93CF93DF931F92CDB7DEB76F
:1010D0008C01FC018485958597FF0BC0CE0101969C
:1010E0000E94CF07019771F4898190E0F8019587FC
:1010F0008487F801848595850F90DF91CF911F91AA
:101100000F9108958FEF9FEFF1CFFC0184859585B6
:1011100097FD0BC09FB7F89482E08093E90080911F
:10112000F2009FBF90E0019608959FB7F89482E087
:101130008093E9008091F2009FBF90E00895409174
:10114000D5025091D6022091D3023091D402421799
:101150005307B4F49091E8009570E1F39091E800A2
:1011600092FD19C08093F1008091D5029091D60232
:1011700001968F739927892B19F48EEF8093E800DD
:101180008091D5029091D60201969093D6028093D9
:10119000D50281E0089580E00895DF92EF92FF92FA
:1011A0000F931F93CF93DF93D82E8A01EB017B011E
:1011B000E40EF51ECE15DF0559F0D7FE12C0FE0174
:1011C00084910E949F0821968111F4CF0FEF1FEFA9
:1011D000C801DF91CF911F910F91FF90EF90DF90A9
:1011E00008958881EECF0F931F93CF93DF931F92C3
:1011F000CDB7DEB782E0898342E450E06FEA7EE05B
:1012000080E80E94CD080E940A08DC0112960D9128
:101210001C910115110589F0D801ED91FC91028016
:10122000F381E02DBE016F5F7F4FC801099597FDE7
:1012300004C0F80100851185ECCF89810F90DF9102
:10124000CF911F910F910895615030F02091F100DE
:10125000FC0120830196F8CF289884E68093E7026A
:101260000895AF92BF92CF92DF92EF92FF920F93C9
:101270001F93CF93DF936C017B018B01040F151F2C
:10128000EB015E01AE18BF08C017D10759F0699194
:10129000D601ED91FC910190F081E02DC6010995F8
:1012A000892B79F7C501DF91CF911F910F91FF90A5
:1012B000EF90DF90CF90BF90AF9008953FB7F89434
:1012C0008091C0029091C102A091C202B091C3026C
:1012D00026B5A89B05C02F3F19F00196A11DB11D91
:1012E0003FBFBA2FA92F982F8827BC01CD01620FCD
:1012F000711D811D911D42E0660F771F881F991F88
:101300004A95D1F708958F929F92AF92BF92CF9254
:10131000DF92EF92FF926B017C010E945E094B010C
:101320005C01C114D104E104F104B9F00E945E092A
:10133000681979098A099B09683E734081059105FE
:1013400080F321E0C21AD108E108F10888EE880E86
:1013500083E0981EA11CB11CE4CFFF90EF90DF90BA
:10136000CF90BF90AF909F908F9008958F929F9253
:10137000AF92BF92CF92DF92EF92FF920F931F93A3
:10138000CF93DF936C017B018A0180912E02882329
:1013900009F45CC08091E802882309F457C0809169
:1013A000DA0280FF05C08091E00082608093E00057
:1013B000E801B12C8AEFA82E93E0892E2AE3922E21
:1013C000209711F4BB20D9F10E94F90781110AC0BE
:1013D000AA94AA20D9F161E070E080E090E00E9438
:1013E0008309EECF8C171D0611F00CF08C2F9FB7E0
:1013F000F8948092E9002091E80025FD02C09FBF8B
:10140000DFCF282F30E0C21BD30BF701815020F033
:1014100041914093F100FACFE20EF31EBB2021F080
:101420009092E800B12CEBCF8091E80085FDE7CFEA
:101430009092E800BB24B394209709F3F3CF5D9812
:1014400084E68093D902101611063CF081E090E00A
:10145000F6019383828310E000E0C801DF91CF9111
:101460001F910F91FF90EF90DF90CF90BF90AF90C2
:101470009F908F9008952091B802E091B602F0916C
:10148000B702CF0102969093B7028093B60222234F
:1014900019F0859194910895808191810895CF925A
:1014A000DF92EF92FF92CF93DF930E943B0A811568
:1014B00020E8920791F4809171008D7F80937100F4
:1014C00010929100469847981092B502DF91CF9103
:1014D000FF90EF90DF90CF90089521E02093B50228
:1014E000813020E8920751F48091B3029091B402C8
:1014F0009093B7028093B6020E943B0A97FD05C005
:101500002091B202222309F454C02091B10221118A
:1015100050C021E02093B902EC01DF77209709F059
:101520004BC081E08093BA0246983FE9C32E3FE06A
:10153000D32EE12CF12CCAEFD0E0E0914707F091D7
:1015400048070995811103C081E08093BA02809118
:10155000B902882329F08091BA02882309F43FC098
:1015600047980E943B0A0097F1F19C01DE010E941E
:10157000A824DC01CB0129E0B595A795979587951F
:101580002A95D1F7109290002AE020939100D092F2
:101590009900C09298008093BB029093BC02A093E4
:1015A000BD02B093BE028091710082608093710091
:1015B0008DCF1092B902B0CF9E0150E040E060E4C0
:1015C00072E48FE090E00E94542469017A0181E086
:1015D000C81AD108E108F1081092BA02AECF4699B4
:1015E000BFCF479ABECF8FEF9FEFDC01CBCF9C01DF
:1015F000E1E7F0E090819D7F908381E08093B802E5
:101600003093B7022093B6023093B4022093B30212
:101610000C944F0A9C01E1E7F0E090819D7F90835C
:101620001092B802E9E3F7E0F093B702E093B60254
:10163000F093B402E093B302318320837383628317
:1016400080E090E8958384830C944F0A2D9A089546
:10165000BC0190E080E00C9483098FB18095807F7D
:10166000669B88601C9B8460089580E0E9EEF2E050
:1016700081118FEF0024819381938193819303944F
:10168000D1F71092C6021092C5021092C8021092B1
:10169000C7020895CF93C82F0E942D0B982F9C232B
:1016A00081E09C1380E0CF91089580E00C94C00706
:1016B0002F923F924F925F926F927F928F929F9262
:1016C000AF92BF92CF92DF92EF92FF920F931F9350
:1016D000CF93DF9300D000D01F92CDB7DEB7E98261
:1016E000A22EB12C9501280F391F121613060CF0EB
:1016F000B3C0803891050CF0AFC09B01200F311DA5
:10170000121613060CF0A8C0603471050CF0A4C0CA
:101710009B0177FF04C022273327261B370B277036
:101720003327DB0177FD1796F3E0B595A795FA957A
:10173000E1F777FF07C0119768E070E0FB01E21B5B
:10174000F30B9F01069506950695402E512CBD0181
:101750007695762F662777956795680F791F67517D
:101760007D4F8A01AD01E8E0F0E04F01821A930A53
:101770004F3FFFEF5F070CF45FC07C011B821A82B2
:101780003B01F0E86F0E711CF7FC44C04F3F54075B
:1017900009F498C0CA80DB80C60ED71EF6012080EF
:1017A000EA81FB81E00FF11FFD83EC83F981F130C9
:1017B00009F06AC0EC81FD813490E32D022E01C056
:1017C000EE0F0A94EAF72E2AF60120822115310540
:1017D00009F147305105F1F0CA80DB80C60CD71CF7
:1017E000F6012080EA81FB81E00FF11FFD83EC838D
:1017F000F981F13009F057C0EC81FD813490E32D7F
:10180000F0E0082C02C0F595E7950A94E2F72E2A3D
:10181000F6012082EA81FB813196FB83EA83FFEFA8
:10182000EF1AFF0AEA81FB81EA15FB052CF4E0E8D8
:10183000EE16F10409F0A8CF4F5F5F4F60587F4F5D
:101840000A0D1B1DFA01EA1BFB0BE415F50524F438
:101850004830510509F08CCF0F900F900F900F90EA
:101860000F90DF91CF911F910F91FF90EF90DF903C
:10187000CF90BF90AF909F908F907F906F905F9030
:101880004F903F902F900895EC81FD813490E32D8F
:10189000F0E0022E02C0EE0FFF1F0A94E2F7E0957F
:1018A000F0952E2291CFEC81FD813490E32DF0E074
:1018B000082C02C0F595E7950A94E2F7E095F095BB
:1018C0002E22A6CF2115310509F086CFA3CF80386F
:1018D0009105B8F460347105A0F420E191E061FD58
:1018E00094E060FD990F62FD9295687F269FD0017C
:1018F0001124A80FA751BD4F8C9140FF03C0892B25
:101900008C93089590958923FBCF2F923F924F920D
:101910005F926F927F928F929F92AF92BF92CF927F
:10192000DF92EF92FF920F931F93CF93DF9300D03C
:1019300000D000D01F92CDB7DEB76D30D9F0309017
:1019400000014090C5025090C602832D90E09F8315
:101950008E836A3051F51092C8021092C70223E0BC
:10196000880F991F2A95E1F7480E591E5092C6021A
:101970004092C50281E090E027960FB6F894DEBF52
:101980000FBECDBFDF91CF911F910F91FF90EF90D0
:10199000DF90CF90BF90AF909F908F907F906F908F
:1019A0005F904F903F902F900895A090C702B09005
:1019B000C80295E0699FB0011124FB01E054FB4F80
:1019C0003F016501212CF5E02F1629F1C301019695
:1019D000F301F491F9833C01420128E02A838981D3
:1019E00081708D8310E000E00315D0F4F801EC0D58
:1019F000FD1DFC83EB83F12CE12CE31470F4B401A6
:101A00006E0D7F1D4D818B819C810E94670CFFEFC5
:101A1000EF1AFF0AF2CF1982DFCF0F5F1F4FE4CF1B
:101A20002981269529838A8181508A83EE81FF81CD
:101A30008E0E9F1E8111D3CF2394CE0EDF1EF6E0B3
:101A40002F12C1CFC501329C800D911D112490939E
:101A5000C8028093C7028ECF2F923F924F925F921F
:101A60006F927F928F929F92AF92BF92CF92DF92AE
:101A7000EF92FF920F931F93CF93DF9300D01F92AB
:101A8000CDB7DEB7C22ED12C9601280F391F121602
:101A900013060CF05AC0803891050CF056C010E0C7
:101AA0009801260F371F121613060CF04EC0603433
:101AB00071050CF04AC0E9823A017B836A832C01EC
:101AC000160127E0220E311C93E0359427949A9555
:101AD000E1F75B01912C812CC5012A813B81821B9E
:101AE000930B801791078CF5F12CE12CEC14FD047D
:101AF00034F5F70183E0F595E7958A95E1F7E80D70
:101B0000F91DE60DF71DE491C7018770992720E8BC
:101B100030E002C0359527958A95E2F7C901F0E0DB
:101B2000E223F923EF2B39F04981B501C701840D78
:101B3000951D0E94670C3FEFE31AF30AD7CF820C82
:101B4000931C8FEFA81AB80AC7CF0F900F900F9071
:101B5000DF91CF911F910F91FF90EF90DF90CF9089
:101B6000BF90AF909F908F907F906F905F904F90BD
:101B70003F902F900895E8E3F2E0A9E0B2E0819170
:101B80008D9382E0E834F807D1F708950F931F93FF
:101B9000EEE8F1E000E010E020E231E40583168396
:101BA0002783308700E010E020EA31E401871287C4
:101BB0002387348700E010E020EC3FE30587168799
:101BC0002787308B618B728B838B948B81E0808332
:101BD0001F910F910895CF92DF92EF92FF92C090E4
:101BE0006701D0906801E0906901F0906A0120E0FF
:101BF00030E040E251E4C701B6010E94242587FF8E
:101C00000BC081E090E090936E0180936D01FF9096
:101C1000EF90DF90CF9008958091610190916201E3
:101C200066E370E0681B790B072E000C880B990B9C
:101C30000E9461259B01AC01C701B6010E941126DB
:101C4000181644F48FEF9FEF90936E0180936D010F
:101C500081E0DDCF80E0DBCFCF92DF92EF92FF9289
:101C6000C0906301D0906401E0906501F09066013E
:101C700020E030E040EA52E4C701B6010E9424258A
:101C800087FF0BC081E090E090936C0180936B0123
:101C9000FF90EF90DF90CF90089580915F01909139
:101CA000600168E770E0681B790B072E000C880B59
:101CB000990B0E9461259B01AC01C701B6010E94EE
:101CC0001126181644F48FEF9FEF90936C018093C8
:101CD0006B0181E0DDCF80E0DBCF80917A0180FD78
:101CE00024C0893C10F560916D0170916E01072E42
:101CF000000C880B990B0E9461259B01AC0160913F
:101D00006701709168018091690190916A010E9458
:101D1000B824609367017093680180936901909380
:101D20006A010E942C0E0C94EB0D08952F923F92A5
:101D30004F925F926F927F928F929F92AF92BF92DB
:101D4000CF92DF92EF92FF920F931F93CF93DF9387
:101D5000CDB7DEB76A970FB6F894DEBF0FBECDBF22
:101D60002B013C0149015A01980110911501809104
:101D7000090190910A01A0910B01B0910C01898396
:101D80009A83AB83BC83409105015091060157FFB4
:101D900002C04F5F5F4F5595479580910D0190911F
:101DA0000E01A0910F01B09110018D839E83AF832E
:101DB000B887809107019091080197FD0196BC01B9
:101DC00075956795312C212CCA01550FAA0BBB0BB9
:101DD00089879A87AB87BC87C901330FAA0BBB0BD6
:101DE0008D879E87AF87B88BCB01770FAA0BBB0B74
:101DF000898B9A8BAB8BBC8BC701FF0CAA0BBB0BDF
:101E00008D8B9E8BAF8BB88F2A94232809F473C0D7
:101E1000112309F456C069857A858B859C850E94BB
:101E2000612529813A814B815C810E94B8246B0134
:101E30007C01A30192010E94112618160CF05BC0D0
:101E40006D857E858F8598890E946125A301920109
:101E50000E94B824A70196010E94112618160CF0C2
:101E60004AC069897A898B899C890E9461252D8164
:101E70003E814F8158850E94B8246B017C01A501E9
:101E800094010E9411261816B4F522242394312CB3
:101E90006D897E898F89988D0E946125A5019401A5
:101EA0000E94B824A70196010E94112618160CF072
:101EB000ABCF1092150160E570E088EB91E00E94D5
:101EC0000A0B812F6A960FB6F894DEBF0FBECDBF06
:101ED000DF91CF911F910F91FF90EF90DF90CF9006
:101EE000BF90AF909F908F907F906F905F904F903A
:101EF0003F902F90089510E0E4CFCF938091B002EF
:101F000081112CC00E94550BC1E0C093B00260EA61
:101F100070E083E890E00E940A0B68EB7BE080E0D1
:101F200090E00E94830910928D01109284010E941A
:101F3000BB0D80912002815080932002811102C04C
:101F4000C09322026091010170910201809103010E
:101F5000909104010E94C60D1092B002CF91089595
:101F6000089590E080E008958F929F92AF92BF9283
:101F70000F931F93CF93DF93CDB7DEB7A1970FB623
:101F8000F894DEBF0FBECDBF19A2423008F44AE07C
:101F90008E010F5D1F4F842E912CB12CA12CA50119
:101FA00094010E948624E62FB901CA01EA3044F563
:101FB000E05DD801EE938D01232B242B252B79F79F
:101FC00090E080E0109769F0FD0101900020E9F7B2
:101FD0003197AF014A1B5B0BBD0189E497E00E947A
:101FE0003109A1960FB6F894DEBF0FBECDBFDF91C9
:101FF000CF911F910F91BF90AF909F908F900895B8
:10200000E95CD7CFFC0101900020E9F73197AF01DF
:10201000481B590BBC0189E497E00C9431092F92BD
:102020003F924F925F926F927F928F929F92AF9268
:10203000BF92CF92DF92EF920F931F93CF93DF93D4
:10204000D0E0C0E012E083E0282E312CCC24C394F1
:10205000D12C22E3422E512C3EE1832E912C40E3E1
:10206000642E712C58E3A52EB12C6EE170E080E057
:1020700090E00E9483090E94350B1093000130927A
:10208000C8022092C702D092C602C092C5028DE655
:1020900092E00E940210EE24E39404E228E64CEE63
:1020A00052E06AE070E08EE090E00E942C0DCE01DC
:1020B0000196B2010E948F26EC0149977CF481E0E1
:1020C000809300019092C8028092C7027092C6026B
:1020D0006092C50287E792E00E94021081E080933F
:1020E000D20280930001D092C802C092C702B0927F
:1020F000C602A092C50284E892E00E94021060919C
:10210000D20270E090E080E04AE00E94B40F8CE8D8
:1021100092E00E9402108EE892E00E9402100E945B
:10212000550B88E00E944A0B8823A9F082E0809337
:102130002202DF91CF911F910F91EF90DF90CF900E
:10214000BF90AF909F908F907F906F905F904F90D7
:102150003F902F90089584E00E944A0B882309F451
:1021600084CF86E0E4CF2F923F924F925F926F929E
:102170007F928F929F92AF92BF92CF92DF92EF9217
:10218000FF920F931F93CF93DF93EC010197B1F46C
:1021900083E08093200281E0809321020E94350B2E
:1021A000EE24E39400E320E64CEA50E06AE070E0BD
:1021B00081E190E00E942C0D0E94550B60ED77E0CC
:1021C00080E090E00E948309809121028093D202F6
:1021D000D0930802C0930702BE010D2E000C880B9D
:1021E000990B0E94612520E030E040E05FE30E940F
:1021F0001626209101013091020140910301509176
:1022000004010E94B8246B017C0120E030E040E032
:1022100050E40E94112618160CF4D1C0C09201019E
:10222000D0920201E0920301F092040110925E014B
:10223000609101017091020180910301909104016C
:102240000E94C60D0E94BB0D10921B0210921C0230
:1022500081E080931F02E3EAF1E010863A9682E083
:10226000E730F807D1F710928D0110928401CE016A
:10227000CB30D10524F06AE070E00E948F26809375
:102280006F019093700110927A0180E090E0A8ECC9
:10229000B2E48093630190936401A0936501B093CD
:1022A00066010E94E62322E230E040E050E00E9416
:1022B0005424665F7F4F8F4F9F4F0E94612560932C
:1022C0006701709368018093690190936A0110928D
:1022D0007101C430D1053CF0CE0163E070E00E9492
:1022E0008F26EC01219606E111E082E5282E81E09F
:1022F000382E9CE2892E99249394A12CB12CC12CC8
:10230000D12CE12C23E4F22E32E2432E512C612C0D
:10231000712C0E94E623A50194010E9454246C595B
:10232000F8016083D18BC08B1182128A138AC68216
:10233000D782E086F1860E94E623A30192010E94E3
:102340005424665F7F4F8F4F9F4F0E946125F80195
:1023500062877387848795870C5E1F4F201631062E
:10236000C1F681E090E090931401809313011092E4
:1023700015011092090110920A0110920B0110929E
:102380000C0110920D0110920E0110920F0110928B
:10239000100183E080932202DF91CF911F910F9172
:1023A000FF90EF90DF90CF90BF90AF909F908F9075
:1023B0007F906F905F904F903F902F90089580E0B6
:1023C00090E0A0ECBFE38093010190930201A09301
:1023D0000301B09304012ACF0C943E241F920F9264
:1023E0000FB60F9211248F939F938091E1009091EB
:1023F000E100937F9093E10083FF0FC01092E9000A
:1024000091E09093EB001092EC0092E39093ED003A
:102410001092E80298E09093F00082FF22C093E0CF
:102420009093E9009091F200992319F09AE3909328
:10243000E8009091D902992341F09091D9029150EE
:102440009093D902911101C05D9A9091E70299236E
:1024500041F09091E70291509093E702911101C0F1
:10246000289A84FF18C08091E2008E7E816080935C
:10247000E2008091E1008F7E8093E1008091DA029A
:102480008E7E80618093DA029F918F910F900FBEB4
:102490000F901F90189580FFF7CF8091E2008E7EFD
:1024A00080618093E2008091E1008E7E8093E10064
:1024B0008091DA028E7E8160E5CF1F920F920FB677
:1024C0000F921124CF92DF92EF92FF920F931F93FE
:1024D0002F933F934F935F936F937F938F939F932C
:1024E000AF93BF93EF93FF93CF93DF93CDB7DEB757
:1024F0006C97DEBFCDBF1092E9008091E80083FFAA
:1025000025C068E0CE0145960E94240982EF8093A1
:10251000E8008D8987FF39C09091E80090FFFCCFDB
:10252000982F907609F034C19E894F89588D2F8954
:10253000F88C911131C0803861F58091D802809378
:10254000F1001092F1008EEF8093E8006C960FB6C8
:10255000F894DEBF0FBECDBFDF91CF91FF91EF9119
:10256000BF91AF919F918F917F916F915F914F91AB
:102570003F912F911F910F91FF90EF90DF90CF909F
:102580000F900FBE0F901F9018959EEF9093E8004C
:10259000C7CF1092F100D5CF913059F48111D3CF2C
:1025A0004130510581F68091D8028D7F8093D80209
:1025B000CACF933049F48111C6CF4130510519F685
:1025C0008091D8028260F2CF953041F48091E8008A
:1025D00080FFFCCF20682093E300B5CF963009F050
:1025E000A9C00B8D1C8D22E01092E9001092D6023A
:1025F0001092D502F2122EC01092D4021092D30281
:102600000E94F3081F8299E09983FA8291E09E83E9
:1026100090EA98879AEF99872091D5023091D60257
:10262000275F3F4F3C832B838D831092E9001092EC
:10263000D6021092D5021093D4020093D30249E03F
:1026400050E0BE016F5F7F4F80E00E94CD080E9486
:10265000F30879CF1093D4020093D3020E940A08A2
:10266000DC0112960D911C910115110509F451C15F
:10267000D801ED91FC910480F581E02DBE016B5EE7
:102680007F4FC8010995009709F03EC1F801008508
:102690001185EACFF3E0FF120EC08F89882309F479
:1026A00040C0823061F440E860E183E19FE00E9435
:1026B0003A15811148CF81E28093EB0047CF8130FA
:1026C00029F440E86BE087E09FE0F1CF833099F791
:1026D0000E940A08DC011296ED90FC908E010F5FBB
:1026E0001F4F6801E114F10479F0D701ED91FC91DD
:1026F0000680F781E02DB801C7010995080F111D6B
:10270000F701E084F184EECFD8011C92F60101902C
:102710000020E9F73197BF016C197D0940E0C6013F
:10272000C6CF61EF7EE0FB01449150E080E80E945B
:10273000CD0809CF973009F4BECF983021F481E05D
:102740008093F10000CF993009F0FDCE837009F03D
:10275000B2CFE9E4F2E081E031E096E32191222377
:1027600071F08093E9003093EB00DF0111972C9119
:102770002093EC009093ED008F5F873079F78EE720
:102780008093EA001092EA008F898093E802DBCE02
:102790008B8D9C8D1092E9001092D6021092D5027A
:1027A0009093D4028093D302898D811192C08E8937
:1027B0009D89913A49F4813209F07DCF47E050E09C
:1027C00067E272E080E0B3CF913209F074CF8332D8
:1027D00069F48F89988DB0E0A0E0809323029093F4
:1027E0002402A0932502B0932602ADCE803269F474
:1027F0008091E80082FFFCCF67E087E292E00E94D0
:1028000024098BEF8093E8009ECE823209F09BCEA4
:102810008F8980932E02EEEFFFE7859194918B3F95
:102820009C4D51F1E0E0F8E0809127029091280260
:10283000A0912902B0912A02803B9440A105B105E4
:10284000F1F480912E0280FD1AC0EE3F8AE0F80775
:1028500089F587E797E79183808380916000809373
:10286000D70288E19BE00FB6F894A89580936000AA
:102870000FBE9093600067CEEEEFFAE0D5CF808177
:1028800091818737974709F05ECEA89580916000C7
:102890008861809360008091D70280936000EE3F52
:1028A0002AE0F20789F08091FE0A9091FF0A918355
:1028B000808349CE808191818737980751F2909328
:1028C000FF0A8093FE0AC5CF1092FF0A1092FE0AFB
:1028D0003ACE0E940A08DC0112960D911C91011556
:1028E000110509F4E8CED801ED91FC910190F08139
:1028F000E02DBE016B5E7F4FC8010995811123CE8B
:10290000F80100851185EBCF181619060CF41BCEC3
:10291000D2CEF1E0FF12BECE65EF7EE004CF1F9273
:102920000F920FB60F9211242F933F938F939F9383
:10293000AF93BF938091C9029091CA02A091CB023C
:10294000B091CC023091BF0223E0230F2D3758F510
:102950000196A11DB11D2093BF028093C9029093DF
:10296000CA02A093CB02B093CC028091C002909196
:10297000C102A091C202B091C3020196A11DB11D76
:102980008093C0029093C102A093C202B093C3028D
:10299000BF91AF919F918F913F912F910F900FBE5B
:1029A0000F901F90189526E8230F0296A11DB11DC8
:1029B000D2CF1F920F920FB60F9211242F933F93F5
:1029C0004F935F936F937F938F939F93AF93BF9337
:1029D000EF93FF938091BB029091BC02A091BD0246
:1029E000B091BE02892B8A2B8B2B09F440C08091B9
:1029F000BA0281110BC088B190E4892788B980910F
:102A0000B902882319F088B1805888B98091BB0237
:102A10009091BC02A091BD02B091BE021816190699
:102A20001A061B069CF48091BB029091BC02A091F7
:102A3000BD02B091BE020197A109B1098093BB020A
:102A40009093BC02A093BD02B093BE02FF91EF91A0
:102A5000BF91AF919F918F917F916F915F914F91B6
:102A60003F912F910F900FBE0F901F9018950E94CD
:102A70004F0AECCFEF92FF920F931F93CF93DF9308
:102A8000F82E192FE62E042F81E0860F880F0E9462
:102A90009F0883E00E949F08CF2DD12FEC0EFD2EC2
:102AA000F11CCE15DF05B9F007FF13C0FE018491BC
:102AB0000E949F08182F80E00E949F088123219682
:102AC0008111EFCFDF91CF911F910F91FF90EF9088
:102AD00008958881EDCF81E0F5CFE9EEF6E013822D
:102AE000128288EE93E0A0E0B0E084839583A68311
:102AF000B78383E592E0918380838FEF9FEF958783
:102B00008487E9E4F7E01382128285E692E09183FC
:102B100080838DEB97E0909348078093470780E090
:102B200090E8909346078093450746983E9A4798C9
:102B30003F9A0895CF93DF93CDB7DEB769970FB66D
:102B4000F894DEBF0FBECDBF789484B5826084BD9B
:102B500084B5816084BD85B5826085BD85B58160A1
:102B600085BD80916E00816080936E00109281001F
:102B700080918100826080938100809181008160DA
:102B8000809381008091800081608093800080919B
:102B90009100826080939100809191008160809388
:102BA0009100809190008160809390008091C1009D
:102BB00084608093C1008091C10082608093C100D5
:102BC0008091C10081608093C1008091C3008160C9
:102BD0008093C3008091C00082608093C000809188
:102BE000C20081608093C20080917A0084608093EB
:102BF0007A0080917A00826080937A0080917A00D6
:102C0000816080937A0080917A00806880937A0056
:102C10001092E8021092D8021092DA028091D70046
:102C200081608093D70080EA8093D80089B5806165
:102C300089BD89B5826089BD09B400FEFDCF61E020
:102C400070E080E090E00E9483098091D8008F7C42
:102C500080618093D8008091E000807F8093E000C5
:102C60008091E1008E7E8093E1008DE08093E20010
:102C7000559A209A81EC80937C0085B1806F85B94C
:102C800084B1877E84B984B1876E84B95E9A5F9877
:102C90008AB1806D8AB9769A6E9881B3806F81BB54
:102CA000899880B38D7080BB80E58CBD81E08DBD3F
:102CB00085E090E00E94280B5F9A85E090E00E94FA
:102CC000280B5E985C98E0E7FAE08DE79AE02491A3
:102CD0002EBD00000DB407FEFDCF31968E179F0765
:102CE000B1F75C9A81E8809364008091650081600F
:102CF000809365000E94550B80E80E944A0B882350
:102D0000A9F05C9885EA8EBD00000DB407FEFDCFEA
:102D10005C9A2E982F982D98809164008062809301
:102D2000640081E083BF889513BEFCCF84E00E94DD
:102D30004A0B882309F448C02D9884E80E944A0B66
:102D40008823E1F00E94260B88EC90E00E94280B7B
:102D50002F9882E090E00E943E248F3F29F06FEF91
:102D600082E090E00E94462484EF91E00E94280BCC
:102D70002F9A84E80E944A0B8111FBCF84E10E94C4
:102D80004A0B8823E1F00E94260B88EC90E00E9419
:102D9000280B2E9882E090E00E943E24882329F0A0
:102DA00060E082E090E00E94462484EF91E00E947F
:102DB000280B2E9A84E10E944A0B8111FBCF88ECEC
:102DC00090E00E94280BB2CF0E94260B82E090E098
:102DD0000E94EC11882309F478C03E9A3F9A81E062
:102DE0008093C40281E090E00E94EC11182F1470CF
:102DF00081FF10C011112E98F1EFCF2EDD24DA944F
:102E000080E40E944A0B882309F464C02E9A2F9A0A
:102E10000E94260B82E390E00E94280B0E942D0B5B
:102E20008111F8CF0E940F102FB7F8948091C9023A
:102E30009091CA02A091CB02B091CC022FBF809397
:102E4000CD029093CE02A093CF02B093D002809196
:102E500064008E7F8093640080917A008064809308
:102E60007A0080917A0086FDFCCF00917800109165
:102E700079000E945E09AB01BC01C801B0E0A0E08E
:102E8000DC01992788278C019D01040F151F261F3F
:102E9000371FC901B80120916400216020936400AC
:102EA000611571058105910511F00E94352480910D
:102EB0002202813009F06DC00E940F1080E090E086
:102EC000892BA9F30E940000F2CF1092C4023E9811
:102ED0003F9888CF112331F004E0C016D10411F4DB
:102EE0002E9A2F9881E00E94C007EE24E39400E11F
:102EF00028E540EC59E0B60184E190E00E94580BCF
:102F00000E94550B8FE090E00E94280B2FEFC21A11
:102F1000D20A39E1C316D10409F072CF112311F09E
:102F20002F9A2D9880E991E00E94280B0E94260B91
:102F300081E090E00E94EC1180FF6CCF8AE090E08D
:102F40000E94EC119FEF980F9E3F08F063CF22E3A1
:102F500030E03093C8022093C70228E330E030937A
:102F6000C6022093C5020BE010E0682F89E497E0C9
:102F70000E94850CC8010E94EC110F5F1F4F0131A8
:102F8000110599F70E94550B88EE93E00E94280BDB
:102F900041CF823029F481E090E00E94B3108ECFBF
:102FA000863031F48091D2028093210290E0F5CFF7
:102FB0008091D102882399F02FB7F8948091C902AB
:102FC0009091CA02A091CB02B091CC022FBF892B65
:102FD0008A2B8B2B09F472CF1092D1026FCF8FB74F
:102FE000F8944091C9025091CA026091CB0270914D
:102FF000CC028FBF8091CD029091CE02A091CF02E2
:10300000B091D0028196A11DB11D84179507A60726
:10301000B70708F053CF0E94350B2FB7F894809173
:10302000C9029091CA02A091CB02B091CC022FBFED
:103030008093CD029093CE02A093CF02B093D002A2
:1030400010E000E0F12CE12C41E0B701C8010E9442
:10305000670C2FEFE21AF20A3AE0E316F104A1F747
:103060000F5F1F4F0F37110569F733E0C32ED12CC7
:10307000B12CA12C809120028A151B0491F08CF0B8
:10308000E12C08E028E047EA5EE061E070E0C6017C
:103090000E94580B4FEFA41AB40A5AE0C50ED11C77
:1030A000E9CF8CE390E09093C8028093C70281E05F
:1030B00090E09093C6028093C50260E289E497E0B5
:1030C0000E94850C63E589E497E00E94850C6AE321
:1030D00089E497E00E94850C6091210270E090E005
:1030E00080E04AE00E94B40F60E289E497E00E9429
:1030F000850C63E489E497E00E94850C6AE389E427
:1031000097E00E94850C60911C0270E090E080E0E6
:103110004AE00E94B40F60E289E497E00E94850CC7
:103120008091190290911A022091070230910802B1
:10313000821B930B97FD3AC090931A028093190259
:1031400008E010E028E3E22EF12C41E0B701C801CD
:103150000E94670C8FEFE81AF80A90E4E916F10470
:10316000A1F70F5F1F4F0738110561F7A9E0B2E023
:10317000BF87AE875D01D12CC12C8091190290913F
:103180001A028C199D0997FF02C080589F4FF501C4
:1031900021915F01223009F4C3C058F42130A1F01D
:1031A000E12C08E028E04FE95EE013C08FE790E0F3
:1031B000C3CF233009F4BAC0243091F7E12C08E0E2
:1031C00028E04FE75EE005C0E12C08E028E047E991
:1031D0005EE068E370E00E942C0DF8E0CF0ED11C99
:1031E00000E8C016D10449F680911B028F5F883C2D
:1031F00009F4A2C080931B0223EA31E03B872A87AF
:10320000190110E000E0A0901F02B12C0A151B0567
:103210000CF098C0D10118968C9181117BC00E944E
:10322000E6234B015C010E94E62322E230E040E00D
:1032300050E00E945424665F7F4F072E000C880BDD
:10324000990B0E9461256B017C01C501B40124E644
:1032500030E040E050E00E945424665F7F4F072E2C
:10326000000C880B990B0E9461254B015C0140907A
:103270009301509094016090950170909601E091B7
:103280008F01F0919001FF83EE83BF01FF0F880B48
:10329000990B0E9461259B01AC01C301B2010E9400
:1032A000B7249B01AC01C501B4010E941126181678
:1032B000B4F46E817F81660F771F072E000C880B98
:1032C000990B0E946125A30192010E94B8249B01E1
:1032D000AC01C501B4010E94242587FD1BC0D101AA
:1032E0008D929D92AD92BC921397F101C482D582CA
:1032F000E682F7820E94E62320E530E040E050E0DD
:103300000E945424685DD10119966C931997E1E0ED
:103310001896EC930F5F1F4FFAE02F0E311C73CFFE
:10332000E12C08E028E04FE85EE053CFE12C08E014
:1033300028E047E85EE04DCF10921B0281E08093C9
:103340001F025ACFE3EAF1E030E020E02A153B0506
:1033500051F0818581508187811101C010862F5FD6
:103360003F4F3A96F3CF83EAC82E81E0D82E912CB6
:10337000812C8A149B0439F1D60118968C911897E8
:103380008823D1F014966D917D918D919C91179722
:103390000E9429252B01F601608171818281938130
:1033A0000E942925CB01EE24E39408E028E047E7BA
:1033B0005EE0B2010E94580BFFEF8F1A9F0A0AE0ED
:1033C000C00ED11CD6CF80918D018F5F80938D016F
:1033D000823309F04AC010928401809184018823CD
:1033E00019F1809183018111EDC060917F0170918D
:1033F000800180918101909182010E9429254B01D9
:1034000060917B0170917C0180917D0190917E01A2
:103410000E942925CB01EE24E39408E028E047EA46
:103420005EE0B4010E94580B80917101882309F479
:1034300030C280917A018F5F80937A0120916F0171
:1034400030917001273031050CF03CC1243031053A
:103450000CF09EC52130310509F48FC122303105B1
:1034600009F452C50E946D0ECBC1883C09F0B5CF5E
:1034700010928D010E94E62324E630E040E050E007
:103480000E94542485E0E3E3F2E0DE01119601900E
:103490000D928A95E1F7FE01319690E080E021914E
:1034A000261708F489C0182F0E94E6232EE630E084
:1034B00040E050E00E945424665F7F4F8F4F9F4F43
:1034C0000E94612560937B0170937C0180937D0154
:1034D00090937E010E94E62322E230E040E050E03B
:1034E0000E945424665F7F4F8F4F9F4F0E9461253B
:1034F00060937F017093800180938101909382019A
:1035000080907B0190907C01A0907D01B0907E0125
:1035100040909301509094016090950170909601B5
:10352000E0908F01F0909001B7010F2C000C880BF8
:10353000990B0E9461259B01AC01C301B2010E945D
:10354000B7249B01AC01C501B4010E9411261816D5
:10355000ACF4B701660F771F072E000C880B990B90
:103560000E946125A30192010E94B8249B01AC0135
:10357000C501B4010E94242587FD2FCF80E090E093
:10358000A0E8BFE38093850190938601A093870113
:10359000B093880180E090E0A0ECBFE380938901C4
:1035A00090938A01A0938B01B0938C0110938301B7
:1035B00081E08093840111CF01968530910509F057
:1035C0006ECF0BCF813001F560917F01709180014A
:1035D00080918101909182010E9429254B01609187
:1035E0007B0170917C0180917D0190917E010E9410
:1035F0002925CB01EE24E39408E028E04FE65EE0C5
:10360000B4010E942C0D10CF8230E9F460917F014B
:103610007091800180918101909182010E94292501
:103620004B0160917B0170917C0180917D019091B3
:103630007E010E942925CB01EE24E39408E028E0D6
:1036400047E65EE0DDCF8330E9F460917F01709161
:10365000800180918101909182010E9429254B0176
:1036600060917B0170917C0180917D0190917E0140
:103670000E942925CB01EE24E39408E028E04FE5E1
:103680005EE0BECF843009F0CFCE60917F017091B3
:10369000800180918101909182010E9429254B0136
:1036A00060917B0170917C0180917D0190917E0100
:1036B0000E942925CB01EE24E39408E028E047E5A9
:1036C0005EE09ECF2A3031050CF0CCCE80917A019D
:1036D000893C08F095C00E94E62322E030E040E0FB
:1036E00050E00E9454246B0180916B0190916C0119
:1036F0008C9DB0018D9D700D9C9D700D1124072E29
:10370000000C880B990B0E94612520916301309178
:10371000640140916501509166010E94B824609354
:1037200063017093640180936501909366018091B9
:103730006D0190916E018C9DB0018D9D700D9C9DD1
:10374000700D1124072E000C880B990B0E94612527
:1037500020916701309168014091690150916A019F
:103760000E94B82460936701709368018093690197
:1037700090936A010E942C0E08C4893C08F040C056
:1037800060916D0170916E01072E000C880B990BF2
:103790000E94612520916701309168014091690183
:1037A00050916A010E94B824609367017093680188
:1037B0008093690190936A010E94EB0D8823F1F0D8
:1037C00060916B0170916C01072E000C880B990BB6
:1037D0000E9461259B01AC016091630170916401BD
:1037E00080916501909166010E94B8246093630105
:1037F0007093640180936501909366010E942C0E82
:1038000010916101F090620130905F0120906001A1
:1038100040906701509068016090690170906A0162
:103820008090630190906401A0906501B090660162
:10383000C0906F01D0907001B5E0CC0CDD1CBA9542
:10384000E1F796012950334F6901C301B2010E948B
:1038500029256E837F8388879987C501B4010E94DB
:103860002925CB01EE24E394012F232DA6016E819F
:103870007F810E942C0DE12E032D122DA3019201B8
:10388000C501B4010E94960E882319F089EC80933B
:103890007A0180915E018823F9F060915A0170915C
:1038A0005B0180915C0190915D010E9429254B0193
:1038B0006091560170915701809158019091590182
:1038C0000E942925CB01EE24E39408E028E04FE094
:1038D0005DE0B4010E942C0DA6E12A2EA1E03A2E53
:1038E000610177247394D60153968C915397882362
:1038F00009F492C380911501811126C4F0908E01C4
:10390000FF2009F410C788E00E944A0B882309F4BD
:1039100068C480911501882309F469C480E20E947B
:103920004A0B8090930190909401A0909501B090E3
:103930009601882309F499C420919B0130919C0140
:1039400040919D0150919E01C501B4010E94B72490
:1039500060939301709394018093950190939601E5
:1039600000919F011091A0012091A1013091A2012D
:103970000A8B1B8B2C8B3D8B2091970130919801EA
:103980004091990150919A016A897B898C899D891E
:103990000E94B8242B013C0140929701509298015B
:1039A0006092990170929A01009191011091920197
:1039B00068E370E0601B710B072E000C880B990BFD
:1039C0000E9461254B015C01AC019B01C301B20166
:1039D0000E941126181644F4809297019092980143
:1039E000A0929901B0929A0120E030E040E251E4C7
:1039F00060919701709198018091990190919A013D
:103A00000E94242587FF0CC080E090E0A0E2B1E492
:103A10008093970190939801A0939901B0939A0194
:103A200020E030E040EF52E4609193017091940106
:103A300080919501909196010E941126181664F4C8
:103A400080E090E0A0EFB2E4809393019093940122
:103A5000A0939501B093960120E030E040E051E45E
:103A600060919301709194018091950190919601DC
:103A70000E94242587FF0CC080E090E0A0E0B1E424
:103A80008093930190939401A0939501B093960134
:103A900020919701309198014091990150919A019C
:103AA0002E833F834887598740909301509094011B
:103AB0006090950170909601CA01B9010E94292574
:103AC0006E8B7F8B888F998FC301B2010E9429254D
:103AD000CB01EE24E39420918F014BEF5CE06E89E3
:103AE0007F890E942C0DA50194016E817F818885BC
:103AF00099850E94112687FD65C08A899B89AC89BA
:103B0000BD89B05880939F019093A001A093A1011B
:103B1000B093A20160E570E08EE690E00E940A0B8F
:103B20000091190210911A02D12CC12CB80117FF73
:103B300002C060587F4F6C5F7F4F072E000C880BD0
:103B4000990B0E9461254B015C0120E030E040E8C8
:103B500050E4C301B2010E94B724A50194010E9460
:103B6000242518160CF494C320E030E040E451E41E
:103B7000C301B2010E94B8249B01AC01C501B4018C
:103B80000E94242518160CF483C3F601E75FFD4F4D
:103B90008081882309F47CC381508083F12C29E142
:103BA00032E0E9E0F2E090E080E04191840F911D85
:103BB0002E173F07D1F7892B11F40E94BB0DF1108E
:103BC0000E947D0FC0909701D0909801E0909901DC
:103BD000F0909A0120E030E040E451E4C701B601E2
:103BE0000E94242518168CF080919F019091A001CD
:103BF000A091A101B091A201B05880939F01909330
:103C0000A001A093A101B093A20180918401882317
:103C100009F4D0C08090930190909401A0909501F8
:103C2000B090960140907B0150907C0160907D01A6
:103C300070907E0120E030E040E051E4C501B40125
:103C40000E94B8249B01AC01C301B2010E9424254B
:103C500087FFB0C020E030E040E051E4C301B20192
:103C60000E94B8249B01AC01C501B4010E94242527
:103C700087FFA0C080907F0190908001A09081017B
:103C8000B090820120E030E040E051E4C701B6018D
:103C90000E94B8249B01AC01C501B4010E942425F7
:103CA00087FF88C020E030E040E051E4C501B40166
:103CB0000E94B8249B01AC01C701B6010E942425D3
:103CC00087FF78C080918301811119C060E570E0A1
:103CD0008BE092E00E940A0B809120028F5F80931C
:103CE00020021092840180E090E0A0E0B3E4809391
:103CF0007B0190937C01A0937D01B0937E01809124
:103D000083018130B1F429E132E0E9E0F2E0819110
:103D1000843020F4DF0111978F5F8C932E173F07BB
:103D2000B1F760E570E08BE092E00E940A0B109220
:103D30008401809183018230B1F429E132E0E9E02D
:103D4000F2E08191882321F0DF01119781508C935B
:103D50002E173F07B1F760E570E083E890E00E941E
:103D60000A0B1092840180918301833061F41092D8
:103D70001B0280931F0260E570E086E091E00E94E4
:103D80000A0B1092840180918301843099F489E1B7
:103D900092E024E0AE85BF852D93BF87AE878A175A
:103DA0009B07C1F760E570E08BE092E00E940A0B90
:103DB00010928401C0909701D0909801E0909901F1
:103DC000F0909A018090930190909401A0909501B9
:103DD000B090960110E000E080911F02801711065C
:103DE00009F00CF49DC2EA85FB858085882309F4DF
:103DF00083C0408051806280738020E030E040E0EA
:103E000051E4C501B4010E94B8249B01AC01C30177
:103E1000B2010E94242587FF6FC020E030E040E01F
:103E200051E4C301B2010E94B8249B01AC01C50159
:103E3000B4010E94242587FF5FC0AA85BB85149624
:103E40004D905D906D907C90179720E030E040E0C1
:103E500051E4C701B6010E94B8249B01AC01C30123
:103E6000B2010E94242587FF47C020E030E040E0F7
:103E700051E4C301B2010E94B8249B01AC01C70107
:103E8000B6010E94242587FF37C060E570E088E80E
:103E900091E00E940A0B80911C028F5F80931C02AC
:103EA000EA85FB85108690911E028913FCC120E0F3
:103EB00030E040EF52E42093560130935701409395
:103EC0005801509359010E94E62322E230E040E07D
:103ED00050E00E945424665F7F4F8F4F9F4F0E9497
:103EE000612560935A0170935B0180935C0190930C
:103EF0005D0131E030935E010F5F1F4FEA85FB8566
:103F00003A96FB87EA8768CF893C08F079CC6091C4
:103F10006B0170916C01072E000C880B990B0E94AD
:103F200061252091630130916401409165015091B8
:103F300066010E94B82460936301709364018093CA
:103F40006501909366010E942C0E8823F1F0609128
:103F50006D0170916E01072E000C880B990B0E9469
:103F600061259B01AC0160916701709168018091AE
:103F7000690190916A010E94B8246093670170936F
:103F800068018093690190936A010E94EB0D38CC1F
:103F9000893C08F09BCB60916B0170916C01072EFE
:103FA000000C880B990B0E9461259B01AC0160916C
:103FB00063017091640180916501909166010E9496
:103FC000B8246093630170936401809365019093BA
:103FD000660160916D0170916E01072E000C880BD7
:103FE000990B0E9461259B01AC0160916701709162
:103FF00068018091690190916A010E94B8246093E0
:104000006701709368018093690190936A010E942F
:104010002C0E0E94EB0D5ACBF60181818F5F8183BC
:104020009289992309F45AC066857785072E000C7A
:10403000880B990B0E946125D60116962D913D9112
:104040004D915C9119970E94B8244B015C01F601D7
:1040500086829782A086B18620E030E0A9010E9486
:10406000242587FF03C0D60152961C92F601E480F6
:10407000F580028113812285338544855585C501EC
:10408000B4010E94960E882319F0D60152961C9214
:10409000F60162857385848595850E9429254B01EB
:1040A000D60116966D917D918D919C9119970E94E4
:1040B0002925CB01EE24E394F6010481228147E017
:1040C0005DE0B4010E942C0DB4E1CB0ED11CE2E501
:1040D000F1E0EC15FD0509F006CC0CCC9C9198178D
:1040E00098F711961C92119750968D909C90092CE0
:1040F000000CAA08BB0881149104A104B10439F092
:104100000E94E623A50194010E9454244B0180944F
:104110009094F601978686860E94E6232CE231E091
:1041200040E050E00E9454246C59D6016C9300E0AA
:1041300010E020E033E416960D931D932D933C93ED
:10414000199752967C92C0CF609111017091120123
:10415000072E000C880B990B0E9461252091090104
:1041600030910A0140910B0150910C010E94B8243A
:104170006B017C01C0920901D0920A01E0920B010F
:10418000F0920C0120E030E0A9010E94242587FD77
:104190000AC020E030E040E053E4C701B6010E94CD
:1041A0001126181614F41092150160910D017091EA
:1041B0000E0180910F01909110010E9429254B0161
:1041C000C701B6010E942925CB01EE24E39400919A
:1041D00007012091050143E05DE0B4010E942C0D30
:1041E0008DCB84E00E944A0B811193CB97CB8090BA
:1041F000970190909801A0909901B0909A014090F9
:10420000930150909401609095017090960168E23E
:1042100070E083E992E00E940A0B81E0809315012F
:10422000C301B2010E942925072E000C880B990BAF
:104230000E9461256093090170930A0180930B012C
:1042400090930C01C501B4010E942925072E000C92
:10425000880B990B0E94612560930D0170930E01EC
:1042600080930F019093100159CB80E40E944A0B78
:10427000882309F475CBA501940160919B0170918D
:104280009C0180919D0190919E010E94B82460CB79
:104290003FEFC31AD30A0850110940E1C416D104F4
:1042A00009F044CC7CCC90911D02891325CE41E0CD
:1042B000409329011092280140933D0110923C0146
:1042C000409351011092500185E090E09093C80214
:1042D0008093C702AEE1B0E0B093C602A093C502DE
:1042E00089E992E00E9402100E94550B6091010141
:1042F0007091020180910301909104010E94C60D0A
:104300008DE79AE00E94F70A60EA7FE080E090E0A3
:104310000E9483090E94BB0DB1E0B0937101ECCD06
:1043200080915E01882309F4C7C080905601909067
:104330005701A0905801B090590160918F01709180
:10434000900177FF02C06F5F7F4F75956795072ECD
:10435000000C880B990B0E946125209193013091EC
:10436000940140919501509196010E94B8246B01EF
:104370007C01AC019B01C501B4010E94242587FF8B
:104380009BC06091520170915301072E000C880B65
:10439000990B0E946125A50194010E94B8249B01FC
:1043A000AC01C701B6010E94242587FF85C080901B
:1043B0005A0190905B01A0905C01B0905D0160910A
:1043C00091017091920177FF02C06F5F7F4F7595E9
:1043D0006795072E000C880B990B0E946125209190
:1043E0009701309198014091990150919A010E9452
:1043F000B8246B017C01AC019B01C501B4010E9492
:10440000242587FF59C06091540170915501072EF2
:10441000000C880B990B0E946125A50194010E9454
:10442000B8249B01AC01C701B6010E94242587FF77
:1044300043C0809121026AE00E948326911177C1D6
:1044400085EE9CE00E94F70A68EB7BE080E090E05C
:104450000E9483090E94350B84E290E09093C80289
:104460008093C70281E090E09093C6028093C502DA
:1044700088EA92E00E9402106091210270E090E0D0
:1044800080E04AE00E94B40FEE24E39400E320E6CB
:104490004FE85AE06AE070E081E190E00E942C0D64
:1044A0000E94550B809121028F5F8093210290E042
:1044B0000E94B31010925E0180917101882309F46B
:1044C00085C08090630190906401A0906501B090D8
:1044D000660160918F017091900177FF02C06F5F5C
:1044E0007F4F75956795072E000C880B990B0E94DE
:1044F0006125209193013091940140919501509153
:1045000096010E94B8246B017C01AC019B01C5019E
:10451000B4010E94242587FF59C060915F0170910A
:104520006001072E000C880B990B0E946125A501E4
:1045300094010E94B8249B01AC01C701B6010E94FE
:10454000242587FF43C08090670190906801A09068
:104550006901B0906A01609191017091920177FFB9
:1045600002C06F5F7F4F75956795072E000C880B13
:10457000990B0E94612520919701309198014091FB
:10458000990150919A010E94B8246B017C01AC0101
:104590009B01C501B4010E94242587FF17C06091CB
:1045A000610170916201072E000C880B990B0E942B
:1045B0006125A50194010E94B8249B01AC01C701AB
:1045C000B6010E94242587FD0E947D0F009197016E
:1045D000109198012091990130919A010A871B87C7
:1045E0002C873D8720919301309194014091950152
:1045F000509196012E873F87488B598B80918F0170
:104600009091900197FD019695958795C0909101A5
:10461000D0909201D7FE03C03FEFC31AD30AD594BE
:10462000C7948C01990F220B330B0E831F832887AD
:1046300039870D2C000CEE08FF08D10152968C91A1
:104640005297882309F466C016964D905D906D9040
:104650007C9019976E817F81888599850E9461255C
:104660002E853F85488959890E94B8244B015C01F9
:10467000AC019B01C301B2010E94242587FF4AC0FF
:10468000F10162817381072E000C880B990B0E9447
:104690006125A30192010E94B8249B01AC01C501D0
:1046A000B4010E94242587FF35C0D1011A964D9090
:1046B0005D906D907C901D97C701B6010E946125A9
:1046C0002A853B854C855D850E94B8244B015C01A1
:1046D000AC019B01C301B2010E94242587FF1AC0CF
:1046E000F10164817581072E000C880B990B0E94E3
:1046F0006125A30192010E94B8249B01AC01C50170
:10470000B4010E94242587FF05C00E947D0FD101BE
:1047100052961C92B4E12B0E311CE2E5F1E0E21559
:10472000F30509F08ACF0E94550B0C945E178FECAD
:104730009CE088CE8F929F92AF92BF92CF92DF92F1
:10474000EF92FF92CF93DF93EC01688179818A81A8
:104750009B81611571058105910521F464E279ED74
:104760008BE597E02DE133EF41E050E00E945424C7
:1047700049015A019B01AC01A7EAB1E40E947324EC
:104780006B017C01ACEEB4EFA50194010E94812481
:10479000C60ED71EE81EF91EF7FE06C081E0C81A35
:1047A000D108E10880E8F80AC882D982EA82FB824F
:1047B000C701B6019F77DF91CF91FF90EF90DF9017
:1047C000CF90BF90AF909F908F9008958F929F92BF
:1047D000AF92BF92CF92DF92EF92FF9260912F0241
:1047E0007091300280913102909132026115710511
:1047F0008105910521F464E279ED8BE597E02DE1E7
:1048000033EF41E050E00E94542449015A019B01DA
:10481000AC01A7EAB1E40E9473246B017C01ACEE09
:10482000B4EFA50194010E948124C60ED71EE81E94
:10483000F91EF7FE06C081E0C81AD108E10880E839
:10484000F80AC0922F02D0923002E0923102F09228
:104850003202C701B6019F77FF90EF90DF90CF90B3
:10486000BF90AF909F908F90089560932F027093A8
:10487000300280933102909332020895F999FECF6D
:1048800092BD81BDF89A992780B50895262FF99990
:10489000FECF1FBA92BD81BD20BD0FB6F894FA9A23
:1048A000F99A0FBE01960895052E97FB1EF4009409
:1048B0000E946B2457FD07D00E94862407FC03D07A
:1048C0004EF40C946B2450954095309521953F4FB4
:1048D0004F4F5F4F089590958095709561957F4FEC
:1048E0008F4F9F4F08950E94A824A59F900DB49FBD
:1048F000900DA49F800D911D11240895B7FF0C9475
:1049000073240E947324821B930B0895A1E21A2E34
:10491000AA1BBB1BFD010DC0AA1FBB1FEE1FFF1F63
:10492000A217B307E407F50720F0A21BB30BE40BB3
:10493000F50B661F771F881F991F1A9469F76095FA
:104940007095809590959B01AC01BD01CF010895B4
:10495000A29FB001B39FC001A39F700D811D1124C0
:10496000911DB29F700D811D1124911D0895505805
:10497000BB27AA270E94CF240C94D7250E94C925C3
:1049800038F00E94D02520F039F49F3F19F426F426
:104990000C94C6250EF4E095E7FB0C94C025E92F96
:1049A0000E94E82558F3BA17620773078407950732
:1049B00020F079F4A6F50C940A260EF4E0950B2E5F
:1049C000BA2FA02D0B01B90190010C01CA01A00161
:1049D0001124FF27591B99F0593F50F4503E68F1BC
:1049E0001A16F040A22F232F342F4427585FF3CFFD
:1049F000469537952795A795F0405395C9F77EF4CE
:104A00001F16BA0B620B730B840BBAF09150A1F016
:104A1000FF0FBB1F661F771F881FC2F70EC0BA0F9C
:104A2000621F731F841F48F4879577956795B79524
:104A3000F7959E3F08F0B0CF9395880F08F099271F
:104A4000EE0F9795879508950E949C2508F481E0C4
:104A500008950E9430256894B1110C940B26089596
:104A60000E94F02588F09F5798F0B92F9927B751E9
:104A7000B0F0E1F0660F771F881F991F1AF0BA9502
:104A8000C9F714C0B13091F00E940A26B1E0089530
:104A90000C940A26672F782F8827B85F39F0B93F22
:104AA000CCF3869577956795B395D9F73EF49095B5
:104AB0008095709561957F4F8F4F9F4F0895E89433
:104AC00009C097FB3EF490958095709561957F4F56
:104AD0008F4F9F4F9923A9F0F92F96E9BB27939504
:104AE000F695879577956795B795F111F8CFFAF414
:104AF000BB0F11F460FF1BC06F5F7F4F8F4F9F4F45
:104B000016C0882311F096E911C0772321F09EE8A2
:104B1000872F762F05C0662371F096E8862F70E008
:104B200060E02AF09A95660F771F881FDAF7880FE2
:104B30009695879597F90895990F0008550FAA0B38
:104B4000E0E8FEEF16161706E807F907C0F01216A0
:104B50001306E407F50798F0621B730B840B950BA3
:104B600039F40A2661F0232B242B252B21F40895F8
:104B70000A2609F4A140A6958FEF811D811D089595
:104B800097F99F6780E870E060E008959FEF80EC00
:104B9000089500240A9416161706180609060895A3
:104BA00000240A9412161306140605060895092E09
:104BB0000394000C11F4882352F0BB0F40F4BF2B78
:104BC00011F460FF04C06F5F7F4F8F4F9F4F0895B8
:104BD00057FD9058440F551F59F05F3F71F04795AE
:104BE000880F97FB991F61F09F3F79F08795089593
:104BF000121613061406551FF2CF4695F1DF08C0B2
:104C0000161617061806991FF1CF869571056105CE
:104C100008940895E894BB2766277727CB0197F976
:104C200008950E949C2508F48FEF08950E9429267C
:104C30000C94D7250E94C92538F00E94D02520F079
:104C4000952311F00C94C0250C94C62511240C94C6
:104C50000B260E94E82570F3959FC1F3950F50E055
:104C6000551F629FF001729FBB27F00DB11D639F1E
:104C7000AA27F00DB11DAA1F649F6627B00DA11DC4
:104C8000661F829F2227B00DA11D621F739FB00D6A
:104C9000A11D621F839FA00D611D221F749F3327DA
:104CA000A00D611D231F849F600D211D822F762F73
:104CB0006A2F11249F5750409AF0F1F088234AF050
:104CC000EE0FFF1FBB1F661F771F881F91505040BC
:104CD000A9F79E3F510580F00C94C0250C940B263B
:104CE0005F3FE4F3983ED4F3869577956795B79543
:104CF000F795E7959F5FC1F7FE2B880F911D96955D
:104D0000879597F90895991B79E004C0991F961724
:104D100008F0961B881F7A95C9F78095089597FB30
:104D2000072E16F4009407D077FD09D00E94A32621
:104D300007FC05D03EF4909581959F4F089570959E
:104D400061957F4F0895AA1BBB1B51E107C0AA1FA5
:104D5000BB1FA617B70710F0A61BB70B881F991F1C
:104D60005A95A9F780959095BC01CD010895EE0F55
:0E4D7000FF1F0590F491E02D0994F894FFCFF9
:104D7E00010000803F04000400000080420000801B
:104D8E0041040001000000000800080000008042FD
:104D9E0000008041FFFF0100000000000800080035
:104DAE000000804200008041FFFF01000000000073
:104DBE00080008000000804200008041FFFF010053
:104DCE000000080008000000F04200000042001041
:104DDE00001000000000430000004201000100012D
:104DEE000000000000000000000000000000430072
:104DFE00000042000000000000000000000000085B
:104E0E0000080000000043000000420000803F0048
:104E1E0000803F00008042000080410000000080C2
:104E2E0042000080410000000080420000804100EE
:104E3E00000000804200008041000000008042001F
:104E4E000080410000000080420000804100000010
:104E5E00008042000080410000000080420000807F
:104E6E0041000000008042000080410000000080F0
:104E7E00420000804100000100010203040304030C
:104E8E0002010201020303040380000000050A0A66
:104E9E00030101FFFFFFFF00E10000000000000121
:104EAE0000000005141E2D32010203040304030248
:104EBE00010201020303040300C18081000000000F
:104ECE000000001E08B6093F083408850843086133
:104EDE000800000000850C3109B10FB00F4A554D86
:104EEE005020424F59320050726573732041206F2B
:104EFE00722042007265636F72643A002000423A7B
:104F0E00434F4E54494E554500456E656D792061AF
:104F1E00707065617273210053746167653A0000A9
:00000001FF
