:100000000C94DE060C9406070C9406070C94060765
:100010000C9406070C9406070C9406070C9406072C
:100020000C9406070C9406070C94240F0C94930F61
:100030000C9406070C9406070C9406070C9406070C
:100040000C9406070C9406070C9406070C940607FC
:100050000C9406070C9406070C9406070C94C51123
:100060000C9406070C9406070C9406070C940607DC
:100070000C9406070C9406070C9406070C940607CC
:100080000C940F120C9406070C9406070C940607A8
:100090000C9406070C9406070C9406070C940607AC
:1000A0000C9406070C9406070C9406070000000F3A
:1000B000000000000000000000000001F9F0000056
:1000C000000000000000000007001C00000000000D
:1000D0000000000000083FE20000000000000000F7
:1000E000000010C0390000000000000000000021E6
:1000F000823C80060000000000000000410624C091
:10010000090000000000000000811F064010800070
:1001100000C000000001813E02401080000120006C
:100120000000010338032009000002100000000154
:1001300002380120060000021000000001027001D8
:10014000300000000120000000010270019000005A
:100150000000C000000001027000900000000000DC
:1001600000000001027000500000000000000000CC
:1001700001027800500000000000000000010308A8
:10018000005000000000000000000081000050004E
:100190000000000000000000808000D0000000008F
:1001A000000000000080C00090000000000000007F
:1001B000000040400310000000000000000000406C
:1001C0003FFE100000000000000000004000001092
:1001D0003E1FC3FF3F8000000060000020000000C1
:1001E0000000000000007C00007000000000000023
:1001F000000001A3F3F0D0000003FF0000000001A5
:10020000201E001000000000000000000F00000091
:100210003F000000000000000008C00001C1C00055
:1002200003FF000000001870038000300000000091
:10023000000000680FFE0000180000000000000031
:1002400046000000000C00000000000000C3800019
:1002500000000600000000000000B0FFC000000227
:10026000000000000000009C0000000002000000F0
:1002700000000000878FF80000020000000000006E
:1002800000000000003E5B4F5B3E3E6B4F6B3E1C30
:100290003E7C3E1C183C7E3C181C577D571C1C5E47
:1002A0007F5E1C00183C1800FFE7C3E7FF0018241E
:1002B0001800FFE7DBE7FF30483A060E26297929C8
:1002C00026407F050507407F05253F5A3CE73C5AFD
:1002D0007F3E1C1C08081C1C3E7F14227F22145FDA
:1002E0005F005F5F06097F017F006689956A606035
:1002F00060606094A2FFA29408047E040810207E2F
:10030000201008082A1C08081C2A08081E101010B3
:10031000100C1E0C1E0C30383E3830060E3E0E06F9
:10032000000000000000005F00000007000700144C
:100330007F147F14242A7F2A12231308646236490B
:100340005620500008070300001C224100004122F3
:100350001C002A1C7F1C2A08083E080800807030F8
:100360000008080808080000606000201008040267
:100370003E5149453E00427F40007249494946216D
:1003800041494D331814127F1027454545393C4AE1
:1003900049493141211109073649494936464949F8
:1003A000291E000014000000403400000008142240
:1003B00041141414141400412214080201590906AE
:1003C0003E415D594E7C1211127C7F494949363EAF
:1003D000414141227F4141413E7F494949417F0995
:1003E0000909013E414151737F0808087F00417FA0
:1003F00041002040413F017F081422417F4040409E
:10040000407F021C027F7F0408107F3E4141413E35
:100410007F090909063E4151215E7F0919294626B7
:100420004949493203017F01033F4040403F1F20BB
:1004300040201F3F4038403F631408146303047892
:1004400004036159494D43007F41414102040810B2
:1004500020004141417F04020102044040404040ED
:10046000000307080020545478407F28444438385B
:1004700044444428384444287F38545454180008CD
:100480007E090218A4A49C787F0804047800447DA7
:1004900040002040403D007F1028440000417F4044
:1004A000007C047804787C08040478384444443898
:1004B000FC1824241818242418FC7C080404084878
:1004C0005454542404043F44243C4040207C1C20C9
:1004D00040201C3C4030403C44281028444C909024
:1004E000907C4464544C440008364100000077007E
:1004F00000004136080002010204023C2623263C8B
:100500001EA1A161123A4040207A38545455592115
:1005100055557941215454784121555478402054FF
:100520005579400C1E52721239555555593954544B
:10053000545939555454580000457C410002457DBA
:10054000420001457C40F0292429F0F0282528F0BC
:100550007C545545002054547C547C0A097F493210
:10056000494949323248484832324A4848303A418B
:1005700041217A3A42402078009DA0A07D39444430
:1005800044393D4040403D3C24FF2424487E4943BB
:10059000662B2FFC2F2BFF0929F620C0887E09032C
:1005A00020545479410000447D413048484A323853
:1005B0004040227A007A0A0A727D0D19317D26297F
:1005C000292F28262929292630484D402038080877
:1005D000080808080808382F10C8ACBA2F102834AB
:1005E000FA00007B000008142A142222142A14089E
:1005F0009500220095AA005500AAAA55AA55AA005E
:100600000000FF00101010FF00141414FF00101061
:10061000FF00FF1010F010F0141414FC001414F775
:1006200000FF0000FF00FF1414F404FC1414171062
:100630001F10101F101F1414141F00101010F000B2
:100640000000001F101010101F10101010F01000EC
:100650000000FF101010101010101010FF100000FC
:1006600000FF140000FF00FF00001F10170000FC37
:1006700004F414141710171414F404F40000FF0009
:10068000F714141414141414F700F7141414171492
:1006900010101F101F141414F4141010F010F00098
:1006A000001F101F0000001F14000000FC140000B9
:1006B000F010F01010FF10FF141414FF141010109D
:1006C0001F00000000F010FFFFFFFFFFF0F0F0F050
:1006D000F0FFFFFF0000000000FFFF0F0F0F0F0FE4
:1006E00038444438447C2A2A3E147E02020606021C
:1006F0007E027E0263554941633844443C04407E97
:10070000201E2006027E020299A5E7A5991C2A490F
:100710002A1C4C7201724C304A4D4D30304878489A
:1007200030BC625A463D3E494949007E0101017E86
:100730002A2A2A2A2A44445F444440514A444040D9
:10074000444A51400000FF0103E080FF0000080818
:100750006B6B083612362436060F090F0600001898
:10076000180000001010003040FF0101001F0101BF
:100770001E00191D1712003C3C3C3C00000000000C
:10078000F0F89C8E8783878E9CF8F00000FEFF03B4
:1007900003030303070EFCF80000FEFF030303033B
:1007A00003070EFCF80000FFFF000000000000003F
:1007B000FFFF0000FEFF8383838383C7EE7C380046
:1007C00000F8FC0E07030303070EFCF800003F7F50
:1007D000E0C08080C0E07F3FFFFF01010101010117
:1007E00001FFFF0000FFFF0C0C0C0C1C3E77E3C167
:1007F00000007FFFC0C0C0C0C0E0703F1F00001FEE
:100800003F70E0C0C0C0E0703F1F00007FFFC1C16B
:10081000C1C1C1E3773E1C00001F3F70E0C0C0C0F3
:10082000E0703F1F000000000001FFFF010000001A
:10083000D5F08D14A1C881CFD9F1AF200000000000
:1008400000000000000000000000000000000000A8
:100850000000000000000000000000000000000098
:100860000000000000000000000000000000000088
:100870000000000000000000000000000000000078
:100880000000000000000000000000000000000068
:100890000000000000000000000000000000000058
:1008A0000000000000000000000000000000000048
:1008B0000000000000000000000000000000000038
:1008C0000000000000000000000000000000007EAA
:1008D0000FFF0600FF83FFC0000000FF0FFF0F00A7
:1008E000FFE3FFC00000018380600F00C0601800BC
:1008F0000000018180600F00C0601800000003004C
:1009000080601B80C03018000000038000601980E8
:10091000C06018000000018000603980C0601800CD
:10092000000001E0006030C0C0E01800000000FEE0
:10093000006030C0FFC018000000001F806070C061
:10094000FF8018000000000380606060C1C01800D4
:1009500000000000C0607FE0C0C018000000000080
:10096000C060FFF0C060180000000300C060C0302D
:10097000C060180000000380C060C030C060180074
:10098000000001C180618018C0301800000000FF25
:1009900080618018C03018000000007E006180185F
:1009A000C03018000000000000000000000000003F
:1009B0000000000000000000000000000000000037
:1009C0000000000000000000000000000000000027
:1009D0000000000000000000000000000000000017
:1009E0000000000000000000000000000000000007
:1009F00000000000000000000000000000000000F7
:100A000000000000000000000000000000000000E6
:100A100000000000000000000000000000000000D6
:100A200000000000000000000000000000000000C6
:100A300000000000000000000000000000000000B6
:100A400000000000000000000000000000000000A6
:100A50000000000000000000000000000000000096
:100A60000000000000000000000000000000000086
:100A70000000000000000000000000000000006016
:100A8000959F600000101828345BAC7FFE77DE77FE
:100A9000DE7FFC3C781D788FE3700EEDBD4E700F4D
:100AA000F006600E70000000000000000000000072
:100AB0000000000000000000000000000000000036
:100AC0000000000000000000000000000000000026
:100AD0000000000000000007C1003FE0300FF00000
:100AE0000000001FE1003FC0700C780000000038DB
:100AF000310020007808180000000030310020008C
:100B000058080C000000006001002000C8080C001C
:100B10000000006001002000CC0818000000006008
:100B200001003F818C0C78000000006001003FC193
:100B3000860FE00000000060010020010608300080
:100B40000000006001002003FE08100000000060AB
:100B500011002003FF0818000000003031002002BF
:100B600003081800000000383100200601080C00BE
:100B70000000001FE1FF3FC601880C0000000007D5
:100B8000C1FF3FE4018804000000000000000000F5
:100B90000000000000000000000000000000000055
:100BA0000000000000000000000000000000000045
:100BB0000000000000000000000000000000000035
:100BC0000000000000000000000000000000000025
:100BD0000000000000003FFC000000000000007E5C
:100BE000000061E700000000000000760000873D83
:100BF000C0000000000000F000011C0240000000E6
:100C00000000009000032002200000000000008887
:100C10000006618110000000000000CFE004C381E5
:100C200090000000000000FF70048E00980000009B
:100C30000000007E300C9E00C80000000000000391
:100C40001009900048000000000000013009100069
:100C500048F0000000000000B009180048980000AB
:100C60000000000CE0051800488800000000000F9C
:100C7000C0059800480E0000000000030004880032
:100C8000580B0000000000000004C400D11900004F
:100C90000000000000066001B1F300000000000049
:100CA0000002200360E28000000000000003300228
:100CB000C020800000000000000190018043C000BF
:100CC00000000000003EFE0FFC424000000000005B
:100CD00001E3A3F807E0800000000000010000002D
:100CE00000818000007E81A5817E3C2466FF81A971
:100CF00095A99581FF7E81A599A581817EFF81813E
:100D0000BD818181FFFF8189BD898981FF182442CE
:100D10004A52422418FF81FF81FF81FF81FF81FF3A
:100D200081FF81FFFFFF81FF81FFFFFFFFFF81FF49
:100D3000FFFFFFFFFFFFFFFFFFFFFFFFFF1E3F7EE5
:100D4000FCFC7E3F1E080B000202020000090400AA
:100D50000001020200000524001001052401010128
:100D60000424020605240600010705810310004043
:100D700009040100020A0000000705020240000009
:100D8000070583024000000403090412010002EF7A
:100D900002014041233680000101020301417264D7
:100DA00075696E6F204C4C430041726475696E6FBB
:100DB000204C656F6E6172646F00A31211241FBE18
:100DC000CFEFDAE0DEBFCDBF12E0A0E0B1E0E4E4B7
:100DD000F1E402C005900D92A234B107D9F726E0E4
:100DE000A2E4B2E001C01D92A03EB207E1F716E016
:100DF000CEEDD6E004C02197FE010E949A20CD3DA1
:100E0000D107C9F70E94D0120C94A0200C940000C6
:100E1000809155020895ECE7F2E0A0E0B8E0008090
:100E20000EBC8111012C1197A0FDFDCF0192B9F7E5
:100E30000DB408951092DC011092DD011092E001D2
:100E40001092E1012AE02093DE018B30910514F02D
:100E50008AE090E08093DF01E8E7F1E010863A96BF
:100E600081E0EC3DF807D1F70895FC0180917B0209
:100E7000882311F13FB7F89482E08093E900209134
:100E8000F200822F90E01816190614F481E090E029
:100E9000882339F0289844E640937A024091F10083
:100EA0004083222339F02091F200211103C02BE668
:100EB0002093E8003FBF08958FEF9FEF08952FB76D
:100EC000F89483E08093E9009091E800892F807284
:100ED00095FF04C09091F20080E4891B2FBF089514
:100EE0008091720281110DC082E080936E0284E0D5
:100EF00080936F02109271021092700281E08093D1
:100F000072028EE692E00895CF93DF931F92CDB7E1
:100F1000DEB76983DC01ED91FC910280F381E02D65
:100F200041E050E0BE016F5F7F4F09950F90DF9168
:100F3000CF91089583E08093E9008091F2008823A7
:100F400019F08AE38093E80008950E945F0790E01B
:100F50000895CF93DF931F92CDB7DEB7FC01848550
:100F6000958597FD08C02FEF3FEF358724870F90B9
:100F7000DF91CF910895CE0101960E943507019728
:100F800019F4898190E0F3CF8FEF9FEFF0CF0F93AB
:100F90001F93CF93DF931F92CDB7DEB78C01FC0177
:100FA0008485958597FF0BC0CE0101960E94350779
:100FB000019771F4898190E0F80195878487F801A1
:100FC000848595850F90DF91CF911F910F910895A2
:100FD0008FEF9FEFF1CFFC018485958597FD0BC0C6
:100FE0009FB7F89482E08093E9008091F2009FBF60
:100FF00090E0019608959FB7F89482E08093E9000D
:101000008091F2009FBF90E0089540916802509156
:101010006902209166023091670242175307B4F4C7
:101020009091E8009570E1F39091E80092FD19C06D
:101030008093F100809168029091690201968F730C
:101040009927892B19F48EEF8093E800809168022C
:10105000909169020196909369028093680281E001
:10106000089580E00895DF92EF92FF920F931F930F
:10107000CF93DF93D82E8A01EB017B01E40EF51E9E
:10108000CE15DF0559F0D7FE12C0FE0184910E94F3
:10109000050821968111F4CF0FEF1FEFC801DF91F2
:1010A000CF911F910F91FF90EF90DF90089588816D
:1010B000EECF0F931F93CF93DF931F92CDB7DEB781
:1010C00082E0898342E450E065E47DE080E80E94AC
:1010D00033080E947007DC0112960D911C910115D6
:1010E000110589F0D801ED91FC910280F381E02D8A
:1010F000BE016F5F7F4FC801099597FD04C0F801DD
:1011000000851185ECCF89810F90DF91CF911F91E0
:101110000F910895615030F02091F100FC0120837F
:101120000196F8CF289884E680937A020895AF92CA
:10113000BF92CF92DF92EF92FF920F931F93CF93C4
:10114000DF936C017B018B01040F151FEB015E0126
:10115000AE18BF08C017D10759F06991D601ED91BB
:10116000FC910190F081E02DC6010995892B79F75A
:10117000C501DF91CF911F910F91FF90EF90DF900C
:10118000CF90BF90AF9008953FB7F89480915102EF
:1011900090915202A0915302B091540226B5A89B9F
:1011A00005C02F3F19F00196A11DB11D3FBFBA2FF9
:1011B000A92F982F8827BC01CD01620F711D811DB9
:1011C000911D42E0660F771F881F991F4A95D1F73E
:1011D00008958F929F92AF92BF92CF92DF92EF923B
:1011E000FF926B017C010E94C4084B015C01C11499
:1011F000D104E104F104B9F00E94C4086819790926
:101200008A099B09683E73408105910580F321E0BE
:10121000C21AD108E108F10888EE880E83E0981E12
:10122000A11CB11CE4CFFF90EF90DF90CF90BF9056
:10123000AF909F908F9008958F929F92AF92BF92A0
:10124000CF92DF92EF92FF920F931F93CF93DF9392
:101250006C017B018A0180917701882309F45CC0CD
:1012600080917B02882309F457C080916D0280FF32
:1012700005C08091E00082608093E000E801B12C1D
:101280008AEFA82E93E0892E2AE3922E209711F45C
:10129000BB20D9F10E945F0781110AC0AA94AA203D
:1012A000D9F161E070E080E090E00E94E908EECFC3
:1012B0008C171D0611F00CF08C2F9FB7F8948092BC
:1012C000E9002091E80025FD02C09FBFDFCF282F55
:1012D00030E0C21BD30BF701815020F041914093C5
:1012E000F100FACFE20EF31EBB2021F09092E8004D
:1012F000B12CEBCF8091E80085FDE7CF9092E8001C
:10130000BB24B394209709F3F3CF5D9884E68093D0
:101310006C02101611063CF081E090E0F601938318
:10132000828310E000E0C801DF91CF911F910F91FF
:10133000FF90EF90DF90CF90BF90AF909F908F90F5
:10134000089520914902E0914702F0914802CF01AF
:1013500002969093480280934702222319F08591C8
:1013600094910895808191810895CF92DF92EF92B8
:10137000FF92CF93DF930E94A109811520E8920785
:1013800091F4809171008D7F809371001092910093
:101390004698479810924602DF91CF91FF90EF90C8
:1013A000DF90CF90089521E020934602813020E81D
:1013B000920751F480914402909145029093480223
:1013C000809347020E94A10997FD05C02091430226
:1013D000222309F454C020914202211150C021E07F
:1013E00020934A02EC01DF77209709F04BC081E09F
:1013F00080934B0246983FE9C32E3FE0D32EE12C69
:10140000F12CCAEFD0E0E091DA06F091DB06099505
:10141000811103C081E080934B0280914A028823AE
:1014200029F080914B02882309F43FC047980E941D
:10143000A1090097F1F19C01DE010E94041FDC016B
:10144000CB0129E0B595A795979587952A95D1F772
:10145000109290002AE020939100D0929900C092BF
:10146000980080934C0290934D02A0934E02B0934B
:101470004F02809171008260809371008DCF109235
:101480004A02B0CF9E0150E040E060E472E48FE099
:1014900090E00E94B01E69017A0181E0C81AD1086B
:1014A000E108F10810924B02AECF4699BFCF479AA0
:1014B000BECF8FEF9FEFDC01CBCF9C01E1E7F0E0E7
:1014C00090819D7F908310924902ECECF6E0F093BE
:1014D0004802E0934702F0934502E09344023183CF
:1014E00020837383628380E090E8958384830C94E7
:1014F000B5092D9A0895BC0190E080E00C94E908AC
:101500008FB18095807F669B88601C9B8460089566
:101510003E9A3F9A81E080935502089580E0ECE77F
:10152000F2E081118FEF0024819381938193819365
:101530000394D1F710925A021092590210925C0251
:1015400010925B020895CF93C82F0E94800A982FB3
:101550009C2381E09C1380E0CF91089580E00C945F
:101560000B072F923F924F925F926F927F928F92D2
:101570009F92AF92BF92CF92DF92EF92FF920F9322
:101580001F93CF93DF9300D000D01F92CDB7DEB76B
:10159000E982A22EB12C9501280F391F12161306CD
:1015A0000CF0B3C0803891050CF0AFC09B01200F48
:1015B000311D121613060CF0A8C0603471050CF032
:1015C000A4C09B0177FF04C022273327261B370BBB
:1015D00027703327DB0177FD1796F3E0B595A795C4
:1015E000FA95E1F777FF07C0119768E070E0FB011B
:1015F000E21BF30B9F01069506950695402E512C94
:10160000BD017695762F662777956795680F791FC8
:1016100064587D4F8A01AD01E8E0F0E04F01821A85
:10162000930A4F3FFFEF5F070CF45FC07C011B8202
:101630001A823B01F0E86F0E711CF7FC44C04F3F6B
:10164000540709F498C0CA80DB80C60ED71EF60185
:101650002080EA81FB81E00FF11FFD83EC83F9819B
:10166000F13009F06AC0EC81FD813490E32D022E47
:1016700001C0EE0F0A94EAF72E2AF6012082211506
:10168000310509F147305105F1F0CA80DB80C60C05
:10169000D71CF6012080EA81FB81E00FF11FFD835A
:1016A000EC83F981F13009F057C0EC81FD81349071
:1016B000E32DF0E0082C02C0F595E7950A94E2F7D7
:1016C0002E2AF6012082EA81FB813196FB83EA8390
:1016D000FFEFEF1AFF0AEA81FB81EA15FB052CF404
:1016E000E0E8EE16F10409F0A8CF4F5F5F4F6058B5
:1016F0007F4F0A0D1B1DFA01EA1BFB0BE415F505D4
:1017000024F44830510509F08CCF0F900F900F90C2
:101710000F900F90DF91CF911F910F91FF90EF905D
:10172000DF90CF90BF90AF909F908F907F906F9001
:101730005F904F903F902F900895EC81FD81349001
:10174000E32DF0E0022E02C0EE0FFF1F0A94E2F735
:10175000E095F0952E2291CFEC81FD813490E32D20
:10176000F0E0082C02C0F595E7950A94E2F7E095C1
:10177000F0952E22A6CF2115310509F086CFA3CFF3
:1017800080389105B8F460347105A0F420E191E04F
:1017900061FD94E060FD990F62FD9295687F269F40
:1017A000D0011124A80FA458BD4F8C9140FF03C055
:1017B000892B8C93089590958923FBCF8F929F92CC
:1017C000AF92BF92CF92DF92EF92FF920F931F934F
:1017D000CF93DF936D3089F0C0905902D0905A02B8
:1017E0006A30D1F410925C0210925B0288E0C80E5D
:1017F000D11CD0925A02C092590281E090E0DF9150
:10180000CF911F910F91FF90EF90DF90CF90BF90FD
:10181000AF909F908F90089500915B0210915C02B1
:10182000E5E06E9FE0011124C058DD4F4801F12C26
:10183000F5E0E12CFF1629F0CE010196FE01E490BF
:10184000EC01B12CA12C4E2D4170B6016A0D7B1D0F
:10185000C4010E94C00BE694FFEFAF1ABF0A88E0F4
:10186000A816B10481F7F394EFEF8E1A9E0AF6E002
:10187000FF12DECF0A5F1F4F10935C0200935B02E2
:10188000BCCF2F923F924F925F926F927F928F9236
:101890009F92AF92BF92CF92DF92EF92FF920F93FF
:1018A0001F93CF93DF9300D01F92CDB7DEB7C22E28
:1018B000D12C9601280F391F121613060CF05AC0AE
:1018C000803891050CF056C010E09801260F371FA4
:1018D000121613060CF04EC0603471050CF04AC0AD
:1018E000E9823A017B836A832C01160127E0220EEC
:1018F000311C93E0359427949A95E1F75B01912C84
:10190000812CC5012A813B81821B930B8017910793
:101910008CF5F12CE12CEC14FD0434F5F70183E097
:10192000F595E7958A95E1F7E80DF91DE60DF71DA8
:10193000E491C7018770992720E830E002C035950F
:1019400027958A95E2F7C901F0E0E223F923EF2B0E
:1019500039F04981B501C701840D951D0E94C00B66
:101960003FEFE31AF30AD7CF820C931C8FEFA81A2C
:10197000B80AC7CF0F900F900F90DF91CF911F91B2
:101980000F91FF90EF90DF90CF90BF90AF909F901E
:101990008F907F906F905F904F903F902F90089521
:1019A000EBEEF1E0A8E5B1E081918D9381E0EB3FB2
:1019B000F807D1F708950F931F93EEE2F1E000E0EE
:1019C00010E020E231E4058316832783308700E0AE
:1019D00010E020EA31E4018712872387348700E092
:1019E00010E020E83FE3058716872787308B618B5F
:1019F000728B838B948B81E080831F910F9108956C
:101A0000CF93C1E0C093580260EA70E083E890E0B1
:101A10000E945D0A68EB7BE080E090E00E94E908AC
:101A20001092550110924C0180916A01815080936F
:101A30006A01811102C0C0936B0160910001709135
:101A4000010180910201909103010E94DB0C109230
:101A50005802CF910895089590E080E008958F9204
:101A60009F92AF92BF920F931F93CF93DF93CDB707
:101A7000DEB7A1970FB6F894DEBF0FBECDBF19A297
:101A8000423008F44AE08E010F5D1F4F842E912CE6
:101A9000B12CA12CA50194010E94E21EE62FB901F0
:101AA000CA01EA3044F5E05DD801EE938D01232BA5
:101AB000242B252B79F790E080E0109769F0FD0149
:101AC00001900020E9F73197AF014A1B5B0BBD0184
:101AD0008CED96E00E949708A1960FB6F894DEBFB1
:101AE0000FBECDBFDF91CF911F910F91BF90AF90EF
:101AF0009F908F900895E95CD7CFFC010190002062
:101B0000E9F73197AF01481B590BBC018CED96E00A
:101B10000C9497082F923F924F925F926F927F9210
:101B20008F929F92AF92BF92CF92DF92EF920F93DC
:101B30001F93CF93DF93D0E0C0E082E3282E312CB7
:101B40009EE1C92ED12C2CE2A22EB12C36E3832E9D
:101B5000912C6EE170E080E090E00E94E9080E9424
:101B60008E0A84E290E090935C0280935B0281E0B5
:101B700090E090935A028093590280E292E00E9492
:101B80007D0DEE24E39404E228E64CEA50E06CE09C
:101B900070E08EE090E00E94410CCE010196B10110
:101BA0000E9472208C01EC018091560290915702A4
:101BB0001816190664F5D0925C02C0925B02B092CE
:101BC0005A02A09259028AE292E00E947D0D409052
:101BD000560250905702052C000C660877084AE020
:101BE000C301B20177FE0DC06DE28CED96E00E945C
:101BF000DE0B66277727CB016419750986099709DB
:101C00004AE00E942F0D82E392E00E947D0D09318F
:101C1000110564F4D0925C02C0925B0290925A0269
:101C20008092590284E392E00E947D0D0E94AE0AE8
:101C300088E00E94A30A811106C084E00E94A30AE2
:101C4000882309F486CF82E080936B01DF91CF91E6
:101C50001F910F91EF90DF90CF90BF90AF909F902A
:101C60008F907F906F905F904F903F902F9008954E
:101C70002F923F924F925F926F927F928F929F929C
:101C8000AF92BF92CF92DF92EF92FF920F931F938A
:101C9000CF93DF9300D000D0CDB7DEB728E731E097
:101CA0003C832B83312C212C8AE090E0DC01A85767
:101CB000B140BA83A9838091DF018215130409F032
:101CC0000CF4A9C0BFEF2B1A3B0AEB81FC81808585
:101CD00081119AC08091E0018823D9F069817A81CD
:101CE0006E0F7F1F072E000C880B990B0E94BD1FE3
:101CF000AB81BC816D937D938D939C93139780E012
:101D000090E0A0E2B2E4EB81FC8184839583A6831A
:101D1000B7830E94421E6B017C010E94421E22E298
:101D200030E040E050E00E94B01E665F7F4F072E1B
:101D3000000C880B990B0E94BD1F2B013C01C701B1
:101D4000B60124E630E040E050E00E94B01E665F3D
:101D50007F4F072E000C880B990B0E94BD1F6B0153
:101D60007C018090330190903401A0903501B090B7
:101D7000360100912F0110913001B801012E000CA5
:101D8000880B990B0E94BD1F9B01AC01C501B401DA
:101D90000E94131F9B01AC01C701B6010E946D2078
:101DA0001816ACF4B801660F771F072E000C880BCD
:101DB000990B0E94BD1FA50194010E94141F9B0155
:101DC000AC01C701B6010E94801F87FD1DC0AB8119
:101DD000BC81CD92DD92ED92FC921397FD0144827D
:101DE0005582668277820E94421E20E530E040E004
:101DF00050E00E94B01E685DAB81BC8119966C9367
:101E00001997E1E01896EC932B813C81265F3F4FB8
:101E10003C832B8350CF0F900F900F900F90DF914A
:101E2000CF911F910F91FF90EF90DF90CF90BF90D7
:101E3000AF909F908F907F906F905F904F903F906A
:101E40002F9008950C949A1E1F920F920FB60F9226
:101E500011248F939F938091E1009091E100937FF3
:101E60009093E10083FF0FC01092E90091E09093FE
:101E7000EB001092EC0092E39093ED0010927B0245
:101E800098E09093F00082FF22C093E09093E900E5
:101E90009091F200992319F09AE39093E8009091C1
:101EA0006C02992341F090916C02915090936C02D6
:101EB000911101C05D9A90917A02992341F090911D
:101EC0007A02915090937A02911101C0289A84FF6E
:101ED00018C08091E2008E7E81608093E200809144
:101EE000E1008F7E8093E10080916D028E7E8061A3
:101EF00080936D029F918F910F900FBE0F901F9056
:101F0000189580FFF7CF8091E2008E7E80618093EC
:101F1000E2008091E1008E7E8093E10080916D026D
:101F20008E7E8160E5CF1F920F920FB60F92112423
:101F3000CF92DF92EF92FF920F931F932F933F93D5
:101F40004F935F936F937F938F939F93AF93BF93C1
:101F5000EF93FF93CF93DF93CDB7DEB76C97DEBFE0
:101F6000CDBF1092E9008091E80083FF25C068E0B2
:101F7000CE0145960E948A0882EF8093E8008D8901
:101F800087FF39C09091E80090FFFCCF982F9076A2
:101F900009F034C19E894F89588D2F89F88C911191
:101FA00031C0803861F580916B028093F10010920E
:101FB000F1008EEF8093E8006C960FB6F894DEBFC8
:101FC0000FBECDBFDF91CF91FF91EF91BF91AF9148
:101FD0009F918F917F916F915F914F913F912F9141
:101FE0001F910F91FF90EF90DF90CF900F900FBE59
:101FF0000F901F9018959EEF9093E800C7CF109216
:10200000F100D5CF913059F48111D3CF4130510532
:1020100081F680916B028D7F80936B02CACF9330E3
:1020200049F48111C6CF4130510519F680916B02F8
:102030008260F2CF953041F48091E80080FFFCCFC0
:1020400020682093E300B5CF963009F0A9C00B8D2E
:102050001C8D22E01092E900109269021092680231
:10206000F2122EC010926702109266020E94590866
:102070001F8299E09983FA8291E09E8390EA988783
:102080009AEF99872091680230916902275F3F4F4C
:102090003C832B838D831092E90010926902109289
:1020A0006802109367020093660249E050E0BE01A7
:1020B0006F5F7F4F80E00E9433080E94590879CFFC
:1020C00010936702009366020E947007DC0112966B
:1020D0000D911C910115110509F451C1D801ED9123
:1020E000FC910480F581E02DBE016B5E7F4FC8013D
:1020F0000995009709F03EC1F80100851185EACFE6
:10210000F3E0FF120EC08F89882309F440C08230AB
:1021100061F440E860E189EA9DE00E94701281115B
:1021200048CF81E28093EB0047CF813029F440E82B
:102130006BE08DE99DE0F1CF833099F70E94700745
:10214000DC011296ED90FC908E010F5F1F4F68012D
:10215000E114F10479F0D701ED91FC910680F7814B
:10216000E02DB801C7010995080F111DF701E084A2
:10217000F184EECFD8011C92F60101900020E9F71E
:102180003197BF016C197D0940E0C601C6CF67E8F1
:102190007DE0FB01449150E080E80E94330809CFC4
:1021A000973009F4BECF983021F481E08093F1009C
:1021B00000CF993009F0FDCE837009F0B2CFECEF7B
:1021C000F1E081E031E096E32191222371F08093E8
:1021D000E9003093EB00DF0111972C912093EC0084
:1021E0009093ED008F5F873079F78EE78093EA0058
:1021F0001092EA008F8980937B02DBCE8B8D9C8DC1
:102200001092E9001092690210926802909367029E
:1022100080936602898D811192C08E899D89913A41
:1022200049F4813209F07DCF47E050E060E771E08A
:1022300080E0B3CF913209F074CF833269F48F8993
:10224000988DB0E0A0E080936C0190936D01A09315
:102250006E01B0936F01ADCE803269F48091E800D9
:1022600082FFFCCF67E080E791E00E948A088BEF55
:102270008093E8009ECE823209F09BCE8F898093B6
:102280007701EEEFFFE7859194918B3F9C4D51F1E3
:10229000E0E0F8E08091700190917101A0917201ED
:1022A000B0917301803B9440A105B105F1F4809198
:1022B000770180FD1AC0EE3F8AE0F80789F587E7CD
:1022C00097E7918380838091600080936A0288E120
:1022D0009BE00FB6F894A895809360000FBE909392
:1022E000600067CEEEEFFAE0D5CF8081918187372D
:1022F000974709F05ECEA895809160008861809331
:10230000600080916A0280936000EE3F2AE0F2074D
:1023100089F08091FE0A9091FF0A9183808349CED3
:10232000808191818737980751F29093FF0A8093BB
:10233000FE0AC5CF1092FF0A1092FE0A3ACE0E9402
:102340007007DC0112960D911C910115110509F41D
:10235000E8CED801ED91FC910190F081E02DBE0115
:102360006B5E7F4FC8010995811123CEF80100856E
:102370001185EBCF181619060CF41BCED2CEF1E066
:10238000FF12BECE6BE87DE004CF1F920F920FB616
:102390000F9211242F933F938F939F93AF93BF93EB
:1023A00080915D0290915E02A0915F02B091600207
:1023B0003091500223E0230F2D3758F50196A11DCF
:1023C000B11D2093500280935D0290935E02A09312
:1023D0005F02B09360028091510290915202A091ED
:1023E0005302B09154020196A11DB11D8093510278
:1023F00090935202A0935302B0935402BF91AF91B5
:102400009F918F913F912F910F900FBE0F901F9032
:10241000189526E8230F0296A11DB11DD2CF1F9259
:102420000F920FB60F9211242F933F934F935F9308
:102430006F937F938F939F93AF93BF93EF93FF938C
:1024400080914C0290914D02A0914E02B0914F02AA
:10245000892B8A2B8B2B09F440C080914B02811170
:102460000BC088B190E4892788B980914A028823FB
:1024700019F088B1805888B980914C0290914D0232
:10248000A0914E02B0914F02181619061A061B06AB
:102490009CF480914C0290914D02A0914E02B0911B
:1024A0004F020197A109B10980934C0290934D020C
:1024B000A0934E02B0934F02FF91EF91BF91AF9165
:1024C0009F918F917F916F915F914F913F912F914C
:1024D0000F900FBE0F901F9018950E94B509ECCF7A
:1024E000EF92FF920F931F93CF93DF93F82E192F44
:1024F000E62E042F81E0860F880F0E94050883E0F6
:102500000E940508CF2DD12FEC0EFD2EF11CCE150B
:10251000DF05B9F007FF13C0FE0184910E94050892
:10252000182F80E00E940508812321968111EFCFAA
:10253000DF91CF911F910F91FF90EF9008958881C7
:10254000EDCF81E0F5CFECE7F6E01382128288EE62
:1025500093E0A0E0B0E084839583A683B78386E010
:1025600092E0918380838FEF9FEF95878487ECEDD6
:10257000F6E01382128288E192E09183808388E002
:1025800097E09093DB068093DA0680E090E89093E2
:10259000D9068093D80646983E9A47983F9A089560
:1025A000CF93DF93CDB7DEB761970FB6F894DEBF58
:1025B0000FBECDBF789484B5826084BD84B5816040
:1025C00084BD85B5826085BD85B5816085BD8091FE
:1025D0006E00816080936E00109281008091810076
:1025E000826080938100809181008160809381006E
:1025F0008091800081608093800080919100826052
:1026000080939100809191008160809391008091EE
:1026100090008160809390008091C10084608093DD
:10262000C1008091C10082608093C1008091C1008F
:1026300081608093C1008091C30081608093C3005A
:102640008091C00082608093C0008091C200816050
:102650008093C20080917A00846080937A00809198
:102660007A00826080937A0080917A008160809302
:102670007A0080917A00806880937A0010927B02C1
:1026800010926B0210926D028091D700816080934E
:10269000D70080EA8093D80089B5806189BD89B56B
:1026A000826089BD09B400FEFDCF61E070E080E08A
:1026B00090E00E94E9088091D8008F7C806180932F
:1026C000D8008091E000807F8093E0008091E1005D
:1026D0008E7E8093E1008DE08093E200559A209AEF
:1026E00081EC80937C0085B1806F85B984B1877E51
:1026F00084B984B1876E84B95E9A5F988AB1806D1F
:102700008AB9769A6E9881B3806F81BB899880B3BD
:102710008D7080BB80E58CBD81E08DBD85E090E053
:102720000E947B0A5F9A85E090E00E947B0A5E9897
:102730005C98E0E3F8E084918EBD00000DB407FEE4
:10274000FDCF319608E0ED33F007A9F75C9A81E8F8
:1027500080936400809165008160809365000E9491
:10276000AE0A80E80E94A30A8823A9F05C9885EA53
:102770008EBD00000DB407FEFDCF5C9A2E982F98F9
:102780002D988091640080628093640081E083BF13
:10279000889513BEFCCF84E00E94A30A882309F425
:1027A00048C02D9884E80E94A30A8823E1F00E9483
:1027B000790A88EC90E00E947B0A2F9882E090E0F2
:1027C0000E949A1E8F3F29F06FEF82E090E00E94F6
:1027D000A21E84EF91E00E947B0A2F9A84E80E9457
:1027E000A30A8111FBCF84E10E94A30A8823E1F0B0
:1027F0000E94790A88EC90E00E947B0A2E9882E081
:1028000090E00E949A1E882329F060E082E090E028
:102810000E94A21E84EF91E00E947B0A2E9A84E11E
:102820000E94A30A8111FBCF88EC90E00E947B0AF2
:10283000B2CF0E94790A82E090E00E94220F8823A2
:1028400009F47AC00E94880A81E090E00E94220F79
:10285000182F147081FF10C011112E98A1EFCA2EED
:10286000DD24DA9480E40E94A30A882309F469C075
:102870002E9A2F9A0E94790A82E390E00E947B0AA6
:102880000E94800A8111F8CF0E94880A0E948A0D56
:102890002FB7F89480915D0290915E02A0915F0243
:1028A000B09160022FBF8093610290936202A09367
:1028B0006302B0936402809164008E7F8093640011
:1028C00080917A00806480937A0080917A0086FDFE
:1028D000FCCF00917800109179000E94C408AB01F0
:1028E000BC01C801B0E0A0E0DC01992788278C0179
:1028F0009D01040F151F261F371FC901B801209124
:1029000064002160209364006115710581059105C3
:1029100011F00E94911E22242394312C80916B018E
:10292000813009F06DC00E948A0D80E090E0892B13
:10293000A9F30E940000EFCF109255023E983F98F5
:1029400083CF112331F024E0C216D10411F42E9A62
:102950002F9881E00E940B07EE24E39400E128E524
:1029600040E857E0B60184E190E00E94B10A0E947D
:10297000AE0A8FE090E00E947B0A3FEFC31AD30AB1
:1029800049E1C416D10409F06DCF112311F02F9A3B
:102990002D9880E991E00E947B0A0E94790A81E0EB
:1029A00090E00E94220F80FF67CF8AE090E00E94B3
:1029B000220F9FEF980F9E3F08F05ECF22E330E09A
:1029C00030935C0220935B0228E330E030935A029C
:1029D000209359020BE010E0682F8CED96E00E94E6
:1029E000DE0BC8010E94220F0F5F1F4F013111053E
:1029F00099F70E94AE0A88EE93E00E947B0A3CCFD2
:102A0000823009F069C0309205012092040120E073
:102A100030E040EC5FE320930001309301014093EC
:102A20000201509303010E948E0A13E010936A0181
:102A30003092570120925601EE24E39400E320E601
:102A40004DE358E06AE070E081E190E00E94410CC3
:102A50000E94AE0A60ED77E080E090E00E94E90815
:102A60001092120160E070E080EC9FE30E94DB0CAA
:102A70000E94D00C81E090E00E941A07109255014C
:102A800010924C0110922D0180E090E0A0EFB2E492
:102A90008093170190931801A0931901B0931A0124
:102AA0000E94421E22E230E040E050E00E94B01E50
:102AB000665F7F4F8F4F9F4F0E94BD1F60931B012A
:102AC00070931C0180931D0190931E0181E08093FF
:102AD000240110936B0129CF80916502882399F01E
:102AE0002FB7F89480915D0290915E02A0915F02F1
:102AF000B09160022FBF892B8A2B8B2B09F415CF45
:102B00001092650212CF8FB7F89440915D025091F8
:102B10005E0260915F02709160028FBF80916102DE
:102B200090916202A0916302B09164028196A11D0E
:102B3000B11D84179507A607B70708F0F6CE0E94C7
:102B40008E0A2FB7F89480915D0290915E02A09159
:102B50005F02B09160022FBF809361029093620286
:102B6000A0936302B093640210E000E0F12CE12C2A
:102B700041E0B701C8010E94C00B3FEFE31AF30A1E
:102B80004AE0E416F104A1F70F5F1F4F0F3711055C
:102B900069F773E0C72ED12CB12CA12C80916A016A
:102BA0008A151B0491F08CF0E12C08E028E04DE33D
:102BB0005DE061E070E0C6010E94B10A5FEFA51A16
:102BC000B50A8AE0C80ED11CE9CFA8E4B0E0B09302
:102BD0005C02A0935B0230925A022092590260E29A
:102BE0008CED96E00E94DE0B63E48CED96E00E9493
:102BF000DE0B6FE48CED96E00E94DE0B69E48CED59
:102C000096E00E94DE0B6EE48CED96E00E94DE0BF7
:102C100060E28CED96E00E94DE0B6091DD0170E0D9
:102C200090E080E04AE00E942F0D60E28CED96E09B
:102C30000E94DE0B809168019091690120915601FC
:102C400030915701821B930B97FD3AC09093690115
:102C50008093680108E010E068E3E62EF12C41E083
:102C6000B701C8010E94C00BBFEFEB1AFB0AE0E4FA
:102C7000EE16F104A1F70F5F1F4F0738110561F73A
:102C800008E511E01D870C875801D12CC12C8091DB
:102C90006801909169018C199D0997FF02C08058C5
:102CA0009F4FD5012D915D01223009F44BC058F49E
:102CB0002130A1F0E12C08E028E045E35DE013C0FD
:102CC0008FE790E0C3CF233009F442C0243091F75E
:102CD000E12C08E028E045E15DE005C0E12C08E0DA
:102CE00028E04DE25DE068E370E00E94410CB8E04E
:102CF000CB0ED11CE0E8CE16D10449F68091E0015C
:102D0000882361F18091E101811128C081E08093E5
:102D1000E1010E94380E8090DF01912C08E711E05C
:102D20001F830E83F80130E020E02815390524F5D3
:102D3000818581508187811101C010862F5F3F4FAF
:102D40003A96F3CFE12C08E028E045E25DE0CBCFF6
:102D5000E12C08E028E04DE15DE0C5CF8091DC0189
:102D60008F5F883C19F08093DC01D3CF1092DC0197
:102D700081E08093DF01CDCF58E7A52E51E0B52E3D
:102D8000712C612C681479045CF5D50118968C912E
:102D900018978823F1F014966D917D918D919C91F7
:102DA00017970E94851F688779878A879B87F50117
:102DB00060817181828193810E94851FCB01EE2405
:102DC000E39408E028E04DE05DE0688579850E94A5
:102DD000B10AFFEF6F1A7F0A0AE0A00EB11CD2CF32
:102DE000809155018F5F80935501823309F097C51B
:102DF00010924C0180914C01882319F180914B0174
:102E000081113AC660914701709148018091490152
:102E100090914A010E94851F4B016091430170917E
:102E2000440180914501909146010E94851FCB018C
:102E3000EE24E39408E028E04DE35DE0B4010E9455
:102E4000B10A10912E01112309F46FC480E20E948F
:102E5000A30AC0903301D0903401E0903501F09086
:102E60003601882309F488C620913B0130913C014A
:102E700040913D0150913E01C701B6010E94131FD0
:102E80006093330170933401809335019093360140
:102E900020913F0130914001409141015091420108
:102EA000288739874A875B8720913701309138011D
:102EB0004091390150913A01688579858A859B85D1
:102EC0000E94141F6B017C0120E030E048E352E4D3
:102ED0000E946D2018160CF462C6C0923701D09281
:102EE0003801E0923901F0923A0120E030E040E20E
:102EF00051E46091370170913801809139019091CE
:102F00003A010E94801F87FF0CC080E090E0A0E2A1
:102F1000B1E48093370190933801A0933901B093C5
:102F20003A0120E030E040EF52E4609133017091CB
:102F3000340180913501909136010E946D20181660
:102F400064F480E090E0A0EFB2E4809333019093CA
:102F50003401A0933501B093360120E030E040E029
:102F600051E4609133017091340180913501909169
:102F700036010E94801F87FF0CC080E090E0A0E037
:102F8000B1E48093330190933401A0933501B09361
:102F900036014090370150903801609039017090AF
:102FA0003A018090330190903401A0903501B090A7
:102FB0003601C301B2010E94851F6E877F87888B0F
:102FC000998BC501B4010E94851FCB01EE24E394C7
:102FD0000091310120912F0145EE5CE06E857F85E7
:102FE0000E94410C20E030E048E352E4C301B2010A
:102FF0000E946D2087FD69C088859985AA85BB855B
:10300000B05880933F0190934001A0934101B09349
:10301000420160E570E08EE690E00E945D0A6090FB
:10302000680170906901512C412CB30177FE02C0F8
:1030300060587F4F6C5F7F4F072E000C880B990BF9
:103040000E94BD1F6B017C0120E030E040E850E4AD
:10305000C501B4010E94131FA70196010E94801FA1
:1030600018160CF4A9C520E030E040E451E4C50195
:10307000B4010E94141F9B01AC01C701B6010E945C
:10308000801F18160CF498C5F201E85AFE4F808193
:10309000882309F491C58150808310E0E8E5F1E0D0
:1030A00090E080E02191820F911DA1E0E836FA07BF
:1030B000C9F7892B11F40E94D00C112331F08091B3
:1030C0005802811102C00E94000D8090370190903B
:1030D0003801A0903901B0903A0120E030E040E49E
:1030E00051E4C501B4010E94801F18168CF0809134
:1030F0003F0190914001A0914101B0914201B0582F
:1031000080933F0190934001A0934101B09342010D
:1031100080914C01882309F4CFC0C0903301D09036
:103120003401E0903501F090360140904301509019
:103130004401609045017090460120E030E040E09D
:1031400051E4C701B6010E94141F9B01AC01C301E9
:10315000B2010E94801F87FFAFC020E030E040E056
:1031600051E4C301B2010E94141F9B01AC01C701CD
:10317000B6010E94801F87FF9FC0C0904701D0907A
:103180004801E0904901F0904A0120E030E040E041
:1031900051E4C501B4010E94141F9B01AC01C70199
:1031A000B6010E94801F87FF87C020E030E040E02A
:1031B00051E4C701B6010E94141F9B01AC01C50177
:1031C000B4010E94801F87FF77C080914B0181115D
:1031D00019C060E570E08BE092E00E945D0A80918A
:1031E0006A018F5F80936A0110924C0100E010E049
:1031F00020E033E400934301109344012093450100
:103200003093460180914B018130B1F428E631E0E2
:10321000E8E5F1E08191843020F4DF0111978F5FC0
:103220008C932E173F07B1F760E570E08BE092E0DA
:103230000E945D0A10924C0180914B018230A9F4EA
:10324000E8E5F1E08191882321F0DF0111978150B9
:103250008C9311E0E836F107A9F760E570E083E8A8
:1032600090E00E945D0A10924C0180914B018330E6
:1032700061F41092DC018093DF0160E570E086E08C
:1032800091E00E945D0A10924C0180914B018430C4
:1032900099F488E691E024E0AC85BD852D93BD8747
:1032A000AC878A179B07C1F760E570E08BE092E07E
:1032B0000E945D0A10924C014090370150903801F5
:1032C0006090390170903A01C0903301D090340180
:1032D000E0903501F090360110E000E08091DF01D0
:1032E0008017110609F00CF48AC0EE81FF818085F9
:1032F000882309F46DC480809180A280B38020E08F
:1033000030E040E051E4C701B6010E94141F9B0168
:10331000AC01C501B4010E94801F87FF59C420E0A1
:1033200030E040E051E4C501B4010E94141F9B014C
:10333000AC01C701B6010E94801F87FF49C4AE815E
:10334000BF8114968D909D90AD90BC90179720E012
:1033500030E040E051E4C301B2010E94141F9B0120
:10336000AC01C501B4010E94801F87FF31C420E079
:1033700030E040E051E4C501B4010E94141F9B01FC
:10338000AC01C301B2010E94801F87FF21C460E528
:1033900070E088E891E00E945D0A8091DD018F5F16
:1033A0008093DD01EE81FF8110869091DE01891707
:1033B00008F40EC480E090E0A0EFB2E480930A012C
:1033C00090930B01A0930C01B0930D010E94421E3B
:1033D00022E230E040E050E00E94B01E665F7F4F86
:1033E0008F4F9F4F0E94BD1F60930E0170930F017E
:1033F000809310019093110181E0809312018091DC
:103400001201882309F4FEC080900A0190900B01FC
:10341000A0900C01B0900D0160912F0170913001CE
:1034200077FF02C06F5F7F4F75956795072E000C81
:10343000880B990B0E94BD1F2091330130913401FC
:1034400040913501509136010E94141F6B017C019F
:10345000AC019B01C501B4010E94801F87FFD2C04F
:103460006091060170910701072E000C880B990BE3
:103470000E94BD1FA50194010E94141F9B01AC0175
:10348000C701B6010E94801F87FFBCC080900E015B
:1034900090900F01A0901001B09011016091310146
:1034A0007091320177FF02C06F5F7F4F759567950E
:1034B000072E000C880B990B0E94BD1F209137012D
:1034C000309138014091390150913A010E94141F06
:1034D0006B017C01AC019B01C501B4010E94801FFE
:1034E00087FF90C06091080170910901072E000CC0
:1034F000880B990B0E94BD1FA50194010E94141F07
:103500009B01AC01C701B6010E94801F87FF7AC0F2
:1035100060EA70E08BE092E00E945D0A68EB7BE07D
:1035200080E090E00E94E9080091040110910501FB
:10353000109357020093560220E030E040E05FE332
:10354000609100017091010180910201909103014D
:103550000E94141F60930001709301018093020187
:103560009093030120915601309157012F5F3F4FF7
:10357000263031050CF035C33093570120935601A6
:1035800020E030E040E050E40E946D20181664F422
:1035900080E090E0A0ECBFE38093000190930101F4
:1035A000A0930201B09303010F5F1F4F1093050119
:1035B00000930401109212016091000170910101C9
:1035C00080910201909103010E94DB0C0E94D00CBB
:1035D00081E090E00E941A070E948E0AEE24E39494
:1035E00000E320E645EA5AE06AE070E081E190E01D
:1035F0000E94410C0E94AE0A60ED77E080E090E00E
:103600000E94E90880912401882309F461C1809017
:10361000170190901801A0901901B0901A016091C3
:103620002F017091300177FF02C06F5F7F4F75955A
:103630006795072E000C880B990B0E94BD1F2091E7
:1036400033013091340140913501509136010E948F
:10365000141F6B017C01AC019B01C501B4010E94E8
:10366000801F87FF67C06091130170911401072EBE
:10367000000C880B990B0E94BD1FA50194010E94AC
:10368000141F9B01AC01C701B6010E94801F87FF78
:1036900051C080901B0190901C01A0901D01B09022
:1036A0001E01609131017091320177FF02C06F5F9E
:1036B0007F4F75956795072E000C880B990B0E941C
:1036C000BD1F20913701309138014091390150914F
:1036D0003A010E94141F6B017C01AC019B01C501E2
:1036E000B4010E94801F87FF25C060911501709171
:1036F0001601072E000C880B990B0E94BD1FA50117
:1037000094010E94141F9B01AC01C701B6010E94E5
:10371000801F87FF0FC08091230181110BC0809112
:103720005802811107C00E94000D80912401882356
:1037300009F4CEC080912D018F5F80932D01893CCB
:1037400008F0A7C00E94421E23E030E040E050E0B5
:103750000E94B01E6B0180911F01909120018C9DF1
:10376000B0018D9D700D9C9D700D1124072E000CD5
:10377000880B990B0E94BD1F2091170130911801F1
:103780004091190150911A010E94141F4B015C01D4
:103790008092170190921801A0921901B0921A011B
:1037A00080912101909122018C9DB0018D9D700D21
:1037B0009C9D700D1124072E000C880B990B0E9404
:1037C000BD1F20911B0130911C0140911D015091A2
:1037D0001E010E94141F6B017C01C0921B01D0923C
:1037E0001C01E0921D01F0921E0120E030E040EA51
:1037F00052E4C501B4010E94801F87FF04C03092CB
:10380000200120921F01809113019091140168E71B
:1038100070E0681B790B072E000C880B990B0E9437
:10382000BD1F9B01AC01C501B4010E946D2018169B
:1038300034F4AFEFBFEFB0932001A0931F0120E05D
:1038400030E040E251E4C701B6010E94801F87FFCB
:1038500004C03092220120922101809115019091A3
:10386000160166E370E0681B790B072E000C880BCD
:10387000990B0E94BD1F9B01AC01C701B6010E94BC
:103880006D20181634F4EFEFFFEFF0932201E09370
:10389000210160911B0170911C0180911D0190918B
:1038A0001E010E94851F4B01609117017091180144
:1038B0008091190190911A010E94851FCB01EE247D
:1038C000E39400E120E145E85AE0B4010E94410C94
:1038D000809112018823F9F060910E0170910F011F
:1038E00080911001909111010E94851F4B01609100
:1038F0000A0170910B0180910C0190910D010E94C1
:10390000851FCB01EE24E39408E028E04DE75AE060
:10391000B4010E94410C0E94AE0A0C949514883C9C
:1039200009F068CA109255010E94421E24E630E058
:1039300040E050E00E94B01E85E0E6EEF1E0DE01DE
:10394000119601900D928A95E1F7FE01319690E073
:1039500080E02191261708F489C0182F0E94421E8A
:103960002EE630E040E050E00E94B01E665F7F4FE0
:103970008F4F9F4F0E94BD1F60934301709344017E
:1039800080934501909346010E94421E22E230E05E
:1039900040E050E00E94B01E665F7F4F8F4F9F4F08
:1039A0000E94BD1F609347017093480180934901B5
:1039B00090934A018090430190904401A09045016A
:1039C000B090460140903301509034016090350131
:1039D00070903601E0902F01F0903001B7010F2C6C
:1039E000000C880B990B0E94BD1F9B01AC01C30109
:1039F000B2010E94131F9B01AC01C501B4010E94DA
:103A00006D201816ACF4B701660F771F072E000C57
:103A1000880B990B0E94BD1FA30192010E94141FE5
:103A20009B01AC01C501B4010E94801F87FDE2C962
:103A300020E030E040E85FE320934D0130934E01F9
:103A400040934F015093500180E090E0A0ECBFE321
:103A50008093510190935201A0935301B09354016C
:103A600010934B0181E080934C01C4C901968530CD
:103A7000910509F06ECFBEC9813001F56091470113
:103A8000709148018091490190914A010E94851FDF
:103A90004B016091430170914401809145019091E7
:103AA00046010E94851FCB01EE24E39408E028E044
:103AB00045E05DE0B4010E94410CC3C98230E9F4E5
:103AC00060914701709148018091490190914A01AC
:103AD0000E94851F4B0160914301709144018091C8
:103AE0004501909146010E94851FCB01EE24E3948D
:103AF00008E028E04DEF5CE0DDCF8330E9F4609131
:103B00004701709148018091490190914A010E94BA
:103B1000851F4B01609143017091440180914501E3
:103B2000909146010E94851FCB01EE24E39408E0AA
:103B300028E045EF5CE0BECF843009F082C9609197
:103B40004701709148018091490190914A010E947A
:103B5000851F4B01609143017091440180914501A3
:103B6000909146010E94851FCB01EE24E39408E06A
:103B700028E04DEE5CE09ECF80E40E94A30A8823FB
:103B800009F486C9A701960160913B0170913C013F
:103B900080913D0190913E010E94141F71C980E007
:103BA00090E0A8E3B2E48093370190933801A093AA
:103BB0003901B0933A0199C93FEF431A530A48E0DB
:103BC000641A710850E14516510409F02ECA66CAFC
:103BD0000F5F1F4F2E813F81265F3F4F3F832E8314
:103BE0007DCB1092570110925601CACC8F929F92B2
:103BF000AF92BF92CF92DF92EF92FF92CF93DF937B
:103C0000EC01688179818A819B816115710581054B
:103C1000910521F464E279ED8BE597E02DE133EF36
:103C200041E050E00E94B01E49015A019B01AC01E5
:103C3000A7EAB1E40E94CF1E6B017C01ACEEB4EFA9
:103C4000A50194010E94DD1EC60ED71EE81EF91EB6
:103C5000F7FE06C081E0C81AD108E10880E8F80A3A
:103C6000C882D982EA82FB82C701B6019F77DF91C1
:103C7000CF91FF90EF90DF90CF90BF90AF909F904B
:103C80008F9008958F929F92AF92BF92CF92DF92C2
:103C9000EF92FF926091E2017091E3018091E40163
:103CA0009091E501611571058105910521F464E2AA
:103CB00079ED8BE597E02DE133EF41E050E00E9494
:103CC000B01E49015A019B01AC01A7EAB1E40E9470
:103CD000CF1E6B017C01ACEEB4EFA50194010E94F4
:103CE000DD1EC60ED71EE81EF91EF7FE06C081E0D7
:103CF000C81AD108E10880E8F80AC092E201D0921F
:103D0000E301E092E401F092E501C701B6019F777B
:103D1000FF90EF90DF90CF90BF90AF909F908F90EB
:103D200008956093E2017093E3018093E40190931E
:103D3000E5010895F999FECF92BD81BDF89A9927C2
:103D400080B50895262FF999FECF1FBA92BD81BD87
:103D500020BD0FB6F894FA9AF99A0FBE019608950D
:103D6000052E97FB1EF400940E94C71E57FD07D036
:103D70000E94E21E07FC03D04EF40C94C71E50951F
:103D80004095309521953F4F4F4F5F4F0895909547
:103D90008095709561957F4F8F4F9F4F08950E943A
:103DA000041FA59F900DB49F900DA49F800D911DA1
:103DB00011240895B7FF0C94CF1E0E94CF1E821BC2
:103DC000930B0895A1E21A2EAA1BBB1BFD010DC087
:103DD000AA1FBB1FEE1FFF1FA217B307E407F507BB
:103DE00020F0A21BB30BE40BF50B661F771F881F97
:103DF000991F1A9469F760957095809590959B012D
:103E0000AC01BD01CF010895A29FB001B39FC001D5
:103E1000A39F700D811D1124911DB29F700D811DF6
:103E20001124911D08955058BB27AA270E942B1FCB
:103E30000C9433200E94252038F00E942C2020F082
:103E400039F49F3F19F426F40C9422200EF4E095E7
:103E5000E7FB0C941C20E92F0E94442058F3BA176A
:103E6000620773078407950720F079F4A6F50C9490
:103E700066200EF4E0950B2EBA2FA02D0B01B90190
:103E800090010C01CA01A0011124FF27591B99F0D0
:103E9000593F50F4503E68F11A16F040A22F232FDC
:103EA000342F4427585FF3CF469537952795A7952C
:103EB000F0405395C9F77EF41F16BA0B620B730BD3
:103EC000840BBAF09150A1F0FF0FBB1F661F771F44
:103ED000881FC2F70EC0BA0F621F731F841F48F4F9
:103EE000879577956795B795F7959E3F08F0B0CF82
:103EF0009395880F08F09927EE0F97958795089569
:103F00000E94F81F08F481E008950E948C1F6894B5
:103F1000B1110C94672008950E944C2088F09F579F
:103F200098F0B92F9927B751B0F0E1F0660F771FDD
:103F3000881F991F1AF0BA95C9F714C0B13091F0D3
:103F40000E946620B1E008950C946620672F782FB8
:103F50008827B85F39F0B93FCCF386957795679598
:103F6000B395D9F73EF490958095709561957F4F04
:103F70008F4F9F4F0895E89409C097FB3EF49095AA
:103F80008095709561957F4F8F4F9F4F9923A9F032
:103F9000F92F96E9BB279395F695879577956795C1
:103FA000B795F111F8CFFAF4BB0F11F460FF1BC005
:103FB0006F5F7F4F8F4F9F4F16C0882311F096E998
:103FC00011C0772321F09EE8872F762F05C0662346
:103FD00071F096E8862F70E060E02AF09A95660FFF
:103FE000771F881FDAF7880F9695879597F90895B8
:103FF000990F0008550FAA0BE0E8FEEF16161706FA
:10400000E807F907C0F012161306E407F50798F061
:10401000621B730B840B950B39F40A2661F0232B7A
:10402000242B252B21F408950A2609F4A140A695F6
:104030008FEF811D811D089597F99F6780E870E0DB
:1040400060E008959FEF80EC089500240A9416160E
:10405000170618060906089500240A941216130676
:10406000140605060895092E0394000C11F4882304
:1040700052F0BB0F40F4BF2B11F460FF04C06F5F20
:104080007F4F8F4F9F4F089557FD9058440F551FF6
:1040900059F05F3F71F04795880F97FB991F61F0CA
:1040A0009F3F79F087950895121613061406551F41
:1040B000F2CF4695F1DF08C0161617061806991FAD
:1040C000F1CF86957105610508940895E894BB27A2
:1040D00066277727CB0197F908950E94F81F08F407
:1040E0008FEF089597FB072E16F4009407D077FD05
:1040F00009D00E94862007FC05D03EF4909581955A
:104100009F4F0895709561957F4F0895AA1BBB1B23
:1041100051E107C0AA1FBB1FA617B70710F0A61BC7
:10412000B70B881F991F5A95A9F780959095BC01E8
:10413000CD010895EE0FFF1F0590F491E02D099435
:04414000F894FFCF21
:104144000000C03F0100080008000000F042000029
:104154000042001000100000000043000000420173
:104164000001000000000000000000000000000842
:1041740000080000000043000000420000803F00EF
:1041840000803F00000043000000420000000000E7
:104194000000000000000100010203040304030204
:1041A400010201020303040380000301FFFFFFFF78
:1041B40000E1000000000000000080420000804197
:1041C40000000000804200008041000000008042A6
:1041D4000000804100000000804200008041000097
:1041E4000000804200008041000000008042000086
:1041F4008041000000008042000080410000000077
:1042040080420000804100000000804200008041A4
:1042140000000000804200008041000000000A0A03
:1042240000000100000005141E2D320102030403E6
:10423400040302010201020303040300C18081009C
:1042440000000000000084071C09A5079A07EB077B
:10425400A907C70700000000DE0B97082C0D2B0DE3
:104264004A554D5020424F593200207265636F7297
:10427400643A200050726573732041206F722042AB
:02428400000038
:00000001FF
