:100000000C9402070C942A070C942A070C942A07D4
:100010000C942A070C942A070C942A070C942A079C
:100020000C942A070C942A070C94F10F0C9460107E
:100030000C942A070C942A070C942A070C942A077C
:100040000C942A070C942A070C942A070C942A076C
:100050000C942A070C942A070C942A070C949212E9
:100060000C942A070C942A070C942A070C942A074C
:100070000C942A070C942A070C942A070C942A073C
:100080000C94DC120C942A070C942A070C942A076F
:100090000C942A070C942A070C942A070C942A071C
:1000A0000C942A070C942A070C942A070000000FCE
:1000B000000000000000000000000001F9F0000056
:1000C000000000000000000007001C00000000000D
:1000D0000000000000083FE20000000000000000F7
:1000E000000010C0390000000000000000000021E6
:1000F000823C80060000000000000000410624C091
:10010000090000000000000000811F064010800070
:1001100000C000000001813E02401080000120006C
:100120000000010338032009000002100000000154
:1001300002380120060000021000000001027001D8
:10014000300000000120000000010270019000005A
:100150000000C000000001027000900000000000DC
:1001600000000001027000500000000000000000CC
:1001700001027800500000000000000000010308A8
:10018000005000000000000000000081000050004E
:100190000000000000000000808000D0000000008F
:1001A000000000000080C00090000000000000007F
:1001B000000040400310000000000000000000406C
:1001C0003FFE100000000000000000004000001092
:1001D0003E1FC3FF3F8000000060000020000000C1
:1001E0000000000000007C00007000000000000023
:1001F000000001A3F3F0D0000003FF0000000001A5
:10020000201E001000000000000000000F00000091
:100210003F000000000000000008C00001C1C00055
:1002200003FF000000001870038000300000000091
:10023000000000680FFE0000180000000000000031
:1002400046000000000C00000000000000C3800019
:1002500000000600000000000000B0FFC000000227
:10026000000000000000009C0000000002000000F0
:1002700000000000878FF80000020000000000006E
:100280000404080C141A2DD63FFF3BEF3BEF3FFE52
:100290001E3C0EBC47F0380676DE063807F80E1C0A
:1002A00000000000003E5B4F5B3E3E6B4F6B3E1C10
:1002B0003E7C3E1C183C7E3C181C577D571C1C5E27
:1002C0007F5E1C00183C1800FFE7C3E7FF001824FE
:1002D0001800FFE7DBE7FF30483A060E26297929A8
:1002E00026407F050507407F05253F5A3CE73C5ADD
:1002F0007F3E1C1C08081C1C3E7F14227F22145FBA
:100300005F005F5F06097F017F006689956A606014
:1003100060606094A2FFA29408047E040810207E0E
:10032000201008082A1C08081C2A08081E10101093
:10033000100C1E0C1E0C30383E3830060E3E0E06D9
:10034000000000000000005F00000007000700142C
:100350007F147F14242A7F2A1223130864623649EB
:100360005620500008070300001C224100004122D3
:100370001C002A1C7F1C2A08083E080800807030D8
:100380000008080808080000606000201008040247
:100390003E5149453E00427F40007249494946214D
:1003A00041494D331814127F1027454545393C4AC1
:1003B00049493141211109073649494936464949D8
:1003C000291E000014000000403400000008142220
:1003D000411414141414004122140802015909068E
:1003E0003E415D594E7C1211127C7F494949363E8F
:1003F000414141227F4141413E7F494949417F0975
:100400000909013E414151737F0808087F00417F7F
:1004100041002040413F017F081422417F4040407D
:10042000407F021C027F7F0408107F3E4141413E15
:100430007F090909063E4151215E7F091929462697
:100440004949493203017F01033F4040403F1F209B
:1004500040201F3F4038403F631408146303047872
:1004600004036159494D43007F4141410204081092
:1004700020004141417F04020102044040404040CD
:10048000000307080020545478407F28444438383B
:1004900044444428384444287F38545454180008AD
:1004A0007E090218A4A49C787F0804047800447D87
:1004B00040002040403D007F1028440000417F4024
:1004C000007C047804787C08040478384444443878
:1004D000FC1824241818242418FC7C080404084858
:1004E0005454542404043F44243C4040207C1C20A9
:1004F00040201C3C4030403C44281028444C909004
:10050000907C4464544C440008364100000077005D
:1005100000004136080002010204023C2623263C6A
:100520001EA1A161123A4040207A385454555921F5
:1005300055557941215454784121555478402054DF
:100540005579400C1E52721239555555593954542B
:10055000545939555454580000457C410002457D9A
:10056000420001457C40F0292429F0F0282528F09C
:100570007C545545002054547C547C0A097F4932F0
:10058000494949323248484832324A4848303A416B
:1005900041217A3A42402078009DA0A07D39444410
:1005A00044393D4040403D3C24FF2424487E49439B
:1005B000662B2FFC2F2BFF0929F620C0887E09030C
:1005C00020545479410000447D413048484A323833
:1005D0004040227A007A0A0A727D0D19317D26295F
:1005E000292F28262929292630484D402038080857
:1005F000080808080808382F10C8ACBA2F1028348B
:10060000FA00007B000008142A142222142A14087D
:100610009500220095AA005500AAAA55AA55AA003D
:100620000000FF00101010FF00141414FF00101041
:10063000FF00FF1010F010F0141414FC001414F755
:1006400000FF0000FF00FF1414F404FC1414171042
:100650001F10101F101F1414141F00101010F00092
:100660000000001F101010101F10101010F01000CC
:100670000000FF101010101010101010FF100000DC
:1006800000FF140000FF00FF00001F10170000FC17
:1006900004F414141710171414F404F40000FF00E9
:1006A000F714141414141414F700F7141414171472
:1006B00010101F101F141414F4141010F010F00078
:1006C000001F101F0000001F14000000FC14000099
:1006D000F010F01010FF10FF141414FF141010107D
:1006E0001F00000000F010FFFFFFFFFFF0F0F0F030
:1006F000F0FFFFFF0000000000FFFF0F0F0F0F0FC4
:1007000038444438447C2A2A3E147E0202060602FB
:100710007E027E0263554941633844443C04407E76
:10072000201E2006027E020299A5E7A5991C2A49EF
:100730002A1C4C7201724C304A4D4D30304878487A
:1007400030BC625A463D3E494949007E0101017E66
:100750002A2A2A2A2A44445F444440514A444040B9
:10076000444A51400000FF0103E080FF00000808F8
:100770006B6B083612362436060F090F0600001878
:10078000180000001010003040FF0101001F01019F
:100790001E00191D1712003C3C3C3C0000000000EC
:1007A000F0F89C8E8783878E9CF8F00000FEFF0394
:1007B00003030303070EFCF80000FEFF030303031B
:1007C00003070EFCF80000FFFF000000000000001F
:1007D000FFFF0000FEFF8383838383C7EE7C380026
:1007E00000F8FC0E07030303070EFCF800003F7F30
:1007F000E0C08080C0E07F3FFFFF010101010101F7
:1008000001FFFF0000FFFF0C0C0C0C1C3E77E3C146
:1008100000007FFFC0C0C0C0C0E0703F1F00001FCD
:100820003F70E0C0C0C0E0703F1F00007FFFC1C14B
:10083000C1C1C1E3773E1C00001F3F70E0C0C0C0D3
:10084000E0703F1F000000000001FFFF01000000FA
:10085000D5F08D14A1C881CFD9F1AF2000000000E0
:100860000000000000000000000000000000000088
:100870000000000000000000000000000000000078
:100880000000000000000000000000000000000068
:100890000000000000000000000000000000000058
:1008A0000000000000000000000000000000000048
:1008B0000000000000000000000000000000000038
:1008C0000000000000000000000000000000000028
:1008D0000000000000000000000000000000000018
:1008E0000000000000000000000000000000007E8A
:1008F0000FFF0600FF83FFC0000000FF0FFF0F0087
:10090000FFE3FFC00000018380600F00C06018009B
:100910000000018180600F00C0601800000003002B
:1009200080601B80C03018000000038000601980C8
:10093000C06018000000018000603980C0601800AD
:10094000000001E0006030C0C0E01800000000FEC0
:10095000006030C0FFC018000000001F806070C041
:10096000FF8018000000000380606060C1C01800B4
:1009700000000000C0607FE0C0C018000000000060
:10098000C060FFF0C060180000000300C060C0300D
:10099000C060180000000380C060C030C060180054
:1009A000000001C180618018C0301800000000FF05
:1009B00080618018C03018000000007E006180183F
:1009C000C03018000000000000000000000000001F
:1009D0000000000000000000000000000000000017
:1009E0000000000000000000000000000000000007
:1009F00000000000000000000000000000000000F7
:100A000000000000000000000000000000000000E6
:100A100000000000000000000000000000000000D6
:100A200000000000000000000000000000000000C6
:100A300000000000000000000000000000000000B6
:100A400000000000000000000000000000000000A6
:100A50000000000000000000000000000000000096
:100A60000000000000000000000000000000000086
:100A70000000000000000000000000000000000076
:100A80000000000000000000000000000000000066
:100A90000000000000000000000000000000000056
:100AA0000000000000000000000000000000000046
:100AB0000000000000000000000000000000000036
:100AC000000000000000000000000000000000071F
:100AD000C1003FE0300FF0000000001FE1003FC008
:100AE000700C7800000000383100200078081800F1
:100AF000000000303100200058080C0000000060A9
:100B000001002000C8080C00000000600100200067
:100B1000CC0818000000006001003F818C0C7800B8
:100B20000000006001003FC1860FE000000000608F
:100B300001002001060830000000006001002003D1
:100B4000FE0810000000006011002003FF081800DC
:100B500000000030310020020308180000000038B7
:100B60003100200601080C000000001FE1FF3FC615
:100B700001880C0000000007C1FF3FE40188040069
:100B80000000000000000000000000000000000065
:100B90000000000000000000000000000000000055
:100BA0000000000000000000000000000000000045
:100BB0000000000000000000000000000000000035
:100BC00000000000000000000000000000003FFCEA
:100BD000000000000000007E000061E7000000004F
:100BE000000000760000873DC0000000000000F01B
:100BF00000011C02400000000000009000032002E1
:100C00002000000000000088000661811000000044
:100C1000000000CFE004C38190000000000000FF4E
:100C200070048E00980000000000007E300C9E00D2
:100C3000C8000000000000031009900048000000F8
:100C4000000000013009100048F000000000000022
:100C5000B0091800489800000000000CE0051800DA
:100C6000488800000000000FC0059800480E0000F2
:100C70000000000300048800580B00000000000082
:100C80000004C400D119000000000000000660014B
:100C9000B1F30000000000000002200360E28000C9
:100CA0000000000000033002C020800000000000AF
:100CB000000190018043C00000000000003EFE0FD4
:100CC000FC4240000000000001E3A3F807E08000C0
:100CD000000000000100000000818000007E81A56E
:100CE000817E3C24663C4241D201E2211C0000602E
:100CF000959F60000000001FC02030400840089011
:100D000088B9C4908440046044308610A10F310239
:100D100011061E000000000C6018300D6007C0882E
:100D2000225AB4E82EB45AA38A9112D1160EE018B2
:100D30003024483C78FF81A995A99581FF7E81A543
:100D400099A581817EFF8181BD818181FFFF81899C
:100D5000BD898981FF1824424A52422418FF81FF2D
:100D600081FF81FF81FF81FF81FF81FFFFFF81FF05
:100D700081FFFFFFFFFF81FFFFFFFFFFFFFFFFFF7F
:100D8000FFFFFFFFFF1E3F7EFCFC7E3F1E080B00A7
:100D90000202020000090400000102020000052412
:100DA00000100105240101010424020605240600A7
:100DB000010705810310004009040100020A000038
:100DC00000070502024000000705830240000004FE
:100DD00003090412010002EF0201404123368000A2
:100DE000010102030141726475696E6F204C4C432E
:100DF0000041726475696E6F204C656F6E6172643C
:100E00006F00701311241FBECFEFDAE0DEBFCDBF3D
:100E100012E0A0E0B1E0E6ECF6E402C005900D922D
:100E2000AC38B107D9F727E0ACE8B2E001C01D92B9
:100E3000AA32B207E1F717E0C2E0D7E004C0219779
:100E4000FE010E945B23C130D107C9F70E949D13A8
:100E50000C9461230C9400008091A0020895E6ECAC
:100E6000F2E0A0E0B8E000800EBC8111012C1197E7
:100E7000A0FDFDCF0192B9F70DB40895FC0180915A
:100E8000C502882311F13FB7F89482E08093E9000E
:100E90002091F200822F90E01816190614F481E0D8
:100EA00090E0882339F0289844E64093C4024091AA
:100EB000F1004083222339F02091F200211103C078
:100EC0002BE62093E8003FBF08958FEF9FEF089532
:100ED0002FB7F89483E08093E9009091E800892F80
:100EE000807295FF04C09091F20080E4891B2FBFAF
:100EF00008958091BC0281110DC082E08093B802F8
:100F000084E08093B9021092BB021092BA0281E091
:100F10008093BC0288EB92E00895CF93DF931F92F9
:100F2000CDB7DEB76983DC01ED91FC910280F381DE
:100F3000E02D41E050E0BE016F5F7F4F09950F90BB
:100F4000DF91CF91089583E08093E9008091F200D2
:100F5000882319F08AE38093E80008950E946807C7
:100F600090E00895CF93DF931F92CDB7DEB7FC01D9
:100F70008485958597FD08C02FEF3FEF358724873F
:100F80000F90DF91CF910895CE0101960E943E0708
:100F9000019719F4898190E0F3CF8FEF9FEFF0CFA5
:100FA0000F931F93CF93DF931F92CDB7DEB78C01C2
:100FB000FC018485958597FF0BC0CE0101960E94A8
:100FC0003E07019771F4898190E0F8019587848745
:100FD000F801848595850F90DF91CF911F910F9136
:100FE00008958FEF9FEFF1CFFC018485958597FDE4
:100FF0000BC09FB7F89482E08093E9008091F200E3
:101000009FBF90E0019608959FB7F89482E0809387
:10101000E9008091F2009FBF90E008954091B202F4
:101020005091B3022091B0023091B10242175307A0
:10103000B4F49091E8009570E1F39091E80092FD8E
:1010400019C08093F1008091B2029091B302019691
:101050008F739927892B19F48EEF8093E800809184
:10106000B2029091B30201969093B3028093B202C0
:1010700081E0089580E00895DF92EF92FF920F9350
:101080001F93CF93DF93D82E8A01EB017B01E40EEF
:10109000F51ECE15DF0559F0D7FE12C0FE01849172
:1010A0000E940E0821968111F4CF0FEF1FEFC801A7
:1010B000DF91CF911F910F91FF90EF90DF900895F6
:1010C0008881EECF0F931F93CF93DF931F92CDB7FD
:1010D000DEB782E0898342E450E06DE87DE080E89D
:1010E0000E943C080E947907DC0112960D911C9128
:1010F0000115110589F0D801ED91FC910280F38171
:10110000E02DBE016F5F7F4FC801099597FD04C0B8
:10111000F80100851185ECCF89810F90DF91CF9187
:101120001F910F910895615030F02091F100FC0162
:1011300020830196F8CF289884E68093C40208950E
:10114000AF92BF92CF92DF92EF92FF920F931F93D5
:10115000CF93DF936C017B018B01040F151FEB0113
:101160005E01AE18BF08C017D10759F06991D601CA
:10117000ED91FC910190F081E02DC6010995892B3C
:1011800079F7C501DF91CF911F910F91FF90EF90FB
:10119000DF90CF90BF90AF9008953FB7F8948091C3
:1011A0009C0290919D02A0919E02B0919F0226B553
:1011B000A89B05C02F3F19F00196A11DB11D3FBF8F
:1011C000BA2FA92F982F8827BC01CD01620F711D5E
:1011D000811D911D42E0660F771F881F991F4A9558
:1011E000D1F708958F929F92AF92BF92CF92DF92E4
:1011F000EF92FF926B017C010E94CD084B015C01D4
:10120000C114D104E104F104B9F00E94CD086819B9
:1012100079098A099B09683E73408105910580F32D
:1012200021E0C21AD108E108F10888EE880E83E0B7
:10123000981EA11CB11CE4CFFF90EF90DF90CF90DF
:10124000BF90AF909F908F9008958F929F92AF9292
:10125000BF92CF92DF92EF92FF920F931F93CF93A3
:10126000DF936C017B018A0180911D02882309F4C0
:101270005CC08091C502882309F457C08091B702F1
:1012800080FF05C08091E00082608093E000E8016B
:10129000B12C8AEFA82E93E0892E2AE3922E209774
:1012A00011F4BB20D9F10E94680781110AC0AA94E9
:1012B000AA20D9F161E070E080E090E00E94F2089D
:1012C000EECF8C171D0611F00CF08C2F9FB7F89401
:1012D0008092E9002091E80025FD02C09FBFDFCF8A
:1012E000282F30E0C21BD30BF701815020F0419131
:1012F0004093F100FACFE20EF31EBB2021F0909252
:10130000E800B12CEBCF8091E80085FDE7CF90920B
:10131000E800BB24B394209709F3F3CF5D9884E6EB
:101320008093B602101611063CF081E090E0F601C1
:101330009383828310E000E0C801DF91CF911F9179
:101340000F91FF90EF90DF90CF90BF90AF909F9064
:101350008F90089520919402E0919202F09193026F
:10136000CF0102969093930280939202222319F068
:10137000859194910895808191810895CF92DF9213
:10138000EF92FF92CF93DF930E94AA09811520E884
:10139000920791F4809171008D7F8093710010927B
:1013A00091004698479810929102DF91CF91FF905B
:1013B000EF90DF90CF90089521E02093910281304B
:1013C00020E8920751F480918F02909190029093BF
:1013D0009302809392020E94AA0997FD05C0209172
:1013E0008E02222309F454C020918D02211150C095
:1013F00021E020939502EC01DF77209709F04BC0A4
:1014000081E08093960246983FE9C32E3FE0D32EB9
:10141000E12CF12CCAEFD0E0E0912407F0912507F0
:101420000995811103C081E0809396028091950215
:10143000882329F080919602882309F43FC04798B9
:101440000E94AA090097F1F19C01DE010E94C521CA
:10145000DC01CB0129E0B595A795979587952A954D
:10146000D1F7109290002AE020939100D092990039
:10147000C09298008093970290939802A09399024B
:10148000B0939A02809171008260809371008DCF39
:1014900010929502B0CF9E0150E040E060E472E40B
:1014A0008FE090E00E94712169017A0181E0C81A01
:1014B000D108E108F10810929602AECF4699BFCF4D
:1014C000479ABECF8FEF9FEFDC01CBCF9C01E1E7C6
:1014D000F0E090819D7F908310929402E6E1F7E026
:1014E000F0939302E0939202F0939002E0938F02C4
:1014F000318320837383628380E090E895838483C3
:101500000C94BE092D9A0895BC0190E080E00C94E3
:10151000F2088FB18095807F669B88601C9B8460F9
:1015200008953E9A3F9A81E08093A002089580E05A
:10153000E6ECF2E081118FEF002481938193819397
:1015400081930394D1F71092A4021092A3021092F7
:10155000A6021092A5020895CF93C82F0E94890A6F
:10156000982F9C2381E09C1380E0CF91089580E028
:101570000C942F072F923F924F925F926F927F921F
:101580008F929F92AF92BF92CF92DF92EF92FF9293
:101590000F931F93CF93DF9300D000D01F92CDB74E
:1015A000DEB7E982A22EB12C9501280F391F121641
:1015B00013060CF0B3C0803891050CF0AFC09B014E
:1015C000200F311D121613060CF0A8C060347105EF
:1015D0000CF0A4C09B0177FF04C022273327261BF1
:1015E000370B27703327DB0177FD1796F3E0B595AE
:1015F000A795FA95E1F777FF07C0119768E070E0CB
:10160000FB01E21BF30B9F01069506950695402E04
:10161000512CBD017695762F662777956795680FD3
:10162000791F6A537D4F8A01AD01E8E0F0E04F0178
:10163000821A930A4F3FFFEF5F070CF45FC07C01F3
:101640001B821A823B01F0E86F0E711CF7FC44C04C
:101650004F3F540709F498C0CA80DB80C60ED71EDE
:10166000F6012080EA81FB81E00FF11FFD83EC830E
:10167000F981F13009F06AC0EC81FD813490E32DED
:10168000022E01C0EE0F0A94EAF72E2AF6012082FC
:101690002115310509F147305105F1F0CA80DB8091
:1016A000C60CD71CF6012080EA81FB81E00FF11FF8
:1016B000FD83EC83F981F13009F057C0EC81FD81A5
:1016C0003490E32DF0E0082C02C0F595E7950A94DC
:1016D000E2F72E2AF6012082EA81FB813196FB8314
:1016E000EA83FFEFEF1AFF0AEA81FB81EA15FB05A7
:1016F0002CF4E0E8EE16F10409F0A8CF4F5F5F4F3D
:1017000060587F4F0A0D1B1DFA01EA1BFB0BE41505
:10171000F50524F44830510509F08CCF0F900F9057
:101720000F900F900F90DF91CF911F910F91FF902D
:10173000EF90DF90CF90BF90AF909F908F907F9071
:101740006F905F904F903F902F900895EC81FD81B6
:101750003490E32DF0E0022E02C0EE0FFF1F0A943A
:10176000E2F7E095F0952E2291CFEC81FD81349047
:10177000E32DF0E0082C02C0F595E7950A94E2F716
:10178000E095F0952E22A6CF2115310509F086CFE0
:10179000A3CF80389105B8F460347105A0F420E13E
:1017A00091E061FD94E060FD990F62FD9295687F84
:1017B000269FD0011124A80FAA53BD4F8C9140FF42
:1017C00003C0892B8C93089590958923FBCF8F922A
:1017D0009F92AF92BF92CF92DF92EF92FF920F93C0
:1017E0001F93CF93DF936D3089F0C090A302D09008
:1017F000A4026A30D1F41092A6021092A50288E0E9
:10180000C80ED11CD092A402C092A30281E090E045
:10181000DF91CF911F910F91FF90EF90DF90CF90CC
:10182000BF90AF909F908F9008950091A502109166
:10183000A602E5E06E9FE0011124C056DD4F48018D
:10184000F12CF5E0E12CFF1629F0CE010196FE0106
:10185000E490EC01B12CA12C4E2D4170B6016A0D23
:101860007B1DC4010E94C90BE694FFEFAF1ABF0AAB
:1018700088E0A816B10481F7F394EFEF8E1A9E0A60
:10188000F6E0FF12DECF0A5F1F4F1093A60200930F
:10189000A502BCCF2F923F924F925F926F927F92A0
:1018A0008F929F92AF92BF92CF92DF92EF92FF9270
:1018B0000F931F93CF93DF9300D01F92CDB7DEB766
:1018C000C22ED12C9601280F391F121613060CF0C8
:1018D0005AC0803891050CF056C010E09801260FD0
:1018E000371F121613060CF04EC0603471050CF051
:1018F0004AC0E9823A017B836A832C01160127E002
:10190000220E311C93E0359427949A95E1F75B0100
:10191000912C812CC5012A813B81821B930B80175E
:1019200091078CF5F12CE12CEC14FD0434F5F70152
:1019300083E0F595E7958A95E1F7E80DF91DE60D49
:10194000F71DE491C7018770992720E830E002C0B5
:10195000359527958A95E2F7C901F0E0E223F9234E
:10196000EF2B39F04981B501C701840D951D0E9407
:10197000C90B3FEFE31AF30AD7CF820C931C8FEF0A
:10198000A81AB80AC7CF0F900F900F90DF91CF9190
:101990001F910F91FF90EF90DF90CF90BF90AF908D
:1019A0009F908F907F906F905F904F903F902F907F
:1019B0000895E7E2F2E0A7EFB1E081918D9382E034
:1019C000E733F807D1F708950F931F93ECE7F1E0A1
:1019D00000E010E020E231E405831683278330879E
:1019E00000E010E020EA31E4018712872387348782
:1019F00000E010E020EC3FE3058716872787308B57
:101A0000618B728B838B948B81E080831F910F910C
:101A10000895CF92DF92EF92FF92C0905101D09043
:101A20005201E0905301F090540120E030E040EA90
:101A300052E4C701B6010E94412287FF06C081E03F
:101A400090E090935A018093590180914D019091BB
:101A50004E0168E770E0681B790B072E000C880BBD
:101A6000990B0E947E229B01AC01C701B6010E9426
:101A70002E23181634F48FEF9FEF90935A01809322
:101A80005901C0905501D0905601E0905701F09057
:101A9000580120E030E040E251E4C701B6010E9465
:101AA000412287FF06C081E090E090935C01809323
:101AB0005B0180914F019091500166E370E0681BDB
:101AC000790B072E000C880B990B0E947E229B013C
:101AD000AC01C701B6010E942E23181634F48FEF13
:101AE0009FEF90935C0180935B01FF90EF90DF90FC
:101AF000CF9008958F929F92AF92BF92CF92DF9234
:101B0000EF92FF920F9380916801893CE0F5C090BD
:101B10005501D0905601E0905701F0905801609126
:101B2000590170915A01072E000C880B990B0E94E5
:101B30007E222091510130915201409153015091E8
:101B400054010E94D52160935101709352018093FA
:101B500053019093540160915B0170915C01072ED9
:101B6000000C880B990B0E947E22A70196010E940F
:101B7000D52160935501709356018093570190933E
:101B800058010E94090D6091550170915601809194
:101B90005701909158010E9446224B0160915101DA
:101BA0007091520180915301909154010E944622FC
:101BB000CB01EE24E39400E120E140E852E0B401DF
:101BC0000E944A0C0F91FF90EF90DF90CF90BF9052
:101BD000AF909F908F9008951092090210920A0280
:101BE0008B30910514F08AE090E080930D02E1E9DA
:101BF000F1E010863A9681E0E53FF807D1F70895C5
:101C0000CF9380918C02811127C00E94B70AC1E056
:101C1000C0938C0260EA70E083E890E00E94660A5C
:101C200068EB7BE080E090E00E94F20810927B017C
:101C30001092720180911002811102C0C0931102B2
:101C40006091000170910101809102019091030166
:101C50000E94E40C10928C02CF910895089590E0B8
:101C600080E008958F929F92AF92BF920F931F933F
:101C7000CF93DF93CDB7DEB7A1970FB6F894DEBF51
:101C80000FBECDBF19A2423008F44AE08E010F5DAD
:101C90001F4F842E912CB12CA12CA50194010E94E0
:101CA000A321E62FB901CA01EA3044F5E05DD8016D
:101CB000EE938D01232B242B252B79F790E080E0E8
:101CC000109769F0FD0101900020E9F73197AF010D
:101CD0004A1B5B0BBD0186E297E00E94A008A1961B
:101CE0000FB6F894DEBF0FBECDBFDF91CF911F912D
:101CF0000F91BF90AF909F908F900895E95CD7CFE0
:101D0000CF92DF92EF92FF92CF93DF936B017C0132
:101D10006DE286E297E00E94E70BEC0166277727E9
:101D2000CB016C197D098E099F094AE00E94320E91
:101D30008C0F9D1FDF91CF91FF90EF90DF90CF90A0
:101D40000895FC0101900020E9F73197AF01481B8D
:101D5000590BBC0186E297E00C94A0082F923F92A9
:101D60004F925F926F927F928F929F92AF92BF92AB
:101D7000CF92DF92EF920F931F93CF93DF93D0E038
:101D8000C0E084E2282E312C44244394512C22E3D9
:101D9000622E712C3EE1C32ED12C4CE2A42EB12C2C
:101DA00056E3852E912C6EE170E080E090E00E9479
:101DB000F2080E94970A3092A6022092A502509241
:101DC000A4024092A3028CE592E00E94A10EEE24B0
:101DD000E39404E228E64CEA50E06CE070E08EE028
:101DE00090E00E944A0CCE010196B3010E94332379
:101DF0008C01EC018091A1029091A20218161906A3
:101E0000E4F4D092A602C092A502B092A402A092DD
:101E1000A30286E692E00E94A10E6091A102709159
:101E2000A202072E000C880B990B97FF37C00E9467
:101E3000800E8EE692E00E94A10E0931110564F435
:101E4000D092A602C092A5029092A4028092A30210
:101E500080E792E00E94A10E0E94B70A88E00E94EB
:101E6000AC0A811106C084E00E94AC0A882309F400
:101E70009ACF82E080931102DF91CF911F910F9151
:101E8000EF90DF90CF90BF90AF909F908F907F901A
:101E90006F905F904F903F902F9008954AE00E947E
:101EA000320EC7CFCF93DF93EC018430910534F02D
:101EB00063E070E00E943323EC01219610926801E8
:101EC00080E090E0A8ECB2E480935101909352013D
:101ED000A0935301B09354010E94032122E230E009
:101EE00040E050E00E947121665F7F4F8F4F9F4F0F
:101EF0000E947E2260935501709356018093570192
:101F000090935801D0935E01C0935D0110925F01E0
:101F1000DF91CF9108954F925F926F927F928F924F
:101F20009F92AF92BF92CF92DF92EF92FF920F9368
:101F30001F93CF93DF938C01843091053CF063E0D5
:101F400070E00E9433238C010F5F1F4FC4E0D1E08B
:101F50008CE2882E99249394A12CB12CC12CD12CE5
:101F6000E12C93E4F92E22E2422E512C612C712CAB
:101F70000E940321A50194010E9471216C5968837C
:101F8000198B088B19821A8A1B8ACE82DF82E88617
:101F9000F9860E940321A30192010E947121665FCC
:101FA0007F4F8F4F9F4F0E947E226A877B878C874F
:101FB0009D87649681E0C034D807D1F6DF91CF9138
:101FC0001F910F91FF90EF90DF90CF90BF90AF9057
:101FD0009F908F907F906F905F904F9008950C949A
:101FE0005B211F920F920FB60F9211248F939F9334
:101FF0008091E1009091E100937F9093E10083FF55
:102000000FC01092E90091E09093EB001092EC0069
:1020100092E39093ED001092C50298E09093F00047
:1020200082FF22C093E09093E9009091F2009923FF
:1020300019F09AE39093E8009091B602992341F049
:102040009091B60291509093B602911101C05D9AA1
:102050009091C402992341F09091C40291509093C1
:10206000C402911101C0289A84FF18C08091E20037
:102070008E7E81608093E2008091E1008F7E80936C
:10208000E1008091B7028E7E80618093B7029F91BC
:102090008F910F900FBE0F901F90189580FFF7CF74
:1020A0008091E2008E7E80618093E2008091E10069
:1020B0008E7E8093E1008091B7028E7E8160E5CFB5
:1020C0001F920F920FB60F921124CF92DF92EF92D0
:1020D000FF920F931F932F933F934F935F936F93B1
:1020E0007F938F939F93AF93BF93EF93FF93CF9380
:1020F000DF93CDB7DEB76C97DEBFCDBF1092E9009E
:102100008091E80083FF25C068E0CE0145960E94DB
:10211000930882EF8093E8008D8987FF39C0909102
:10212000E80090FFFCCF982F907609F034C19E898B
:102130004F89588D2F89F88C911131C0803861F505
:102140008091B5028093F1001092F1008EEF8093A0
:10215000E8006C960FB6F894DEBF0FBECDBFDF91DE
:10216000CF91FF91EF91BF91AF919F918F917F910F
:102170006F915F914F913F912F911F910F91FF9020
:10218000EF90DF90CF900F900FBE0F901F9018959B
:102190009EEF9093E800C7CF1092F100D5CF913019
:1021A00059F48111D3CF4130510581F68091B502A8
:1021B0008D7F8093B502CACF933049F48111C6CF89
:1021C0004130510519F68091B5028260F2CF953009
:1021D00041F48091E80080FFFCCF20682093E30069
:1021E000B5CF963009F0A9C00B8D1C8D22E010925E
:1021F000E9001092B3021092B202F2122EC01092B5
:10220000B1021092B0020E9462081F8299E0998385
:10221000FA8291E09E8390EA98879AEF99872091BD
:10222000B2023091B302275F3F4F3C832B838D83F3
:102230001092E9001092B3021092B2021093B10210
:102240000093B00249E050E0BE016F5F7F4F80E035
:102250000E943C080E94620879CF1093B10200935B
:10226000B0020E947907DC0112960D911C910115B4
:10227000110509F451C1D801ED91FC910480F5815B
:10228000E02DBE016B5E7F4FC8010995009709F0F4
:102290003EC1F80100851185EACFF3E0FF120EC0C0
:1022A0008F89882309F440C0823061F440E860E1FE
:1022B00081EF9DE00E943D13811148CF81E2809320
:1022C000EB0047CF813029F440E86BE085EE9DE0DC
:1022D000F1CF833099F70E947907DC011296ED90D7
:1022E000FC908E010F5F1F4F6801E114F10479F03B
:1022F000D701ED91FC910680F781E02DB801C7016F
:102300000995080F111DF701E084F184EECFD80183
:102310001C92F60101900020E9F73197BF016C197A
:102320007D0940E0C601C6CF6FEC7DE0FB01449122
:1023300050E080E80E943C0809CF973009F4BECFF6
:10234000983021F481E08093F10000CF993009F0BA
:10235000FDCE837009F0B2CFE8E3F2E081E031E036
:1023600096E32191222371F08093E9003093EB00F2
:10237000DF0111972C912093EC009093ED008F5F7B
:10238000873079F78EE78093EA001092EA008F8910
:102390008093C502DBCE8B8D9C8D1092E90010924C
:1023A000B3021092B2029093B1028093B002898D71
:1023B000811192C08E899D89913A49F4813209F048
:1023C0007DCF47E050E066E172E080E0B3CF91322C
:1023D00009F074CF833269F48F89988DB0E0A0E062
:1023E0008093120290931302A0931402B0931502EB
:1023F000ADCE803269F48091E80082FFFCCF67E0C7
:1024000086E192E00E9493088BEF8093E8009ECED5
:10241000823209F09BCE8F8980931D02EEEFFFE799
:10242000859194918B3F9C4D51F1E0E0F8E08091D3
:10243000160290911702A0911802B0911902803BE8
:102440009440A105B105F1F480911D0280FD1AC0F0
:10245000EE3F8AE0F80789F587E797E79183808365
:10246000809160008093B40288E19BE00FB6F894FD
:10247000A895809360000FBE9093600067CEEEEF4A
:10248000FAE0D5CF808191818737974709F05ECEFA
:10249000A895809160008861809360008091B4026B
:1024A00080936000EE3F2AE0F20789F08091FE0AF7
:1024B0009091FF0A9183808349CE808191818737F3
:1024C000980751F29093FF0A8093FE0AC5CF1092AD
:1024D000FF0A1092FE0A3ACE0E947907DC0112969A
:1024E0000D911C910115110509F4E8CED801ED916B
:1024F000FC910190F081E02DBE016B5E7F4FC80121
:102500000995811123CEF80100851185EBCF1816AE
:1025100019060CF41BCED2CEF1E0FF12BECE63ED55
:102520007DE004CF1F920F920FB60F9211242F93CC
:102530003F938F939F93AF93BF938091A702909106
:10254000A802A091A902B091AA0230919B0223E0B7
:10255000230F2D3758F50196A11DB11D20939B0225
:102560008093A7029093A802A093A902B093AA0215
:1025700080919C0290919D02A0919E02B0919F0239
:102580000196A11DB11D80939C0290939D02A09382
:102590009E02B0939F02BF91AF919F918F913F9107
:1025A0002F910F900FBE0F901F90189526E8230FC4
:1025B0000296A11DB11DD2CF1F920F920FB60F929E
:1025C00011242F933F934F935F936F937F938F9338
:1025D0009F93AF93BF93EF93FF9380919702909156
:1025E0009802A0919902B0919A02892B8A2B8B2B89
:1025F00009F440C08091960281110BC088B190E42B
:10260000892788B980919502882319F088B180586C
:1026100088B98091970290919802A0919902B09107
:102620009A02181619061A061B069CF48091970246
:1026300090919802A0919902B0919A020197A109F4
:10264000B1098093970290939802A0939902B09356
:102650009A02FF91EF91BF91AF919F918F917F91DE
:102660006F915F914F913F912F910F900FBE0F90FF
:102670001F9018950E94BE09ECCFEF92FF920F9326
:102680001F93CF93DF93F82E192FE62E042F81E0AE
:10269000860F880F0E940E0883E00E940E08CF2D3F
:1026A000D12FEC0EFD2EF11CCE15DF05B9F007FF82
:1026B00013C0FE0184910E940E08182F80E00E9432
:1026C0000E08812321968111EFCFDF91CF911F91C9
:1026D0000F91FF90EF9008958881EDCF81E0F5CFC5
:1026E000E6ECF6E01382128288EE93E0A0E0B0E020
:1026F00084839583A683B78382E492E09183808369
:102700008FEF9FEF95878487E6E2F7E013821282CE
:1027100084E592E0918380838CE297E09093250793
:102720008093240780E090E890932307809322070A
:1027300046983E9A47983F9A0895CF93DF93CDB736
:10274000DEB769970FB6F894DEBF0FBECDBF7894A1
:1027500084B5826084BD84B5816084BD85B58260A6
:1027600085BD85B5816085BD80916E008160809357
:102770006E001092810080918100826080938100C0
:1027800080918100816080938100809180008160D0
:10279000809380008091910082608093910080916D
:1027A000910081608093910080919000816080937E
:1027B00090008091C10084608093C1008091C1002D
:1027C00082608093C1008091C10081608093C100CC
:1027D0008091C30081608093C3008091C0008260BB
:1027E0008093C0008091C20081608093C20080917C
:1027F0007A00846080937A0080917A00826080936E
:102800007A0080917A00816080937A0080917A00CA
:10281000806880937A001092C5021092B5021092DF
:10282000B7028091D70081608093D70080EA8093BF
:10283000D80089B5806189BD89B5826089BD09B438
:1028400000FEFDCF61E070E080E090E00E94F208C1
:102850008091D8008F7C80618093D8008091E000C7
:10286000807F8093E0008091E1008E7E8093E10084
:102870008DE08093E200559A209A81EC80937C0051
:1028800085B1806F85B984B1877E84B984B1876E44
:1028900084B95E9A5F988AB1806D8AB9769A6E988B
:1028A00081B3806F81BB899880B38D7080BB80E5D8
:1028B0008CBD81E08DBD85E090E00E94840A5F9A26
:1028C00085E090E00E94840A5E985C98E0E5F8E07C
:1028D0008DE598E024912EBD00000DB407FEFDCFDC
:1028E00031968E179F07B1F75C9A81E88093640058
:1028F000809165008160809365000E94B70A80E83E
:102900000E94AC0A8823A9F05C9885EA8EBD00007D
:102910000DB407FEFDCF5C9A2E982F982D988091CC
:10292000640080628093640081E083BF889513BE59
:10293000FCCF84E00E94AC0A882309F448C02D989B
:1029400084E80E94AC0A8823E1F00E94820A88ECA5
:1029500090E00E94840A2F9882E090E00E945B2120
:102960008F3F29F06FEF82E090E00E94632184EFB7
:1029700091E00E94840A2F9A84E80E94AC0A811197
:10298000FBCF84E10E94AC0A8823E1F00E94820A16
:1029900088EC90E00E94840A2E9882E090E00E94E9
:1029A0005B21882329F060E082E090E00E946321AF
:1029B00084EF91E00E94840A2E9A84E10E94AC0A7E
:1029C0008111FBCF88EC90E00E94840AB2CF0E9474
:1029D000820A82E090E00E94EF0F882309F477C01A
:1029E0000E94910A81E090E00E94EF0F182F14706E
:1029F00081FF10C011112E9841EFC42EDD24DA940E
:102A000080E40E94AC0A882309F466C02E9A2F9AAB
:102A10000E94820A82E390E00E94840A0E94890A4E
:102A20008111F8CF0E94910A0E94AE0E2FB7F89440
:102A30008091A7029091A802A091A902B091AA0248
:102A40002FBF8093AB029093AC02A093AD02B093E2
:102A5000AE02809164008E7F8093640080917A0042
:102A6000806480937A0080917A0086FDFCCF00918B
:102A70007800109179000E94CD08AB01BC01C8011B
:102A8000B0E0A0E0DC01992788278C019D01040FAC
:102A9000151F261F371FC901B8012091640021604E
:102AA00020936400611571058105910511F00E9464
:102AB000522180911102813009F06DC00E94AE0E4A
:102AC00080E090E0892BA9F30E940000F2CF1092E1
:102AD000A0023E983F9886CF112331F004E0C01643
:102AE000D10411F42E9A2F9881E00E942F07EE2432
:102AF000E39400E128E540EA57E0B60184E190E084
:102B00000E94BA0A0E94B70A8FE090E00E94840AED
:102B10002FEFC21AD20A39E1C316D10409F070CFDF
:102B2000112311F02F9A2D9880E991E00E94840AD8
:102B30000E94820A81E090E00E94EF0F80FF6ACF3E
:102B40008AE090E00E94EF0F9FEF980F9E3F08F001
:102B500061CF22E330E03093A6022093A50228E360
:102B600030E03093A4022093A3020BE010E0682F22
:102B700086E297E00E94E70BC8010E94EF0F0F5F0B
:102B80001F4F0131110599F70E94B70A88EE93E0B3
:102B90000E94840A3FCF823009F04CC020E030E030
:102BA00040EC5FE320930001309301014093020168
:102BB000509303010E94970A81E090E090930F02E6
:102BC00080930E0213E0109310029093F60180930D
:102BD000F501EE24E39400E320E64DE558E06AE0D9
:102BE00070E081E190E00E944A0C0E94B70A60ED1B
:102BF00077E080E090E00E94F20810924C0160E0E3
:102C000070E080EC9FE30E94E40C0E94D90C81E00C
:102C100090E00E94EC0D10927B011092720181E015
:102C200090E00E94520F81E090E00E948B0F109381
:102C3000110246CF8091AF02882399F02FB7F89404
:102C40008091A7029091A802A091A902B091AA0236
:102C50002FBF892B8A2B8B2B09F432CF1092AF0216
:102C60002FCF8FB7F8944091A7025091A80260919E
:102C7000A9027091AA028FBF8091AB029091AC0221
:102C8000A091AD02B091AE028196A11DB11D841735
:102C90009507A607B70708F013CF0E94970A2FB72A
:102CA000F8948091A7029091A802A091A902B091F6
:102CB000AA022FBF8093AB029093AC02A093AD0207
:102CC000B093AE0210E000E0F12CE12C41E0B7013E
:102CD000C8010E94C90B3FEFE31AF30A4AE0E41669
:102CE000F104A1F70F5F1F4F0F37110569F723E0BC
:102CF000C22ED12CB12CA12C809110028A151B045C
:102D000091F08CF0E12C08E028E045E85DE061E01E
:102D100070E0C6010E94BA0A5FEFA51AB50A8AE000
:102D2000C80ED11CE9CF88E490E09093A60280936E
:102D3000A50281E090E09093A4028093A30260E258
:102D400086E297E00E94E70B63E586E297E00E9447
:102D5000E70B6AE386E297E00E94E70B60910E02C0
:102D600070910F02072E000C880B990B97FF5FC024
:102D70000E94800E63E486E297E00E94E70B6AE31C
:102D800086E297E00E94E70B60910A0270E090E013
:102D900080E04AE00E94320E60E286E297E00E9404
:102DA000E70B80910702909108022091F501309184
:102DB000F601821B930B97FD3EC09093080280930F
:102DC000070208E010E098E3E92EF12C41E0B7019A
:102DD000C8010E94C90B9FEFE91AF90AA0E4EA169C
:102DE000F104A1F70F5F1F4F0738110561F7E7EFF7
:102DF000F1E0FF87EE875F01D12CC12C80910702A3
:102E0000909108028C199D0997FF02C080589F4F2E
:102E1000D5012D915D01223009F4C7C078F421302D
:102E2000C1F0E12C08E028E04DE75DE017C04AE082
:102E30000E94320E9FCF8FE790E0BFCF233009F47E
:102E4000BAC0243071F7E12C08E028E04DE55DE0E0
:102E500005C0E12C08E028E045E75DE068E370E0AC
:102E60000E944A0CB8E0CB0ED11CE0E8CE16D1048B
:102E700029F6809109028F5F883C09F4A2C08093F3
:102E8000090201E911E01F830E83180110E000E040
:102E9000A0900D02B12C0A151B050CF098C0D101B1
:102EA00018968C9181117BC00E9403214B015C011B
:102EB0000E94032122E230E040E050E00E947121B4
:102EC000665F7F4F072E000C880B990B0E947E22B5
:102ED0006B017C01C501B40124E630E040E050E024
:102EE0000E947121665F7F4F072E000C880B990BA3
:102EF0000E947E224B015C01409081015090820132
:102F00006090830170908401E0917D01F0917E01D9
:102F1000FB87EA87BF01FF0F880B990B0E947E2277
:102F20009B01AC01C301B2010E94D4219B01AC0101
:102F3000C501B4010E942E231816B4F46A857B855E
:102F4000660F771F072E000C880B990B0E947E22BC
:102F5000A30192010E94D5219B01AC01C501B401DE
:102F60000E94412287FD1BC0D1018D929D92AD929E
:102F7000BC921397F101C482D582E682F7820E9447
:102F8000032120E530E040E050E00E947121685DBF
:102F9000D10119966C931997E1E01896EC930F5FA5
:102FA0001F4FFAE02F0E311C73CFE12C08E028E010
:102FB0004DE65DE053CFE12C08E028E045E65DE01A
:102FC0004DCF1092090281E080930D025ACFE1E9C2
:102FD000F1E030E020E02A153B0551F08185815079
:102FE0008187811101C010862F5F3F4F3A96F3CF42
:102FF00011E9C12E11E0D12E912C812C8A149B0451
:1030000039F1D60118968C9118978823D1F014962F
:103010006D917D918D919C9117970E9446222B0175
:10302000F60160817181828193810E944622CB01E9
:10303000EE24E39408E028E045E55DE0B2010E945B
:10304000BA0AFFEF8F1A9F0A0AE0C00ED11CD6CF32
:1030500080917B018F5F80937B01823309F0BAC33B
:103060001092720180917201882319F1809171018F
:1030700081115DC460916D0170916E0180916F014D
:10308000909170010E9446224B01609169017091FC
:103090006A0180916B0190916C010E944622CB01E4
:1030A000EE24E39408E028E045E85DE0B4010E94E6
:1030B000BA0A80915F01882399F0809168018F5F3F
:1030C0008093680120915D0130915E0121303105CE
:1030D00009F4ADC42330310509F4EBC40E947A0D24
:1030E00080914C018823F9F0609148017091490169
:1030F00080914A0190914B010E9446224B016091C0
:1031000044017091450180914601909147010E94D0
:103110004622CB01EE24E39408E028E04DEE5CE08B
:10312000B4010E944A0CA4E02A2EA1E03A2E6101CB
:1031300011E0D60153968C915397811151C011968D
:103140008C9111978F5F11968C93119752969C9149
:103150005297992309F41EC51E966D917C91072EF6
:10316000000C880B990B0E947E22F6012681378184
:10317000408551850E94D5214B015C01D6011696F0
:103180008D929D92AD92BC92199720E030E0A901FA
:103190000E94412287FF02C0F601128AD6011A96C8
:1031A0006D917D918D919C911D970E9446222B01DE
:1031B000C501B4010E944622CB01EE24E394F6013E
:1031C0000481228145EE5CE0B2010E944A0CB4E128
:1031D000CB0ED11CE0E4CE16E1E0DE0609F0A9CF6B
:1031E000F0907C01FF2009F4BBC780E20E94AC0A8A
:1031F0008090810190908201A0908301B090840121
:10320000882309F4FEC42091890130918A014091FC
:103210008B0150918C01C501B4010E94D4216093AF
:1032200081017093820180938301909384010091C6
:103230008D0110918E0120918F01309190010A8BA8
:103240001B8B2C8B3D8B2091850130918601409109
:103250008701509188016A897B898C899D890E94A8
:10326000D5212B013C01409285015092860160924C
:1032700087017092880100917F011091800168E3BD
:1032800070E0601B710B072E000C880B990B0E94DD
:103290007E224B015C01AC019B01C301B2010E9483
:1032A0002E23181644F48092850190928601A092F4
:1032B0008701B092880120E030E040E251E4609163
:1032C00085017091860180918701909188010E940B
:1032D000412287FF0CC080E090E0A0E2B1E480933F
:1032E000850190938601A0938701B093880120E027
:1032F00030E040EF52E46091810170918201809151
:103300008301909184010E942E23181664F480E0BA
:1033100090E0A0EFB2E48093810190938201A093AA
:103320008301B093840120E030E040E051E46091FB
:1033300081017091820180918301909184010E94AA
:10334000412287FF0CC080E090E0A0E0B1E48093D0
:10335000810190938201A0938301B0938401209115
:1033600085013091860140918701509188012A871B
:103370003B874C875D87409081015090820160902F
:10338000830170908401CA01B9010E9446226E8BAC
:103390007F8B888F998FC301B2010E944622CB0197
:1033A000EE24E39420917D014DED5CE06E897F89F0
:1033B0000E944A0CA50194016A857B858C859D85B8
:1033C0000E942E2387FD65C08A899B89AC89BD89AF
:1033D000B05880938D0190938E01A0938F01B0938C
:1033E000900160E570E08EE690E00E94660A009130
:1033F000070210910802D12CC12CB80117FF02C09E
:1034000060587F4F6C5F7F4F072E000C880B990B25
:103410000E947E224B015C0120E030E040E850E455
:10342000C301B2010E94D421A50194010E9441224E
:1034300018160CF4F9C320E030E040E451E4C30175
:10344000B2010E94D5219B01AC01C501B4010E94CB
:10345000412218160CF4E8C3F601E950FE4F8081B2
:10346000882309F4E1C381508083F12C27E032E006
:10347000E7EFF1E090E080E04191840F911D2E177D
:103480003F07D1F7892B11F40E94D90CF1100E944B
:10349000000EC0908501D0908601E0908701F090E9
:1034A000880120E030E040E451E4C701B6010E9409
:1034B000412218168CF080918D0190918E01A0917F
:1034C0008F01B0919001B05880938D0190938E013F
:1034D000A0938F01B093900180917201882309F429
:1034E000CEC08090810190908201A0908301B09025
:1034F00084014090690150906A0160906B01709066
:103500006C0120E030E040E051E4C501B4010E94CC
:10351000D5219B01AC01C301B2010E94412287FF6A
:10352000AEC020E030E040E051E4C301B2010E94AF
:10353000D5219B01AC01C501B4010E94412287FF46
:103540009EC080906D0190906E01A0906F01B09030
:10355000700120E030E040E051E4C701B6010E9474
:10356000D5219B01AC01C501B4010E94412287FF16
:1035700086C020E030E040E051E4C501B4010E9483
:10358000D5219B01AC01C701B6010E94412287FFF2
:1035900076C080917101811119C060E570E08BE007
:1035A00092E00E94660A809110028F5F8093100261
:1035B0001092720180E090E0A0E0B3E48093690192
:1035C00090936A01A0936B01B0936C01809171019B
:1035D0008130A9F4E7EFF1E08191843020F4DF013C
:1035E00011978F5F8C9392E0E730F907A9F760E5B8
:1035F00070E08BE092E00E94660A10927201809166
:1036000071018230A9F4E7EFF1E08191882321F084
:10361000DF01119781508C93A2E0E730FA07A9F7F8
:1036200060E570E083E890E00E94660A1092720103
:1036300080917101833061F41092090280930D0230
:1036400060E570E086E091E00E94660A10927201E7
:1036500080917101843099F487E092E024E0EE8556
:10366000FF852193FF87EE878E179F07C1F760E5DF
:1036700070E08BE092E00E94660A10927201C090A6
:103680008501D0908601E0908701F09088018090BC
:10369000810190908201A0908301B090840110E09C
:1036A00000E080910D028017110609F00CF414C39C
:1036B000AE81BF8118968C911897882309F482C037
:1036C0004D905D906D907C9020E030E040E051E4C2
:1036D000C501B4010E94D5219B01AC01C301B20117
:1036E0000E94412287FF6EC020E030E040E051E4BC
:1036F000C301B2010E94D5219B01AC01C501B401F7
:103700000E94412287FF5EC0EE81FF814480558088
:103710006680778020E030E040E051E4C701B601E8
:103720000E94D5219B01AC01C301B2010E9441223C
:1037300087FF48C020E030E040E051E4C301B2011F
:103740000E94D5219B01AC01C701B6010E94412214
:1037500087FF38C060E570E088E891E00E94660A63
:1037600080910A028F5F80930A02AE81BF81189612
:103770001C9290910C02891362C220E030E040EF6D
:1037800052E4209344013093450140934601509305
:1037900047010E94032122E230E040E050E00E9415
:1037A0007121665F7F4F8F4F9F4F0E947E226093F3
:1037B00048017093490180934A0190934B0131E095
:1037C00030934C010F5F1F4FEE81FF813A96FF83CC
:1037D000EE8367CF883C09F045CC10927B010E94B4
:1037E000032124E630E040E050E00E94712185E0B2
:1037F000E2E2F2E0DE01119601900D928A95E1F786
:10380000FE01319690E080E02191261708F489C0EE
:10381000182F0E9403212EE630E040E050E00E9485
:103820007121665F7F4F8F4F9F4F0E947E22609372
:10383000690170936A0180936B0190936C010E94FF
:10384000032122E230E040E050E00E947121665FF7
:103850007F4F8F4F9F4F0E947E2260936D01709328
:103860006E0180936F019093700180906901909038
:103870006A01A0906B01B0906C0140908101509062
:1038800082016090830170908401E0907D01F0904E
:103890007E01B7010F2C000C880B990B0E947E2231
:1038A0009B01AC01C301B2010E94D4219B01AC0178
:1038B000C501B4010E942E231816ACF4B701660F9F
:1038C000771F072E000C880B990B0E947E22A30104
:1038D00092010E94D5219B01AC01C501B4010E9457
:1038E000412287FDBFCB80E090E0A0E8BFE380935A
:1038F000730190937401A0937501B093760120E059
:1039000030E040EC5FE320937701309378014093FF
:10391000790150937A011093710181E080937201D3
:10392000A1CB01968530910509F06ECF9BCB8130FC
:1039300001F560916D0170916E0180916F01909120
:1039400070010E9446224B016091690170916A01E9
:1039500080916B0190916C010E944622CB01EE2474
:10396000E39408E028E04DE45DE0B4010E944A0CD5
:10397000A0CB8230E9F460916D0170916E0180916D
:103980006F01909170010E9446224B016091690184
:1039900070916A0180916B0190916C010E944622A6
:1039A000CB01EE24E39408E028E045E45DE0DDCFC0
:1039B0008330E9F460916D0170916E0180916F0127
:1039C000909170010E9446224B01609169017091B3
:1039D0006A0180916B0190916C010E944622CB019B
:1039E000EE24E39408E028E04DE35DE0BECF8430B0
:1039F00009F05FCB60916D0170916E0180916F0154
:103A0000909170010E9446224B0160916901709172
:103A10006A0180916B0190916C010E944622CB015A
:103A2000EE24E39408E028E045E35DE09ECF80FDCE
:103A300020C0893CF0F460915B0170915C01072E1D
:103A4000000C880B990B0E947E2220915501309129
:103A5000560140915701509158010E94D521609321
:103A600055017093560180935701909358010E941D
:103A7000090D609155017091560180915701909107
:103A800058010E9446224B016091510170915201F0
:103A900080915301909154010E944622CB01EE2463
:103AA000E39400E120E145EF5CE0B4010E944A0CA0
:103AB00017CB893C08F051C00E94032123E030E07D
:103AC00040E050E00E9471216B018091590190917A
:103AD0005A018C9DB0018D9D700D9C9D700D11241F
:103AE000072E000C880B990B0E947E222091510119
:103AF0003091520140915301509154010E94D521BF
:103B0000609351017093520180935301909354013B
:103B100080915B0190915C018C9DB0018D9D700D39
:103B20009C9D700D1124072E000C880B990B0E9490
:103B30007E222091550130915601409157015091BC
:103B400058010E94D52160935501709356018093CE
:103B50005701909358010E94090D60915501709191
:103B6000560180915701909158010E9446224B01C5
:103B700060915101709152018091530190915401D3
:103B80000E944622CB01EE24E39400E120E145E1CE
:103B90005DE08BCF9C91981708F019CB11961C9281
:103BA000119750968D909C90092C000CAA08BB0888
:103BB00081149104A104B10439F00E940321A501EC
:103BC00094010E9471214B0180949094F601978694
:103BD00086860E9403212CE231E040E050E00E9402
:103BE00071216C59D6016C9320E030E040E053E441
:103BF00016962D933D934D935C93199752961C9373
:103C0000E6CA80E40E94AC0A882309F410CBA5011F
:103C100094016091890170918A0180918B0190914A
:103C20008C010E94D521FBCA3FEFC31AD30A08506A
:103C3000110940E1C416D10409F0DFCB17CC9091F3
:103C40000B028913BFCD41E040931701109216017A
:103C500040932B0110922A0140933F0110923E01A4
:103C600085E090E09093A6028093A502AEE1B0E0DB
:103C7000B093A402A093A3028DE792E00E94A10E4C
:103C80000E94B70A609100017091010180910201C8
:103C9000909103010E94E40C20910E0230910F02DA
:103CA000C90166E070E00E943323892B19F4C90131
:103CB0000E948B0F68EC70E088EB91E00E94660A2E
:103CC00060EA7FE080E090E00E94F2080E94D90C58
:103CD000B1E0B0935F0176CD80914C01882309F467
:103CE00008C18090440190904501A0904601B09099
:103CF000470160917D0170917E0177FF02C06F5F87
:103D00007F4F75956795072E000C880B990B0E94C5
:103D10007E22209181013091820140918301509156
:103D200084010E94D5216B017C01AC019B01C5017E
:103D3000B4010E94412287FFDCC060914001709174
:103D40004101072E000C880B990B0E947E22A501D1
:103D500094010E94D5219B01AC01C701B6010E94CC
:103D6000412287FFC6C08090480190904901A090F1
:103D70004A01B0904B0160917F017091800177FF03
:103D800002C06F5F7F4F75956795072E000C880BFB
:103D9000990B0E947E2220918501309186014091ED
:103DA0008701509188010E94D5216B017C01AC01F3
:103DB0009B01C501B4010E94412287FF9AC0609116
:103DC000420170914301072E000C880B990B0E9451
:103DD0007E22A50194010E94D5219B01AC01C7015F
:103DE000B6010E94412287FF84C060EA70E08BE048
:103DF00092E00E94660A68EB7BE080E090E00E941F
:103E0000F20800910E0210910F021093A20200938B
:103E1000A10220E030E040E05FE36091000170919A
:103E2000010180910201909103010E94D5216093CC
:103E3000000170930101809302019093030120918E
:103E4000F5013091F6012F5F3F4F263031050CF020
:103E50008BC13093F6012093F50120E030E040E083
:103E600050E40E942E23181664F420E030E040EC69
:103E70005FE32093000130930101409302015093CE
:103E80000301C801019690930F0280930E020E94D5
:103E9000520F10924C0180910E0290910F020E94DD
:103EA0008B0F60910001709101018091020190914E
:103EB00003010E94E40C0E94D90C81E090E00E9472
:103EC000EC0D0E94970AEE24E39400E320E64DE90E
:103ED0005AE06AE070E081E190E00E944A0C0E94A2
:103EE000B70A60ED77E080E090E00E94F20810925F
:103EF0004C0180915F01882309F485C080905101B5
:103F000090905201A0905301B090540160917D01B6
:103F100070917E0177FF02C06F5F7F4F7595679547
:103F2000072E000C880B990B0E947E2220918101A4
:103F30003091820140918301509184010E94D521EA
:103F40006B017C01AC019B01C501B4010E944122BF
:103F500087FF59C060914D0170914E01072E000CF2
:103F6000880B990B0E947E22A50194010E94D52105
:103F70009B01AC01C701B6010E94412287FF43C0EB
:103F80008090550190905601A0905701B090580133
:103F900060917F017091800177FF02C06F5F7F4F5A
:103FA00075956795072E000C880B990B0E947E2251
:103FB00020918501309186014091870150918801BF
:103FC0000E94D5216B017C01AC019B01C501B401AC
:103FD0000E94412287FF17C060914F0170915001EC
:103FE000072E000C880B990B0E947E22A5019401DC
:103FF0000E94D5219B01AC01C701B6010E9441225C
:1040000087FD0E94000E8091850190918601A0910C
:104010008701B09188018E839F83A887B98700911B
:1040200081011091820120918301309184010E87DA
:104030001F87288B398B80917D0190917E0197FDA0
:10404000019695958795C0907F01D0908001D7FE0D
:1040500003C01FEFC11AD10AD594C7949C01990FD0
:10406000440B550B2A873B874C875D870D2C000C32
:10407000EE08FF08D10152968C915297882309F4DB
:1040800066C016964D905D906D907C9019976A85EC
:104090007B858C859D850E947E222E853F85488963
:1040A00059890E94D5214B015C01AC019B01C301E0
:1040B000B2010E94412287FF4AC0F10162817381EF
:1040C000072E000C880B990B0E947E22A3019201FF
:1040D0000E94D5219B01AC01C501B4010E9441227F
:1040E00087FF35C0D1011A964D905D906D907C9000
:1040F0001D97C701B6010E947E222E813F8148850F
:1041000059850E94D5214B015C01AC019B01C30183
:10411000B2010E94412287FF1AC0F10164817581BA
:10412000072E000C880B990B0E947E22A30192019E
:104130000E94D5219B01AC01C501B4010E9441221E
:1041400087FF05C00E94000ED10152961C92B4E177
:104150002B0E311CE0E4F1E0E215F30509F08ACF03
:104160000E94B70A0C94601521E030E072CE8F9265
:104170009F92AF92BF92CF92DF92EF92FF92CF9336
:10418000DF93EC01688179818A819B8161157105DA
:104190008105910521F464E279ED8BE597E02DE14D
:1041A00033EF41E050E00E94712149015A019B0127
:1041B000AC01A7EAB1E40E9490216B017C01ACEE56
:1041C000B4EFA50194010E949E21C60ED71EE81EE1
:1041D000F91EF7FE06C081E0C81AD108E10880E8A0
:1041E000F80AC882D982EA82FB82C701B6019F77AA
:1041F000DF91CF91FF90EF90DF90CF90BF90AF9085
:104200009F908F9008958F929F92AF92BF92CF927E
:10421000DF92EF92FF9260911E0270911F028091D7
:10422000200290912102611571058105910521F40B
:1042300064E279ED8BE597E02DE133EF41E050E06A
:104240000E94712149015A019B01AC01A7EAB1E426
:104250000E9490216B017C01ACEEB4EFA5019401AA
:104260000E949E21C60ED71EE81EF91EF7FE06C04C
:1042700081E0C81AD108E10880E8F80AC0921E025D
:10428000D0921F02E0922002F0922102C701B601F3
:104290009F77FF90EF90DF90CF90BF90AF909F906F
:1042A0008F90089560931E0270931F0280932002E6
:1042B000909321020895F999FECF92BD81BDF89A9D
:1042C000992780B50895262FF999FECF1FBA92BD80
:1042D00081BD20BD0FB6F894FA9AF99A0FBE0196E7
:1042E0000895052E97FB1EF400940E94882157FD27
:1042F00007D00E94A32107FC03D04EF40C94882120
:1043000050954095309521953F4F4F4F5F4F089501
:1043100090958095709561957F4F8F4F9F4F089531
:104320000E94C521A59F900DB49F900DA49F800D64
:10433000911D11240895B7FF0C9490210E949021A3
:10434000821B930B0895A1E21A2EAA1BBB1BFD0131
:104350000DC0AA1FBB1FEE1FFF1FA217B307E40764
:10436000F50720F0A21BB30BE40BF50B661F771FBC
:10437000881F991F1A9469F760957095809590959C
:104380009B01AC01BD01CF010895A29FB001B39F75
:10439000C001A39F700D811D1124911DB29F700D4E
:1043A000811D1124911D08955058BB27AA270E94F2
:1043B000EC210C94F4220E94E62238F00E94ED22B7
:1043C00020F039F49F3F19F426F40C94E3220EF404
:1043D000E095E7FB0C94DD22E92F0E94052358F3BA
:1043E000BA17620773078407950720F079F4A6F5DA
:1043F0000C9427230EF4E0950B2EBA2FA02D0B0161
:10440000B90190010C01CA01A0011124FF27591B19
:1044100099F0593F50F4503E68F11A16F040A22F1F
:10442000232F342F4427585FF3CF46953795279590
:10443000A795F0405395C9F77EF41F16BA0B620B8F
:10444000730B840BBAF09150A1F0FF0FBB1F661FD6
:10445000771F881FC2F70EC0BA0F621F731F841F19
:1044600048F4879577956795B795F7959E3F08F03F
:10447000B0CF9395880F08F09927EE0F9795879501
:1044800008950E94B92208F481E008950E944D2207
:104490006894B1110C94282308950E940D2388F08C
:1044A0009F5798F0B92F9927B751B0F0E1F0660FF8
:1044B000771F881F991F1AF0BA95C9F714C0B13039
:1044C00091F00E942723B1E008950C942723672FD1
:1044D000782F8827B85F39F0B93FCCF38695779568
:1044E0006795B395D9F73EF4909580957095619551
:1044F0007F4F8F4F9F4F0895E89409C097FB3EF47C
:1045000090958095709561957F4F8F4F9F4F992320
:10451000A9F0F92F96E9BB279395F695879577959E
:104520006795B795F111F8CFFAF4BB0F11F460FF5E
:104530001BC06F5F7F4F8F4F9F4F16C0882311F0B6
:1045400096E911C0772321F09EE8872F762F05C0CA
:10455000662371F096E8862F70E060E02AF09A9565
:10456000660F771F881FDAF7880F9695879597F95A
:104570000895990F0008550FAA0BE0E8FEEF1616F4
:104580001706E807F907C0F012161306E407F50747
:1045900098F0621B730B840B950B39F40A2661F0BB
:1045A000232B242B252B21F408950A2609F4A1405E
:1045B000A6958FEF811D811D089597F99F6780E86B
:1045C00070E060E008959FEF80EC089500240A9465
:1045D0001616170618060906089500240A941216DE
:1045E0001306140605060895092E0394000C11F411
:1045F000882352F0BB0F40F4BF2B11F460FF04C0BE
:104600006F5F7F4F8F4F9F4F089557FD9058440F16
:10461000551F59F05F3F71F04795880F97FB991F21
:1046200061F09F3F79F087950895121613061406DE
:10463000551FF2CF4695F1DF08C01616170618066B
:10464000991FF1CF86957105610508940895E89446
:10465000BB2766277727CB0197F908950E94B922D7
:1046600008F48FEF089597FB072E16F4009407D0F7
:1046700077FD09D00E94472307FC05D03EF49095B2
:1046800081959F4F0895709561957F4F0895AA1B5E
:10469000BB1B51E107C0AA1FBB1FA617B70710F02D
:1046A000A61BB70B881F991F5A95A9F7809590955F
:1046B000BC01CD010895EE0FFF1F0590F491E02D90
:0646C0000994F894FFCFFD
:1046C6000000C03F00000800080000008042000013
:1046D6008041FFFF01000000000008000800000004
:1046E600804200008041FFFF01000000000008003A
:1046F60008000000804200008041FFFF010000002A
:10470600080008000000F0420000004200100010FF
:10471600000000004300000042010001000100000B
:104726000000000000000000000000004300000040
:104736004200000000000000000000000008000821
:104746000000000043000000420000803F0000809F
:104756003F000080420000804100000000804200CF
:1047660000804100000000804200008041000000FF
:10477600008042000080410000000080420000806E
:1047860041000000008042000080410000000080DF
:10479600420000804100000000804200008041008D
:1047A60000000080420000804100000000804200BE
:1047B600008041000001000102030403040302011A
:1047C6000201020303040380000000050A0A010037
:1047D6000301FFFFFFFF00E10000000000000100F1
:1047E600000005141E2D3201020304030403020116
:1047F6000201020303040300C180810000000000DF
:1048060000008D072509AE07A307F407B207D007F6
:1048160000000000E70BA0082F0E2E0E4A554D5043
:1048260020424F593200207265636F72643A20004D
:1048360050726573732041206F72204200456E6589
:0C4846006D792061707065617273210053
:00000001FF
