:100000000C9493070C94BB070C94BB070C94BB0790
:100010000C94BB070C94BB070C94BB070C94BB0758
:100020000C94BB070C94BB070C9446110C94B511AF
:100030000C94BB070C94BB070C94BB070C94BB0738
:100040000C94BB070C94BB070C94BB070C94BB0728
:100050000C94BB070C94BB070C94BB070C94E713E0
:100060000C94BB070C94BB070C94BB070C94BB0708
:100070000C94BB070C94BB070C94BB070C94BB07F8
:100080000C9431140C94BB070C94BB070C94BB0765
:100090000C94BB070C94BB070C94BB070C94BB07D8
:1000A0000C94BB070C94BB070C94BB070000000F1B
:1000B000000000000000000000000001F9F0000056
:1000C000000000000000000007001C00000000000D
:1000D0000000000000083FE20000000000000000F7
:1000E000000010C0390000000000000000000021E6
:1000F000823C80060000000000000000410624C091
:10010000090000000000000000811F064010800070
:1001100000C000000001813E02401080000120006C
:100120000000010338032009000002100000000154
:1001300002380120060000021000000001027001D8
:10014000300000000120000000010270019000005A
:100150000000C000000001027000900000000000DC
:1001600000000001027000500000000000000000CC
:1001700001027800500000000000000000010308A8
:10018000005000000000000000000081000050004E
:100190000000000000000000808000D0000000008F
:1001A000000000000080C00090000000000000007F
:1001B000000040400310000000000000000000406C
:1001C0003FFE100000000000000000004000001092
:1001D0003E1FC3FF3F8000000060000020000000C1
:1001E0000000000000007C00007000000000000023
:1001F000000001A3F3F0D0000003FF0000000001A5
:10020000201E001000000000000000000F00000091
:100210003F000000000000000008C00001C1C00055
:1002200003FF000000001870038000300000000091
:10023000000000680FFE0000180000000000000031
:1002400046000000000C00000000000000C3800019
:1002500000000600000000000000B0FFC000000227
:10026000000000000000009C0000000002000000F0
:1002700000000000878FF80000020000000000006E
:1002800000000000003E5B4F5B3E3E6B4F6B3E1C30
:100290003E7C3E1C183C7E3C181C577D571C1C5E47
:1002A0007F5E1C00183C1800FFE7C3E7FF0018241E
:1002B0001800FFE7DBE7FF30483A060E26297929C8
:1002C00026407F050507407F05253F5A3CE73C5AFD
:1002D0007F3E1C1C08081C1C3E7F14227F22145FDA
:1002E0005F005F5F06097F017F006689956A606035
:1002F00060606094A2FFA29408047E040810207E2F
:10030000201008082A1C08081C2A08081E101010B3
:10031000100C1E0C1E0C30383E3830060E3E0E06F9
:10032000000000000000005F00000007000700144C
:100330007F147F14242A7F2A12231308646236490B
:100340005620500008070300001C224100004122F3
:100350001C002A1C7F1C2A08083E080800807030F8
:100360000008080808080000606000201008040267
:100370003E5149453E00427F40007249494946216D
:1003800041494D331814127F1027454545393C4AE1
:1003900049493141211109073649494936464949F8
:1003A000291E000014000000403400000008142240
:1003B00041141414141400412214080201590906AE
:1003C0003E415D594E7C1211127C7F494949363EAF
:1003D000414141227F4141413E7F494949417F0995
:1003E0000909013E414151737F0808087F00417FA0
:1003F00041002040413F017F081422417F4040409E
:10040000407F021C027F7F0408107F3E4141413E35
:100410007F090909063E4151215E7F0919294626B7
:100420004949493203017F01033F4040403F1F20BB
:1004300040201F3F4038403F631408146303047892
:1004400004036159494D43007F41414102040810B2
:1004500020004141417F04020102044040404040ED
:10046000000307080020545478407F28444438385B
:1004700044444428384444287F38545454180008CD
:100480007E090218A4A49C787F0804047800447DA7
:1004900040002040403D007F1028440000417F4044
:1004A000007C047804787C08040478384444443898
:1004B000FC1824241818242418FC7C080404084878
:1004C0005454542404043F44243C4040207C1C20C9
:1004D00040201C3C4030403C44281028444C909024
:1004E000907C4464544C440008364100000077007E
:1004F00000004136080002010204023C2623263C8B
:100500001EA1A161123A4040207A38545455592115
:1005100055557941215454784121555478402054FF
:100520005579400C1E52721239555555593954544B
:10053000545939555454580000457C410002457DBA
:10054000420001457C40F0292429F0F0282528F0BC
:100550007C545545002054547C547C0A097F493210
:10056000494949323248484832324A4848303A418B
:1005700041217A3A42402078009DA0A07D39444430
:1005800044393D4040403D3C24FF2424487E4943BB
:10059000662B2FFC2F2BFF0929F620C0887E09032C
:1005A00020545479410000447D413048484A323853
:1005B0004040227A007A0A0A727D0D19317D26297F
:1005C000292F28262929292630484D402038080877
:1005D000080808080808382F10C8ACBA2F102834AB
:1005E000FA00007B000008142A142222142A14089E
:1005F0009500220095AA005500AAAA55AA55AA005E
:100600000000FF00101010FF00141414FF00101061
:10061000FF00FF1010F010F0141414FC001414F775
:1006200000FF0000FF00FF1414F404FC1414171062
:100630001F10101F101F1414141F00101010F000B2
:100640000000001F101010101F10101010F01000EC
:100650000000FF101010101010101010FF100000FC
:1006600000FF140000FF00FF00001F10170000FC37
:1006700004F414141710171414F404F40000FF0009
:10068000F714141414141414F700F7141414171492
:1006900010101F101F141414F4141010F010F00098
:1006A000001F101F0000001F14000000FC140000B9
:1006B000F010F01010FF10FF141414FF141010109D
:1006C0001F00000000F010FFFFFFFFFFF0F0F0F050
:1006D000F0FFFFFF0000000000FFFF0F0F0F0F0FE4
:1006E00038444438447C2A2A3E147E02020606021C
:1006F0007E027E0263554941633844443C04407E97
:10070000201E2006027E020299A5E7A5991C2A490F
:100710002A1C4C7201724C304A4D4D30304878489A
:1007200030BC625A463D3E494949007E0101017E86
:100730002A2A2A2A2A44445F444440514A444040D9
:10074000444A51400000FF0103E080FF0000080818
:100750006B6B083612362436060F090F0600001898
:10076000180000001010003040FF0101001F0101BF
:100770001E00191D1712003C3C3C3C00000000000C
:10078000F0F89C8E8783878E9CF8F00000FEFF03B4
:1007900003030303070EFCF80000FEFF030303033B
:1007A00003070EFCF80000FFFF000000000000003F
:1007B000FFFF0000FEFF8383838383C7EE7C380046
:1007C00000F8FC0E07030303070EFCF800003F7F50
:1007D000E0C08080C0E07F3FFFFF01010101010117
:1007E00001FFFF0000FFFF0C0C0C0C1C3E77E3C167
:1007F00000007FFFC0C0C0C0C0E0703F1F00001FEE
:100800003F70E0C0C0C0E0703F1F00007FFFC1C16B
:10081000C1C1C1E3773E1C00001F3F70E0C0C0C0F3
:10082000E0703F1F000000000001FFFF010000001A
:10083000D5F08D14A1C881CFD9F1AF200000000000
:1008400000000000000000000000000000000000A8
:100850000000000000000000000000000000000098
:100860000000000000000000000000000000000088
:100870000000000000000000000000000000000078
:100880000000000000000000000000000000000068
:100890000000000000000000000000000000000058
:1008A0000000000000000000000000000000000048
:1008B0000000000000000000000000000000000038
:1008C0000000000000000000000000000000007EAA
:1008D0000FFF0600FF83FFC0000000FF0FFF0F00A7
:1008E000FFE3FFC00000018380600F00C0601800BC
:1008F0000000018180600F00C0601800000003004C
:1009000080601B80C03018000000038000601980E8
:10091000C06018000000018000603980C0601800CD
:10092000000001E0006030C0C0E01800000000FEE0
:10093000006030C0FFC018000000001F806070C061
:10094000FF8018000000000380606060C1C01800D4
:1009500000000000C0607FE0C0C018000000000080
:10096000C060FFF0C060180000000300C060C0302D
:10097000C060180000000380C060C030C060180074
:10098000000001C180618018C0301800000000FF25
:1009900080618018C03018000000007E006180185F
:1009A000C03018000000000000000000000000003F
:1009B0000000000000000000000000000000000037
:1009C0000000000000000000000000000000000027
:1009D0000000000000000000000000000000000017
:1009E0000000000000000000000000000000000007
:1009F00000000000000000000000000000000000F7
:100A000000000000000000000000000000000000E6
:100A100000000000000000000000000000000000D6
:100A200000000000000000000000000000000000C6
:100A300000000000000000000000000000000000B6
:100A400000000000000000000000000000000000A6
:100A50000000000000000000000000000000000096
:100A60000000000000000000000000000000000086
:100A7000000000000000000000000000002601A0AF
:100A8000005D01A0000601A0002601A0000080007A
:100A90000000000000000000000000000000000056
:100AA0000000000000000000000000000000000046
:100AB0000000000000000000000000000000000036
:100AC0000007C1003FE0300FF0000000001FE10010
:100AD0003FC0700C7800000000383100200078081A
:100AE0001800000000303100200058080C00000001
:100AF000006001002000C8080C0000000060010038
:100B00002000CC0818000000006001003F818C0C20
:100B100078000000006001003FC1860FE000000087
:100B200000600100200106083000000000600100A4
:100B30002003FE0810000000006011002003FF08E1
:100B400018000000003031002002030818000000E7
:100B500000383100200601080C000000001FE1FFF2
:100B60003FC601880C0000000007C1FF3FE4018878
:100B70000400000000000000000000000000000071
:100B80000000000000000000000000000000000065
:100B90000000000000000000000000000000000055
:100BA0000000000000000000000000000000000045
:100BB0000000000000000000000000000000000035
:100BC0003FFC000000000000007E000061E7000024
:100BD0000000000000760000873DC000000000001B
:100BE00000F000011C024000000000000090000323
:100BF0002002200000000000008800066181100033
:100C00000000000000CFE004C3819000000000005D
:100C100000FF70048E00980000000000007E300C81
:100C20009E00C8000000000000031009900048006A
:100C30000000000000013009100048F00000000032
:100C40000000B0091800489800000000000CE00502
:100C50001800488800000000000FC0059800480EEA
:100C600000000000000300048800580B0000000092
:100C700000000004C400D1190000000000000006BC
:100C80006001B1F30000000000000002200360E2F8
:100C900080000000000000033002C020800000003F
:100CA0000000000190018043C00000000000003EF1
:100CB000FE0FFC4240000000000001E3A3F807E043
:100CC000800000000000010000000081800000B8EA
:100CD00001A0008801A000B801A0008801A0000BBD
:100CE00002A00000800B02A000EE01A000B801A04D
:100CF00000EE01A0000B02A00000807E81A5817E95
:100D00003C2466609090603C4241D201E2211C008C
:100D10000060959F60000000001FC03FF07FF87FDB
:100D2000F86F78463C6F7C7FFC7FFE6FBE306F1A99
:100D3000CF020F060F00070404080C141A2DD63F2B
:100D4000FF3BEF3BEF3FFE1E3C0EBC47F038067604
:100D5000DE063807F80E1C00000F00DFD8BFECAE2F
:100D6000E42EF47FF0E3F87FFC41FE9C7FC0EF406F
:100D7000C7418D3E1B00170540074005E00FE20C00
:100D80002207C223C27282DFE2F537F66AE7C06744
:100D9000E00D3018301C1820C04020206010C01F0B
:100DA000803FC026607FF03FD81FDC011401F601B0
:100DB0008E03F6070F07FF00000F001FC03FE02E55
:100DC000E02EF07FB0E7787FBC5DFE007F00EF0093
:100DD000C7018D0011000607F00D781FFC1BBC1C1D
:100DE0007ECFF6E7F733AD1F5B0F670F9E07FC035F
:100DF000F000600038000C703817603FE87FFC6737
:100E00003EC71ECF9EF8FE7DFE377418EC7F9E6FA6
:100E1000FBC8119C3DDFFA07C01FF03FFC777A77D3
:100E20007ADFCAFFFA5FDC4F9E203E107C1DF80F70
:100E3000E002401E781E78300C581A6BD4342C6EA9
:100E4000725E7AEBD7A995ADB577EE6DB62DB41A73
:100E5000580C22074F07DFFF81A995A99581FF7ED6
:100E600081A599A581817EFF8181BD818181FFFF5F
:100E70008189BD898981FF1824424A52422418FF82
:100E800081FF81FF81FF81FF81FF81FF81FFFFFFE4
:100E900081FF81FFFFFFFFFF81FFFFFFFFFFFFFFDC
:100EA000FFFFFFFFFFFFFF1E3F7EFCFC7E3F1E0893
:100EB0000B0002020200000904000001020200000F
:100EC0000524001001052401010104240206052463
:100ED0000600010705810310004009040100020A11
:100EE00000000007050202400000070583024000E1
:100EF000000403090412010002EF020140412336FD
:100F00008000010102030141726475696E6F204C1B
:100F10004C430041726475696E6F204C656F6E6161
:100F200072646F00C51411241FBECFEFDAE0DEBF7C
:100F3000CDBF12E0A0E0B1E0E6EBFCE402C005901A
:100F40000D92A43AB107D9F727E0A4EAB2E001C0B4
:100F50001D92A234B207E1F717E0C3E9D7E004C05D
:100F60002197FE010E945326C239D107C9F70E947A
:100F7000F2140C9459260C9400008091B802089544
:100F8000EEEDF2E0A0E0B8E000800EBC8111012C93
:100F90001197A0FDFDCF0192B9F70DB40895FC01A2
:100FA0008091DD02882311F13FB7F89482E08093AD
:100FB000E9002091F200822F90E01816190614F42F
:100FC00081E090E0882339F0289844E64093DC02E1
:100FD0004091F1004083222339F02091F200211149
:100FE00003C02BE62093E8003FBF08958FEF9FEFEB
:100FF00008952FB7F89483E08093E9009091E8007A
:10100000892F807295FF04C09091F20080E4891BC3
:101010002FBF08958091D40281110DC082E080938A
:10102000D00284E08093D1021092D3021092D202B7
:1010300081E08093D40280ED92E00895CF93DF9316
:101040001F92CDB7DEB76983DC01ED91FC91028080
:10105000F381E02D41E050E0BE016F5F7F4F0995C5
:101060000F90DF91CF91089583E08093E900809104
:10107000F200882319F08AE38093E80008950E9423
:10108000F90790E00895CF93DF931F92CDB7DEB7B5
:10109000FC018485958597FD08C02FEF3FEF3587CC
:1010A00024870F90DF91CF910895CE0101960E9481
:1010B000CF07019719F4898190E0F3CF8FEF9FEF6D
:1010C000F0CF0F931F93CF93DF931F92CDB7DEB76F
:1010D0008C01FC018485958597FF0BC0CE0101969C
:1010E0000E94CF07019771F4898190E0F8019587FC
:1010F0008487F801848595850F90DF91CF911F91AA
:101100000F9108958FEF9FEFF1CFFC0184859585B6
:1011100097FD0BC09FB7F89482E08093E90080911F
:10112000F2009FBF90E0019608959FB7F89482E087
:101130008093E9008091F2009FBF90E00895409174
:10114000CA025091CB022091C8023091C9024217C5
:101150005307B4F49091E8009570E1F39091E800A2
:1011600092FD19C08093F1008091CA029091CB0248
:1011700001968F739927892B19F48EEF8093E800DD
:101180008091CA029091CB0201969093CB028093FA
:10119000CA0281E0089580E00895DF92EF92FF9205
:1011A0000F931F93CF93DF93D82E8A01EB017B011E
:1011B000E40EF51ECE15DF0559F0D7FE12C0FE0174
:1011C00084910E949F0821968111F4CF0FEF1FEFA9
:1011D000C801DF91CF911F910F91FF90EF90DF90A9
:1011E00008958881EECF0F931F93CF93DF931F92C3
:1011F000CDB7DEB782E0898342E450E06FEA7EE05B
:1012000080E80E94CD080E940A08DC0112960D9128
:101210001C910115110589F0D801ED91FC91028016
:10122000F381E02DBE016F5F7F4FC801099597FDE7
:1012300004C0F80100851185ECCF89810F90DF9102
:10124000CF911F910F910895615030F02091F100DE
:10125000FC0120830196F8CF289884E68093DC0275
:101260000895AF92BF92CF92DF92EF92FF920F93C9
:101270001F93CF93DF936C017B018B01040F151F2C
:10128000EB015E01AE18BF08C017D10759F0699194
:10129000D601ED91FC910190F081E02DC6010995F8
:1012A000892B79F7C501DF91CF911F910F91FF90A5
:1012B000EF90DF90CF90BF90AF9008953FB7F89434
:1012C0008091B4029091B502A091B602B091B7029C
:1012D00026B5A89B05C02F3F19F00196A11DB11D91
:1012E0003FBFBA2FA92F982F8827BC01CD01620FCD
:1012F000711D811D911D42E0660F771F881F991F88
:101300004A95D1F708958F929F92AF92BF92CF9254
:10131000DF92EF92FF926B017C010E945E094B010C
:101320005C01C114D104E104F104B9F00E945E092A
:10133000681979098A099B09683E734081059105FE
:1013400080F321E0C21AD108E108F10888EE880E86
:1013500083E0981EA11CB11CE4CFFF90EF90DF90BA
:10136000CF90BF90AF909F908F9008958F929F9253
:10137000AF92BF92CF92DF92EF92FF920F931F93A3
:10138000CF93DF936C017B018A0180912E02882329
:1013900009F45CC08091DD02882309F457C0809174
:1013A000CF0280FF05C08091E00082608093E00062
:1013B000E801B12C8AEFA82E93E0892E2AE3922E21
:1013C000209711F4BB20D9F10E94F90781110AC0BE
:1013D000AA94AA20D9F161E070E080E090E00E9438
:1013E0008309EECF8C171D0611F00CF08C2F9FB7E0
:1013F000F8948092E9002091E80025FD02C09FBF8B
:10140000DFCF282F30E0C21BD30BF701815020F033
:1014100041914093F100FACFE20EF31EBB2021F080
:101420009092E800B12CEBCF8091E80085FDE7CFEA
:101430009092E800BB24B394209709F3F3CF5D9812
:1014400084E68093CE02101611063CF081E090E015
:10145000F6019383828310E000E0C801DF91CF9111
:101460001F910F91FF90EF90DF90CF90BF90AF90C2
:101470009F908F9008952091AC02E091AA02F09184
:10148000AB02CF0102969093AB028093AA02222373
:1014900019F0859194910895808191810895CF925A
:1014A000DF92EF92FF92CF93DF930E943B0A811568
:1014B00020E8920791F4809171008D7F80937100F4
:1014C00010929100469847981092A902DF91CF910F
:1014D000FF90EF90DF90CF90089521E02093A90234
:1014E000813020E8920751F48091A7029091A802E0
:1014F0009093AB028093AA020E943B0A97FD05C01D
:101500002091A602222309F454C02091A5022111A2
:1015100050C021E02093AD02EC01DF77209709F065
:101520004BC081E08093AE0246983FE9C32E3FE076
:10153000D32EE12CF12CCAEFD0E0E0913C07F091E2
:101540003D070995811103C081E08093AE0280912F
:10155000AD02882329F08091AE02882309F43FC0B0
:1015600047980E943B0A0097F1F19C01DE010E941E
:10157000BD24DC01CB0129E0B595A795979587950A
:101580002A95D1F7109290002AE020939100D092F2
:101590009900C09298008093AF029093B002A093FC
:1015A000B102B093B20280917100826080937100A9
:1015B0008DCF1092AD02B0CF9E0150E040E060E4CC
:1015C00072E48FE090E00E94692469017A0181E071
:1015D000C81AD108E108F1081092AE02AECF4699C0
:1015E000BFCF479ABECF8FEF9FEFDC01CBCF9C01DF
:1015F000E1E7F0E090819D7F908381E08093AC02F1
:101600003093AB022093AA023093A8022093A70242
:101610000C944F0A9C01E1E7F0E090819D7F90835C
:101620001092AC02EEE2F7E0F093AB02E093AA0274
:10163000F093A802E093A70231832083738362832F
:1016400080E090E8958384830C944F0A2D9A089546
:10165000BC0190E080E00C9483098FB18095807F7D
:10166000669B88601C9B8460089580E0EEEDF2E04C
:1016700081118FEF0024819381938193819303944F
:10168000D1F71092BC021092BB021092BE021092CF
:10169000BD020895CF93C82F0E942D0B982F9C2335
:1016A00081E09C1380E0CF91089580E00C94C00706
:1016B0002F923F924F925F926F927F928F929F9262
:1016C000AF92BF92CF92DF92EF92FF920F931F9350
:1016D000CF93DF9300D000D01F92CDB7DEB7E98261
:1016E000A22EB12C9501280F391F121613060CF0EB
:1016F000B3C0803891050CF0AFC09B01200F311DA5
:10170000121613060CF0A8C0603471050CF0A4C0CA
:101710009B0177FF04C022273327261B370B277036
:101720003327DB0177FD1796F3E0B595A795FA957A
:10173000E1F777FF07C0119768E070E0FB01E21B5B
:10174000F30B9F01069506950695402E512CBD0181
:101750007695762F662777956795680F791F625281
:101760007D4F8A01AD01E8E0F0E04F01821A930A53
:101770004F3FFFEF5F070CF45FC07C011B821A82B2
:101780003B01F0E86F0E711CF7FC44C04F3F54075B
:1017900009F498C0CA80DB80C60ED71EF6012080EF
:1017A000EA81FB81E00FF11FFD83EC83F981F130C9
:1017B00009F06AC0EC81FD813490E32D022E01C056
:1017C000EE0F0A94EAF72E2AF60120822115310540
:1017D00009F147305105F1F0CA80DB80C60CD71CF7
:1017E000F6012080EA81FB81E00FF11FFD83EC838D
:1017F000F981F13009F057C0EC81FD813490E32D7F
:10180000F0E0082C02C0F595E7950A94E2F72E2A3D
:10181000F6012082EA81FB813196FB83EA83FFEFA8
:10182000EF1AFF0AEA81FB81EA15FB052CF4E0E8D8
:10183000EE16F10409F0A8CF4F5F5F4F60587F4F5D
:101840000A0D1B1DFA01EA1BFB0BE415F50524F438
:101850004830510509F08CCF0F900F900F900F90EA
:101860000F90DF91CF911F910F91FF90EF90DF903C
:10187000CF90BF90AF909F908F907F906F905F9030
:101880004F903F902F900895EC81FD813490E32D8F
:10189000F0E0022E02C0EE0FFF1F0A94E2F7E0957F
:1018A000F0952E2291CFEC81FD813490E32DF0E074
:1018B000082C02C0F595E7950A94E2F7E095F095BB
:1018C0002E22A6CF2115310509F086CFA3CF80386F
:1018D0009105B8F460347105A0F420E191E061FD58
:1018E00094E060FD990F62FD9295687F269FD0017C
:1018F0001124A80FA252BD4F8C9140FF03C0892B29
:101900008C93089590958923FBCF8F929F92AF92ED
:10191000BF92CF92DF92EF92FF920F931F93CF93DC
:10192000DF936D3089F0C090BB02D090BC026A306A
:10193000D1F41092BE021092BD0288E0C80ED11CF4
:10194000D092BC02C092BB0281E090E0DF91CF91C7
:101950001F910F91FF90EF90DF90CF90BF90AF90CD
:101960009F908F9008950091BD021091BE02E5E016
:101970006E9FE0011124C058DD4F4801F12CF5E0C5
:10198000E12CFF1629F0CE010196FE01E490EC0156
:10199000B12CA12C4E2D4170B6016A0D7B1DC401E6
:1019A0000E94670CE694FFEFAF1ABF0A88E0A81602
:1019B000B10481F7F394EFEF8E1A9E0AF6E0FF125E
:1019C000DECF0A5F1F4F1093BE020093BD02BCCF53
:1019D0002F923F924F925F926F927F928F929F923F
:1019E000AF92BF92CF92DF92EF92FF920F931F932D
:1019F000CF93DF9300D01F92CDB7DEB7C22ED12C8C
:101A00009601280F391F121613060CF05AC08038A1
:101A100091050CF056C010E09801260F371F1216E2
:101A200013060CF04EC0603471050CF04AC0E98218
:101A30003A017B836A832C01160127E0220E311CB8
:101A400093E0359427949A95E1F75B01912C812CD2
:101A5000C5012A813B81821B930B801791078CF56E
:101A6000F12CE12CEC14FD0434F5F70183E0F5953D
:101A7000E7958A95E1F7E80DF91DE60DF71DE4916C
:101A8000C7018770992720E830E002C03595279577
:101A90008A95E2F7C901F0E0E223F923EF2B39F050
:101AA0004981B501C701840D951D0E94670C3FEF68
:101AB000E31AF30AD7CF820C931C8FEFA81AB80A47
:101AC000C7CF0F900F900F90DF91CF911F910F9183
:101AD000FF90EF90DF90CF90BF90AF909F908F904E
:101AE0007F906F905F904F903F902F900895E8E324
:101AF000F2E0A8E0B2E081918D9382E0E834F8074B
:101B0000D1F708950F931F93EDE8F1E000E010E0A6
:101B100020E231E4058316832783308700E010E05C
:101B200020EA31E4018712872387348700E010E040
:101B300020EC3FE3058716872787308B618B728BFC
:101B4000838B948B81E080831F910F910895CF92B6
:101B5000DF92EF92FF92C0906601D0906701E09013
:101B60006801F090690120E030E040E251E4C701F3
:101B7000B6010E94392587FF0BC081E090E0909369
:101B80006D0180936C01FF90EF90DF90CF900895EE
:101B9000809160019091610166E370E0681B790BB0
:101BA000072E000C880B990B0E9476259B01AC0137
:101BB000C701B6010E942626181644F48FEF9FEF46
:101BC00090936D0180936C0181E0DDCF80E0DBCFED
:101BD000CF92DF92EF92FF92C0906201D0906301AA
:101BE000E0906401F090650120E030E040EA52E4CA
:101BF000C701B6010E94392587FF0BC081E090E044
:101C000090936B0180936A01FF90EF90DF90CF90EB
:101C1000089580915E0190915F0168E770E0681B14
:101C2000790B072E000C880B990B0E9476259B01DF
:101C3000AC01C701B6010E942626181644F48FEFA6
:101C40009FEF90936B0180936A0181E0DDCF80E08C
:101C5000DBCF8091790180FD24C0893C10F5609133
:101C60006C0170916D01072E000C880B990B0E947E
:101C700076259B01AC0160916601709167018091AE
:101C80006801909169010E94CD2460936601709370
:101C9000670180936801909369010E94E80D0C949C
:101CA000A70D089510921A0210921B028B30910515
:101CB00014F08AE090E080931E02E2EAF1E01086E0
:101CC0003A9682E0E630F807D1F708952F923F92D6
:101CD0004F925F926F927F928F929F92AF92BF923C
:101CE000CF92DF92EF92FF920F931F93CF93DF93E8
:101CF000CDB7DEB76A970FB6F894DEBF0FBECDBF83
:101D00002B013C0149015A01980110911401809165
:101D1000080190910901A0910A01B0910B018983FA
:101D20009A83AB83BC83409104015091050157FF16
:101D300002C04F5F5F4F5595479580910C01909180
:101D40000D01A0910E01B0910F018D839E83AF8391
:101D5000B887809106019091070197FD0196BC011B
:101D600075956795312C212CCA01550FAA0BBB0B19
:101D700089879A87AB87BC87C901330FAA0BBB0B36
:101D80008D879E87AF87B88BCB01770FAA0BBB0BD4
:101D9000898B9A8BAB8BBC8BC701FF0CAA0BBB0B3F
:101DA0008D8B9E8BAF8BB88F2A94232809F473C038
:101DB000112309F456C069857A858B859C850E941C
:101DC000762529813A814B815C810E94CD246B016B
:101DD0007C01A30192010E94262618160CF05BC01C
:101DE0006D857E858F8598890E947625A301920155
:101DF0000E94CD24A70196010E94262618160CF0F9
:101E00004AC069897A898B899C890E9476252D81AF
:101E10003E814F8158850E94CD246B017C01A50134
:101E200094010E9426261816B4F522242394312CFE
:101E30006D897E898F89988D0E947625A5019401F0
:101E40000E94CD24A70196010E94262618160CF0A8
:101E5000ABCF1092140160E570E088EB91E00E9436
:101E60000A0B812F6A960FB6F894DEBF0FBECDBF66
:101E7000DF91CF911F910F91FF90EF90DF90CF9066
:101E8000BF90AF909F908F907F906F905F904F909A
:101E90003F902F90089510E0E4CFCF938091A4025B
:101EA00081112CC00E94550BC1E0C093A40260EACE
:101EB00070E083E890E00E940A0B68EB7BE080E032
:101EC00090E00E94830910928C01109283010E947D
:101ED000770D80912102815080932102811102C0EF
:101EE000C093220260910001709101018091020172
:101EF000909103010E94820D1092A402CF91089547
:101F0000089590E080E008958F929F92AF92BF92E3
:101F10000F931F93CF93DF93CDB7DEB7A1970FB683
:101F2000F894DEBF0FBECDBF19A2423008F44AE0DC
:101F30008E010F5D1F4F842E912CB12CA12CA50179
:101F400094010E949B24E62FB901CA01EA3044F5AE
:101F5000E05DD801EE938D01232B242B252B79F7FF
:101F600090E080E0109769F0FD0101900020E9F712
:101F70003197AF014A1B5B0BBD018EE397E00E94D6
:101F80003109A1960FB6F894DEBF0FBECDBFDF9129
:101F9000CF911F910F91BF90AF909F908F90089518
:101FA000E95CD7CFCF92DF92EF92FF92CF93DF938E
:101FB0006B017C016DE28EE397E00E94850CEC01E1
:101FC00066277727CB016C197D098E099F094AE0A6
:101FD0000E94840F8C0F9D1FDF91CF91FF90EF9097
:101FE000DF90CF900895FC0101900020E9F7319730
:101FF000AF01481B590BBC018EE397E00C943109EB
:102000002F923F924F925F926F927F928F929F9208
:10201000AF92BF92CF92DF92EF920F931F93CF9325
:10202000DF93D0E0C0E084E2282E312C4424439496
:10203000512C22E3622E712C3EE1C32ED12C4CE2B6
:10204000A42EB12C56E3852E912C6EE170E080E039
:1020500090E00E9483090E94350B3092BE022092CC
:10206000BD025092BC024092BB028DE692E00E94FB
:10207000F30FEE24E39404E228E64CEA50E06CE02F
:1020800070E08EE090E00E94E80CCE010196B30172
:102090000E942B268C01EC018091B9029091BA022A
:1020A00018161906E4F4D092BE02C092BD02B09296
:1020B000BC02A092BB0287E792E00E94F30F6091FE
:1020C000B9027091BA02072E000C880B990B97FF8A
:1020D00037C00E94D20F8FE792E00E94F30F0931C0
:1020E000110564F4D092BE02C092BD029092BC026F
:1020F0008092BB0281E892E00E94F30F0E94550B90
:1021000088E00E944A0B811106C084E00E944A0BBD
:10211000882309F49ACF82E080932202DF91CF9145
:102120001F910F91EF90DF90CF90BF90AF909F9055
:102130008F907F906F905F904F903F902F90089579
:102140004AE00E94840FC7CFBC01990F880B990BFE
:1021500097FD0C94D20F4AE00C94840F8B309105BC
:1021600024F06AE070E00E942B2690936F01809328
:102170006E011092790180E090E0A8ECB2E48093C7
:10218000620190936301A0936401B09365010E9482
:10219000FB2322E230E040E050E00E946924665FC9
:1021A0007F4F8F4F9F4F0E947625609366017093FB
:1021B00067018093680190936901109270010895FE
:1021C0004F925F926F927F928F929F92AF92BF9247
:1021D000CF92DF92EF92FF920F931F93CF93DF93F3
:1021E0008C01843091053CF063E070E00E942B2666
:1021F0008C010F5F1F4FC5E1D1E08CE2882E99243E
:102200009394A12CB12CC12CD12CE12C93E4F92E68
:1022100022E2422E512C612C712C0E94FB23A5013D
:1022200094010E9469246C596883198B088B198268
:102230001A8A1B8ACE82DF82E886F9860E94FB23F7
:10224000A30192010E946924665F7F4F8F4F9F4FC9
:102250000E9476256A877B878C879D87649681E0BC
:10226000C135D807D1F6DF91CF911F910F91FF9023
:10227000EF90DF90CF90BF90AF909F908F907F9026
:102280006F905F904F9008950C9453241F920F927B
:102290000FB60F9211248F939F938091E10090913C
:1022A000E100937F9093E10083FF0FC01092E9005B
:1022B00091E09093EB001092EC0092E39093ED008C
:1022C0001092DD0298E09093F00082FF22C093E02C
:1022D0009093E9009091F200992319F09AE390937A
:1022E000E8009091CE02992341F09091CE02915056
:1022F0009093CE02911101C05D9A9091DC029923D6
:1023000041F09091DC0291509093DC02911101C058
:10231000289A84FF18C08091E2008E7E81608093AD
:10232000E2008091E1008F7E8093E1008091CF02F6
:102330008E7E80618093CF029F918F910F900FBE10
:102340000F901F90189580FFF7CF8091E2008E7E4E
:1023500080618093E2008091E1008E7E8093E100B5
:102360008091CF028E7E8160E5CF1F920F920FB6D3
:102370000F921124CF92DF92EF92FF920F931F934F
:102380002F933F934F935F936F937F938F939F937D
:10239000AF93BF93EF93FF93CF93DF93CDB7DEB7A8
:1023A0006C97DEBFCDBF1092E9008091E80083FFFB
:1023B00025C068E0CE0145960E94240982EF8093F3
:1023C000E8008D8987FF39C09091E80090FFFCCF2D
:1023D000982F907609F034C19E894F89588D2F89A6
:1023E000F88C911131C0803861F58091CD028093D5
:1023F000F1001092F1008EEF8093E8006C960FB61A
:10240000F894DEBF0FBECDBFDF91CF91FF91EF916A
:10241000BF91AF919F918F917F916F915F914F91FC
:102420003F912F911F910F91FF90EF90DF90CF90F0
:102430000F900FBE0F901F9018959EEF9093E8009D
:10244000C7CF1092F100D5CF913059F48111D3CF7D
:102450004130510581F68091CD028D7F8093CD0270
:10246000CACF933049F48111C6CF4130510519F6D6
:102470008091CD028260F2CF953041F48091E800E6
:1024800080FFFCCF20682093E300B5CF963009F0A1
:10249000A9C00B8D1C8D22E01092E9001092CB0296
:1024A0001092CA02F2122EC01092C9021092C802F3
:1024B0000E94F3081F8299E09983FA8291E09E833B
:1024C00090EA98879AEF99872091CA023091CB02BF
:1024D000275F3F4F3C832B838D831092E90010923E
:1024E000CB021092CA021093C9020093C80249E0BD
:1024F00050E0BE016F5F7F4F80E00E94CD080E94D8
:10250000F30879CF1093C9020093C8020E940A0809
:10251000DC0112960D911C910115110509F451C1B0
:10252000D801ED91FC910480F581E02DBE016B5E38
:102530007F4FC8010995009709F03EC1F801008559
:102540001185EACFF3E0FF120EC08F89882309F4CA
:1025500040C0823061F440E860E183E19FE00E9486
:102560009214811148CF81E28093EB0047CF8130F4
:1025700029F440E86BE087E09FE0F1CF833099F7E2
:102580000E940A08DC011296ED90FC908E010F5F0C
:102590001F4F6801E114F10479F0D701ED91FC912E
:1025A0000680F781E02DB801C7010995080F111DBC
:1025B000F701E084F184EECFD8011C92F60101907E
:1025C0000020E9F73197BF016C197D0940E0C60191
:1025D000C6CF61EF7EE0FB01449150E080E80E94AD
:1025E000CD0809CF973009F4BECF983021F481E0AF
:1025F0008093F10000CF993009F0FDCE837009F08F
:10260000B2CFE9E4F2E081E031E096E321912223C8
:1026100071F08093E9003093EB00DF0111972C916A
:102620002093EC009093ED008F5F873079F78EE771
:102630008093EA001092EA008F898093DD02DBCE5E
:102640008B8D9C8D1092E9001092CB021092CA02E1
:102650009093C9028093C802898D811192C08E899E
:102660009D89913A49F4813209F07DCF47E050E0ED
:1026700067E272E080E0B3CF913209F074CF833229
:1026800069F48F89988DB0E0A0E080932302909345
:102690002402A0932502B0932602ADCE803269F4C5
:1026A0008091E80082FFFCCF67E087E292E00E9421
:1026B00024098BEF8093E8009ECE823209F09BCEF6
:1026C0008F8980932E02EEEFFFE7859194918B3FE7
:1026D0009C4D51F1E0E0F8E08091270290912802B2
:1026E000A0912902B0912A02803B9440A105B10536
:1026F000F1F480912E0280FD1AC0EE3F8AE0F807C7
:1027000089F587E797E791838083809160008093C4
:10271000CC0288E19BE00FB6F894A8958093600006
:102720000FBE9093600067CEEEEFFAE0D5CF8081C8
:1027300091818737974709F05ECEA8958091600018
:102740008861809360008091CC0280936000EE3FAE
:102750002AE0F20789F08091FE0A9091FF0A9183A6
:10276000808349CE808191818737980751F2909379
:10277000FF0A8093FE0AC5CF1092FF0A1092FE0A4C
:102780003ACE0E940A08DC0112960D911C910115A7
:10279000110509F4E8CED801ED91FC910190F0818A
:1027A000E02DBE016B5E7F4FC8010995811123CEDC
:1027B000F80100851185EBCF181619060CF41BCE15
:1027C000D2CEF1E0FF12BECE65EF7EE004CF1F92C5
:1027D0000F920FB60F9211242F933F938F939F93D5
:1027E000AF93BF938091BF029091C002A091C102AC
:1027F000B091C2023091B30223E0230F2D3758F578
:102800000196A11DB11D2093B3028093BF02909346
:10281000C002A093C102B093C2028091B402909111
:10282000B502A091B602B091B7020196A11DB11DEB
:102830008093B4029093B502A093B602B093B7020E
:10284000BF91AF919F918F913F912F910F900FBEAC
:102850000F901F90189526E8230F0296A11DB11D19
:10286000D2CF1F920F920FB60F9211242F933F9346
:102870004F935F936F937F938F939F93AF93BF9388
:10288000EF93FF938091AF029091B002A091B102BB
:10289000B091B202892B8A2B8B2B09F440C0809116
:1028A000AE0281110BC088B190E4892788B980916C
:1028B000AD02882319F088B1805888B98091AF02A1
:1028C0009091B002A091B102B091B202181619060F
:1028D0001A061B069CF48091AF029091B002A09161
:1028E000B102B091B2020197A109B1098093AF0280
:1028F0009093B002A093B102B093B202FF91EF9116
:10290000BF91AF919F918F917F916F915F914F9107
:102910003F912F910F900FBE0F901F9018950E941E
:102920004F0AECCFEF92FF920F931F93CF93DF9359
:10293000F82E192FE62E042F81E0860F880F0E94B3
:102940009F0883E00E949F08CF2DD12FEC0EFD2E13
:10295000F11CCE15DF05B9F007FF13C0FE0184910D
:102960000E949F08182F80E00E949F0881232196D3
:102970008111EFCFDF91CF911F910F91FF90EF90D9
:1029800008958881EDCF81E0F5CFEEEDF6E013827A
:10299000128288EE93E0A0E0B0E084839583A68362
:1029A000B78383E592E0918380838FEF9FEF9587D4
:1029B0008487EEE3F7E01382128285E692E091834A
:1029C00080838DEB97E090933D0780933C0780E0F8
:1029D00090E890933B0780933A0746983E9A479831
:1029E0003F9A0895CF93DF93CDB7DEB769970FB6BF
:1029F000F894DEBF0FBECDBF789484B5826084BDED
:102A000084B5816084BD85B5826085BD85B58160F2
:102A100085BD80916E00816080936E001092810070
:102A2000809181008260809381008091810081602B
:102A300080938100809180008160809380008091EC
:102A400091008260809391008091910081608093D9
:102A50009100809190008160809390008091C100EE
:102A600084608093C1008091C10082608093C10026
:102A70008091C10081608093C1008091C30081601A
:102A80008093C3008091C00082608093C0008091D9
:102A9000C20081608093C20080917A00846080933C
:102AA0007A0080917A00826080937A0080917A0027
:102AB000816080937A0080917A00806880937A00A8
:102AC0001092DD021092CD021092CF028091D700B9
:102AD00081608093D70080EA8093D80089B58061B7
:102AE00089BD89B5826089BD09B400FEFDCF61E072
:102AF00070E080E090E00E9483098091D8008F7C94
:102B000080618093D8008091E000807F8093E00016
:102B10008091E1008E7E8093E1008DE08093E20061
:102B2000559A209A81EC80937C0085B1806F85B99D
:102B300084B1877E84B984B1876E84B95E9A5F98C8
:102B40008AB1806D8AB9769A6E9881B3806F81BBA5
:102B5000899880B38D7080BB80E58CBD81E08DBD90
:102B600085E090E00E94280B5F9A85E090E00E944B
:102B7000280B5E985C98E0E3F8E08DE398E0249100
:102B80002EBD00000DB407FEFDCF31968E179F07B6
:102B9000B1F75C9A81E88093640080916500816060
:102BA000809365000E94550B80E80E944A0B8823A1
:102BB000A9F05C9885EA8EBD00000DB407FEFDCF3C
:102BC0005C9A2E982F982D98809164008062809353
:102BD000640081E083BF889513BEFCCF84E00E942F
:102BE0004A0B882309F448C02D9884E80E944A0BB8
:102BF0008823E1F00E94260B88EC90E00E94280BCD
:102C00002F9882E090E00E9453248F3F29F06FEFCD
:102C100082E090E00E945B2484EF91E00E94280B08
:102C20002F9A84E80E944A0B8111FBCF84E10E9415
:102C30004A0B8823E1F00E94260B88EC90E00E946A
:102C4000280B2E9882E090E00E945324882329F0DC
:102C500060E082E090E00E945B2484EF91E00E94BB
:102C6000280B2E9A84E10E944A0B8111FBCF88EC3D
:102C700090E00E94280BB2CF0E94260B82E090E0E9
:102C80000E944411882309F478C03E9A3F9A81E05B
:102C90008093B80281E090E00E944411182F1470D4
:102CA00081FF10C011112E98F1EFCF2EDD24DA94A0
:102CB00080E40E944A0B882309F464C02E9A2F9A5C
:102CC0000E94260B82E390E00E94280B0E942D0BAD
:102CD0008111F8CF0E9400102FB7F8948091BF02A5
:102CE0009091C002A091C102B091C2022FBF809307
:102CF000C3029093C402A093C502B093C602809110
:102D000064008E7F8093640080917A008064809359
:102D10007A0080917A0086FDFCCF009178001091B6
:102D200079000E945E09AB01BC01C801B0E0A0E0DF
:102D3000DC01992788278C019D01040F151F261F90
:102D4000371FC901B80120916400216020936400FD
:102D5000611571058105910511F00E944A24809149
:102D60002202813009F06DC00E94001080E090E0E6
:102D7000892BA9F30E940000F2CF1092B8023E986E
:102D80003F9888CF112331F004E0C016D10411F42C
:102D90002E9A2F9881E00E94C007EE24E39400E170
:102DA00028E540E857E0B60184E190E00E94580B26
:102DB0000E94550B8FE090E00E94280B2FEFC21A63
:102DC000D20A39E1C316D10409F072CF112311F0F0
:102DD0002F9A2D9880E991E00E94280B0E94260BE3
:102DE00081E090E00E94441180FF6CCF8AE090E087
:102DF0000E9444119FEF980F9E3F08F063CF22E39B
:102E000030E03093BE022093BD0228E330E03093DF
:102E1000BC022093BB020BE010E0682F8EE397E02A
:102E20000E94850CC8010E9444110F5F1F4F0131A1
:102E3000110599F70E94550B88EE93E00E94280B2C
:102E400041CF823009F063C020E030E040EC5FE326
:102E5000209300013093010140930201509303013C
:102E60000E94350BCC24C394D12CD0922002C09266
:102E70001F0213E010932102D0920702C0920602B3
:102E8000EE24E39400E320E64DE358E06AE070E0CE
:102E900081E190E00E94E80C0E94550B60ED77E024
:102EA00080E090E00E94830910925D0160E070E094
:102EB00080EC9FE30E94820D0E94770D81E090E0FC
:102EC0000E94520E10928C011092830181E090E0DA
:102ED0000E94AE1081E090E00E94E010D0921301B9
:102EE000C09212011092140110920801109209016F
:102EF00010920A0110920B0110920C0110920D0118
:102F000010920E0110920F01109322022FCF809188
:102F1000C702882399F02FB7F8948091BF0290914F
:102F2000C002A091C102B091C2022FBF892B8A2B8F
:102F30008B2B09F41BCF1092C70218CF8FB7F894D0
:102F40004091BF025091C0026091C1027091C202D3
:102F50008FBF8091C3029091C402A091C502B0912D
:102F6000C6028196A11DB11D84179507A607B70754
:102F700008F0FCCE0E94350B2FB7F8948091BF0269
:102F80009091C002A091C102B091C2022FBF809364
:102F9000C3029093C402A093C502B093C60210E08E
:102FA00000E0F12CE12C41E0B701C8010E94670C60
:102FB0003FEFE31AF30A4AE0E416F104A1F70F5FCA
:102FC0001F4F0F37110569F733E0C32ED12CB12CF9
:102FD000A12C809121028A151B0491F08CF0E12C28
:102FE00008E028E047EA5EE061E070E0C6010E9488
:102FF000580B5FEFA51AB50A8AE0C80ED11CE9CFBD
:103000008CE390E09093BE028093BD0281E090E05B
:103010009093BC028093BB0260E28EE397E00E9433
:10302000850C63E58EE397E00E94850C6AE38EE3EE
:1030300097E00E94850C80911F02909120020E94CF
:10304000A41060E28EE397E00E94850C63E48EE3B7
:1030500097E00E94850C6AE38EE397E00E94850C5E
:1030600060911B0270E090E080E04AE00E94840FD3
:1030700060E28EE397E00E94850C809118029091A7
:1030800019022091060230910702821B930B97FDD3
:103090003AC0909319028093180208E010E028E3E8
:1030A000E22EF12C41E0B701C8010E94670C9FEFAE
:1030B000E91AF90AA0E4EA16F104A1F70F5F1F4F1D
:1030C0000738110561F7E8E0F2E0FF87EE875F015E
:1030D000D12CC12C80911802909119028C199D0954
:1030E00097FF02C080589F4FD5012D915D0122307E
:1030F00009F4C3C058F42130A1F0E12C08E028E025
:103100004FE95EE013C08FE790E0C3CF233009F4AE
:10311000BAC0243091F7E12C08E028E04FE75EE0E8
:1031200005C0E12C08E028E047E95EE068E370E0D4
:103130000E94E80CB8E0CB0ED11CE0E8CE16D1041A
:1031400049F680911A028F5F883C09F4A2C08093EF
:103150001A0202EA11E01B870A87180110E000E05A
:10316000A0901E02B12C0A151B050CF098C0D101CD
:1031700018968C9181117BC00E94FB234B015C014E
:103180000E94FB2322E230E040E050E00E946924EC
:10319000665F7F4F072E000C880B990B0E947625E7
:1031A0006B017C01C501B40124E630E040E050E051
:1031B0000E946924665F7F4F072E000C880B990BD5
:1031C0000E9476254B015C01409092015090930142
:1031D0006090940170909501E0918E01F0918F01C3
:1031E000FF83EE83BF01FF0F880B990B0E947625AA
:1031F0009B01AC01C301B2010E94CC249B01AC0134
:10320000C501B4010E9426261816B4F46E817F8190
:10321000660F771F072E000C880B990B0E947625EE
:10322000A30192010E94CD249B01AC01C501B40110
:103230000E94392587FD1BC0D1018D929D92AD92D0
:10324000BC921397F101C482D582E682F7820E9474
:10325000FB2320E530E040E050E00E946924685DF7
:10326000D10119966C931997E1E01896EC930F5FD2
:103270001F4FFAE02F0E311C73CFE12C08E028E03D
:103280004FE85EE053CFE12C08E028E047E85EE03D
:103290004DCF10921A0281E080931E025ACFE2EACB
:1032A000F1E030E020E02A153B0551F081858150A6
:1032B0008187811101C010862F5F3F4F3A96F3CF6F
:1032C00082EAC82E81E0D82E912C812C8A149B048E
:1032D00039F1D60118968C9118978823D1F014965D
:1032E0006D917D918D919C9117970E943E252B01A8
:1032F000F60160817181828193810E943E25CB011C
:10330000EE24E39408E028E047E75EE0B2010E9483
:10331000580BFFEF8F1A9F0A0AE0C00ED11CD6CFC0
:1033200080918C018F5F80938C01823309F04AC0B9
:103330001092830180918301882319F18091820189
:103340008111EDC060917E0170917F0180918001BB
:10335000909181010E943E254B0160917A0170910C
:103360007B0180917C0190917D010E943E25CB01E3
:10337000EE24E39408E028E047EA5EE0B4010E940E
:10338000580B80917001882309F432C28091790131
:103390008F5F8093790120916E0130916F0127300A
:1033A00031050CF03CC1243031050CF0A0C52130B2
:1033B000310509F48FC12230310509F454C50E944A
:1033C000290ECDC1883C09F0B5CF10928C010E9426
:1033D000FB2324E630E040E050E00E94692485E0D1
:1033E000E3E3F2E0DE01119601900D928A95E1F798
:1033F000FE01319690E080E02191261708F489C003
:10340000182F0E94FB232EE630E040E050E00E949F
:103410006924665F7F4F8F4F9F4F0E947625609390
:103420007A0170937B0180937C0190937D010E94CF
:10343000FB2322E230E040E050E00E946924665F16
:103440007F4F8F4F9F4F0E94762560937E01709330
:103450007F01809380019093810180907A01909008
:103460007B01A0907C01B0907D0140909201509032
:1034700093016090940170909501E0908E01F0901E
:103480008F01B7010F2C000C880B990B0E94762539
:103490009B01AC01C301B2010E94CC249B01AC0191
:1034A000C501B4010E9426261816ACF4B701660FB8
:1034B000771F072E000C880B990B0E947625A3011D
:1034C00092010E94CD249B01AC01C501B4010E9470
:1034D000392587FD2FCF80E090E0A0E8BFE38093FF
:1034E000840190938501A0938601B093870120E029
:1034F00030E040EC5FE320938801309389014093F2
:103500008A0150938B011093820181E080938301A3
:1035100011CF01968530910509F06ECF0BCF813028
:1035200001F560917E0170917F0180918001909101
:1035300081010E943E254B0160917A0170917B01CF
:1035400080917C0190917D010E943E25CB01EE246B
:10355000E39408E028E04FE65EE0B4010E94E80C46
:1035600010CF8230E9F460917E0170917F018091EB
:103570008001909181010E943E254B0160917A016A
:1035800070917B0180917C0190917D010E943E258C
:10359000CB01EE24E39408E028E047E65EE0DDCFCF
:1035A0008330E9F460917E0170917F018091800108
:1035B000909181010E943E254B0160917A017091AA
:1035C0007B0180917C0190917D010E943E25CB0181
:1035D000EE24E39408E028E04FE55EE0BECF8430BF
:1035E00009F0CFCE60917E0170917F0180918001C2
:1035F000909181010E943E254B0160917A0170916A
:103600007B0180917C0190917D010E943E25CB0140
:10361000EE24E39408E028E047E55EE09ECF2A3000
:1036200031050CF0CCCE80917901893C08F097C02F
:103630000E94FB2322E030E040E050E00E94692439
:103640006B0180916A0190916B018C9DB0018D9D01
:10365000700D9C9D700D1124072E000C880B990B8A
:103660000E947625209162013091630140916401AE
:10367000509165010E94CD246093620170936301B3
:10368000809364019093650180916C0190916D012C
:103690008C9DB0018D9D700D9C9D700D1124072E89
:1036A000000C880B990B0E947625209166013091C1
:1036B000670140916801509169010E94CD24609397
:1036C00066017093670180936801909369010E947D
:1036D000E80D0AC4893C08F042C060916C01709109
:1036E0006D01072E000C880B990B0E9476259B011B
:1036F000AC016091660170916701809168019091C1
:1037000069010E94CD2460936601709367018093E4
:103710006801909369010E94A70D8823F1F06091E0
:103720006A0170916B01072E000C880B990B0E94A7
:1037300076259B01AC0160916201709163018091DB
:103740006401909165010E94CD24609362017093A1
:10375000630180936401909365010E94E80D1091CC
:103760006001F090610130905E0120905F01409017
:1037700066015090670160906801709069018090C7
:10378000620190906301A0906401B0906501C090C7
:103790006E01D0906F01B5E0CC0CDD1CBA95E1F75D
:1037A000A6014950534F6A01C301B2010E943E2550
:1037B0006E837F8388879987C501B4010E943E2567
:1037C000CB01EE24E394012F232DA6016E817F818E
:1037D0000E94E80CE12E032D122DA3019201C501D8
:1037E000B4010E94660E882319F089EC8093790158
:1037F00080915D018823F9F06091590170915A011F
:1038000080915B0190915C010E943E254B0160918B
:1038100055017091560180915701909158010E9475
:103820003E25CB01EE24E39408E028E04FE05DE084
:10383000B4010E94E80CA5E12A2EA1E03A2E610114
:1038400077247394D60153968C915397882309F467
:1038500092C380911401811126C4F0908D01FF2044
:1038600009F471C788E00E944A0B882309F468C4F0
:1038700080911401882309F469C480E20E944A0BF4
:103880008090920190909301A0909401B090950146
:10389000882309F499C420919A0130919B014091A9
:1038A0009C0150919D01C501B4010E94CC246093FC
:1038B00092017093930180939401909395010091EC
:1038C0009E0110919F012091A0013091A1010A8BCE
:1038D0001B8B2C8B3D8B2091960130919701409151
:1038E0009801509199016A897B898C899D890E94F0
:1038F000CD242B013C014092960150929701609299
:10390000980170929901009190011091910168E3E2
:1039100070E0601B710B072E000C880B990B0E9446
:1039200076254B015C01AC019B01C301B2010E94F1
:103930002626181644F48092960190929701A09240
:103940009801B092990120E030E040E251E46091AA
:1039500096017091970180919801909199010E9430
:10396000392587FF0CC080E090E0A0E2B1E48093AD
:10397000960190939701A0939801B093990120E04C
:1039800030E040EF52E46091920170919301809198
:103990009401909195010E942626181664F480E007
:1039A00090E0A0EFB2E48093920190939301A093F2
:1039B0009401B093950120E030E040E051E4609143
:1039C00092017091930180919401909195010E94D0
:1039D000392587FF0CC080E090E0A0E0B1E480933F
:1039E000920190939301A0939401B093950120913B
:1039F00096013091970140919801509199012E8341
:103A00003F8348875987409092015090930160907E
:103A1000940170909501CA01B9010E943E256E8BF8
:103A20007F8B888F998FC301B2010E943E25CB0105
:103A3000EE24E39420918E014BEF5CE06E897F8948
:103A40000E94E80CA50194016E817F81888599858B
:103A50000E94262687FD65C08A899B89AC89BD891D
:103A6000B05880939E0190939F01A093A001B093C2
:103A7000A10160E570E08EE690E00E940A0B0091E3
:103A8000180210911902D12CC12CB80117FF02C0E5
:103A900060587F4F6C5F7F4F072E000C880B990B8F
:103AA0000E9476254B015C0120E030E040E850E4C4
:103AB000C301B2010E94CC24A50194010E943925C2
:103AC00018160CF494C320E030E040E451E4C30144
:103AD000B2010E94CD249B01AC01C501B4010E943A
:103AE000392518160CF483C3F601E85FFD4F808179
:103AF000882309F47CC381508083F12C28E132E0D3
:103B0000E8E0F2E090E080E04191840F911D2E17F3
:103B10003F07D1F7892B11F40E94770DF1100E9415
:103B20004D0FC0909601D0909701E0909801F090D1
:103B3000990120E030E040E451E4C701B6010E9461
:103B4000392518168CF080919E0190919F01A091CB
:103B5000A001B091A101B05880939E0190939F0164
:103B6000A093A001B093A10180918301882309F45F
:103B7000D0C08090920190909301A0909401B09059
:103B8000950140907A0150907B0160907C0170908B
:103B90007D0120E030E040E051E4C501B4010E9425
:103BA000CD249B01AC01C301B2010E94392587FFDE
:103BB000B0C020E030E040E051E4C301B2010E9417
:103BC000CD249B01AC01C501B4010E94392587FFBA
:103BD000A0C080907E0190907F01A0908001B09065
:103BE000810120E030E040E051E4C701B6010E94CD
:103BF000CD249B01AC01C501B4010E94392587FF8A
:103C000088C020E030E040E051E4C501B4010E94EA
:103C1000CD249B01AC01C701B6010E94392587FF65
:103C200078C080918201811119C060E570E08BE05D
:103C300092E00E940A0B809121028F5F8093210203
:103C40001092830180E090E0A0E0B3E480937A01D9
:103C500090937B01A0937C01B0937D0180918201C0
:103C60008130B1F428E132E0E8E0F2E08191843083
:103C700020F4DF0111978F5F8C932E173F07B1F768
:103C800060E570E08BE092E00E940A0B10928301E5
:103C9000809182018230B1F428E132E0E8E0F2E084
:103CA0008191882321F0DF01119781508C932E1789
:103CB0003F07B1F760E570E083E890E00E940A0BEF
:103CC0001092830180918201833061F410921A0274
:103CD00080931E0260E570E086E091E00E940A0B8E
:103CE0001092830180918201843099F488E192E0FE
:103CF00024E0AE85BF852D93BF87AE878A179B07CB
:103D0000C1F760E570E08BE092E00E940A0B109230
:103D10008301C0909601D0909701E0909801F090B7
:103D200099018090920190909301A0909401B0909D
:103D3000950110E000E080911E028017110609F045
:103D40000CF49DC2EA85FB858085882309F483C035
:103D5000408051806280738020E030E040E051E498
:103D6000C501B4010E94CD249B01AC01C301B20185
:103D70000E94392587FF6FC020E030E040E051E429
:103D8000C301B2010E94CD249B01AC01C501B40165
:103D90000E94392587FF5FC0AA85BB8514964D9088
:103DA0005D906D907C90179720E030E040E051E40A
:103DB000C701B6010E94CD249B01AC01C301B20131
:103DC0000E94392587FF47C020E030E040E051E401
:103DD000C301B2010E94CD249B01AC01C701B60111
:103DE0000E94392587FF37C060E570E088E891E0E0
:103DF0000E940A0B80911B028F5F80931B02EA8551
:103E0000FB85108690911D028913FCC120E030E0F3
:103E100040EF52E4209355013093560140935701EF
:103E2000509358010E94FB2322E230E040E050E032
:103E30000E946924665F7F4F8F4F9F4F0E947625B7
:103E40006093590170935A0180935B0190935C01D8
:103E500031E030935D010F5F1F4FEA85FB853A9695
:103E6000FB87EA8768CF893C08F079CC60916A01CA
:103E700070916B01072E000C880B990B0E94762520
:103E8000209162013091630140916401509165017C
:103E90000E94CD246093620170936301809364015A
:103EA000909365010E94E80D8823F1F060916C0108
:103EB00070916D01072E000C880B990B0E947625DE
:103EC0009B01AC016091660170916701809168016E
:103ED000909169010E94CD246093660170936701FF
:103EE00080936801909369010E94A70D38CC893CAA
:103EF00008F099CB60916A0170916B01072E000C5C
:103F0000880B990B0E9476259B01AC0160916201A0
:103F10007091630180916401909165010E94CD24AC
:103F200060936201709363018093640190936501D3
:103F300060916C0170916D01072E000C880B990B3C
:103F40000E9476259B01AC0160916601709167012A
:103F500080916801909169010E94CD24609366016F
:103F60007093670180936801909369010E94E80D46
:103F70000E94A70D58CBF60181818F5F81839289C2
:103F8000992309F45AC066857785072E000C880BA3
:103F9000990B0E947625D60116962D913D914D9153
:103FA0005C9119970E94CD244B015C01F601868239
:103FB0009782A086B18620E030E0A9010E943925D1
:103FC00087FF03C0D60152961C92F601E480F5806B
:103FD000028113812285338544855585C501B4014D
:103FE0000E94660E882319F0D60152961C92F601A3
:103FF00062857385848595850E943E254B01D60197
:1040000016966D917D918D919C9119970E943E25F8
:10401000CB01EE24E394F6010481228147E05DE0C8
:10402000B4010E94E80CB4E1CB0ED11CE1E5F1E053
:10403000EC15FD0509F006CC0CCC9C91981798F76F
:1040400011961C92119750968D909C90092C000C03
:10405000AA08BB0881149104A104B10439F00E949C
:10406000FB23A50194010E9469244B018094909444
:10407000F601978686860E94FB232CE231E040E021
:1040800050E00E9469246C59D6016C9300E010E066
:1040900020E033E416960D931D932D933C931997CE
:1040A00052967C92C0CF6091100170911101072E41
:1040B000000C880B990B0E94762520910801309105
:1040C000090140910A0150910B010E94CD246B011E
:1040D0007C01C0920801D0920901E0920A01F0929D
:1040E0000B0120E030E0A9010E94392587FD0AC0BC
:1040F00020E030E040E053E4C701B6010E942626EC
:10410000181614F41092140160910C0170910D01B5
:1041100080910E0190910F010E943E254B01C70135
:10412000B6010E943E25CB01EE24E39400910601E6
:104130002091040143E05DE0B4010E94E80C8DCBC6
:1041400084E00E944A0B811193CB97CB809096011B
:1041500090909701A0909801B090990140909201A1
:1041600050909301609094017090950168E270E026
:1041700083E992E00E940A0B81E080931401C3015D
:10418000B2010E943E25072E000C880B990B0E945D
:104190007625609308017093090180930A0190933A
:1041A0000B01C501B4010E943E25072E000C880BAF
:1041B000990B0E94762560930C0170930D018093FA
:1041C0000E0190930F0159CB80E40E944A0B882383
:1041D00009F475CBA501940160919A0170919B013E
:1041E00080919C0190919D010E94CD2460CB3FEF76
:1041F000C31AD30A0850110940E1C416D10409F0CA
:1042000044CC7CCC90911C02891325CE41E0409394
:1042100028011092270140933C0110923B014093EA
:10422000500110924F0185E090E09093BE02809380
:10423000BD02AEE1B0E0B093BC02A093BB028EE839
:1042400092E00E94F30F0E94550B60910001709163
:10425000010180910201909103010E94820D8DE77E
:104260009AE00E94F70A60EA7FE080E090E00E9416
:1042700083090E94770DB1E0B0937001ECCD80917D
:104280005D01882309F428C1809055019090560162
:10429000A0905701B090580160918E0170918F01EC
:1042A00077FF02C06F5F7F4F75956795072E000CF3
:1042B000880B990B0E9476252091920130919301F1
:1042C00040919401509195010E94CD246B017C0195
:1042D000AC019B01C501B4010E94392587FFFCC0D8
:1042E0006091510170915201072E000C880B990BBF
:1042F0000E947625A50194010E94CD249B01AC016A
:10430000C701B6010E94392587FFE6C08090590198
:1043100090905A01A0905B01B0905C016091900177
:104320007091910177FF02C06F5F7F4F7595679520
:10433000072E000C880B990B0E9476252091960180
:104340003091970140919801509199010E94CD249C
:104350006B017C01AC019B01C501B4010E943925B0
:1043600087FFBAC06091530170915401072E000C71
:10437000880B990B0E947625A50194010E94CD24FB
:104380009B01AC01C701B6010E94392587FFA4C07B
:1043900080911F02909120026AE070E00E942B261B
:1043A000892B09F0D4C185EE9CE00E94F70A68EBE6
:1043B0007BE080E090E00E9483090E94350B84E25C
:1043C00090E09093BE028093BD02CC24C394D12C84
:1043D000D092BC02C092BB028DE992E00E94F30F22
:1043E00080911F02909120020E94A410EE24E39479
:1043F00000E320E64FE85AE06AE070E081E190E0F7
:104400000E94E80C0E94550B00911F02109120029F
:104410001093BA020093B90220E030E040E05FE37D
:10442000609100017091010180910201909103015E
:104430000E94CD24609300017093010180930201DA
:104440009093030120910602309107022F5F3F4FA6
:10445000263031050CF07EC130930702209306020E
:1044600020E030E040E050E40E942626181664F474
:1044700020E030E040EC5FE3209300013093010145
:104480004093020150930301C801019690932002CA
:1044900080931F020E94AE1010925D0180911F0256
:1044A000909120020E94E010609100017091010142
:1044B00080910201909103010E94820D0E94770D6C
:1044C00081E090E00E94520E60EA7FE080E090E0A0
:1044D0000E94830910925D0180917001882309F484
:1044E00085C08090620190906301A0906401B090BB
:1044F000650160918E0170918F0177FF02C06F5F3F
:104500007F4F75956795072E000C880B990B0E94BD
:104510007625209192013091930140919401509120
:1045200095010E94CD246B017C01AC019B01C5016A
:10453000B4010E94392587FF59C060915E017091D6
:104540005F01072E000C880B990B0E947625A501B0
:1045500094010E94CD249B01AC01C701B6010E94C9
:10456000392587FF43C08090660190906701A09035
:104570006801B0906901609190017091910177FF9D
:1045800002C06F5F7F4F75956795072E000C880BF3
:10459000990B0E94762520919601309197014091C8
:1045A0009801509199010E94CD246B017C01AC01CE
:1045B0009B01C501B4010E94392587FF17C0609196
:1045C000600170916101072E000C880B990B0E940D
:1045D0007625A50194010E94CD249B01AC01C70161
:1045E000B6010E94392587FD0E944D0F80919601EA
:1045F00090919701A0919801B09199018A879B872A
:10460000AC87BD8700919201109193012091940194
:10461000309195010E871F87288B398B80918E01F1
:1046200090918F0197FD019695958795C090900187
:10463000D0909101D7FE03C01FEFC11AD10AD594C3
:10464000C7949C01990F440B550B2E833F834887D9
:1046500059870D2C000CEE08FF08D10152968C9161
:104660005297882309F466C016964D905D906D9020
:104670007C9019976E817F81888599850E94762527
:104680002E853F85488959890E94CD244B015C01C4
:10469000AC019B01C301B2010E94392587FF4AC0CA
:1046A000F10162817381072E000C880B990B0E9427
:1046B0007625A30192010E94CD249B01AC01C50186
:1046C000B4010E94392587FF35C0D1011A964D905B
:1046D0005D906D907C901D97C701B6010E94762574
:1046E0002A853B854C855D850E94CD244B015C016C
:1046F000AC019B01C301B2010E94392587FF1AC09A
:10470000F10164817581072E000C880B990B0E94C2
:104710007625A30192010E94CD249B01AC01C50125
:10472000B4010E94392587FF05C00E944D0FD101B9
:1047300052961C92B4E12B0E311CE1E5F1E0E2153A
:10474000F30509F08ACF0E94550B0C94B6168FEC36
:104750009CE02BCED0920702C092060281CE8F92AF
:104760009F92AF92BF92CF92DF92EF92FF92CF9340
:10477000DF93EC01688179818A819B8161157105E4
:104780008105910521F464E279ED8BE597E02DE157
:1047900033EF41E050E00E94692449015A019B0136
:1047A000AC01A7EAB1E40E9488246B017C01ACEE65
:1047B000B4EFA50194010E949624C60ED71EE81EF0
:1047C000F91EF7FE06C081E0C81AD108E10880E8AA
:1047D000F80AC882D982EA82FB82C701B6019F77B4
:1047E000DF91CF91FF90EF90DF90CF90BF90AF908F
:1047F0009F908F9008958F929F92AF92BF92CF9289
:10480000DF92EF92FF9260912F02709130028091BF
:10481000310290913202611571058105910521F4F3
:1048200064E279ED8BE597E02DE133EF41E050E074
:104830000E94692449015A019B01AC01A7EAB1E435
:104840000E9488246B017C01ACEEB4EFA5019401B9
:104850000E949624C60ED71EE81EF91EF7FE06C05B
:1048600081E0C81AD108E10880E8F80AC0922F0256
:10487000D0923002E0923102F0923202C701B601CA
:104880009F77FF90EF90DF90CF90BF90AF909F9079
:104890008F90089560932F027093300280933102BD
:1048A000909332020895F999FECF92BD81BDF89A96
:1048B000992780B50895262FF999FECF1FBA92BD8A
:1048C00081BD20BD0FB6F894FA9AF99A0FBE0196F1
:1048D0000895052E97FB1EF400940E94802457FD36
:1048E00007D00E949B2407FC03D04EF40C94802434
:1048F00050954095309521953F4F4F4F5F4F08950C
:1049000090958095709561957F4F8F4F9F4F08953B
:104910000E94BD24A59F900DB49F900DA49F800D73
:10492000911D11240895B7FF0C9488240E948824B7
:10493000821B930B0895A1E21A2EAA1BBB1BFD013B
:104940000DC0AA1FBB1FEE1FFF1FA217B307E4076E
:10495000F50720F0A21BB30BE40BF50B661F771FC6
:10496000881F991F1A9469F76095709580959095A6
:104970009B01AC01BD01CF010895A29FB001B39F7F
:10498000C001A39F700D811D1124911DB29F700D58
:10499000811D1124911D08955058BB27AA270E94FC
:1049A000E4240C94EC250E94DE2538F00E94E525D5
:1049B00020F039F49F3F19F426F40C94DB250EF413
:1049C000E095E7FB0C94D525E92F0E94FD2558F3CF
:1049D000BA17620773078407950720F079F4A6F5E4
:1049E0000C941F260EF4E0950B2EBA2FA02D0B0170
:1049F000B90190010C01CA01A0011124FF27591B24
:104A000099F0593F50F4503E68F11A16F040A22F29
:104A1000232F342F4427585FF3CF4695379527959A
:104A2000A795F0405395C9F77EF41F16BA0B620B99
:104A3000730B840BBAF09150A1F0FF0FBB1F661FE0
:104A4000771F881FC2F70EC0BA0F621F731F841F23
:104A500048F4879577956795B795F7959E3F08F049
:104A6000B0CF9395880F08F09927EE0F979587950B
:104A700008950E94B12508F481E008950E9445251B
:104A80006894B1110C94202608950E94052688F0A0
:104A90009F5798F0B92F9927B751B0F0E1F0660F02
:104AA000771F881F991F1AF0BA95C9F714C0B13043
:104AB00091F00E941F26B1E008950C941F26672FE5
:104AC000782F8827B85F39F0B93FCCF38695779572
:104AD0006795B395D9F73EF490958095709561955B
:104AE0007F4F8F4F9F4F0895E89409C097FB3EF486
:104AF00090958095709561957F4F8F4F9F4F99232B
:104B0000A9F0F92F96E9BB279395F69587957795A8
:104B10006795B795F111F8CFFAF4BB0F11F460FF68
:104B20001BC06F5F7F4F8F4F9F4F16C0882311F0C0
:104B300096E911C0772321F09EE8872F762F05C0D4
:104B4000662371F096E8862F70E060E02AF09A956F
:104B5000660F771F881FDAF7880F9695879597F964
:104B60000895990F0008550FAA0BE0E8FEEF1616FE
:104B70001706E807F907C0F012161306E407F50751
:104B800098F0621B730B840B950B39F40A2661F0C5
:104B9000232B242B252B21F408950A2609F4A14068
:104BA000A6958FEF811D811D089597F99F6780E875
:104BB00070E060E008959FEF80EC089500240A946F
:104BC0001616170618060906089500240A941216E8
:104BD0001306140605060895092E0394000C11F41B
:104BE000882352F0BB0F40F4BF2B11F460FF04C0C8
:104BF0006F5F7F4F8F4F9F4F089557FD9058440F21
:104C0000551F59F05F3F71F04795880F97FB991F2B
:104C100061F09F3F79F087950895121613061406E8
:104C2000551FF2CF4695F1DF08C016161706180675
:104C3000991FF1CF86957105610508940895E89450
:104C4000BB2766277727CB0197F908950E94B125E6
:104C500008F48FEF089597FB072E16F4009407D001
:104C600077FD09D00E943F2607FC05D03EF49095C1
:104C700081959F4F0895709561957F4F0895AA1B68
:104C8000BB1B51E107C0AA1FBB1FA617B70710F037
:104C9000A61BB70B881F991F5A95A9F78095909569
:104CA000BC01CD010895EE0FFF1F0590F491E02D9A
:064CB0000994F894FFCF07
:104CB6000000C03F04000400000080420000804164
:104CC6000400010000000008000800000080420007
:104CD600008041FFFF0100000000000800080000FE
:104CE60000804200008041FFFF0100000000000834
:104CF6000008000000804200008041FFFF01000024
:104D060000080008000000F0420000004200100009
:104D160010000000004300000042010001000100F5
:104D2600000000000000000000000000004300003A
:104D36000042000000000000000000000000080023
:104D4600080000000043000000420000803F000011
:104D5600803F000080420000804100000000804249
:104D660000008041000000008042000080410000F9
:104D760000008042000080410000000080420000E8
:104D860080410000000080420000804100000000D9
:104D96008042000080410000000080420000804107
:104DA60000000000804200008041000000008042B8
:104DB6000000804100000100010203040304030215
:104DC600010201020303040380000000050A0A0130
:104DD600000301FFFFFFFF00E100000000000001EB
:104DE60000000005141E2D32010203040304030211
:104DF600010201020303040300C1808100000000D8
:104E06000000001E08B6093F0834088508430861FB
:104E16000800000000850C3109810F800F4A554DAE
:104E26005020424F593200207265636F72643A20F7
:104E36000050726573732041206F72204200456EE8
:104E4600656D7920617070656172732100537461BC
:044E560067653A0052
:00000001FF
